{
  "contractName": "Owned",
  "abi": [
    {
      "constant": true,
      "inputs": [],
      "name": "owner",
      "outputs": [
        {
          "name": "",
          "type": "address"
        }
      ],
      "payable": false,
      "stateMutability": "view",
      "type": "function"
    },
    {
      "constant": true,
      "inputs": [],
      "name": "newOwner",
      "outputs": [
        {
          "name": "",
          "type": "address"
        }
      ],
      "payable": false,
      "stateMutability": "view",
      "type": "function"
    },
    {
      "inputs": [],
      "payable": false,
      "stateMutability": "nonpayable",
      "type": "constructor"
    },
    {
      "anonymous": false,
      "inputs": [
        {
          "indexed": true,
          "name": "from",
          "type": "address"
        },
        {
          "indexed": true,
          "name": "to",
          "type": "address"
        }
      ],
      "name": "OwnershipTransferred",
      "type": "event"
    },
    {
      "constant": false,
      "inputs": [
        {
          "name": "_newOwner",
          "type": "address"
        }
      ],
      "name": "transferOwnership",
      "outputs": [],
      "payable": false,
      "stateMutability": "nonpayable",
      "type": "function"
    },
    {
      "constant": false,
      "inputs": [],
      "name": "acceptOwnership",
      "outputs": [],
      "payable": false,
      "stateMutability": "nonpayable",
      "type": "function"
    }
  ],
  "bytecode": "0x608060405234801561001057600080fd5b5060008054600160a060020a031916331790556101fc806100326000396000f3006080604052600436106100615763ffffffff7c010000000000000000000000000000000000000000000000000000000060003504166379ba509781146100665780638da5cb5b1461007d578063d4ee1d90146100ae578063f2fde38b146100c3575b600080fd5b34801561007257600080fd5b5061007b6100e4565b005b34801561008957600080fd5b5061009261016c565b60408051600160a060020a039092168252519081900360200190f35b3480156100ba57600080fd5b5061009261017b565b3480156100cf57600080fd5b5061007b600160a060020a036004351661018a565b600154600160a060020a031633146100fb57600080fd5b60015460008054604051600160a060020a0393841693909116917f8be0079c531659141344cd1fd0a4f28419497f9722a3daafe3b4186f6b6457e091a3600180546000805473ffffffffffffffffffffffffffffffffffffffff19908116600160a060020a03841617909155169055565b600054600160a060020a031681565b600154600160a060020a031681565b600054600160a060020a031633146101a157600080fd5b6001805473ffffffffffffffffffffffffffffffffffffffff1916600160a060020a03929092169190911790555600a165627a7a72305820d4e0d276a941f3726287422970826fca7c94964ac562a71f0ffca98e00f37baf0029",
  "source": "pragma solidity ^0.4.24;\n\n/**\n * Owned contract\n */\ncontract Owned {\n    address public owner;\n    address public newOwner;\n\n    event OwnershipTransferred(address indexed from, address indexed to);\n\n    /**\n     * Constructor\n     */\n    constructor() public {\n        owner = msg.sender;\n    }\n\n    /**\n     * @dev Only the owner of contract\n     */ \n    modifier onlyOwner {\n        require(msg.sender == owner);\n        _;\n    }\n    \n    /**\n     * @dev transfer the ownership to other\n     *      - Only the owner can operate\n     */ \n    function transferOwnership(address _newOwner) public onlyOwner {\n        newOwner = _newOwner;\n    }\n\n    /** \n     * @dev Accept the ownership from last owner\n     */ \n    function acceptOwnership() public {\n        require(msg.sender == newOwner);\n        emit OwnershipTransferred(owner, newOwner);\n        owner = newOwner;\n        newOwner = address(0);\n    }\n}",
  "sourcePath": "/Users/Kirn/Documents/Workspace/Dawn/tripio-roomnight/truffle/contracts/extensions/Owned.sol",
  "compiler": {
    "name": "solc",
    "version": "0.4.24+commit.e67f0147.Emscripten.clang"
  },
  "schemaVersion": "2.0.1",
  "updatedAt": "2018-08-31T07:11:19.131Z"
}