{
  "contractName": "TripioRoomNightAdmin",
  "abi": [
    {
      "constant": false,
      "inputs": [
        {
          "name": "_vendorId",
          "type": "uint256"
        },
        {
          "name": "_name",
          "type": "string"
        }
      ],
      "name": "updateVendorName",
      "outputs": [
        {
          "name": "",
          "type": "bool"
        }
      ],
      "payable": false,
      "stateMutability": "nonpayable",
      "type": "function"
    },
    {
      "constant": false,
      "inputs": [
        {
          "name": "_vendorId",
          "type": "uint256"
        }
      ],
      "name": "removeVendorById",
      "outputs": [
        {
          "name": "",
          "type": "bool"
        }
      ],
      "payable": false,
      "stateMutability": "nonpayable",
      "type": "function"
    },
    {
      "constant": false,
      "inputs": [
        {
          "name": "_vendor",
          "type": "address"
        },
        {
          "name": "_name",
          "type": "string"
        }
      ],
      "name": "addVendor",
      "outputs": [
        {
          "name": "",
          "type": "bool"
        }
      ],
      "payable": false,
      "stateMutability": "nonpayable",
      "type": "function"
    },
    {
      "constant": false,
      "inputs": [
        {
          "name": "_tokenId",
          "type": "uint256"
        }
      ],
      "name": "removeToken",
      "outputs": [
        {
          "name": "",
          "type": "bool"
        }
      ],
      "payable": false,
      "stateMutability": "nonpayable",
      "type": "function"
    },
    {
      "constant": false,
      "inputs": [
        {
          "name": "_vendor",
          "type": "address"
        }
      ],
      "name": "removeVendorByAddress",
      "outputs": [
        {
          "name": "",
          "type": "bool"
        }
      ],
      "payable": false,
      "stateMutability": "nonpayable",
      "type": "function"
    },
    {
      "constant": true,
      "inputs": [
        {
          "name": "_vendor",
          "type": "address"
        }
      ],
      "name": "getVendorByAddress",
      "outputs": [
        {
          "name": "_vendorId",
          "type": "uint256"
        },
        {
          "name": "_name",
          "type": "string"
        },
        {
          "name": "_timestamp",
          "type": "uint256"
        },
        {
          "name": "_valid",
          "type": "bool"
        }
      ],
      "payable": false,
      "stateMutability": "view",
      "type": "function"
    },
    {
      "constant": true,
      "inputs": [
        {
          "name": "_from",
          "type": "uint256"
        },
        {
          "name": "_limit",
          "type": "uint256"
        }
      ],
      "name": "getVendorIds",
      "outputs": [
        {
          "name": "",
          "type": "uint256[]"
        },
        {
          "name": "",
          "type": "uint256"
        }
      ],
      "payable": false,
      "stateMutability": "view",
      "type": "function"
    },
    {
      "constant": true,
      "inputs": [
        {
          "name": "_vendorId",
          "type": "uint256"
        }
      ],
      "name": "getVendor",
      "outputs": [
        {
          "name": "_name",
          "type": "string"
        },
        {
          "name": "_vendor",
          "type": "address"
        },
        {
          "name": "_timestamp",
          "type": "uint256"
        },
        {
          "name": "_valid",
          "type": "bool"
        }
      ],
      "payable": false,
      "stateMutability": "view",
      "type": "function"
    },
    {
      "constant": false,
      "inputs": [],
      "name": "acceptOwnership",
      "outputs": [],
      "payable": false,
      "stateMutability": "nonpayable",
      "type": "function"
    },
    {
      "constant": true,
      "inputs": [],
      "name": "owner",
      "outputs": [
        {
          "name": "",
          "type": "address"
        }
      ],
      "payable": false,
      "stateMutability": "view",
      "type": "function"
    },
    {
      "constant": false,
      "inputs": [
        {
          "name": "_vendorId",
          "type": "uint256"
        },
        {
          "name": "_valid",
          "type": "bool"
        }
      ],
      "name": "makeVendorValid",
      "outputs": [
        {
          "name": "",
          "type": "bool"
        }
      ],
      "payable": false,
      "stateMutability": "nonpayable",
      "type": "function"
    },
    {
      "constant": false,
      "inputs": [
        {
          "name": "_contract",
          "type": "address"
        }
      ],
      "name": "addToken",
      "outputs": [
        {
          "name": "",
          "type": "uint256"
        }
      ],
      "payable": false,
      "stateMutability": "nonpayable",
      "type": "function"
    },
    {
      "constant": true,
      "inputs": [],
      "name": "newOwner",
      "outputs": [
        {
          "name": "",
          "type": "address"
        }
      ],
      "payable": false,
      "stateMutability": "view",
      "type": "function"
    },
    {
      "constant": true,
      "inputs": [
        {
          "name": "_tokenId",
          "type": "uint256"
        }
      ],
      "name": "getToken",
      "outputs": [
        {
          "name": "_symbol",
          "type": "string"
        },
        {
          "name": "_name",
          "type": "string"
        },
        {
          "name": "_decimals",
          "type": "uint8"
        },
        {
          "name": "_token",
          "type": "address"
        }
      ],
      "payable": false,
      "stateMutability": "view",
      "type": "function"
    },
    {
      "constant": false,
      "inputs": [
        {
          "name": "_newOwner",
          "type": "address"
        }
      ],
      "name": "transferOwnership",
      "outputs": [],
      "payable": false,
      "stateMutability": "nonpayable",
      "type": "function"
    },
    {
      "constant": true,
      "inputs": [
        {
          "name": "_from",
          "type": "uint256"
        },
        {
          "name": "_limit",
          "type": "uint256"
        }
      ],
      "name": "supportedTokens",
      "outputs": [
        {
          "name": "",
          "type": "uint256[]"
        },
        {
          "name": "",
          "type": "uint256"
        }
      ],
      "payable": false,
      "stateMutability": "view",
      "type": "function"
    },
    {
      "inputs": [
        {
          "name": "_dataSource",
          "type": "address"
        }
      ],
      "payable": false,
      "stateMutability": "nonpayable",
      "type": "constructor"
    },
    {
      "anonymous": false,
      "inputs": [
        {
          "indexed": false,
          "name": "_uri",
          "type": "string"
        }
      ],
      "name": "TokenBaseURIChanged",
      "type": "event"
    },
    {
      "anonymous": false,
      "inputs": [
        {
          "indexed": true,
          "name": "_token",
          "type": "address"
        }
      ],
      "name": "TokenAdded",
      "type": "event"
    },
    {
      "anonymous": false,
      "inputs": [
        {
          "indexed": false,
          "name": "_index",
          "type": "uint256"
        }
      ],
      "name": "TokenRemoved",
      "type": "event"
    },
    {
      "anonymous": false,
      "inputs": [
        {
          "indexed": true,
          "name": "_vendor",
          "type": "address"
        },
        {
          "indexed": false,
          "name": "_name",
          "type": "string"
        }
      ],
      "name": "VendorAdded",
      "type": "event"
    },
    {
      "anonymous": false,
      "inputs": [
        {
          "indexed": true,
          "name": "_vendor",
          "type": "address"
        }
      ],
      "name": "VendorRemoved",
      "type": "event"
    },
    {
      "anonymous": false,
      "inputs": [
        {
          "indexed": true,
          "name": "_vendor",
          "type": "address"
        },
        {
          "indexed": false,
          "name": "_valid",
          "type": "bool"
        }
      ],
      "name": "VendorValid",
      "type": "event"
    },
    {
      "anonymous": false,
      "inputs": [
        {
          "indexed": true,
          "name": "_vendor",
          "type": "address"
        },
        {
          "indexed": false,
          "name": "_name",
          "type": "string"
        }
      ],
      "name": "VendorUpdated",
      "type": "event"
    },
    {
      "anonymous": false,
      "inputs": [
        {
          "indexed": true,
          "name": "from",
          "type": "address"
        },
        {
          "indexed": true,
          "name": "to",
          "type": "address"
        }
      ],
      "name": "OwnershipTransferred",
      "type": "event"
    },
    {
      "constant": false,
      "inputs": [
        {
          "name": "_uri",
          "type": "string"
        }
      ],
      "name": "updateBaseTokenURI",
      "outputs": [],
      "payable": false,
      "stateMutability": "nonpayable",
      "type": "function"
    },
    {
      "constant": false,
      "inputs": [],
      "name": "destroy",
      "outputs": [],
      "payable": false,
      "stateMutability": "nonpayable",
      "type": "function"
    }
  ],
  "bytecode": "0x608060405234801561001057600080fd5b506040516020806119c2833981016040525160008054600160a060020a0319908116331790915560028054600160a060020a03909316929091169190911790556119638061005f6000396000f3006080604052600436106100fb5763ffffffff7c010000000000000000000000000000000000000000000000000000000060003504166301de7a1c81146101005780631738c3ff146101385780631898a1c71461015057806336c5d7241461017d578063408aee811461019557806343defc10146101b65780634657d84814610265578063655391c9146102db57806365de1eb3146102fd57806379ba50971461037957806383197ef01461038e5780638da5cb5b146103a3578063b3d4e3f2146103d4578063d48bfca7146103f1578063d4ee1d9014610424578063e4b50cb814610439578063f2fde38b14610549578063f6b6daf11461056a575b600080fd5b34801561010c57600080fd5b50610124600480359060248035908101910135610585565b604080519115158252519081900360200190f35b34801561014457600080fd5b5061012460043561085e565b34801561015c57600080fd5b5061012460048035600160a060020a03169060248035908101910135610967565b34801561018957600080fd5b50610124600435610b9a565b3480156101a157600080fd5b50610124600160a060020a0360043516610d12565b3480156101c257600080fd5b506101d7600160a060020a0360043516610e74565b60408051858152908101839052811515606082015260806020808301828152865192840192909252855160a084019187019080838360005b8381101561022757818101518382015260200161020f565b50505050905090810190601f1680156102545780820380516001836020036101000a031916815260200191505b509550505050505060405180910390f35b34801561027157600080fd5b50610280600435602435610fed565b6040518080602001838152602001828103825284818151815260200191508051906020019060200280838360005b838110156102c65781810151838201526020016102ae565b50505050905001935050505060405180910390f35b3480156102e757600080fd5b506102fb6004803560248101910135611101565b005b34801561030957600080fd5b50610315600435611202565b604051808060200185600160a060020a0316600160a060020a0316815260200184815260200183151515158152602001828103825286818151815260200191508051906020019080838360008381101561022757818101518382015260200161020f565b34801561038557600080fd5b506102fb6112fd565b34801561039a57600080fd5b506102fb611385565b3480156103af57600080fd5b506103b86113aa565b60408051600160a060020a039092168252519081900360200190f35b3480156103e057600080fd5b5061012460043560243515156113b9565b3480156103fd57600080fd5b50610412600160a060020a0360043516611609565b60408051918252519081900360200190f35b34801561043057600080fd5b506103b8611712565b34801561044557600080fd5b50610451600435611721565b6040805160ff841691810191909152600160a060020a038216606082015260808082528551908201528451819060208083019160a084019189019080838360005b838110156104aa578181015183820152602001610492565b50505050905090810190601f1680156104d75780820380516001836020036101000a031916815260200191505b50838103825286518152865160209182019188019080838360005b8381101561050a5781810151838201526020016104f2565b50505050905090810190601f1680156105375780820380516001836020036101000a031916815260200191505b50965050505050505060405180910390f35b34801561055557600080fd5b506102fb600160a060020a0360043516611878565b34801561057657600080fd5b506102806004356024356118be565b600080548190606090600160a060020a031633146105a257600080fd5b6002546040805160e060020a6365de1eb3028152600481018990529051600160a060020a03909216916365de1eb39160248082019260009290919082900301818387803b1580156105f257600080fd5b505af1158015610606573d6000803e3d6000fd5b505050506040513d6000823e601f3d908101601f19168201604052608081101561062f57600080fd5b81019080805164010000000081111561064757600080fd5b8201602081018481111561065a57600080fd5b815164010000000081118282018710171561067457600080fd5b5050506020908101516002546040805160e460020a630e7dd975028152600160a060020a0380851660048301529151939850600096509116935063e7dd975092602480830193919282900301818787803b1580156106d157600080fd5b505af11580156106e5573d6000803e3d6000fd5b505050506040513d60208110156106fb57600080fd5b50511161070757600080fd5b84848080601f01602080910402602001604051908101604052809392919081815260200183838082843782019150505050505090506000815111801561074e575060c88151105b151561075957600080fd5b600254604080517f01de7a1c000000000000000000000000000000000000000000000000000000008152600481018981526024820192835260448201889052600160a060020a03909316926301de7a1c928a928a928a9290916064018484808284378201915050945050505050600060405180830381600087803b1580156107e057600080fd5b505af11580156107f4573d6000803e3d6000fd5b5050505081600160a060020a03167f5a267064c1d3bd94862199933cf0e19c0e03c66d83089c9e7abcca1585247e8586866040518080602001828103825284848281815260200192508082843760405192018290039550909350505050a250600195945050505050565b600080548190600160a060020a0316331461087857600080fd5b6002546040805160e060020a6365de1eb3028152600481018690529051600160a060020a03909216916365de1eb39160248082019260009290919082900301818387803b1580156108c857600080fd5b505af11580156108dc573d6000803e3d6000fd5b505050506040513d6000823e601f3d908101601f19168201604052608081101561090557600080fd5b81019080805164010000000081111561091d57600080fd5b8201602081018481111561093057600080fd5b815164010000000081118282018710171561094a57600080fd5b5050506020015192506109609150829050610d12565b9392505050565b60008054606090600160a060020a0316331461098257600080fd5b600160a060020a038516151561099757600080fd5b6002546040805160e460020a630e7dd975028152600160a060020a0388811660048301529151919092169163e7dd97509160248083019260209291908290030181600087803b1580156109e957600080fd5b505af11580156109fd573d6000803e3d6000fd5b505050506040513d6020811015610a1357600080fd5b505115610a1f57600080fd5b83838080601f016020809104026020016040519081016040528093929190818152602001838380828437820191505050505050905060008151118015610a66575060c88151105b1515610a7157600080fd5b6002546040517fe65d9717000000000000000000000000000000000000000000000000000000008152600160a060020a03878116602483015260006044830181905260606004840190815260648401889052919093169263e65d971792889288928b929091908190608401868680828437820191505095505050505050602060405180830381600087803b158015610b0857600080fd5b505af1158015610b1c573d6000803e3d6000fd5b505050506040513d6020811015610b3257600080fd5b50506040805160208082528101859052600160a060020a038716917f3bfb2a482f27320475ccb8d79591c7fad41a601402791a4194f05e5069d0ac039187918791908190810184848082843760405192018290039550909350505050a2506001949350505050565b60008054600160a060020a03163314610bb257600080fd5b600254604080517fa306cdeb000000000000000000000000000000000000000000000000000000008152600481018590529051600092600160a060020a03169163a306cdeb91602480830192602092919082900301818787803b158015610c1857600080fd5b505af1158015610c2c573d6000803e3d6000fd5b505050506040513d6020811015610c4257600080fd5b5051600160a060020a03161415610c5857600080fd5b600254604080517f36c5d724000000000000000000000000000000000000000000000000000000008152600481018590529051600160a060020a03909216916336c5d7249160248082019260009290919082900301818387803b158015610cbe57600080fd5b505af1158015610cd2573d6000803e3d6000fd5b50506040805185815290517f337873a743d1e7b8ab9c5375c7ecefc6e607c7c85882183a8d06cfa33f8786429350908190036020019150a1506001919050565b600080548190600160a060020a03163314610d2c57600080fd5b6002546040805160e460020a630e7dd975028152600160a060020a0386811660048301529151919092169163e7dd97509160248083019260209291908290030181600087803b158015610d7e57600080fd5b505af1158015610d92573d6000803e3d6000fd5b505050506040513d6020811015610da857600080fd5b5051905060008111610db957600080fd5b600254604080517f632261c3000000000000000000000000000000000000000000000000000000008152600481018490529051600160a060020a039092169163632261c39160248082019260009290919082900301818387803b158015610e1f57600080fd5b505af1158015610e33573d6000803e3d6000fd5b5050604051600160a060020a03861692507fceb8b5081e60cbeafb2db1ed5f2ef32309a5ba1d0d74ac127be270181f297e589150600090a250600192915050565b6002546040805160e460020a630e7dd975028152600160a060020a038481166004830152915160009360609385938493919092169163e7dd975091602480830192602092919082900301818787803b158015610ecf57600080fd5b505af1158015610ee3573d6000803e3d6000fd5b505050506040513d6020811015610ef957600080fd5b50516002546040805160e060020a6365de1eb3028152600481018490529051929650600160a060020a03909116916365de1eb39160248082019260009290919082900301818387803b158015610f4e57600080fd5b505af1158015610f62573d6000803e3d6000fd5b505050506040513d6000823e601f3d908101601f191682016040526080811015610f8b57600080fd5b810190808051640100000000811115610fa357600080fd5b82016020810184811115610fb657600080fd5b8151640100000000811182820187101715610fd057600080fd5b505060408201516060909201519799909850909695509350505050565b600254604080517fafdfb8040000000000000000000000000000000000000000000000000000000081526004810185905260248101849052600160448201529051606092600092600160a060020a039091169163afdfb80491606480820192869290919082900301818387803b15801561106657600080fd5b505af115801561107a573d6000803e3d6000fd5b505050506040513d6000823e601f3d908101601f1916820160409081528110156110a357600080fd5b8101908080516401000000008111156110bb57600080fd5b820160208101848111156110ce57600080fd5b81518560208202830111640100000000821117156110eb57600080fd5b5050602090910151909450925050509250929050565b600054600160a060020a0316331461111857600080fd5b6002546040517f2295ee5b00000000000000000000000000000000000000000000000000000000815260206004820190815260248201849052600160a060020a0390921691632295ee5b9185918591819060440184848082843782019150509350505050600060405180830381600087803b15801561119657600080fd5b505af11580156111aa573d6000803e3d6000fd5b505050507feb44d3cd28695bf80f91b729a9b18c4658ae3f971329ebfaf805f1006ed9308a82826040518080602001828103825284848281815260200192508082843760405192018290039550909350505050a15050565b6002546040805160e060020a6365de1eb302815260048101849052905160609260009283928392600160a060020a0316916365de1eb3916024808301928692919082900301818387803b15801561125857600080fd5b505af115801561126c573d6000803e3d6000fd5b505050506040513d6000823e601f3d908101601f19168201604052608081101561129557600080fd5b8101908080516401000000008111156112ad57600080fd5b820160208101848111156112c057600080fd5b81516401000000008111828201871017156112da57600080fd5b505060208201516040830151606090930151919a90995091975095509350505050565b600154600160a060020a0316331461131457600080fd5b60015460008054604051600160a060020a0393841693909116917f8be0079c531659141344cd1fd0a4f28419497f9722a3daafe3b4186f6b6457e091a3600180546000805473ffffffffffffffffffffffffffffffffffffffff19908116600160a060020a03841617909155169055565b600054600160a060020a0316331461139c57600080fd5b600054600160a060020a0316ff5b600054600160a060020a031681565b600080548190600160a060020a031633146113d357600080fd5b6002546040805160e060020a6365de1eb3028152600481018790529051600160a060020a03909216916365de1eb39160248082019260009290919082900301818387803b15801561142357600080fd5b505af1158015611437573d6000803e3d6000fd5b505050506040513d6000823e601f3d908101601f19168201604052608081101561146057600080fd5b81019080805164010000000081111561147857600080fd5b8201602081018481111561148b57600080fd5b81516401000000008111828201871017156114a557600080fd5b5050506020908101516002546040805160e460020a630e7dd975028152600160a060020a0380851660048301529151939750600096509116935063e7dd975092602480830193919282900301818787803b15801561150257600080fd5b505af1158015611516573d6000803e3d6000fd5b505050506040513d602081101561152c57600080fd5b50511161153857600080fd5b600254604080517fbff491800000000000000000000000000000000000000000000000000000000081526004810187905285151560248201529051600160a060020a039092169163bff491809160448082019260009290919082900301818387803b1580156115a657600080fd5b505af11580156115ba573d6000803e3d6000fd5b50506040805186151581529051600160a060020a03851693507f2df4517cd73069b4f57ad8d15b5dc7e4a06b36ee105b8bf05d33fac03f3fe95392509081900360200190a25060019392505050565b600080548190600160a060020a0316331461162357600080fd5b600160a060020a038316151561163857600080fd5b600254604080517ff0bd9ab5000000000000000000000000000000000000000000000000000000008152600160a060020a038681166004830152600060248301819052925193169263f0bd9ab592604480840193602093929083900390910190829087803b1580156116a957600080fd5b505af11580156116bd573d6000803e3d6000fd5b505050506040513d60208110156116d357600080fd5b5051604051909150600160a060020a038416907f784c8f4dbf0ffedd6e72c76501c545a70f8b203b30a26ce542bf92ba87c248a490600090a292915050565b600154600160a060020a031681565b600254604080517fe4b50cb800000000000000000000000000000000000000000000000000000000815260048101849052905160609283926000928392600160a060020a03169163e4b50cb8916024808301928692919082900301818387803b15801561178d57600080fd5b505af11580156117a1573d6000803e3d6000fd5b505050506040513d6000823e601f3d908101601f1916820160405260808110156117ca57600080fd5b8101908080516401000000008111156117e257600080fd5b820160208101848111156117f557600080fd5b815164010000000081118282018710171561180f57600080fd5b5050929190602001805164010000000081111561182b57600080fd5b8201602081018481111561183e57600080fd5b815164010000000081118282018710171561185857600080fd5b505060208201516040909201519498509650945091925050509193509193565b600054600160a060020a0316331461188f57600080fd5b6001805473ffffffffffffffffffffffffffffffffffffffff1916600160a060020a0392909216919091179055565b600254604080517feee948050000000000000000000000000000000000000000000000000000000081526004810185905260248101849052600160448201529051606092600092600160a060020a039091169163eee9480591606480820192869290919082900301818387803b15801561106657600080fd00a165627a7a72305820d41d32c36d956cbaf53f2b2de28988ffdca3921b1f2293956966227e6a8093d90029",
  "source": "pragma solidity ^0.4.24;\nimport \"./extensions/TRNVendors.sol\";\nimport \"./extensions/TRNTokens.sol\";\n\ncontract TripioRoomNightAdmin is TRNVendors, TRNTokens {\n    /**\n     * This emits when token base uri changed\n     */\n    event TokenBaseURIChanged(string _uri);\n\n    /**\n     * Constructor\n     */\n    constructor(address _dataSource) public {\n        // Init the data source\n        dataSource = TripioRoomNightData(_dataSource);\n    }\n\n     /**\n     * @dev Update the base URI of token asset\n     * @param _uri The base uri of token asset\n     */\n    function updateBaseTokenURI(string _uri) \n        external \n        onlyOwner {\n        dataSource.updateTokenBaseURI(_uri);\n        emit TokenBaseURIChanged(_uri);\n    }\n\n    /**\n     * @dev Destory the contract\n     */\n    function destroy() external onlyOwner {\n        selfdestruct(owner);\n    }\n}",
  "sourcePath": "/Users/Kirn/Documents/Workspace/Dawn/tripio-roomnight/truffle/contracts/TripioRoomNightAdmin.sol",
  "compiler": {
    "name": "solc",
    "version": "0.4.24+commit.e67f0147.Emscripten.clang"
  },
  "schemaVersion": "2.0.1",
  "updatedAt": "2018-08-31T07:11:19.120Z"
}