{
  "contractName": "TripioRoomNightData",
  "abi": [
    {
      "constant": true,
      "inputs": [
        {
          "name": "",
          "type": "address"
        }
      ],
      "name": "roomNightVendors",
      "outputs": [
        {
          "name": "length",
          "type": "uint256"
        },
        {
          "name": "index",
          "type": "uint256"
        }
      ],
      "payable": false,
      "stateMutability": "view",
      "type": "function"
    },
    {
      "constant": true,
      "inputs": [
        {
          "name": "",
          "type": "address"
        },
        {
          "name": "",
          "type": "address"
        }
      ],
      "name": "operatorApprovals",
      "outputs": [
        {
          "name": "",
          "type": "bool"
        }
      ],
      "payable": false,
      "stateMutability": "view",
      "type": "function"
    },
    {
      "constant": true,
      "inputs": [
        {
          "name": "",
          "type": "address"
        },
        {
          "name": "",
          "type": "uint256"
        }
      ],
      "name": "refundApplications",
      "outputs": [
        {
          "name": "",
          "type": "bool"
        }
      ],
      "payable": false,
      "stateMutability": "view",
      "type": "function"
    },
    {
      "constant": true,
      "inputs": [
        {
          "name": "",
          "type": "uint256"
        }
      ],
      "name": "roomnights",
      "outputs": [
        {
          "name": "vendorId",
          "type": "uint256"
        },
        {
          "name": "rpid",
          "type": "uint256"
        },
        {
          "name": "token",
          "type": "uint256"
        },
        {
          "name": "price",
          "type": "uint256"
        },
        {
          "name": "timestamp",
          "type": "uint256"
        },
        {
          "name": "date",
          "type": "uint256"
        },
        {
          "name": "ipfs",
          "type": "bytes32"
        }
      ],
      "payable": false,
      "stateMutability": "view",
      "type": "function"
    },
    {
      "constant": true,
      "inputs": [],
      "name": "interfaceSignature_ERC721",
      "outputs": [
        {
          "name": "",
          "type": "bytes4"
        }
      ],
      "payable": false,
      "stateMutability": "view",
      "type": "function"
    },
    {
      "constant": true,
      "inputs": [
        {
          "name": "",
          "type": "uint256"
        }
      ],
      "name": "roomNightApprovals",
      "outputs": [
        {
          "name": "",
          "type": "address"
        }
      ],
      "payable": false,
      "stateMutability": "view",
      "type": "function"
    },
    {
      "constant": true,
      "inputs": [],
      "name": "tokenBaseURI",
      "outputs": [
        {
          "name": "",
          "type": "string"
        }
      ],
      "payable": false,
      "stateMutability": "view",
      "type": "function"
    },
    {
      "constant": true,
      "inputs": [],
      "name": "interfaceSignature_ERC165",
      "outputs": [
        {
          "name": "",
          "type": "bytes4"
        }
      ],
      "payable": false,
      "stateMutability": "view",
      "type": "function"
    },
    {
      "constant": true,
      "inputs": [
        {
          "name": "",
          "type": "address"
        }
      ],
      "name": "authorizedContractIds",
      "outputs": [
        {
          "name": "",
          "type": "uint256"
        }
      ],
      "payable": false,
      "stateMutability": "view",
      "type": "function"
    },
    {
      "constant": true,
      "inputs": [],
      "name": "authorizedContractList",
      "outputs": [
        {
          "name": "length",
          "type": "uint256"
        },
        {
          "name": "index",
          "type": "uint256"
        }
      ],
      "payable": false,
      "stateMutability": "view",
      "type": "function"
    },
    {
      "constant": false,
      "inputs": [],
      "name": "acceptOwnership",
      "outputs": [],
      "payable": false,
      "stateMutability": "nonpayable",
      "type": "function"
    },
    {
      "constant": true,
      "inputs": [
        {
          "name": "",
          "type": "uint256"
        }
      ],
      "name": "authorizedContracts",
      "outputs": [
        {
          "name": "name",
          "type": "string"
        },
        {
          "name": "acontract",
          "type": "address"
        }
      ],
      "payable": false,
      "stateMutability": "view",
      "type": "function"
    },
    {
      "constant": true,
      "inputs": [],
      "name": "owner",
      "outputs": [
        {
          "name": "",
          "type": "address"
        }
      ],
      "payable": false,
      "stateMutability": "view",
      "type": "function"
    },
    {
      "constant": true,
      "inputs": [],
      "name": "tokenList",
      "outputs": [
        {
          "name": "length",
          "type": "uint256"
        },
        {
          "name": "index",
          "type": "uint256"
        }
      ],
      "payable": false,
      "stateMutability": "view",
      "type": "function"
    },
    {
      "constant": true,
      "inputs": [
        {
          "name": "",
          "type": "uint256"
        }
      ],
      "name": "tokenIndexToAddress",
      "outputs": [
        {
          "name": "",
          "type": "address"
        }
      ],
      "payable": false,
      "stateMutability": "view",
      "type": "function"
    },
    {
      "constant": true,
      "inputs": [],
      "name": "interfaceSignature_ERC721Metadata",
      "outputs": [
        {
          "name": "",
          "type": "bytes4"
        }
      ],
      "payable": false,
      "stateMutability": "view",
      "type": "function"
    },
    {
      "constant": true,
      "inputs": [],
      "name": "newOwner",
      "outputs": [
        {
          "name": "",
          "type": "address"
        }
      ],
      "payable": false,
      "stateMutability": "view",
      "type": "function"
    },
    {
      "constant": true,
      "inputs": [],
      "name": "vendorList",
      "outputs": [
        {
          "name": "length",
          "type": "uint256"
        },
        {
          "name": "index",
          "type": "uint256"
        }
      ],
      "payable": false,
      "stateMutability": "view",
      "type": "function"
    },
    {
      "constant": true,
      "inputs": [
        {
          "name": "",
          "type": "address"
        }
      ],
      "name": "vendorIds",
      "outputs": [
        {
          "name": "",
          "type": "uint256"
        }
      ],
      "payable": false,
      "stateMutability": "view",
      "type": "function"
    },
    {
      "constant": true,
      "inputs": [
        {
          "name": "",
          "type": "uint256"
        }
      ],
      "name": "roomNightIndexToOwner",
      "outputs": [
        {
          "name": "",
          "type": "address"
        }
      ],
      "payable": false,
      "stateMutability": "view",
      "type": "function"
    },
    {
      "constant": true,
      "inputs": [],
      "name": "ERC721_RECEIVED",
      "outputs": [
        {
          "name": "",
          "type": "bytes4"
        }
      ],
      "payable": false,
      "stateMutability": "view",
      "type": "function"
    },
    {
      "constant": false,
      "inputs": [
        {
          "name": "_newOwner",
          "type": "address"
        }
      ],
      "name": "transferOwnership",
      "outputs": [],
      "payable": false,
      "stateMutability": "nonpayable",
      "type": "function"
    },
    {
      "constant": true,
      "inputs": [
        {
          "name": "",
          "type": "address"
        }
      ],
      "name": "roomNightOwners",
      "outputs": [
        {
          "name": "length",
          "type": "uint256"
        },
        {
          "name": "index",
          "type": "uint256"
        }
      ],
      "payable": false,
      "stateMutability": "view",
      "type": "function"
    },
    {
      "inputs": [],
      "payable": false,
      "stateMutability": "nonpayable",
      "type": "constructor"
    },
    {
      "anonymous": false,
      "inputs": [
        {
          "indexed": false,
          "name": "_contract",
          "type": "address"
        }
      ],
      "name": "ContractAuthorized",
      "type": "event"
    },
    {
      "anonymous": false,
      "inputs": [
        {
          "indexed": false,
          "name": "_contract",
          "type": "address"
        }
      ],
      "name": "ContractDeauthorized",
      "type": "event"
    },
    {
      "anonymous": false,
      "inputs": [
        {
          "indexed": true,
          "name": "from",
          "type": "address"
        },
        {
          "indexed": true,
          "name": "to",
          "type": "address"
        }
      ],
      "name": "OwnershipTransferred",
      "type": "event"
    },
    {
      "constant": false,
      "inputs": [
        {
          "name": "_contract",
          "type": "address"
        },
        {
          "name": "_name",
          "type": "string"
        }
      ],
      "name": "authorizeContract",
      "outputs": [
        {
          "name": "",
          "type": "bool"
        }
      ],
      "payable": false,
      "stateMutability": "nonpayable",
      "type": "function"
    },
    {
      "constant": false,
      "inputs": [
        {
          "name": "_contract",
          "type": "address"
        }
      ],
      "name": "deauthorizeContract",
      "outputs": [
        {
          "name": "",
          "type": "bool"
        }
      ],
      "payable": false,
      "stateMutability": "nonpayable",
      "type": "function"
    },
    {
      "constant": false,
      "inputs": [
        {
          "name": "_cid",
          "type": "uint256"
        }
      ],
      "name": "deauthorizeContractById",
      "outputs": [
        {
          "name": "",
          "type": "bool"
        }
      ],
      "payable": false,
      "stateMutability": "nonpayable",
      "type": "function"
    },
    {
      "constant": true,
      "inputs": [
        {
          "name": "_from",
          "type": "uint256"
        },
        {
          "name": "_limit",
          "type": "uint256"
        }
      ],
      "name": "getAuthorizeContractIds",
      "outputs": [
        {
          "name": "",
          "type": "uint256[]"
        },
        {
          "name": "",
          "type": "uint256"
        }
      ],
      "payable": false,
      "stateMutability": "view",
      "type": "function"
    },
    {
      "constant": true,
      "inputs": [
        {
          "name": "_cid",
          "type": "uint256"
        }
      ],
      "name": "getAuthorizeContract",
      "outputs": [
        {
          "name": "_name",
          "type": "string"
        },
        {
          "name": "_acontract",
          "type": "address"
        }
      ],
      "payable": false,
      "stateMutability": "view",
      "type": "function"
    },
    {
      "constant": true,
      "inputs": [
        {
          "name": "_vendorId",
          "type": "uint256"
        },
        {
          "name": "_rpid",
          "type": "uint256"
        }
      ],
      "name": "getRatePlan",
      "outputs": [
        {
          "name": "_name",
          "type": "string"
        },
        {
          "name": "_timestamp",
          "type": "uint256"
        },
        {
          "name": "_ipfs",
          "type": "bytes32"
        }
      ],
      "payable": false,
      "stateMutability": "view",
      "type": "function"
    },
    {
      "constant": true,
      "inputs": [
        {
          "name": "_vendorId",
          "type": "uint256"
        },
        {
          "name": "_rpid",
          "type": "uint256"
        },
        {
          "name": "_date",
          "type": "uint256"
        },
        {
          "name": "_tokenId",
          "type": "uint256"
        }
      ],
      "name": "getPrice",
      "outputs": [
        {
          "name": "_inventory",
          "type": "uint16"
        },
        {
          "name": "_init",
          "type": "bool"
        },
        {
          "name": "_price",
          "type": "uint256"
        }
      ],
      "payable": false,
      "stateMutability": "view",
      "type": "function"
    },
    {
      "constant": true,
      "inputs": [
        {
          "name": "_vendorId",
          "type": "uint256"
        },
        {
          "name": "_rpid",
          "type": "uint256"
        },
        {
          "name": "_dates",
          "type": "uint256[]"
        },
        {
          "name": "_tokenId",
          "type": "uint256"
        }
      ],
      "name": "getPrices",
      "outputs": [
        {
          "name": "_inventories",
          "type": "uint16[]"
        },
        {
          "name": "_prices",
          "type": "uint256[]"
        }
      ],
      "payable": false,
      "stateMutability": "view",
      "type": "function"
    },
    {
      "constant": true,
      "inputs": [
        {
          "name": "_vendorId",
          "type": "uint256"
        },
        {
          "name": "_rpid",
          "type": "uint256"
        },
        {
          "name": "_date",
          "type": "uint256"
        }
      ],
      "name": "getInventory",
      "outputs": [
        {
          "name": "_inventory",
          "type": "uint16"
        },
        {
          "name": "_init",
          "type": "bool"
        }
      ],
      "payable": false,
      "stateMutability": "view",
      "type": "function"
    },
    {
      "constant": true,
      "inputs": [
        {
          "name": "_vendorId",
          "type": "uint256"
        },
        {
          "name": "_rpid",
          "type": "uint256"
        }
      ],
      "name": "ratePlanIsExist",
      "outputs": [
        {
          "name": "",
          "type": "bool"
        }
      ],
      "payable": false,
      "stateMutability": "view",
      "type": "function"
    },
    {
      "constant": true,
      "inputs": [
        {
          "name": "_owner",
          "type": "address"
        },
        {
          "name": "_from",
          "type": "uint256"
        },
        {
          "name": "_limit",
          "type": "uint256"
        },
        {
          "name": "_direction",
          "type": "bool"
        }
      ],
      "name": "getOrdersOfOwner",
      "outputs": [
        {
          "name": "",
          "type": "uint256[]"
        },
        {
          "name": "",
          "type": "uint256"
        }
      ],
      "payable": false,
      "stateMutability": "view",
      "type": "function"
    },
    {
      "constant": true,
      "inputs": [
        {
          "name": "_owner",
          "type": "address"
        },
        {
          "name": "_from",
          "type": "uint256"
        },
        {
          "name": "_limit",
          "type": "uint256"
        },
        {
          "name": "_direction",
          "type": "bool"
        }
      ],
      "name": "getOrdersOfVendor",
      "outputs": [
        {
          "name": "",
          "type": "uint256[]"
        },
        {
          "name": "",
          "type": "uint256"
        }
      ],
      "payable": false,
      "stateMutability": "view",
      "type": "function"
    },
    {
      "constant": true,
      "inputs": [
        {
          "name": "_owner",
          "type": "address"
        }
      ],
      "name": "balanceOf",
      "outputs": [
        {
          "name": "",
          "type": "uint256"
        }
      ],
      "payable": false,
      "stateMutability": "view",
      "type": "function"
    },
    {
      "constant": true,
      "inputs": [
        {
          "name": "_vendorId",
          "type": "uint256"
        },
        {
          "name": "_from",
          "type": "uint256"
        },
        {
          "name": "_limit",
          "type": "uint256"
        },
        {
          "name": "_direction",
          "type": "bool"
        }
      ],
      "name": "getRatePlansOfVendor",
      "outputs": [
        {
          "name": "",
          "type": "uint256[]"
        },
        {
          "name": "",
          "type": "uint256"
        }
      ],
      "payable": false,
      "stateMutability": "view",
      "type": "function"
    },
    {
      "constant": true,
      "inputs": [
        {
          "name": "_from",
          "type": "uint256"
        },
        {
          "name": "_limit",
          "type": "uint256"
        },
        {
          "name": "_direction",
          "type": "bool"
        }
      ],
      "name": "getTokens",
      "outputs": [
        {
          "name": "",
          "type": "uint256[]"
        },
        {
          "name": "",
          "type": "uint256"
        }
      ],
      "payable": false,
      "stateMutability": "view",
      "type": "function"
    },
    {
      "constant": true,
      "inputs": [
        {
          "name": "_tokenId",
          "type": "uint256"
        }
      ],
      "name": "getToken",
      "outputs": [
        {
          "name": "_symbol",
          "type": "string"
        },
        {
          "name": "_name",
          "type": "string"
        },
        {
          "name": "_decimals",
          "type": "uint8"
        },
        {
          "name": "_token",
          "type": "address"
        }
      ],
      "payable": false,
      "stateMutability": "view",
      "type": "function"
    },
    {
      "constant": true,
      "inputs": [
        {
          "name": "_from",
          "type": "uint256"
        },
        {
          "name": "_limit",
          "type": "uint256"
        },
        {
          "name": "_direction",
          "type": "bool"
        }
      ],
      "name": "getVendors",
      "outputs": [
        {
          "name": "",
          "type": "uint256[]"
        },
        {
          "name": "",
          "type": "uint256"
        }
      ],
      "payable": false,
      "stateMutability": "view",
      "type": "function"
    },
    {
      "constant": true,
      "inputs": [
        {
          "name": "_vendorId",
          "type": "uint256"
        }
      ],
      "name": "getVendor",
      "outputs": [
        {
          "name": "_name",
          "type": "string"
        },
        {
          "name": "_vendor",
          "type": "address"
        },
        {
          "name": "_timestamp",
          "type": "uint256"
        },
        {
          "name": "_valid",
          "type": "bool"
        }
      ],
      "payable": false,
      "stateMutability": "view",
      "type": "function"
    },
    {
      "constant": false,
      "inputs": [
        {
          "name": "_tokenBaseURI",
          "type": "string"
        }
      ],
      "name": "updateTokenBaseURI",
      "outputs": [],
      "payable": false,
      "stateMutability": "nonpayable",
      "type": "function"
    },
    {
      "constant": false,
      "inputs": [
        {
          "name": "_owner",
          "type": "address"
        },
        {
          "name": "_rnid",
          "type": "uint256"
        },
        {
          "name": "_direction",
          "type": "bool"
        }
      ],
      "name": "pushOrderOfOwner",
      "outputs": [],
      "payable": false,
      "stateMutability": "nonpayable",
      "type": "function"
    },
    {
      "constant": false,
      "inputs": [
        {
          "name": "_owner",
          "type": "address"
        },
        {
          "name": "_rnid",
          "type": "uint256"
        }
      ],
      "name": "removeOrderOfOwner",
      "outputs": [],
      "payable": false,
      "stateMutability": "nonpayable",
      "type": "function"
    },
    {
      "constant": false,
      "inputs": [
        {
          "name": "_vendor",
          "type": "address"
        },
        {
          "name": "_rnid",
          "type": "uint256"
        },
        {
          "name": "_direction",
          "type": "bool"
        }
      ],
      "name": "pushOrderOfVendor",
      "outputs": [],
      "payable": false,
      "stateMutability": "nonpayable",
      "type": "function"
    },
    {
      "constant": false,
      "inputs": [
        {
          "name": "_vendor",
          "type": "address"
        },
        {
          "name": "_rnid",
          "type": "uint256"
        }
      ],
      "name": "removeOrderOfVendor",
      "outputs": [],
      "payable": false,
      "stateMutability": "nonpayable",
      "type": "function"
    },
    {
      "constant": false,
      "inputs": [
        {
          "name": "_tokenId",
          "type": "uint256"
        },
        {
          "name": "_to",
          "type": "address"
        }
      ],
      "name": "transferTokenTo",
      "outputs": [],
      "payable": false,
      "stateMutability": "nonpayable",
      "type": "function"
    },
    {
      "constant": false,
      "inputs": [
        {
          "name": "_tokenId",
          "type": "uint256"
        },
        {
          "name": "_to",
          "type": "address"
        }
      ],
      "name": "approveTokenTo",
      "outputs": [],
      "payable": false,
      "stateMutability": "nonpayable",
      "type": "function"
    },
    {
      "constant": false,
      "inputs": [
        {
          "name": "_operator",
          "type": "address"
        },
        {
          "name": "_to",
          "type": "address"
        },
        {
          "name": "_approved",
          "type": "bool"
        }
      ],
      "name": "approveOperatorTo",
      "outputs": [],
      "payable": false,
      "stateMutability": "nonpayable",
      "type": "function"
    },
    {
      "constant": false,
      "inputs": [
        {
          "name": "_vendorId",
          "type": "uint256"
        },
        {
          "name": "_rpid",
          "type": "uint256"
        },
        {
          "name": "_tokenId",
          "type": "uint256"
        },
        {
          "name": "_price",
          "type": "uint256"
        }
      ],
      "name": "updateBasePrice",
      "outputs": [],
      "payable": false,
      "stateMutability": "nonpayable",
      "type": "function"
    },
    {
      "constant": false,
      "inputs": [
        {
          "name": "_vendorId",
          "type": "uint256"
        },
        {
          "name": "_rpid",
          "type": "uint256"
        },
        {
          "name": "_inventory",
          "type": "uint16"
        }
      ],
      "name": "updateBaseInventory",
      "outputs": [],
      "payable": false,
      "stateMutability": "nonpayable",
      "type": "function"
    },
    {
      "constant": false,
      "inputs": [
        {
          "name": "_vendorId",
          "type": "uint256"
        },
        {
          "name": "_rpid",
          "type": "uint256"
        },
        {
          "name": "_date",
          "type": "uint256"
        },
        {
          "name": "_tokenId",
          "type": "uint256"
        },
        {
          "name": "_price",
          "type": "uint256"
        }
      ],
      "name": "updatePrice",
      "outputs": [],
      "payable": false,
      "stateMutability": "nonpayable",
      "type": "function"
    },
    {
      "constant": false,
      "inputs": [
        {
          "name": "_vendorId",
          "type": "uint256"
        },
        {
          "name": "_rpid",
          "type": "uint256"
        },
        {
          "name": "_date",
          "type": "uint256"
        },
        {
          "name": "_inventory",
          "type": "uint16"
        }
      ],
      "name": "updateInventories",
      "outputs": [],
      "payable": false,
      "stateMutability": "nonpayable",
      "type": "function"
    },
    {
      "constant": false,
      "inputs": [
        {
          "name": "_vendorId",
          "type": "uint256"
        },
        {
          "name": "_rpid",
          "type": "uint256"
        },
        {
          "name": "_date",
          "type": "uint256"
        },
        {
          "name": "_inventory",
          "type": "uint16"
        }
      ],
      "name": "reduceInventories",
      "outputs": [],
      "payable": false,
      "stateMutability": "nonpayable",
      "type": "function"
    },
    {
      "constant": false,
      "inputs": [
        {
          "name": "_vendorId",
          "type": "uint256"
        },
        {
          "name": "_rpid",
          "type": "uint256"
        },
        {
          "name": "_date",
          "type": "uint256"
        },
        {
          "name": "_inventory",
          "type": "uint16"
        }
      ],
      "name": "addInventories",
      "outputs": [],
      "payable": false,
      "stateMutability": "nonpayable",
      "type": "function"
    },
    {
      "constant": false,
      "inputs": [
        {
          "name": "_vendorId",
          "type": "uint256"
        },
        {
          "name": "_rpid",
          "type": "uint256"
        },
        {
          "name": "_date",
          "type": "uint256"
        },
        {
          "name": "_tokenId",
          "type": "uint256"
        },
        {
          "name": "_price",
          "type": "uint256"
        },
        {
          "name": "_inventory",
          "type": "uint16"
        }
      ],
      "name": "updatePriceAndInventories",
      "outputs": [],
      "payable": false,
      "stateMutability": "nonpayable",
      "type": "function"
    },
    {
      "constant": false,
      "inputs": [
        {
          "name": "_vendorId",
          "type": "uint256"
        },
        {
          "name": "_name",
          "type": "string"
        },
        {
          "name": "_ipfs",
          "type": "bytes32"
        },
        {
          "name": "_direction",
          "type": "bool"
        }
      ],
      "name": "pushRatePlan",
      "outputs": [
        {
          "name": "",
          "type": "uint256"
        }
      ],
      "payable": false,
      "stateMutability": "nonpayable",
      "type": "function"
    },
    {
      "constant": false,
      "inputs": [
        {
          "name": "_vendorId",
          "type": "uint256"
        },
        {
          "name": "_rpid",
          "type": "uint256"
        }
      ],
      "name": "removeRatePlan",
      "outputs": [],
      "payable": false,
      "stateMutability": "nonpayable",
      "type": "function"
    },
    {
      "constant": false,
      "inputs": [
        {
          "name": "_vendorId",
          "type": "uint256"
        },
        {
          "name": "_rpid",
          "type": "uint256"
        },
        {
          "name": "_name",
          "type": "string"
        },
        {
          "name": "_ipfs",
          "type": "bytes32"
        }
      ],
      "name": "updateRatePlan",
      "outputs": [],
      "payable": false,
      "stateMutability": "nonpayable",
      "type": "function"
    },
    {
      "constant": false,
      "inputs": [
        {
          "name": "_contract",
          "type": "address"
        },
        {
          "name": "_direction",
          "type": "bool"
        }
      ],
      "name": "pushToken",
      "outputs": [
        {
          "name": "",
          "type": "uint256"
        }
      ],
      "payable": false,
      "stateMutability": "nonpayable",
      "type": "function"
    },
    {
      "constant": false,
      "inputs": [
        {
          "name": "_tokenId",
          "type": "uint256"
        }
      ],
      "name": "removeToken",
      "outputs": [],
      "payable": false,
      "stateMutability": "nonpayable",
      "type": "function"
    },
    {
      "constant": false,
      "inputs": [
        {
          "name": "_vendorId",
          "type": "uint256"
        },
        {
          "name": "_rpid",
          "type": "uint256"
        },
        {
          "name": "_date",
          "type": "uint256"
        },
        {
          "name": "_token",
          "type": "uint256"
        },
        {
          "name": "_price",
          "type": "uint256"
        },
        {
          "name": "_ipfs",
          "type": "bytes32"
        }
      ],
      "name": "generateRoomNightToken",
      "outputs": [
        {
          "name": "",
          "type": "uint256"
        }
      ],
      "payable": false,
      "stateMutability": "nonpayable",
      "type": "function"
    },
    {
      "constant": false,
      "inputs": [
        {
          "name": "_buyer",
          "type": "address"
        },
        {
          "name": "_rnid",
          "type": "uint256"
        },
        {
          "name": "_isRefund",
          "type": "bool"
        }
      ],
      "name": "updateRefundApplications",
      "outputs": [],
      "payable": false,
      "stateMutability": "nonpayable",
      "type": "function"
    },
    {
      "constant": false,
      "inputs": [
        {
          "name": "_name",
          "type": "string"
        },
        {
          "name": "_vendor",
          "type": "address"
        },
        {
          "name": "_direction",
          "type": "bool"
        }
      ],
      "name": "pushVendor",
      "outputs": [
        {
          "name": "",
          "type": "uint256"
        }
      ],
      "payable": false,
      "stateMutability": "nonpayable",
      "type": "function"
    },
    {
      "constant": false,
      "inputs": [
        {
          "name": "_vendorId",
          "type": "uint256"
        }
      ],
      "name": "removeVendor",
      "outputs": [],
      "payable": false,
      "stateMutability": "nonpayable",
      "type": "function"
    },
    {
      "constant": false,
      "inputs": [
        {
          "name": "_vendorId",
          "type": "uint256"
        },
        {
          "name": "_valid",
          "type": "bool"
        }
      ],
      "name": "updateVendorValid",
      "outputs": [],
      "payable": false,
      "stateMutability": "nonpayable",
      "type": "function"
    },
    {
      "constant": false,
      "inputs": [
        {
          "name": "_vendorId",
          "type": "uint256"
        },
        {
          "name": "_name",
          "type": "string"
        }
      ],
      "name": "updateVendorName",
      "outputs": [],
      "payable": false,
      "stateMutability": "nonpayable",
      "type": "function"
    }
  ],
  "bytecode": "0x6000608081905260a08190526006819055600781905560c081905260e0819052600b819055600c819055610140604052610100819052610120819052600f81905560105534801561004f57600080fd5b5060008054600160a060020a031916331781556040805160e08101825282815260208101838152918101838152606082018481526080830185815260a0840186815260c08501878152601180546001810182559852945160079097027f31ecc21a745e3968a04e9570e4425bc18fa8019c68028196b546d1669c200c6881019790975594517f31ecc21a745e3968a04e9570e4425bc18fa8019c68028196b546d1669c200c6987015591517f31ecc21a745e3968a04e9570e4425bc18fa8019c68028196b546d1669c200c6a860155517f31ecc21a745e3968a04e9570e4425bc18fa8019c68028196b546d1669c200c6b850155517f31ecc21a745e3968a04e9570e4425bc18fa8019c68028196b546d1669c200c6c84015590517f31ecc21a745e3968a04e9570e4425bc18fa8019c68028196b546d1669c200c6d830155517f31ecc21a745e3968a04e9570e4425bc18fa8019c68028196b546d1669c200c6e90910155613a58806101c36000396000f3006080604052600436106102fd5763ffffffff60e060020a60003504166301de7a1c8114610302578063074c32c41461036257806308099717146103c45780630d95e054146103fe578063114616141461043957806321be26ed146104b05780632295ee5b146104c857806325635b6814610521578063285434171461054357806330c709031461056757806335058a2a1461058b57806336c5d724146105b75780633bdf5878146105cf5780633f2e681c1461061f57806346edfd0a14610669578063491a79041461069d5780634cb0c7a1146106c15780634e99b80014610748578063544f43e3146107d25780635b12f1b6146107f55780635e0f9e06146108105780635ec5bc8e14610825578063600cf0d91461084e578063602b70011461087a578063632261c3146108a3578063644e8b24146108bb57806365de1eb3146109b45780636a38504314610a6f5780636b65a83414610a935780636bc1f1e414610aae5780636cd44d5514610ad95780636e861c0e14610b0257806370a0823114610b2357806371f27e2214610b4457806375bf759f14610b65578063762fdc0c14610b7a578063786e479914610c1b57806379ba509714610c365780637d9375b814610c4b5780637e5b4ebe14610cb25780638da5cb5b14610d5b578063900526b314610d705780639e2c58ca14610d88578063a306cdeb14610d9d578063a8150e7214610db5578063afdfb80414610dd9578063bbb7eb6414610df9578063be5e72e014610e1e578063bff4918014610e3f578063c1752ef114610e5c578063c472557714610e71578063c6f7037014610eb5578063d4ee1d9014610edc578063ddc00f3b14610ef1578063de5dead614610f06578063e4b50cb814610f2b578063e65d97171461103b578063e7dd9750146110a4578063e7f95c45146110c5578063ecc98ce4146110dd578063edb0bb3a146110f2578063ee76c2d614611116578063eee9480514611152578063f0bd9ab514611172578063f2fde38b14611198578063f3c505c2146111b9578063fed87711146111de575b600080fd5b34801561030e57600080fd5b5060408051602060046024803582810135601f81018590048502860185019096528585526103609583359536956044949193909101919081908401838280828437509497506111ff9650505050505050565b005b34801561036e57600080fd5b50604080516020600460443581810135601f810184900484028501840190955284845261036094823594602480359536959460649492019190819084018382808284375094975050933594506112549350505050565b3480156103d057600080fd5b506103e5600160a060020a03600435166112bd565b6040805192835260208301919091528051918290030190f35b34801561040a57600080fd5b50610425600160a060020a03600435811690602435166112d9565b604080519115158252519081900360200190f35b34801561044557600080fd5b5060408051602060046024803582810135601f810185900485028601850190965285855261049e9583359536956044949193909101919081908401838280828437509497505084359550505050506020013515156112f9565b60408051918252519081900360200190f35b3480156104bc57600080fd5b5061042560043561141d565b3480156104d457600080fd5b506040805160206004803580820135601f810184900484028501840190955284845261036094369492936024939284019190819084018382808284375094975061150e9650505050505050565b34801561052d57600080fd5b5061036060043560243561ffff60443516611556565b34801561054f57600080fd5b50610360600160a060020a03600435166024356115bc565b34801561057357600080fd5b50610425600160a060020a0360043516602435611648565b34801561059757600080fd5b50610360600160a060020a03600435811690602435166044351515611668565b3480156105c357600080fd5b506103606004356116d2565b3480156105db57600080fd5b506105e7600435611730565b604080519788526020880196909652868601949094526060860192909252608085015260a084015260c0830152519081900360e00190f35b34801561062b57600080fd5b50610634611780565b604080517fffffffff000000000000000000000000000000000000000000000000000000009092168252519081900360200190f35b34801561067557600080fd5b506106816004356117a4565b60408051600160a060020a039092168252519081900360200190f35b3480156106a957600080fd5b50610360600435600160a060020a03602435166117bf565b3480156106cd57600080fd5b506106ed600160a060020a0360043516602435604435606435151561182e565b6040518080602001838152602001828103825284818151815260200191508051906020019060200280838360005b8381101561073357818101518382015260200161071b565b50505050905001935050505060405180910390f35b34801561075457600080fd5b5061075d611863565b6040805160208082528351818301528351919283929083019185019080838360005b8381101561079757818101518382015260200161077f565b50505050905090810190601f1680156107c45780820380516001836020036101000a031916815260200191505b509250505060405180910390f35b3480156107de57600080fd5b506106ed60043560243560443560643515156118ee565b34801561080157600080fd5b506106ed60043560243561190f565b34801561081c57600080fd5b5061063461192c565b34801561083157600080fd5b50610360600160a060020a03600435166024356044351515611950565b34801561085a57600080fd5b506106ed600160a060020a03600435166024356044356064351515611a11565b34801561088657600080fd5b50610360600160a060020a03600435166024356044351515611a39565b3480156108af57600080fd5b50610360600435611a9f565b3480156108c757600080fd5b50604080516020600460443581810135838102808601850190965280855261091b9583359560248035963696956064959394920192918291850190849080828437509497505093359450611b5b9350505050565b604051808060200180602001838103835285818151815260200191508051906020019060200280838360005b8381101561095f578181015183820152602001610947565b50505050905001838103825284818151815260200191508051906020019060200280838360005b8381101561099e578181015183820152602001610986565b5050505090500194505050505060405180910390f35b3480156109c057600080fd5b506109cc600435611d88565b604051808060200185600160a060020a0316600160a060020a0316815260200184815260200183151515158152602001828103825286818151815260200191508051906020019080838360005b83811015610a31578181015183820152602001610a19565b50505050905090810190601f168015610a5e5780820380516001836020036101000a031916815260200191505b509550505050505060405180910390f35b348015610a7b57600080fd5b50610360600435600160a060020a0360243516611e61565b348015610a9f57600080fd5b50610425600435602435611ec0565b348015610aba57600080fd5b5061036060043560243560443560643560843561ffff60a43516611eea565b348015610ae557600080fd5b50610360600160a060020a03600435166024356044351515612013565b348015610b0e57600080fd5b50610425600160a060020a03600435166120ce565b348015610b2f57600080fd5b5061049e600160a060020a03600435166121c5565b348015610b5057600080fd5b5061049e600160a060020a03600435166121e3565b348015610b7157600080fd5b506103e56121f5565b348015610b8657600080fd5b50610b956004356024356121fe565b6040805160208082018590529181018390526060808252855190820152845190918291608083019187019080838360005b83811015610bde578181015183820152602001610bc6565b50505050905090810190601f168015610c0b5780820380516001836020036101000a031916815260200191505b5094505050505060405180910390f35b348015610c2757600080fd5b506103606004356024356122db565b348015610c4257600080fd5b50610360612372565b348015610c5757600080fd5b5060408051602060046024803582810135601f8101859004850286018501909652858552610425958335600160a060020a03169536956044949193909101919081908401838280828437509497506123ed9650505050505050565b348015610cbe57600080fd5b50610cca600435612507565b604051808060200183600160a060020a0316600160a060020a03168152602001828103825284818151815260200191508051906020019080838360005b83811015610d1f578181015183820152602001610d07565b50505050905090810190601f168015610d4c5780820380516001836020036101000a031916815260200191505b50935050505060405180910390f35b348015610d6757600080fd5b506106816125b7565b348015610d7c57600080fd5b50610cca6004356125c6565b348015610d9457600080fd5b506103e561269c565b348015610da957600080fd5b506106816004356126a5565b348015610dc157600080fd5b50610360600160a060020a03600435166024356126c0565b348015610de557600080fd5b506106ed600435602435604435151561274c565b348015610e0557600080fd5b5061036060043560243560443561ffff6064351661276a565b348015610e2a57600080fd5b506103606004356024356044356064356128f1565b348015610e4b57600080fd5b506103606004356024351515612963565b348015610e6857600080fd5b506106346129b7565b348015610e7d57600080fd5b50610e926004356024356044356064356129db565b6040805161ffff9094168452911515602084015282820152519081900360600190f35b348015610ec157600080fd5b5061049e60043560243560443560643560843560a435612a80565b348015610ee857600080fd5b50610681612c16565b348015610efd57600080fd5b506103e5612c25565b348015610f1257600080fd5b5061036060043560243560443561ffff60643516612c2e565b348015610f3757600080fd5b50610f43600435612daf565b6040805160ff841691810191909152600160a060020a038216606082015260808082528551908201528451819060208083019160a084019189019080838360005b83811015610f9c578181015183820152602001610f84565b50505050905090810190601f168015610fc95780820380516001836020036101000a031916815260200191505b50838103825286518152865160209182019188019080838360005b83811015610ffc578181015183820152602001610fe4565b50505050905090810190601f1680156110295780820380516001836020036101000a031916815260200191505b50965050505050505060405180910390f35b34801561104757600080fd5b506040805160206004803580820135601f810184900484028501840190955284845261049e94369492936024939284019190819084018382808284375094975050600160a060020a03853516955050505050602001351515612fed565b3480156110b057600080fd5b5061049e600160a060020a036004351661310f565b3480156110d157600080fd5b50610681600435613121565b3480156110e957600080fd5b5061063461313c565b3480156110fe57600080fd5b50610360600435602435604435606435608435613160565b34801561112257600080fd5b50611134600435602435604435613274565b6040805161ffff909316835290151560208301528051918290030190f35b34801561115e57600080fd5b506106ed60043560243560443515156132e0565b34801561117e57600080fd5b5061049e600160a060020a036004351660243515156132f1565b3480156111a457600080fd5b50610360600160a060020a036004351661336b565b3480156111c557600080fd5b5061036060043560243560443561ffff606435166133a4565b3480156111ea57600080fd5b506103e5600160a060020a03600435166134b2565b600054600160a060020a0316331480611225575033600090815260036020526040812054115b151561123057600080fd5b6000828152600960209081526040909120825161124f928401906138ea565b505050565b600054600160a060020a031633148061127a575033600090815260036020526040812054115b151561128557600080fd5b600084815260096020908152604080832086845260070182529091206002810183905583516112b6928501906138ea565b5050505050565b6014602052600090815260409020600181015460029091015482565b601660209081526000928352604080842090915290825290205460ff1681565b6000611303613968565b60008054600160a060020a031633148061132a575033600090815260036020526040812054115b151561133557600080fd5b604080516080810182528781524260208083019190915281830188905282518084018452600080825281830181905260608401919091528a815260099091529190912090925061138e906004018563ffffffff6134ce16565b6000888152600960209081526040808320848452600701825290912084518051939450859391926113c4928492909101906138ea565b5060208281015160018301556040830151600283015560609092015180516003909201805491909301511515620100000262ff00001961ffff90931661ffff199092169190911791909116179055915050949350505050565b600080548190600160a060020a0316331461143757600080fd5b8261144960058263ffffffff6134f616565b151561145457600080fd5b600084815260046020526040902060010154600160a060020a0316915061148260058563ffffffff61356e16565b50600160a060020a038216600090815260036020908152604080832083905586835260049091528120906114b68282613999565b506001018054600160a060020a031916905560408051600160a060020a038416815290517f54142b7cb3ceaa9e564243ce4cc2303723c842a1144192de6b3c594f68b16a9a9181900360200190a15060019392505050565b600054600160a060020a0316331480611534575033600090815260036020526040812054115b151561153f57600080fd5b80516115529060029060208401906138ea565b5050565b600054600160a060020a031633148061157c575033600090815260036020526040812054115b151561158757600080fd5b6000928352600960209081526040808520938552600790930190529120600301805461ffff191661ffff909216919091179055565b600054600160a060020a03163314806115e2575033600090815260036020526040812054115b15156115ed57600080fd5b600160a060020a0382166000908152601360205260409020611615908263ffffffff6134f616565b151561162057600080fd5b600160a060020a038216600090815260136020526040902061124f908263ffffffff61356e16565b601760209081526000928352604080842090915290825290205460ff1681565b600054600160a060020a031633148061168e575033600090815260036020526040812054115b151561169957600080fd5b600160a060020a039182166000908152601660209081526040808320959094168252939093529120805460ff1916911515919091179055565b600054600160a060020a03163314806116f8575033600090815260036020526040812054115b151561170357600080fd5b6000818152600d602052604090208054600160a060020a0319169055611552600e8263ffffffff61356e16565b601180548290811061173e57fe5b90600052602060002090600702016000915090508060000154908060010154908060020154908060030154908060040154908060050154908060060154905087565b7f80ac58cd0000000000000000000000000000000000000000000000000000000081565b601560205260009081526040902054600160a060020a031681565b600054600160a060020a03163314806117e5575033600090815260036020526040812054115b15156117f057600080fd5b60009182526012602090815260408084208054600160a060020a03909416600160a060020a0319948516179055601590915290912080549091169055565b600160a060020a038416600090815260146020526040812060609190611856908686866135f8565b9150915094509492505050565b6002805460408051602060018416156101000260001901909316849004601f810184900484028201840190925281815292918301828280156118e65780601f106118bb576101008083540402835291602001916118e6565b820191906000526020600020905b8154815290600101906020018083116118c957829003601f168201915b505050505081565b600084815260096020526040812060609190611856906004018686866135f8565b606060006119216005858560016135f8565b915091509250929050565b7f01ffc9a70000000000000000000000000000000000000000000000000000000081565b600054600160a060020a0316331480611976575033600090815260036020526040812054115b151561198157600080fd5b600160a060020a03831660009081526013602052604090206119a29061381e565b15156119e25760408051808201825260008082526020808301828152600160a060020a038816835260139091529290209051600182015590516002909101555b600160a060020a0383166000908152601360205260409020611a0b90838363ffffffff61382816565b50505050565b600160a060020a038416600090815260136020526040812060609190611856908686866135f8565b600054600160a060020a0316331480611a5f575033600090815260036020526040812054115b1515611a6a57600080fd5b600160a060020a0392909216600090815260176020908152604080832093835292905220805460ff1916911515919091179055565b60008054600160a060020a0316331480611ac6575033600090815260036020526040812054115b1515611ad157600080fd5b611ae2600a8363ffffffff61356e16565b505060008181526009602081815260408084206001810154600160a060020a0316808652600884529185208590558585529290915291611b228282613999565b50600181018054600160a060020a031916905560006002820181905560038201805460ff19169055600582018190556006909101555050565b60608060608060008060008060008a51604051908082528060200260200182016040528015611b94578160200160208202803883390190505b5096508a51604051908082528060200260200182016040528015611bc2578160200160208202803883390190505b509550600093505b8a51841015611d75578a84815181101515611be157fe5b906020019060200201519450600960008e815260200190815260200160002060070160008d8152602001908152602001600020600501600086815260200190815260200160002060000160009054906101000a900461ffff169250600960008e815260200190815260200160002060070160008d8152602001908152602001600020600501600086815260200190815260200160002060000160029054906101000a900460ff169150600960008e815260200190815260200160002060070160008d8152602001908152602001600020600501600086815260200190815260200160002060010160008b8152602001908152602001600020549050811515611d2f5750505060008a81526009602090815260408083208c845260070180835281842060038101548c86526004909101845291842054938d905290915261ffff8116916201000090910460ff16905b828785815181101515611d3e57fe5b61ffff90921660209283029091019091015285518190879086908110611d6057fe5b60209081029091010152600190930192611bca565b50949b939a509298505050505050505050565b60008181526009602090815260408083208054825160026001831615610100026000190190921691909104601f8101859004850282018501909352828152606094938493849391830182828015611e205780601f10611df557610100808354040283529160200191611e20565b820191906000526020600020905b815481529060010190602001808311611e0357829003601f168201915b5050506000978852505060096020526040909520600181015460028201546003909201549697600160a060020a039091169691955060ff9091169350915050565b600054600160a060020a0316331480611e87575033600090815260036020526040812054115b1515611e9257600080fd5b6000918252601560205260409091208054600160a060020a031916600160a060020a03909216919091179055565b6000828152600960205260408120611ee1906004018363ffffffff6134f616565b90505b92915050565b600054600160a060020a0316331480611f10575033600090815260036020526040812054115b1515611f1b57600080fd5b6000868152600960209081526040808320888452600701825280832087845260050190915290205462010000900460ff1615611f9a57600086815260096020908152604080832088845260070182528083208784526005018252808320805461ffff191661ffff8616178155868452600101909152902082905561200b565b60408051808201825261ffff83811682526001602080840182815260008c8152600983528681208c825260070183528681208b8252600501835286812095518654925161ffff1990931695169490941762ff0000191662010000911515919091021784558783529201909152208290555b505050505050565b600054600160a060020a0316331480612039575033600090815260036020526040812054115b151561204457600080fd5b600160a060020a03831660009081526014602052604090206120659061381e565b15156120a55760408051808201825260008082526020808301828152600160a060020a038816835260149091529290209051600182015590516002909101555b600160a060020a0383166000908152601460205260409020611a0b90838363ffffffff61382816565b600080548190600160a060020a031633146120e857600080fd5b600160a060020a03831660009081526003602052604081205484911061210d57600080fd5b600160a060020a038416600090815260036020526040902054915061213960058363ffffffff61356e16565b50600160a060020a0384166000908152600360209081526040808320839055848352600490915281209061216d8282613999565b506001018054600160a060020a031916905560408051600160a060020a038616815290517f54142b7cb3ceaa9e564243ce4cc2303723c842a1144192de6b3c594f68b16a9a9181900360200190a15060019392505050565b600160a060020a031660009081526013602052604090206001015490565b60036020526000908152604090205481565b60065460075482565b6000828152600960209081526040808320848452600701825280832080548251601f600260001961010060018616150201909316929092049182018590048502810185019093528083526060949384939291908301828280156122a25780601f10612277576101008083540402835291602001916122a2565b820191906000526020600020905b81548152906001019060200180831161228557829003601f168201915b50505060009788525050600960209081526040808820968852600790960190529390942060018101546002909101549395909450915050565b600054600160a060020a0316331480612301575033600090815260036020526040812054115b151561230c57600080fd5b60008281526009602090815260408083208484526007019091528120906123338282613999565b50600060018201819055600282018190556003909101805462ffffff1916905582815260096020526040902061124f906004018263ffffffff61356e16565b600154600160a060020a0316331461238957600080fd5b60015460008054604051600160a060020a0393841693909116917f8be0079c531659141344cd1fd0a4f28419497f9722a3daafe3b4186f6b6457e091a36001805460008054600160a060020a0319908116600160a060020a03841617909155169055565b6000805481908190600160a060020a0316331461240957600080fd5b843b915081151561241957600080fd5b600160a060020a0385166000908152600360205260409020541561243c57600080fd5b61244e6005600063ffffffff6134ce16565b600160a060020a038616600081815260036020908152604080832085905580518082018252898152808301949094528483526004825290912082518051949550929390926124a09284929101906138ea565b506020918201516001919091018054600160a060020a031916600160a060020a03928316179055604080519188168252517f8983a1f3c3cb45c24c8226b5b805e3b6eb49686530b808534b2a920129eff651929181900390910190a1506001949350505050565b60046020908152600091825260409182902080548351601f6002600019610100600186161502019093169290920491820184900484028101840190945280845290929183919083018282801561259e5780601f106125735761010080835404028352916020019161259e565b820191906000526020600020905b81548152906001019060200180831161258157829003601f168201915b50505060019093015491925050600160a060020a031682565b600054600160a060020a031681565b606060006125d26139e0565b6000848152600460209081526040918290208251815460026001821615610100026000190190911604601f810184900490930281016060908101855293810183815290939192849284919084018282801561266e5780601f106126435761010080835404028352916020019161266e565b820191906000526020600020905b81548152906001019060200180831161265157829003601f168201915b505050918352505060019190910154600160a060020a03166020918201528151910151909590945092505050565b600f5460105482565b600d60205260009081526040902054600160a060020a031681565b600054600160a060020a03163314806126e6575033600090815260036020526040812054115b15156126f157600080fd5b600160a060020a0382166000908152601460205260409020612719908263ffffffff6134f616565b151561272457600080fd5b600160a060020a038216600090815260146020526040902061124f908263ffffffff61356e16565b6060600061275d600a8686866135f8565b915091505b935093915050565b60008054600160a060020a0316331480612791575033600090815260036020526040812054115b151561279c57600080fd5b506000848152600960209081526040808320868452600701825280832085845260050190915281205462010000900460ff161561285157506000848152600960209081526040808320868452600701825280832085845260050190915290205461ffff908116820190828116908216101561281657600080fd5b600085815260096020908152604080832087845260070182528083208684526005019091529020805461ffff191661ffff83161790556112b6565b600085815260096020908152604080832087845260070190915290206003015462010000900460ff16156112b65750600084815260096020908152604080832086845260070190915290206003015461ffff90811682019082811690821610156128ba57600080fd5b60008581526009602090815260408083208784526007019091529020600301805461ffff831661ffff199091161790555050505050565b600054600160a060020a0316331480612917575033600090815260036020526040812054115b151561292257600080fd5b60009384526009602090815260408086209486526007909401815283852060038101805462ff00001916620100001790559285526004909201909152912055565b600054600160a060020a0316331480612989575033600090815260036020526040812054115b151561299457600080fd5b600091825260096020526040909120600301805460ff1916911515919091179055565b7f5b5e139f0000000000000000000000000000000000000000000000000000000081565b600084815260096020908152604080832086845260070182528083208584526005018252808320805485855260019091019092529091205461ffff82169162010000900460ff1690811515612a76575050506000848152600960209081526040808320868452600701808352818420600381015486865260049091018452918420549387905290915261ffff8116916201000090910460ff16905b9450945094915050565b600080548190600160a060020a0316331480612aa9575033600090815260036020526040812054115b1515612ab457600080fd5b50506040805160e08101825296875260208701958652860192835260608601918252426080870190815260a0870194855260c0870191825260118054600181018255600082905297517f31ecc21a745e3968a04e9570e4425bc18fa8019c68028196b546d1669c200c6860079099029889015595517f31ecc21a745e3968a04e9570e4425bc18fa8019c68028196b546d1669c200c6988015592517f31ecc21a745e3968a04e9570e4425bc18fa8019c68028196b546d1669c200c6a87015590517f31ecc21a745e3968a04e9570e4425bc18fa8019c68028196b546d1669c200c6b86015590517f31ecc21a745e3968a04e9570e4425bc18fa8019c68028196b546d1669c200c6c85015590517f31ecc21a745e3968a04e9570e4425bc18fa8019c68028196b546d1669c200c6d840155517f31ecc21a745e3968a04e9570e4425bc18fa8019c68028196b546d1669c200c6e90920191909155546000190190565b600154600160a060020a031681565b600b54600c5482565b60008054600160a060020a0316331480612c55575033600090815260036020526040812054115b1515612c6057600080fd5b506000848152600960209081526040808320868452600701825280832085845260050190915281205462010000900460ff1615612d1257506000848152600960209081526040808320868452600701825280832085845260050190915290205461ffff908116908216811015612cd557600080fd5b600085815260096020908152604080832087845260070182528083208684526005019091529020805461ffff191683830361ffff161790556112b6565b600085815260096020908152604080832087845260070190915290206003015462010000900460ff16156112b65750600084815260096020908152604080832086845260070190915290206003015461ffff908116908216811015612d7657600080fd5b60008581526009602090815260408083208784526007019091529020600301805461ffff8484031661ffff199091161790555050505050565b6000818152600d60205260408082205481517f95d89b41000000000000000000000000000000000000000000000000000000008152915160609384939092600160a060020a031691829182916395d89b4191600480820192889290919082900301818387803b158015612e2157600080fd5b505af1158015612e35573d6000803e3d6000fd5b505050506040513d6000823e601f3d908101601f191682016040526020811015612e5e57600080fd5b810190808051640100000000811115612e7657600080fd5b82016020810184811115612e8957600080fd5b8151640100000000811182820187101715612ea357600080fd5b5050929190505050945080600160a060020a03166306fdde036040518163ffffffff1660e060020a028152600401600060405180830381600087803b158015612eeb57600080fd5b505af1158015612eff573d6000803e3d6000fd5b505050506040513d6000823e601f3d908101601f191682016040526020811015612f2857600080fd5b810190808051640100000000811115612f4057600080fd5b82016020810184811115612f5357600080fd5b8151640100000000811182820187101715612f6d57600080fd5b5050929190505050935080600160a060020a031663313ce5676040518163ffffffff1660e060020a028152600401602060405180830381600087803b158015612fb557600080fd5b505af1158015612fc9573d6000803e3d6000fd5b505050506040513d6020811015612fdf57600080fd5b505194969395509092915050565b600080548190600160a060020a0316331480613016575033600090815260036020526040812054115b151561302157600080fd5b613032600a8463ffffffff6134ce16565b600160a060020a0385166000818152600860209081526040808320859055805160a0810182528a8152808301949094524284820152600160608501528051808201825283815280830184905260808501528483526009825290912082518051949550929390926130a69284929101906138ea565b50602082810151600183018054600160a060020a031916600160a060020a0390921691909117905560408301516002830155606083015160038301805460ff19169115159190911790556080909201518051600583015590910151600690910155949350505050565b60086020526000908152604090205481565b601260205260009081526040902054600160a060020a031681565b7ff0b9e5ba0000000000000000000000000000000000000000000000000000000081565b600054600160a060020a0316331480613186575033600090815260036020526040812054115b151561319157600080fd5b6000858152600960209081526040808320878452600701825280832086845260050190915290205462010000900460ff16156132015760008581526009602090815260408083208784526007018252808320868452600501825280832085845260010190915290208190556112b6565b6040805180820182526000808252600160208084018281528a8452600982528584208a8552600701825285842089855260050182528584209451855491511515620100000262ff00001961ffff9290921661ffff1990931692909217161784558683529201909152208190555050505050565b6000838152600960209081526040808320858452600701825280832084845260050190915290205461ffff81169062010000900460ff1680151561276257600085815260096020908152604080832087845260070190915290206003015461ffff169150935093915050565b6060600061275d600e8686866135f8565b600080548190600160a060020a031633148061331a575033600090815260036020526040812054115b151561332557600080fd5b613336600e8463ffffffff6134ce16565b6000818152600d602052604090208054600160a060020a038716600160a060020a031990911617905591508190505092915050565b600054600160a060020a0316331461338257600080fd5b60018054600160a060020a031916600160a060020a0392909216919091179055565b600054600160a060020a03163314806133ca575033600090815260036020526040812054115b15156133d557600080fd5b6000848152600960209081526040808320868452600701825280832085845260050190915290205462010000900460ff161561344657600084815260096020908152604080832086845260070182528083208584526005019091529020805461ffff191661ffff8316179055611a0b565b60408051808201825261ffff9283168152600160208083019182526000978852600981528388209688526007909601865282872094875260059094019094529093209151825491511515620100000262ff0000199190941661ffff199092169190911716919091179055565b6013602052600090815260409020600181015460029091015482565b600282018054600101908190556000906134ec908490839085613842565b5050506002015490565b600081815260208381526040808320838052909152812054158015613531575060008281526020848152604080832060018452909152902054155b15613566576000808052602084815260408083206001845290915290205482141561355e57506001611ee4565b506000611ee4565b506001611ee4565b6000811580613584575061358283836134f6565b155b1561359157506000611ee4565b60008281526020848152604080832083805290915280822054600180845291909220546135c29286929091906138b9565b50600081815260208381526040808320838052909152808220829055600180835290822091909155909101805460001901905590565b606060008060008060006060600092508891508a6001015482111561361f578a6001015491505b604080517f574047ac000000000000000000000000000000000000000000000000000000008152600481018d9052602481018c90528915156044820152815173__LinkedListLib_________________________9263574047ac9260648082019391829003018186803b15801561369557600080fd5b505af41580156136a9573d6000803e3d6000fd5b505050506040513d60408110156136bf57600080fd5b50805160209091015190955093508415156136f6575060408051600080825260208201818152828401909352919750909550613810565b81604051908082528060200260200182016040528015613720578160200160208202803883390190505b5090505b831580159061373257508183105b156138095783818481518110151561374657fe5b60209081029091010152604080517f574047ac000000000000000000000000000000000000000000000000000000008152600481018d9052602481018690528915156044820152815173__LinkedListLib_________________________9263574047ac9260648082019391829003018186803b1580156137c657600080fd5b505af41580156137da573d6000803e3d6000fd5b505050506040513d60408110156137f057600080fd5b5080516020909101519095509350600190920191613724565b8084965096505b505050505094509492505050565b6001015460001090565b60006138378460008585613842565b505050506002015490565b60008061384f86856134f6565b158015613861575061386186866134f6565b156138ab5750600084815260208681526040808320851515845290915290205461388d868686866138b9565b613899868583866138b9565b600180870180548201905591506138b0565b600091505b50949350505050565b6000828152602085815260408083209315808452938252808320869055948252948552838120911581529352912055565b828054600181600116156101000203166002900490600052602060002090601f016020900481019282601f1061392b57805160ff1916838001178555613958565b82800160010185558215613958579182015b8281111561395857825182559160200191906001019061393d565b506139649291506139f8565b5090565b60a060405190810160405280606081526020016000815260200160008019168152602001613994613a15565b905290565b50805460018160011615610100020316600290046000825580601f106139bf57506139dd565b601f0160209004906000526020600020908101906139dd91906139f8565b50565b60408051808201909152606081526000602082015290565b613a1291905b8082111561396457600081556001016139fe565b90565b6040805180820190915260008082526020820152905600a165627a7a72305820d7edaa1f467cc620bc73646f90928b1debae39703876321075dff9dd29881b200029",
  "source": "pragma solidity ^0.4.24;\nimport \"./libs/LinkedListLib.sol\";\nimport \"./extensions/Owned.sol\";\nimport \"./extensions/TripioToken.sol\";\n\ncontract TripioRoomNightData is Owned {\n    using LinkedListLib for LinkedListLib.LinkedList;\n    // Interface signature of erc165.\n    // bytes4(keccak256(\"supportsInterface(bytes4)\"))\n    bytes4 constant public interfaceSignature_ERC165 = 0x01ffc9a7;\n\n    // Interface signature of erc721 metadata.\n    // bytes4(keccak256(\"name()\")) ^ bytes4(keccak256(\"symbol()\")) ^ bytes4(keccak256(\"tokenURI(uint256)\"));\n    bytes4 constant public interfaceSignature_ERC721Metadata = 0x06fdde03 ^ 0x95d89b41 ^ 0xc87b56dd;\n        \n    // Interface signature of erc721.\n    // bytes4(keccak256(\"balanceOf(address)\")) ^\n    // bytes4(keccak256(\"ownerOf(uint256)\")) ^\n    // bytes4(keccak256(\"safeTransferFrom(address,address,uint256,bytes)\")) ^\n    // bytes4(keccak256(\"safeTransferFrom(address,address,uint256)\")) ^\n    // bytes4(keccak256(\"transferFrom(address,address,uint256)\")) ^\n    // bytes4(keccak256(\"approve(address,uint256)\")) ^\n    // bytes4(keccak256(\"setApprovalForAll(address,bool)\")) ^\n    // bytes4(keccak256(\"getApproved(uint256)\")) ^\n    // bytes4(keccak256(\"isApprovedForAll(address,address)\"));\n    bytes4 constant public interfaceSignature_ERC721 = 0x70a08231 ^ 0x6352211e ^ 0xb88d4fde ^ 0x42842e0e ^ 0x23b872dd ^ 0x095ea7b3 ^ 0xa22cb465 ^ 0x081812fc ^ 0xe985e9c5;\n\n    // Base URI of token asset\n    string public tokenBaseURI;\n\n    // Authorized contracts\n    struct AuthorizedContract {\n        string name;\n        address acontract;\n    }\n    mapping (address=>uint256) public authorizedContractIds;\n    mapping (uint256 => AuthorizedContract) public authorizedContracts;\n    LinkedListLib.LinkedList public authorizedContractList = LinkedListLib.LinkedList(0, 0);\n\n    // Rate plan prices\n    struct Price {\n        uint16 inventory;       // Rate plan inventory\n        bool init;              // Whether the price is initied\n        mapping (uint256 => uint256) tokens;\n    }\n\n    // Vendor hotel RPs\n    struct RatePlan {\n        string name;            // Name of rate plan.\n        uint256 timestamp;      // Create timestamp.\n        bytes32 ipfs;           // The address of rate plan detail on IPFS.\n        Price basePrice;        // The base price of rate plan\n        mapping (uint256 => Price) prices;   // date -> Price\n    }\n\n    // Vendors\n    struct Vendor {\n        string name;            // Name of vendor.\n        address vendor;         // Address of vendor.\n        uint256 timestamp;      // Create timestamp.\n        bool valid;             // Whether the vendor is valid(default is true)\n        LinkedListLib.LinkedList ratePlanList;\n        mapping (uint256=>RatePlan) ratePlans;\n    }\n    mapping (address => uint256) public vendorIds;\n    mapping (uint256 => Vendor) vendors;\n    LinkedListLib.LinkedList public vendorList = LinkedListLib.LinkedList(0, 0);\n\n    // Supported digital currencies\n    mapping (uint256 => address) public tokenIndexToAddress;\n    LinkedListLib.LinkedList public tokenList = LinkedListLib.LinkedList(0, 0);\n\n    // RoomNight tokens\n    struct RoomNight {\n        uint256 vendorId;\n        uint256 rpid;\n        uint256 token;          // The digital currency token \n        uint256 price;          // The digital currency price\n        uint256 timestamp;      // Create timestamp.\n        uint256 date;           // The checkin date\n        bytes32 ipfs;           // The address of rate plan detail on IPFS.\n    }\n    RoomNight[] public roomnights;\n    // rnid -> owner\n    mapping (uint256 => address) public roomNightIndexToOwner;\n\n    // Owner Account\n    mapping (address => LinkedListLib.LinkedList) public roomNightOwners;\n\n    // Vendor Account\n    mapping (address => LinkedListLib.LinkedList) public roomNightVendors;\n\n    // The authorized address for each TRN\n    mapping (uint256 => address) public roomNightApprovals;\n\n    // The authorized operators for each address\n    mapping (address => mapping (address => bool)) public operatorApprovals;\n\n    // The applications of room night redund\n    mapping (address => mapping (uint256 => bool)) public refundApplications;\n\n    // The signature of `onERC721Received(address,uint256,bytes)`\n    // bytes4(keccak256(\"onERC721Received(address,uint256,bytes)\"));\n    bytes4 constant public ERC721_RECEIVED = 0xf0b9e5ba;\n\n    /**\n     * This emits when contract authorized\n     */\n    event ContractAuthorized(address _contract);\n\n    /**\n     * This emits when contract deauthorized\n     */\n    event ContractDeauthorized(address _contract);\n\n    /**\n     * The contract is valid\n     */\n    modifier authorizedContractValid(address _contract) {\n        require(authorizedContractIds[_contract] > 0);\n        _;\n    }\n\n    /**\n     * The contract is valid\n     */\n    modifier authorizedContractIdValid(uint256 _cid) {\n        require(authorizedContractList.nodeExists(_cid));\n        _;\n    }\n\n    /**\n     * Only the owner or authorized contract is valid\n     */\n    modifier onlyOwnerOrAuthorizedContract {\n        require(msg.sender == owner || authorizedContractIds[msg.sender] > 0);\n        _;\n    }\n\n    /**\n     * Constructor\n     */\n    constructor() public {\n        // Add one invalid RoomNight, avoid subscript 0\n        roomnights.push(RoomNight(0, 0, 0, 0, 0, 0, 0));\n    }\n\n    /**\n     * @dev Returns the node list and next node as a tuple\n     * @param self stored linked list from contract\n     * @param _node the begin id of the node to get\n     * @param _limit the total nodes of one page\n     * @param _direction direction to step in\n     */\n    function getNodes(LinkedListLib.LinkedList storage self, uint256 _node, uint256 _limit, bool _direction) \n        private\n        view \n        returns (uint256[], uint256) {\n        bool exists;\n        uint256 i;\n        uint256 index = 0;\n        uint256 count = _limit;\n        if(count > self.length) {\n            count = self.length;\n        }\n        uint256[] memory result;\n        (exists, i) = self.getAdjacent(_node, _direction);\n        if(!exists) {\n            result = new uint256[](0);\n            return (new uint256[](0), 0);\n        }else {\n            result = new uint256[](count);\n            while (i != 0 && index < count) {\n                result[index] = i;\n                (exists,i) = self.getAdjacent(i, _direction);\n                index++;\n            }\n            return (result, i);\n        }\n    }\n\n    /**\n     * @dev Authorize `_contract` to execute this contract's funs\n     * @param _contract The contract address\n     * @param _name The contract name\n     */\n    function authorizeContract(address _contract, string _name) \n        public \n        onlyOwner \n        returns(bool) {\n        uint256 codeSize;\n        assembly { codeSize := extcodesize(_contract) }\n        require(codeSize != 0);\n        // Not exists\n        require(authorizedContractIds[_contract] == 0);\n\n        // Add\n        uint256 id = authorizedContractList.push(false);\n        authorizedContractIds[_contract] = id;\n        authorizedContracts[id] = AuthorizedContract(_name, _contract);\n\n        // Event\n        emit ContractAuthorized(_contract);\n        return true;\n    }\n\n    /**\n     * @dev Deauthorized `_contract` by address\n     * @param _contract The contract address\n     */\n    function deauthorizeContract(address _contract) \n        public \n        onlyOwner\n        authorizedContractValid(_contract)\n        returns(bool) {\n        uint256 id = authorizedContractIds[_contract];\n        authorizedContractList.remove(id);\n        authorizedContractIds[_contract] = 0;\n        delete authorizedContracts[id];\n        \n        // Event \n        emit ContractDeauthorized(_contract);\n        return true;\n    }\n\n    /**\n     * @dev Deauthorized `_contract` by contract id\n     * @param _cid The contract id\n     */\n    function deauthorizeContractById(uint256 _cid) \n        public\n        onlyOwner\n        authorizedContractIdValid(_cid)\n        returns(bool) {\n        address acontract = authorizedContracts[_cid].acontract;\n        authorizedContractList.remove(_cid);\n        authorizedContractIds[acontract] = 0;\n        delete authorizedContracts[_cid];\n\n        // Event \n        emit ContractDeauthorized(acontract);\n        return true;\n    }\n\n    /**\n     * @dev Get authorize contract ids by page\n     * @param _from The begin authorize contract id\n     * @param _limit How many authorize contract ids one page\n     * @return The authorize contract ids and the next authorize contract id as tuple, the next page not exists when next eq 0\n     */\n    function getAuthorizeContractIds(uint256 _from, uint256 _limit) \n        external \n        view \n        returns(uint256[], uint256){\n        return getNodes(authorizedContractList, _from, _limit, true);\n    }\n\n    /**\n     * @dev Get authorize contract by id\n     * @param _cid Then authorize contract id\n     * @return The authorize contract info(_name, _acontract)\n     */\n    function getAuthorizeContract(uint256 _cid) \n        external \n        view \n        returns(string _name, address _acontract) {\n        AuthorizedContract memory acontract = authorizedContracts[_cid]; \n        _name = acontract.name;\n        _acontract = acontract.acontract;\n    }\n\n    /*************************************** GET ***************************************/\n\n    /**\n     * @dev Get the rate plan by `_vendorId` and `_rpid`\n     * @param _vendorId The vendor id\n     * @param _rpid The rate plan id\n     */\n    function getRatePlan(uint256 _vendorId, uint256 _rpid) \n        public \n        view \n        returns (string _name, uint256 _timestamp, bytes32 _ipfs) {\n        _name = vendors[_vendorId].ratePlans[_rpid].name;\n        _timestamp = vendors[_vendorId].ratePlans[_rpid].timestamp;\n        _ipfs = vendors[_vendorId].ratePlans[_rpid].ipfs;\n    }\n\n    /**\n     * @dev Get the rate plan price by `_vendorId`, `_rpid`, `_date` and `_tokenId`\n     * @param _vendorId The vendor id\n     * @param _rpid The rate plan id\n     * @param _date The date desc (20180723)\n     * @param _tokenId The digital token id\n     * @return The price info(inventory, init, price)\n     */\n    function getPrice(uint256 _vendorId, uint256 _rpid, uint256 _date, uint256 _tokenId) \n        public\n        view \n        returns(uint16 _inventory, bool _init, uint256 _price) {\n        _inventory = vendors[_vendorId].ratePlans[_rpid].prices[_date].inventory;\n        _init = vendors[_vendorId].ratePlans[_rpid].prices[_date].init;\n        _price = vendors[_vendorId].ratePlans[_rpid].prices[_date].tokens[_tokenId];\n        if(!_init) {\n            // Get the base price\n            _inventory = vendors[_vendorId].ratePlans[_rpid].basePrice.inventory;\n            _price = vendors[_vendorId].ratePlans[_rpid].basePrice.tokens[_tokenId];\n            _init = vendors[_vendorId].ratePlans[_rpid].basePrice.init;\n        }\n    }\n\n    /**\n     * @dev Get the rate plan prices by `_vendorId`, `_rpid`, `_dates` and `_tokenId`\n     * @param _vendorId The vendor id\n     * @param _rpid The rate plan id\n     * @param _dates The dates desc ([20180723,20180724,20180725])\n     * @param _tokenId The digital token id\n     * @return The price info(inventory, init, price)\n     */\n    function getPrices(uint256 _vendorId, uint256 _rpid, uint256[] _dates, uint256 _tokenId) \n        public\n        view \n        returns(uint16[] _inventories, uint256[] _prices) {\n        uint16[] memory inventories = new uint16[](_dates.length);\n        uint256[] memory prices = new uint256[](_dates.length);\n        uint256 date;\n        for(uint256 i = 0; i < _dates.length; i++) {\n            date = _dates[i];\n            uint16 inventory = vendors[_vendorId].ratePlans[_rpid].prices[date].inventory;\n            bool init = vendors[_vendorId].ratePlans[_rpid].prices[date].init;\n            uint256 price = vendors[_vendorId].ratePlans[_rpid].prices[date].tokens[_tokenId];\n            if(!init) {\n                // Get the base price\n                inventory = vendors[_vendorId].ratePlans[_rpid].basePrice.inventory;\n                price = vendors[_vendorId].ratePlans[_rpid].basePrice.tokens[_tokenId];\n                init = vendors[_vendorId].ratePlans[_rpid].basePrice.init;\n            }\n            inventories[i] = inventory;\n            prices[i] = price;\n        }\n        return (inventories, prices);\n    }\n\n    /**\n     * @dev Get the inventory by  by `_vendorId`, `_rpid` and `_date`\n     * @param _vendorId The vendor id\n     * @param _rpid The rate plan id\n     * @param _date The date desc (20180723)\n     * @return The inventory info(inventory, init)\n     */\n    function getInventory(uint256 _vendorId, uint256 _rpid, uint256 _date) \n        public\n        view \n        returns(uint16 _inventory, bool _init) {\n        _inventory = vendors[_vendorId].ratePlans[_rpid].prices[_date].inventory;\n        _init = vendors[_vendorId].ratePlans[_rpid].prices[_date].init;\n        if(!_init) {\n            // Get the base price\n            _inventory = vendors[_vendorId].ratePlans[_rpid].basePrice.inventory;\n        }\n    }\n\n    /**\n     * @dev Whether the rate plan is exist\n     * @param _vendorId The vendor id\n     * @param _rpid The rate plan id\n     * @return If the rate plan of the vendor is exist returns true otherwise return false\n     */\n    function ratePlanIsExist(uint256 _vendorId, uint256 _rpid) \n        public \n        view \n        returns (bool) {\n        return vendors[_vendorId].ratePlanList.nodeExists(_rpid);\n    }\n\n    /**\n     * @dev Get orders of owner by page\n     * @param _owner The owner address\n     * @param _from The begin id of the node to get\n     * @param _limit The total nodes of one page\n     * @param _direction Direction to step in\n     * @return The order ids and the next id\n     */\n    function getOrdersOfOwner(address _owner, uint256 _from, uint256 _limit, bool _direction) \n        public \n        view \n        returns (uint256[], uint256) {\n        return getNodes(roomNightOwners[_owner], _from, _limit, _direction);\n    }\n\n    /**\n     * @dev Get orders of vendor by page\n     * @param _owner The vendor address\n     * @param _from The begin id of the node to get\n     * @param _limit The total nodes of on page\n     * @param _direction Direction to step in \n     * @return The order ids and the next id\n     */\n    function getOrdersOfVendor(address _owner, uint256 _from, uint256 _limit, bool _direction) \n        public \n        view \n        returns (uint256[], uint256) {\n        return getNodes(roomNightVendors[_owner], _from, _limit, _direction);\n    }\n\n    /**\n     * @dev Get the token count of somebody \n     * @param _owner The owner of token\n     * @return The token count of `_owner`\n     */\n    function balanceOf(address _owner) \n        public \n        view \n        returns(uint256) {\n        return roomNightOwners[_owner].length;\n    }\n\n    /**\n     * @dev Get rate plan ids of `_vendorId`\n     * @param _from The begin id of the node to get\n     * @param _limit The total nodes of on page\n     * @param _direction Direction to step in \n     * @return The rate plan ids and the next id\n     */\n    function getRatePlansOfVendor(uint256 _vendorId, uint256 _from, uint256 _limit, bool _direction) \n        public \n        view \n        returns(uint256[], uint256) {\n        return getNodes(vendors[_vendorId].ratePlanList, _from, _limit, _direction);\n    }\n\n    /**\n     * @dev Get token ids\n     * @param _from The begin id of the node to get\n     * @param _limit The total nodes of on page\n     * @param _direction Direction to step in \n     * @return The token ids and the next id\n     */\n    function getTokens(uint256 _from, uint256 _limit, bool _direction) \n        public \n        view \n        returns(uint256[], uint256) {\n        return getNodes(tokenList, _from, _limit, _direction);\n    }\n\n    /**\n     * @dev Get token Info\n     * @param _tokenId The token id\n     * @return The token info(symbol, name, decimals)\n     */\n    function getToken(uint256 _tokenId)\n        public \n        view \n        returns(string _symbol, string _name, uint8 _decimals, address _token) {\n        _token = tokenIndexToAddress[_tokenId];\n        TripioToken tripio = TripioToken(_token);\n        _symbol = tripio.symbol();\n        _name = tripio.name();\n        _decimals = tripio.decimals();\n    }\n\n    /**\n     * @dev Get vendor ids\n     * @param _from The begin id of the node to get\n     * @param _limit The total nodes of on page\n     * @param _direction Direction to step in \n     * @return The vendor ids and the next id\n     */\n    function getVendors(uint256 _from, uint256 _limit, bool _direction) \n        public \n        view \n        returns(uint256[], uint256) {\n        return getNodes(vendorList, _from, _limit, _direction);\n    }\n\n    /**\n     * @dev Get the vendor infomation by vendorId\n     * @param _vendorId The vendor id\n     * @return The vendor infomation(name, vendor, timestamp, valid)\n     */\n    function getVendor(uint256 _vendorId) \n        public \n        view \n        returns(string _name, address _vendor,uint256 _timestamp, bool _valid) {\n        _name = vendors[_vendorId].name;\n        _vendor = vendors[_vendorId].vendor;\n        _timestamp = vendors[_vendorId].timestamp;\n        _valid = vendors[_vendorId].valid;\n    }\n\n    /*************************************** SET ***************************************/\n    /**\n     * @dev Update base uri of token metadata\n     * @param _tokenBaseURI The base uri\n     */\n    function updateTokenBaseURI(string _tokenBaseURI) \n        public \n        onlyOwnerOrAuthorizedContract {\n        tokenBaseURI = _tokenBaseURI;\n    }\n\n    /**\n     * @dev Push order to user's order list\n     * @param _owner The buyer address\n     * @param _rnid The room night order id\n     * @param _direction direction to step in\n     */\n    function pushOrderOfOwner(address _owner, uint256 _rnid, bool _direction) \n        public \n        onlyOwnerOrAuthorizedContract {\n        if(!roomNightOwners[_owner].listExists()) {\n            roomNightOwners[_owner] = LinkedListLib.LinkedList(0, 0);\n        }\n        roomNightOwners[_owner].add(_rnid, _direction);\n    }\n\n    /**\n     * @dev Remove order from owner's order list\n     * @param _owner The owner address\n     * @param _rnid The room night order id\n     */\n    function removeOrderOfOwner(address _owner, uint _rnid) \n        public \n        onlyOwnerOrAuthorizedContract {\n        require(roomNightOwners[_owner].nodeExists(_rnid));\n        roomNightOwners[_owner].remove(_rnid);\n    }\n\n    /**\n     * @dev Push order to the vendor's order list\n     * @param _vendor The vendor address\n     * @param _rnid The room night order id\n     * @param _direction direction to step in\n     */\n    function pushOrderOfVendor(address _vendor, uint256 _rnid, bool _direction) \n        public \n        onlyOwnerOrAuthorizedContract {\n        if(!roomNightVendors[_vendor].listExists()) {\n            roomNightVendors[_vendor] = LinkedListLib.LinkedList(0, 0);\n        }\n        roomNightVendors[_vendor].add(_rnid, _direction);\n    }\n\n    /**\n     * @dev Remove order from vendor's order list\n     * @param _vendor The vendor address\n     * @param _rnid The room night order id\n     */\n    function removeOrderOfVendor(address _vendor, uint256 _rnid) \n        public \n        onlyOwnerOrAuthorizedContract {\n        require(roomNightVendors[_vendor].nodeExists(_rnid));\n        roomNightVendors[_vendor].remove(_rnid);\n    }\n\n    /**\n     * @dev Transfer token to somebody\n     * @param _tokenId The token id \n     * @param _to The target owner of the token\n     */\n    function transferTokenTo(uint256 _tokenId, address _to) \n        public \n        onlyOwnerOrAuthorizedContract {\n        roomNightIndexToOwner[_tokenId] = _to;\n        roomNightApprovals[_tokenId] = address(0);\n    }\n\n    /**\n     * @dev Approve `_to` to operate the `_tokenId`\n     * @param _tokenId The token id\n     * @param _to Somebody to be approved\n     */\n    function approveTokenTo(uint256 _tokenId, address _to) \n        public \n        onlyOwnerOrAuthorizedContract {\n        roomNightApprovals[_tokenId] = _to;\n    }\n\n    /**\n     * @dev Approve `_operator` to operate all the Token of `_to`\n     * @param _operator The operator to be approved\n     * @param _to The owner of tokens to be operate\n     * @param _approved Approved or not\n     */\n    function approveOperatorTo(address _operator, address _to, bool _approved) \n        public \n        onlyOwnerOrAuthorizedContract {\n        operatorApprovals[_to][_operator] = _approved;\n    } \n\n    /**\n     * @dev Update base price of rate plan\n     * @param _vendorId The vendor id\n     * @param _rpid The rate plan id\n     * @param _tokenId The digital token id\n     * @param _price The price to be updated\n     */\n    function updateBasePrice(uint256 _vendorId, uint256 _rpid, uint256 _tokenId, uint256 _price)\n        public \n        onlyOwnerOrAuthorizedContract {\n        vendors[_vendorId].ratePlans[_rpid].basePrice.init = true;\n        vendors[_vendorId].ratePlans[_rpid].basePrice.tokens[_tokenId] = _price;\n    }\n\n    /**\n     * @dev Update base inventory of rate plan \n     * @param _vendorId The vendor id\n     * @param _rpid The rate plan id\n     * @param _inventory The inventory to be updated\n     */\n    function updateBaseInventory(uint256 _vendorId, uint256 _rpid, uint16 _inventory)\n        public \n        onlyOwnerOrAuthorizedContract {\n        vendors[_vendorId].ratePlans[_rpid].basePrice.inventory = _inventory;\n    }\n\n    /**\n     * @dev Update price by `_vendorId`, `_rpid`, `_date`, `_tokenId` and `_price`\n     * @param _vendorId The vendor id\n     * @param _rpid The rate plan id\n     * @param _date The date desc (20180723)\n     * @param _tokenId The digital token id\n     * @param _price The price to be updated\n     */\n    function updatePrice(uint256 _vendorId, uint256 _rpid, uint256 _date, uint256 _tokenId, uint256 _price)\n        public\n        onlyOwnerOrAuthorizedContract {\n        if (vendors[_vendorId].ratePlans[_rpid].prices[_date].init) {\n            vendors[_vendorId].ratePlans[_rpid].prices[_date].tokens[_tokenId] = _price;\n        } else {\n            vendors[_vendorId].ratePlans[_rpid].prices[_date] = Price(0, true);\n            vendors[_vendorId].ratePlans[_rpid].prices[_date].tokens[_tokenId] = _price;\n        }\n    }\n\n    /**\n     * @dev Update inventory by `_vendorId`, `_rpid`, `_date`, `_inventory`\n     * @param _vendorId The vendor id\n     * @param _rpid The rate plan id\n     * @param _date The date desc (20180723)\n     * @param _inventory The inventory to be updated\n     */\n    function updateInventories(uint256 _vendorId, uint256 _rpid, uint256 _date, uint16 _inventory)\n        public \n        onlyOwnerOrAuthorizedContract {\n        if (vendors[_vendorId].ratePlans[_rpid].prices[_date].init) {\n            vendors[_vendorId].ratePlans[_rpid].prices[_date].inventory = _inventory;\n        } else {\n            vendors[_vendorId].ratePlans[_rpid].prices[_date] = Price(_inventory, true);\n        }\n    }\n\n    /**\n     * @dev Reduce inventories\n     * @param _vendorId The vendor id\n     * @param _rpid The rate plan id\n     * @param _date The date desc (20180723)\n     * @param _inventory The amount to be reduced\n     */\n    function reduceInventories(uint256 _vendorId, uint256 _rpid, uint256 _date, uint16 _inventory) \n        public  \n        onlyOwnerOrAuthorizedContract {\n        uint16 a = 0;\n        if(vendors[_vendorId].ratePlans[_rpid].prices[_date].init) {\n            a = vendors[_vendorId].ratePlans[_rpid].prices[_date].inventory;\n            require(_inventory <= a);\n            vendors[_vendorId].ratePlans[_rpid].prices[_date].inventory = a - _inventory;\n        }else if(vendors[_vendorId].ratePlans[_rpid].basePrice.init){\n            a = vendors[_vendorId].ratePlans[_rpid].basePrice.inventory;\n            require(_inventory <= a);\n            vendors[_vendorId].ratePlans[_rpid].basePrice.inventory = a - _inventory;\n        }\n    }\n\n    /**\n     * @dev Add inventories\n     * @param _vendorId The vendor id\n     * @param _rpid The rate plan id\n     * @param _date The date desc (20180723)\n     * @param _inventory The amount to be add\n     */\n    function addInventories(uint256 _vendorId, uint256 _rpid, uint256 _date, uint16 _inventory) \n        public  \n        onlyOwnerOrAuthorizedContract {\n        uint16 c = 0;\n        if(vendors[_vendorId].ratePlans[_rpid].prices[_date].init) {\n            c = _inventory + vendors[_vendorId].ratePlans[_rpid].prices[_date].inventory;\n            require(c >= _inventory);\n            vendors[_vendorId].ratePlans[_rpid].prices[_date].inventory = c;\n        }else if(vendors[_vendorId].ratePlans[_rpid].basePrice.init) {\n            c = _inventory + vendors[_vendorId].ratePlans[_rpid].basePrice.inventory;\n            require(c >= _inventory);\n            vendors[_vendorId].ratePlans[_rpid].basePrice.inventory = c;\n        }\n    }\n\n    /**\n     * @dev Update inventory and price by `_vendorId`, `_rpid`, `_date`, `_tokenId`, `_price` and `_inventory`\n     * @param _vendorId The vendor id\n     * @param _rpid The rate plan id\n     * @param _date The date desc (20180723)\n     * @param _tokenId The digital token id\n     * @param _price The price to be updated\n     * @param _inventory The inventory to be updated\n     */\n    function updatePriceAndInventories(uint256 _vendorId, uint256 _rpid, uint256 _date, uint256 _tokenId, uint256 _price, uint16 _inventory)\n        public \n        onlyOwnerOrAuthorizedContract {\n        if (vendors[_vendorId].ratePlans[_rpid].prices[_date].init) {\n            vendors[_vendorId].ratePlans[_rpid].prices[_date].inventory = _inventory;\n            vendors[_vendorId].ratePlans[_rpid].prices[_date].tokens[_tokenId] = _price;\n        } else {\n            vendors[_vendorId].ratePlans[_rpid].prices[_date] = Price(_inventory, true);\n            vendors[_vendorId].ratePlans[_rpid].prices[_date].tokens[_tokenId] = _price;\n        }\n    }\n\n    /**\n     * @dev Push rate plan to `_vendorId`'s rate plan list\n     * @param _vendorId The vendor id\n     * @param _name The name of rate plan\n     * @param _ipfs The rate plan IPFS address\n     * @param _direction direction to step in\n     */\n    function pushRatePlan(uint256 _vendorId, string _name, bytes32 _ipfs, bool _direction) \n        public \n        onlyOwnerOrAuthorizedContract\n        returns(uint256) {\n        RatePlan memory rp = RatePlan(_name, uint256(now), _ipfs, Price(0, false));\n        \n        uint256 id = vendors[_vendorId].ratePlanList.push(_direction);\n        vendors[_vendorId].ratePlans[id] = rp;\n        return id;\n    }\n\n    /**\n     * @dev Remove rate plan of `_vendorId` by `_rpid`\n     * @param _vendorId The vendor id\n     * @param _rpid The rate plan id\n     */\n    function removeRatePlan(uint256 _vendorId, uint256 _rpid) \n        public \n        onlyOwnerOrAuthorizedContract {\n        delete vendors[_vendorId].ratePlans[_rpid];\n        vendors[_vendorId].ratePlanList.remove(_rpid);\n    }\n\n    /**\n     * @dev Update `_rpid` of `_vendorId` by `_name` and `_ipfs`\n     * @param _vendorId The vendor id\n     * @param _rpid The rate plan id\n     * @param _name The rate plan name\n     * @param _ipfs The rate plan IPFS address\n     */\n    function updateRatePlan(uint256 _vendorId, uint256 _rpid, string _name, bytes32 _ipfs)\n        public \n        onlyOwnerOrAuthorizedContract {\n        vendors[_vendorId].ratePlans[_rpid].ipfs = _ipfs;\n        vendors[_vendorId].ratePlans[_rpid].name = _name;\n    }\n    \n    /**\n     * @dev Push token contract to the token list\n     * @param _direction direction to step in\n     */\n    function pushToken(address _contract, bool _direction)\n        public \n        onlyOwnerOrAuthorizedContract \n        returns(uint256) {\n        uint256 id = tokenList.push(_direction);\n        tokenIndexToAddress[id] = _contract;\n        return id;\n    }\n\n    /**\n     * @dev Remove token by `_tokenId`\n     * @param _tokenId The digital token id\n     */\n    function removeToken(uint256 _tokenId) \n        public \n        onlyOwnerOrAuthorizedContract {\n        delete tokenIndexToAddress[_tokenId];\n        tokenList.remove(_tokenId);\n    }\n\n    /**\n     * @dev Generate room night token\n     * @param _vendorId The vendor id\n     * @param _rpid The rate plan id\n     * @param _date The date desc (20180723)\n     * @param _token The token id\n     * @param _price The token price\n     * @param _ipfs The rate plan IPFS address\n     */\n    function generateRoomNightToken(uint256 _vendorId, uint256 _rpid, uint256 _date, uint256 _token, uint256 _price, bytes32 _ipfs)\n        public \n        onlyOwnerOrAuthorizedContract \n        returns(uint256) {\n        roomnights.push(RoomNight(_vendorId, _rpid, _token, _price, now, _date, _ipfs));\n\n        // Give the token to `_customer`\n        uint256 rnid = uint256(roomnights.length - 1);\n        return rnid;\n    }\n\n    /**\n     * @dev Update refund applications\n     * @param _buyer The room night token holder\n     * @param _rnid The room night token id\n     * @param _isRefund Is redund or not\n     */\n    function updateRefundApplications(address _buyer, uint256 _rnid, bool _isRefund) \n        public \n        onlyOwnerOrAuthorizedContract {\n        refundApplications[_buyer][_rnid] = _isRefund;\n    }\n\n    /**\n     * @dev Push vendor info to the vendor list\n     * @param _name The name of vendor\n     * @param _vendor The vendor address\n     * @param _direction direction to step in\n     */\n    function pushVendor(string _name, address _vendor, bool _direction)\n        public \n        onlyOwnerOrAuthorizedContract \n        returns(uint256) {\n        uint256 id = vendorList.push(_direction);\n        vendorIds[_vendor] = id;\n        vendors[id] = Vendor(_name, _vendor, uint256(now), true, LinkedListLib.LinkedList(0, 0));\n        return id;\n    }\n\n    /**\n     * @dev Remove vendor from vendor list\n     * @param _vendorId The vendor id\n     */\n    function removeVendor(uint256 _vendorId) \n        public \n        onlyOwnerOrAuthorizedContract {\n        vendorList.remove(_vendorId);\n        address vendor = vendors[_vendorId].vendor;\n        vendorIds[vendor] = 0;\n        delete vendors[_vendorId];\n    }\n\n    /**\n     * @dev Make vendor valid or invalid\n     * @param _vendorId The vendor id\n     * @param _valid The vendor is valid or not\n     */\n    function updateVendorValid(uint256 _vendorId, bool _valid)\n        public \n        onlyOwnerOrAuthorizedContract {\n        vendors[_vendorId].valid = _valid;\n    }\n\n    /**\n     * @dev Modify vendor's name\n     * @param _vendorId The vendor id\n     * @param _name Then vendor name\n     */\n    function updateVendorName(uint256 _vendorId, string _name)\n        public \n        onlyOwnerOrAuthorizedContract {\n        vendors[_vendorId].name = _name;\n    }\n}",
  "sourcePath": "/Users/Kirn/Documents/Workspace/Dawn/tripio-roomnight/truffle/contracts/TripioRoomNightData.sol",
  "compiler": {
    "name": "solc",
    "version": "0.4.24+commit.e67f0147.Emscripten.clang"
  },
  "schemaVersion": "2.0.1",
  "updatedAt": "2018-08-31T07:11:19.172Z"
}