{
  "contractName": "TripioRoomNightVendor",
  "abi": [
    {
      "constant": false,
      "inputs": [
        {
          "name": "_name",
          "type": "string"
        },
        {
          "name": "_ipfs",
          "type": "bytes32"
        }
      ],
      "name": "createRatePlan",
      "outputs": [
        {
          "name": "",
          "type": "uint256"
        }
      ],
      "payable": false,
      "stateMutability": "nonpayable",
      "type": "function"
    },
    {
      "constant": true,
      "inputs": [
        {
          "name": "_vendorId",
          "type": "uint256"
        },
        {
          "name": "_rpid",
          "type": "uint256"
        },
        {
          "name": "_date",
          "type": "uint256"
        },
        {
          "name": "_token",
          "type": "uint256"
        }
      ],
      "name": "priceOfDate",
      "outputs": [
        {
          "name": "_inventory",
          "type": "uint16"
        },
        {
          "name": "_price",
          "type": "uint256"
        }
      ],
      "payable": false,
      "stateMutability": "view",
      "type": "function"
    },
    {
      "constant": false,
      "inputs": [
        {
          "name": "_rpid",
          "type": "uint256"
        },
        {
          "name": "_name",
          "type": "string"
        },
        {
          "name": "_ipfs",
          "type": "bytes32"
        }
      ],
      "name": "modifyRatePlan",
      "outputs": [
        {
          "name": "",
          "type": "bool"
        }
      ],
      "payable": false,
      "stateMutability": "nonpayable",
      "type": "function"
    },
    {
      "constant": true,
      "inputs": [
        {
          "name": "_vendorId",
          "type": "uint256"
        },
        {
          "name": "_rpid",
          "type": "uint256"
        }
      ],
      "name": "ratePlanOfVendor",
      "outputs": [
        {
          "name": "_name",
          "type": "string"
        },
        {
          "name": "_timestamp",
          "type": "uint256"
        },
        {
          "name": "_ipfs",
          "type": "bytes32"
        }
      ],
      "payable": false,
      "stateMutability": "view",
      "type": "function"
    },
    {
      "constant": true,
      "inputs": [
        {
          "name": "_vendorId",
          "type": "uint256"
        },
        {
          "name": "_from",
          "type": "uint256"
        },
        {
          "name": "_limit",
          "type": "uint256"
        }
      ],
      "name": "ratePlansOfVendor",
      "outputs": [
        {
          "name": "",
          "type": "uint256[]"
        },
        {
          "name": "",
          "type": "uint256"
        }
      ],
      "payable": false,
      "stateMutability": "view",
      "type": "function"
    },
    {
      "constant": false,
      "inputs": [
        {
          "name": "_rpid",
          "type": "uint256"
        },
        {
          "name": "_tokens",
          "type": "uint256[]"
        },
        {
          "name": "_prices",
          "type": "uint256[]"
        },
        {
          "name": "_inventory",
          "type": "uint16"
        }
      ],
      "name": "updateBasePrice",
      "outputs": [
        {
          "name": "",
          "type": "bool"
        }
      ],
      "payable": false,
      "stateMutability": "nonpayable",
      "type": "function"
    },
    {
      "constant": true,
      "inputs": [
        {
          "name": "_vendorId",
          "type": "uint256"
        },
        {
          "name": "_rpid",
          "type": "uint256"
        },
        {
          "name": "_dates",
          "type": "uint256[]"
        },
        {
          "name": "_token",
          "type": "uint256"
        }
      ],
      "name": "pricesOfDate",
      "outputs": [
        {
          "name": "",
          "type": "uint256[]"
        }
      ],
      "payable": false,
      "stateMutability": "view",
      "type": "function"
    },
    {
      "constant": false,
      "inputs": [],
      "name": "acceptOwnership",
      "outputs": [],
      "payable": false,
      "stateMutability": "nonpayable",
      "type": "function"
    },
    {
      "constant": true,
      "inputs": [],
      "name": "owner",
      "outputs": [
        {
          "name": "",
          "type": "address"
        }
      ],
      "payable": false,
      "stateMutability": "view",
      "type": "function"
    },
    {
      "constant": false,
      "inputs": [
        {
          "name": "_rpid",
          "type": "uint256"
        },
        {
          "name": "_dates",
          "type": "uint256[]"
        },
        {
          "name": "_inventory",
          "type": "uint16"
        },
        {
          "name": "_tokens",
          "type": "uint256[]"
        },
        {
          "name": "_prices",
          "type": "uint256[]"
        }
      ],
      "name": "updatePrices",
      "outputs": [
        {
          "name": "",
          "type": "bool"
        }
      ],
      "payable": false,
      "stateMutability": "nonpayable",
      "type": "function"
    },
    {
      "constant": true,
      "inputs": [
        {
          "name": "_vendorId",
          "type": "uint256"
        },
        {
          "name": "_rpid",
          "type": "uint256"
        },
        {
          "name": "_dates",
          "type": "uint256[]"
        }
      ],
      "name": "inventoriesOfDate",
      "outputs": [
        {
          "name": "",
          "type": "uint16[]"
        }
      ],
      "payable": false,
      "stateMutability": "view",
      "type": "function"
    },
    {
      "constant": true,
      "inputs": [],
      "name": "newOwner",
      "outputs": [
        {
          "name": "",
          "type": "address"
        }
      ],
      "payable": false,
      "stateMutability": "view",
      "type": "function"
    },
    {
      "constant": false,
      "inputs": [
        {
          "name": "_rpid",
          "type": "uint256"
        }
      ],
      "name": "removeRatePlan",
      "outputs": [
        {
          "name": "",
          "type": "bool"
        }
      ],
      "payable": false,
      "stateMutability": "nonpayable",
      "type": "function"
    },
    {
      "constant": false,
      "inputs": [
        {
          "name": "_newOwner",
          "type": "address"
        }
      ],
      "name": "transferOwnership",
      "outputs": [],
      "payable": false,
      "stateMutability": "nonpayable",
      "type": "function"
    },
    {
      "constant": false,
      "inputs": [
        {
          "name": "_rpid",
          "type": "uint256"
        },
        {
          "name": "_dates",
          "type": "uint256[]"
        },
        {
          "name": "_inventory",
          "type": "uint16"
        }
      ],
      "name": "updateInventories",
      "outputs": [
        {
          "name": "",
          "type": "bool"
        }
      ],
      "payable": false,
      "stateMutability": "nonpayable",
      "type": "function"
    },
    {
      "inputs": [
        {
          "name": "_dataSource",
          "type": "address"
        }
      ],
      "payable": false,
      "stateMutability": "nonpayable",
      "type": "constructor"
    },
    {
      "anonymous": false,
      "inputs": [
        {
          "indexed": true,
          "name": "_vendor",
          "type": "address"
        },
        {
          "indexed": false,
          "name": "_name",
          "type": "string"
        },
        {
          "indexed": true,
          "name": "_ipfs",
          "type": "bytes32"
        }
      ],
      "name": "RatePlanCreated",
      "type": "event"
    },
    {
      "anonymous": false,
      "inputs": [
        {
          "indexed": true,
          "name": "_vendor",
          "type": "address"
        },
        {
          "indexed": true,
          "name": "_rpid",
          "type": "uint256"
        }
      ],
      "name": "RatePlanRemoved",
      "type": "event"
    },
    {
      "anonymous": false,
      "inputs": [
        {
          "indexed": true,
          "name": "_vendor",
          "type": "address"
        },
        {
          "indexed": true,
          "name": "_rpid",
          "type": "uint256"
        },
        {
          "indexed": false,
          "name": "name",
          "type": "string"
        },
        {
          "indexed": false,
          "name": "_ipfs",
          "type": "bytes32"
        }
      ],
      "name": "RatePlanModified",
      "type": "event"
    },
    {
      "anonymous": false,
      "inputs": [
        {
          "indexed": true,
          "name": "_rpid",
          "type": "uint256"
        }
      ],
      "name": "RatePlanPriceChanged",
      "type": "event"
    },
    {
      "anonymous": false,
      "inputs": [
        {
          "indexed": true,
          "name": "_rpid",
          "type": "uint256"
        }
      ],
      "name": "RatePlanInventoryChanged",
      "type": "event"
    },
    {
      "anonymous": false,
      "inputs": [
        {
          "indexed": true,
          "name": "_rpid",
          "type": "uint256"
        }
      ],
      "name": "RatePlanBasePriceChanged",
      "type": "event"
    },
    {
      "anonymous": false,
      "inputs": [
        {
          "indexed": true,
          "name": "from",
          "type": "address"
        },
        {
          "indexed": true,
          "name": "to",
          "type": "address"
        }
      ],
      "name": "OwnershipTransferred",
      "type": "event"
    },
    {
      "constant": false,
      "inputs": [],
      "name": "destroy",
      "outputs": [],
      "payable": false,
      "stateMutability": "nonpayable",
      "type": "function"
    }
  ],
  "bytecode": "0x608060405234801561001057600080fd5b50604051602080612b90833981016040525160008054600160a060020a0319908116331790915560028054600160a060020a0390931692909116919091179055612b318061005f6000396000f3006080604052600436106100cc5763ffffffff60e060020a60003504166317a5f8cc81146100d15780631eae85cb1461010757806333c6cdd31461014657806341348053146101815780634ace9ccc146102225780636215f2921461029b5780636529d1c9146102d257806379ba50971461034d57806383197ef0146103645780638da5cb5b146103795780638f38bf34146103aa578063afab2b0f146103ee578063d4ee1d9014610416578063e8672de91461042b578063f2fde38b14610443578063f54d41db14610464575b600080fd5b3480156100dd57600080fd5b506100f560246004803582810192910135903561048f565b60408051918252519081900360200190f35b34801561011357600080fd5b506101286004356024356044356064356107bb565b6040805161ffff909316835260208301919091528051918290030190f35b34801561015257600080fd5b5061016d600480359060248035908101910135604435610a07565b604080519115158252519081900360200190f35b34801561018d57600080fd5b5061019c600435602435610f23565b6040805160208082018590529181018390526060808252855190820152845190918291608083019187019080838360005b838110156101e55781810151838201526020016101cd565b50505050905090810190601f1680156102125780820380516001836020036101000a031916815260200191505b5094505050505060405180910390f35b34801561022e57600080fd5b5061024060043560243560443561112f565b6040518080602001838152602001828103825284818151815260200191508051906020019060200280838360005b8381101561028657818101518382015260200161026e565b50505050905001935050505060405180910390f35b3480156102a757600080fd5b5061016d60048035906024803580820192908101359160443590810191013561ffff60643516611337565b3480156102de57600080fd5b506102fd60048035906024803591604435918201910135606435611760565b60408051602080825283518183015283519192839290830191858101910280838360005b83811015610339578181015183820152602001610321565b505050509050019250505060405180910390f35b34801561035957600080fd5b50610362611a12565b005b34801561037057600080fd5b50610362611a9a565b34801561038557600080fd5b5061038e611abf565b60408051600160a060020a039092168252519081900360200190f35b3480156103b657600080fd5b5061016d60048035906024803580820192908101359161ffff6044351691606435808301929082013591608435918201910135611ace565b3480156103fa57600080fd5b506102fd60048035906024803591604435918201910135611dc1565b34801561042257600080fd5b5061038e612087565b34801561043757600080fd5b5061016d600435612096565b34801561044f57600080fd5b50610362600160a060020a0360043516612546565b34801561047057600080fd5b5061016d60048035906024803590810191013561ffff6044351661258c565b6002546040805160e460020a630e7dd975028152336004820152905160009260609284928392600160a060020a03169163e7dd975091602480830192602092919082900301818787803b1580156104e557600080fd5b505af11580156104f9573d6000803e3d6000fd5b505050506040513d602081101561050f57600080fd5b505115156105c257600254604080517fe65d971700000000000000000000000000000000000000000000000000000000815233602482015260006044820181905260606004830152606482018190529151600160a060020a039093169263e65d97179260a480840193602093929083900390910190829087803b15801561059557600080fd5b505af11580156105a9573d6000803e3d6000fd5b505050506040513d60208110156105bf57600080fd5b50505b86868080601f016020809104026020016040519081016040528093929190818152602001838380828437820191505050505050925060008351118015610609575060c88351105b151561061457600080fd5b6002546040805160e460020a630e7dd9750281523360048201529051600160a060020a039092169163e7dd9750916024808201926020929091908290030181600087803b15801561066457600080fd5b505af1158015610678573d6000803e3d6000fd5b505050506040513d602081101561068e57600080fd5b50516002546040517f114616140000000000000000000000000000000000000000000000000000000081526004810183815260448201899052600060648301819052608060248401908152608484018c9052949650600160a060020a039093169363114616149387938d938d938d939260a40186868082843782019150509650505050505050602060405180830381600087803b15801561072e57600080fd5b505af1158015610742573d6000803e3d6000fd5b505050506040513d602081101561075857600080fd5b50516040805160208082528101899052919250869133917f1a7199d7eed903910d73fec186e40650531a090d0698d4d8545edcc732d60fbe918b918b91908190810184848082843760405192018290039550909350505050a39695505050505050565b60008085856000600260009054906101000a9004600160a060020a0316600160a060020a03166365de1eb3846040518263ffffffff1660e060020a02815260040180828152602001915050600060405180830381600087803b15801561082057600080fd5b505af1158015610834573d6000803e3d6000fd5b505050506040513d6000823e601f3d908101601f19168201604052608081101561085d57600080fd5b81019080805164010000000081111561087557600080fd5b8201602081018481111561088857600080fd5b81516401000000008111828201871017156108a257600080fd5b50505060600151925050508015156108b957600080fd5b6002546040805160e260020a631ad96a0d02815260048101869052602481018590529051600160a060020a0390921691636b65a834916044808201926020929091908290030181600087803b15801561091157600080fd5b505af1158015610925573d6000803e3d6000fd5b505050506040513d602081101561093b57600080fd5b5051151561094857600080fd5b600254604080517fc4725577000000000000000000000000000000000000000000000000000000008152600481018c9052602481018b9052604481018a9052606481018990529051600160a060020a039092169163c4725577916084808201926060929091908290030181600087803b1580156109c457600080fd5b505af11580156109d8573d6000803e3d6000fd5b505050506040513d60608110156109ee57600080fd5b508051604090910151909a909950975050505050505050565b6002546040805160e460020a630e7dd9750281523360048201529051600092839283928392600160a060020a03169163e7dd975091602480830192602092919082900301818787803b158015610a5c57600080fd5b505af1158015610a70573d6000803e3d6000fd5b505050506040513d6020811015610a8657600080fd5b5051915060008211610a9757600080fd5b6002546040805160e060020a6365de1eb3028152600481018590529051600160a060020a03909216916365de1eb39160248082019260009290919082900301818387803b158015610ae757600080fd5b505af1158015610afb573d6000803e3d6000fd5b505050506040513d6000823e601f3d908101601f191682016040526080811015610b2457600080fd5b810190808051640100000000811115610b3c57600080fd5b82016020810184811115610b4f57600080fd5b8151640100000000811182820187101715610b6957600080fd5b5050506060015192505050801515610b8057600080fd5b6002546040805160e460020a630e7dd9750281523360048201529051600160a060020a039092169163e7dd9750916024808201926020929091908290030181600087803b158015610bd057600080fd5b505af1158015610be4573d6000803e3d6000fd5b505050506040513d6020811015610bfa57600080fd5b50516002546040805160e060020a6365de1eb30281526004810184905290518b92600092600160a060020a03909116916365de1eb391602480820192869290919082900301818387803b158015610c5057600080fd5b505af1158015610c64573d6000803e3d6000fd5b505050506040513d6000823e601f3d908101601f191682016040526080811015610c8d57600080fd5b810190808051640100000000811115610ca557600080fd5b82016020810184811115610cb857600080fd5b8151640100000000811182820187101715610cd257600080fd5b5050506060015192505050801515610ce957600080fd5b6002546040805160e260020a631ad96a0d02815260048101869052602481018590529051600160a060020a0390921691636b65a834916044808201926020929091908290030181600087803b158015610d4157600080fd5b505af1158015610d55573d6000803e3d6000fd5b505050506040513d6020811015610d6b57600080fd5b50511515610d7857600080fd5b6002546040805160e460020a630e7dd9750281523360048201529051600160a060020a039092169163e7dd9750916024808201926020929091908290030181600087803b158015610dc857600080fd5b505af1158015610ddc573d6000803e3d6000fd5b505050506040513d6020811015610df257600080fd5b81019080805190602001909291905050509550600260009054906101000a9004600160a060020a0316600160a060020a031663074c32c4878d8d8d8d6040518663ffffffff1660e060020a02815260040180868152602001858152602001806020018360001916600019168152602001828103825285858281815260200192508082843782019150509650505050505050600060405180830381600087803b158015610e9d57600080fd5b505af1158015610eb1573d6000803e3d6000fd5b505060408051602081018c90528181529081018c90528d92503391507f808317aa9eb7f0938d449dd1ebb90ec654a4cdc840bf89eb095ce85cff14a48c908d908d908d9080606081018585808284376040519201829003965090945050505050a35060019a9950505050505050505050565b6060600080846000600260009054906101000a9004600160a060020a0316600160a060020a03166365de1eb3836040518263ffffffff1660e060020a02815260040180828152602001915050600060405180830381600087803b158015610f8957600080fd5b505af1158015610f9d573d6000803e3d6000fd5b505050506040513d6000823e601f3d908101601f191682016040526080811015610fc657600080fd5b810190808051640100000000811115610fde57600080fd5b82016020810184811115610ff157600080fd5b815164010000000081118282018710171561100b57600080fd5b505050606001519250505080151561102257600080fd5b600254604080517f762fdc0c000000000000000000000000000000000000000000000000000000008152600481018a9052602481018990529051600160a060020a039092169163762fdc0c9160448082019260009290919082900301818387803b15801561108f57600080fd5b505af11580156110a3573d6000803e3d6000fd5b505050506040513d6000823e601f3d908101601f1916820160405260608110156110cc57600080fd5b8101908080516401000000008111156110e457600080fd5b820160208101848111156110f757600080fd5b815164010000000081118282018710171561111157600080fd5b50506020820151604090920151909b919a5098509650505050505050565b6002546040805160e060020a6365de1eb302815260048101869052905160609260009287928492600160a060020a0316916365de1eb3916024808301928692919082900301818387803b15801561118557600080fd5b505af1158015611199573d6000803e3d6000fd5b505050506040513d6000823e601f3d908101601f1916820160405260808110156111c257600080fd5b8101908080516401000000008111156111da57600080fd5b820160208101848111156111ed57600080fd5b815164010000000081118282018710171561120757600080fd5b505050606001519250505080151561121e57600080fd5b600254604080517f544f43e3000000000000000000000000000000000000000000000000000000008152600481018a90526024810189905260448101889052600160648201529051600160a060020a039092169163544f43e39160848082019260009290919082900301818387803b15801561129957600080fd5b505af11580156112ad573d6000803e3d6000fd5b505050506040513d6000823e601f3d908101601f1916820160409081528110156112d657600080fd5b8101908080516401000000008111156112ee57600080fd5b8201602081018481111561130157600080fd5b815185602082028301116401000000008211171561131e57600080fd5b5050602090910151909650945050505050935093915050565b6002546040805160e460020a630e7dd975028152336004820152905160009283928392600160a060020a039092169163e7dd97509160248082019260209290919082900301818787803b15801561138d57600080fd5b505af11580156113a1573d6000803e3d6000fd5b505050506040513d60208110156113b757600080fd5b50516002546040805160e060020a6365de1eb30281526004810184905290518c92600092600160a060020a03909116916365de1eb391602480820192869290919082900301818387803b15801561140d57600080fd5b505af1158015611421573d6000803e3d6000fd5b505050506040513d6000823e601f3d908101601f19168201604052608081101561144a57600080fd5b81019080805164010000000081111561146257600080fd5b8201602081018481111561147557600080fd5b815164010000000081118282018710171561148f57600080fd5b50505060600151925050508015156114a657600080fd5b6002546040805160e260020a631ad96a0d02815260048101869052602481018590529051600160a060020a0390921691636b65a834916044808201926020929091908290030181600087803b1580156114fe57600080fd5b505af1158015611512573d6000803e3d6000fd5b505050506040513d602081101561152857600080fd5b5051151561153557600080fd5b89881461154157600080fd5b6000881161154e57600080fd5b6002546040805160e460020a630e7dd9750281523360048201529051600160a060020a039092169163e7dd9750916024808201926020929091908290030181600087803b15801561159e57600080fd5b505af11580156115b2573d6000803e3d6000fd5b505050506040513d60208110156115c857600080fd5b81019080805190602001909291905050509450600260009054906101000a9004600160a060020a0316600160a060020a03166325635b68868e8a6040518463ffffffff1660e060020a028152600401808481526020018381526020018261ffff1661ffff1681526020019350505050600060405180830381600087803b15801561165157600080fd5b505af1158015611665573d6000803e3d6000fd5b50505050600093505b8984101561172357600254600160a060020a031663be5e72e0868e8e8e8981811061169557fe5b905060200201358d8d8a81811015156116aa57fe5b905060200201356040518563ffffffff1660e060020a02815260040180858152602001848152602001838152602001828152602001945050505050600060405180830381600087803b1580156116ff57600080fd5b505af1158015611713573d6000803e3d6000fd5b50506001909501945061166e9050565b6040518c907f360c63f6ccd01d11a1b3a05222d7921c3da0f941a862674b1218d974541773d490600090a25060019b9a5050505050505050505050565b60608060008088886000600260009054906101000a9004600160a060020a0316600160a060020a03166365de1eb3846040518263ffffffff1660e060020a02815260040180828152602001915050600060405180830381600087803b1580156117c857600080fd5b505af11580156117dc573d6000803e3d6000fd5b505050506040513d6000823e601f3d908101601f19168201604052608081101561180557600080fd5b81019080805164010000000081111561181d57600080fd5b8201602081018481111561183057600080fd5b815164010000000081118282018710171561184a57600080fd5b505050606001519250505080151561186157600080fd5b6002546040805160e260020a631ad96a0d02815260048101869052602481018590529051600160a060020a0390921691636b65a834916044808201926020929091908290030181600087803b1580156118b957600080fd5b505af11580156118cd573d6000803e3d6000fd5b505050506040513d60208110156118e357600080fd5b505115156118f057600080fd5b600089116118fd57600080fd5b604080518a81526020808c02820101909152898015611926578160200160208202803883390190505b509550600094505b88851015611a0257600254600160a060020a031663c47255778d8d8d8d8a81811061195557fe5b905060200201358c6040518563ffffffff1660e060020a02815260040180858152602001848152602001838152602001828152602001945050505050606060405180830381600087803b1580156119ab57600080fd5b505af11580156119bf573d6000803e3d6000fd5b505050506040513d60608110156119d557600080fd5b5060400151865190945084908790879081106119ed57fe5b6020908102909101015260019094019361192e565b50939a9950505050505050505050565b600154600160a060020a03163314611a2957600080fd5b60015460008054604051600160a060020a0393841693909116917f8be0079c531659141344cd1fd0a4f28419497f9722a3daafe3b4186f6b6457e091a3600180546000805473ffffffffffffffffffffffffffffffffffffffff19908116600160a060020a03841617909155169055565b600054600160a060020a03163314611ab157600080fd5b600054600160a060020a0316ff5b600054600160a060020a031681565b6002546040805160e460020a630e7dd97502815233600482015290516000928392600160a060020a039091169163e7dd97509160248082019260209290919082900301818787803b158015611b2257600080fd5b505af1158015611b36573d6000803e3d6000fd5b505050506040513d6020811015611b4c57600080fd5b50516002546040805160e060020a6365de1eb30281526004810184905290518d92600092600160a060020a03909116916365de1eb391602480820192869290919082900301818387803b158015611ba257600080fd5b505af1158015611bb6573d6000803e3d6000fd5b505050506040513d6000823e601f3d908101601f191682016040526080811015611bdf57600080fd5b810190808051640100000000811115611bf757600080fd5b82016020810184811115611c0a57600080fd5b8151640100000000811182820187101715611c2457600080fd5b5050506060015192505050801515611c3b57600080fd5b6002546040805160e260020a631ad96a0d02815260048101869052602481018590529051600160a060020a0390921691636b65a834916044808201926020929091908290030181600087803b158015611c9357600080fd5b505af1158015611ca7573d6000803e3d6000fd5b505050506040513d6020811015611cbd57600080fd5b50511515611cca57600080fd5b60008b11611cd757600080fd5b878614611ce357600080fd5b60008611611cf057600080fd5b600093505b8a841015611d8357611d788d8d8d87818110611d0d57fe5b905060200201358c8c8c808060200260200160405190810160405280939291908181526020018383602002808284378201915050505050508b8b80806020026020016040519081016040528093929190818152602001838360200280828437506127f7945050505050565b600190930192611cf5565b6040518d907f1cac0e9cdc3d4d98e6e91fda2bf89adbc89eb42ba2b644d0a7b91b390351ab2590600090a25060019c9b505050505050505050505050565b606080600080600088886000600260009054906101000a9004600160a060020a0316600160a060020a03166365de1eb3846040518263ffffffff1660e060020a02815260040180828152602001915050600060405180830381600087803b158015611e2b57600080fd5b505af1158015611e3f573d6000803e3d6000fd5b505050506040513d6000823e601f3d908101601f191682016040526080811015611e6857600080fd5b810190808051640100000000811115611e8057600080fd5b82016020810184811115611e9357600080fd5b8151640100000000811182820187101715611ead57600080fd5b5050506060015192505050801515611ec457600080fd5b6002546040805160e260020a631ad96a0d02815260048101869052602481018590529051600160a060020a0390921691636b65a834916044808201926020929091908290030181600087803b158015611f1c57600080fd5b505af1158015611f30573d6000803e3d6000fd5b505050506040513d6020811015611f4657600080fd5b50511515611f5357600080fd5b60008911611f6057600080fd5b604080518a81526020808c02820101909152898015611f89578160200160208202803883390190505b509650600095505b8886101561207757898987818110611fa557fe5b905060200201359450600260009054906101000a9004600160a060020a0316600160a060020a031663ee76c2d68d8d886040518463ffffffff1660e060020a0281526004018084815260200183815260200182815260200193505050506040805180830381600087803b15801561201b57600080fd5b505af115801561202f573d6000803e3d6000fd5b505050506040513d604081101561204557600080fd5b50518751909450849088908890811061205a57fe5b61ffff909216602092830290910190910152600190950194611f91565b50949a9950505050505050505050565b600154600160a060020a031681565b6002546040805160e460020a630e7dd9750281523360048201529051600092839283928392600160a060020a03169163e7dd975091602480830192602092919082900301818787803b1580156120eb57600080fd5b505af11580156120ff573d6000803e3d6000fd5b505050506040513d602081101561211557600080fd5b505191506000821161212657600080fd5b6002546040805160e060020a6365de1eb3028152600481018590529051600160a060020a03909216916365de1eb39160248082019260009290919082900301818387803b15801561217657600080fd5b505af115801561218a573d6000803e3d6000fd5b505050506040513d6000823e601f3d908101601f1916820160405260808110156121b357600080fd5b8101908080516401000000008111156121cb57600080fd5b820160208101848111156121de57600080fd5b81516401000000008111828201871017156121f857600080fd5b505050606001519250505080151561220f57600080fd5b6002546040805160e460020a630e7dd9750281523360048201529051600160a060020a039092169163e7dd9750916024808201926020929091908290030181600087803b15801561225f57600080fd5b505af1158015612273573d6000803e3d6000fd5b505050506040513d602081101561228957600080fd5b50516002546040805160e060020a6365de1eb30281526004810184905290518892600092600160a060020a03909116916365de1eb391602480820192869290919082900301818387803b1580156122df57600080fd5b505af11580156122f3573d6000803e3d6000fd5b505050506040513d6000823e601f3d908101601f19168201604052608081101561231c57600080fd5b81019080805164010000000081111561233457600080fd5b8201602081018481111561234757600080fd5b815164010000000081118282018710171561236157600080fd5b505050606001519250505080151561237857600080fd5b6002546040805160e260020a631ad96a0d02815260048101869052602481018590529051600160a060020a0390921691636b65a834916044808201926020929091908290030181600087803b1580156123d057600080fd5b505af11580156123e4573d6000803e3d6000fd5b505050506040513d60208110156123fa57600080fd5b5051151561240757600080fd5b6002546040805160e460020a630e7dd9750281523360048201529051600160a060020a039092169163e7dd9750916024808201926020929091908290030181600087803b15801561245757600080fd5b505af115801561246b573d6000803e3d6000fd5b505050506040513d602081101561248157600080fd5b5051600254604080517f786e479900000000000000000000000000000000000000000000000000000000815260048101849052602481018c90529051929850600160a060020a039091169163786e47999160448082019260009290919082900301818387803b1580156124f357600080fd5b505af1158015612507573d6000803e3d6000fd5b50506040518a92503391507fc8637ab25619c69fd066be8eba8adcf7e550f47deb35e9e3c02574fa0fa716d890600090a3506001979650505050505050565b600054600160a060020a0316331461255d57600080fd5b6001805473ffffffffffffffffffffffffffffffffffffffff1916600160a060020a0392909216919091179055565b6002546040805160e460020a630e7dd97502815233600482015290516000928392600160a060020a039091169163e7dd97509160248082019260209290919082900301818787803b1580156125e057600080fd5b505af11580156125f4573d6000803e3d6000fd5b505050506040513d602081101561260a57600080fd5b50516002546040805160e060020a6365de1eb30281526004810184905290518992600092600160a060020a03909116916365de1eb391602480820192869290919082900301818387803b15801561266057600080fd5b505af1158015612674573d6000803e3d6000fd5b505050506040513d6000823e601f3d908101601f19168201604052608081101561269d57600080fd5b8101908080516401000000008111156126b557600080fd5b820160208101848111156126c857600080fd5b81516401000000008111828201871017156126e257600080fd5b50505060600151925050508015156126f957600080fd5b6002546040805160e260020a631ad96a0d02815260048101869052602481018590529051600160a060020a0390921691636b65a834916044808201926020929091908290030181600087803b15801561275157600080fd5b505af1158015612765573d6000803e3d6000fd5b505050506040513d602081101561277b57600080fd5b5051151561278857600080fd5b600093505b868410156127bd576127b2898989878181106127a557fe5b90506020020135886129eb565b60019093019261278d565b60405189907fd6a2898743d11912ae34b9e44c23aef05d6bb87b12f6550fafa5890231d569e790600090a250600198975050505050505050565b6002546040805160e460020a630e7dd97502815233600482015290516000928392600160a060020a039091169163e7dd97509160248082019260209290919082900301818787803b15801561284b57600080fd5b505af115801561285f573d6000803e3d6000fd5b505050506040513d602081101561287557600080fd5b5051600254604080517ff3c505c200000000000000000000000000000000000000000000000000000000815260048101849052602481018b9052604481018a905261ffff891660648201529051929450600160a060020a039091169163f3c505c29160848082019260009290919082900301818387803b1580156128f857600080fd5b505af115801561290c573d6000803e3d6000fd5b50505050600090505b83518110156129e2576002548451600160a060020a039091169063edb0bb3a9084908a908a9089908790811061294757fe5b90602001906020020151888781518110151561295f57fe5b906020019060200201516040518663ffffffff1660e060020a0281526004018086815260200185815260200184815260200183815260200182815260200195505050505050600060405180830381600087803b1580156129be57600080fd5b505af11580156129d2573d6000803e3d6000fd5b5050600190920191506129159050565b50505050505050565b6002546040805160e460020a630e7dd9750281523360048201529051600092600160a060020a03169163e7dd975091602480830192602092919082900301818787803b158015612a3a57600080fd5b505af1158015612a4e573d6000803e3d6000fd5b505050506040513d6020811015612a6457600080fd5b5051600254604080517ff3c505c200000000000000000000000000000000000000000000000000000000815260048101849052602481018890526044810187905261ffff861660648201529051929350600160a060020a039091169163f3c505c29160848082019260009290919082900301818387803b158015612ae757600080fd5b505af1158015612afb573d6000803e3d6000fd5b50505050505050505600a165627a7a72305820571437a8a6815a61ad1b39a8a1c9228611329a4363cb11da03dee7031e6549160029",
  "source": "pragma solidity ^0.4.24;\n\nimport \"./extensions/TRNPrices.sol\";\nimport \"./extensions/TRNRatePlans.sol\";\n\ncontract TripioRoomNightVendor is TRNPrices, TRNRatePlans {\n    /**\n     * Constructor\n     */\n    constructor(address _dataSource) public {\n        // Init the data source\n        dataSource = TripioRoomNightData(_dataSource);\n    }\n    \n    /**\n     * @dev Destory the contract\n     */\n    function destroy() external onlyOwner {\n        selfdestruct(owner);\n    }\n}",
  "sourcePath": "/Users/Kirn/Documents/Workspace/Dawn/tripio-roomnight/truffle/contracts/TripioRoomNightVendor.sol",
  "compiler": {
    "name": "solc",
    "version": "0.4.24+commit.e67f0147.Emscripten.clang"
  },
  "schemaVersion": "2.0.1",
  "updatedAt": "2018-08-31T07:11:19.130Z"
}