{
  "contractName": "TripioRoomNightVendor",
  "abi": [
    {
      "constant": false,
      "inputs": [
        {
          "name": "_name",
          "type": "string"
        },
        {
          "name": "_ipfs",
          "type": "bytes32"
        }
      ],
      "name": "createRatePlan",
      "outputs": [
        {
          "name": "",
          "type": "uint256"
        }
      ],
      "payable": false,
      "stateMutability": "nonpayable",
      "type": "function"
    },
    {
      "constant": true,
      "inputs": [
        {
          "name": "_vendorId",
          "type": "uint256"
        },
        {
          "name": "_rpid",
          "type": "uint256"
        },
        {
          "name": "_date",
          "type": "uint256"
        },
        {
          "name": "_token",
          "type": "uint256"
        }
      ],
      "name": "priceOfDate",
      "outputs": [
        {
          "name": "_inventory",
          "type": "uint16"
        },
        {
          "name": "_price",
          "type": "uint256"
        }
      ],
      "payable": false,
      "stateMutability": "view",
      "type": "function"
    },
    {
      "constant": true,
      "inputs": [
        {
          "name": "_vendorId",
          "type": "uint256"
        },
        {
          "name": "_rpid",
          "type": "uint256"
        },
        {
          "name": "_dates",
          "type": "uint256[]"
        },
        {
          "name": "_token",
          "type": "uint256"
        }
      ],
      "name": "pricesAndInventoriesOfDate",
      "outputs": [
        {
          "name": "",
          "type": "uint256[]"
        },
        {
          "name": "",
          "type": "uint16[]"
        }
      ],
      "payable": false,
      "stateMutability": "view",
      "type": "function"
    },
    {
      "constant": false,
      "inputs": [
        {
          "name": "_rpid",
          "type": "uint256"
        },
        {
          "name": "_name",
          "type": "string"
        },
        {
          "name": "_ipfs",
          "type": "bytes32"
        }
      ],
      "name": "modifyRatePlan",
      "outputs": [
        {
          "name": "",
          "type": "bool"
        }
      ],
      "payable": false,
      "stateMutability": "nonpayable",
      "type": "function"
    },
    {
      "constant": true,
      "inputs": [
        {
          "name": "_vendorId",
          "type": "uint256"
        },
        {
          "name": "_rpid",
          "type": "uint256"
        }
      ],
      "name": "ratePlanOfVendor",
      "outputs": [
        {
          "name": "_name",
          "type": "string"
        },
        {
          "name": "_timestamp",
          "type": "uint256"
        },
        {
          "name": "_ipfs",
          "type": "bytes32"
        }
      ],
      "payable": false,
      "stateMutability": "view",
      "type": "function"
    },
    {
      "constant": true,
      "inputs": [
        {
          "name": "_vendorId",
          "type": "uint256"
        },
        {
          "name": "_from",
          "type": "uint256"
        },
        {
          "name": "_limit",
          "type": "uint256"
        }
      ],
      "name": "ratePlansOfVendor",
      "outputs": [
        {
          "name": "",
          "type": "uint256[]"
        },
        {
          "name": "",
          "type": "uint256"
        }
      ],
      "payable": false,
      "stateMutability": "view",
      "type": "function"
    },
    {
      "constant": false,
      "inputs": [
        {
          "name": "_rpid",
          "type": "uint256"
        },
        {
          "name": "_tokens",
          "type": "uint256[]"
        },
        {
          "name": "_prices",
          "type": "uint256[]"
        },
        {
          "name": "_inventory",
          "type": "uint16"
        }
      ],
      "name": "updateBasePrice",
      "outputs": [
        {
          "name": "",
          "type": "bool"
        }
      ],
      "payable": false,
      "stateMutability": "nonpayable",
      "type": "function"
    },
    {
      "constant": true,
      "inputs": [
        {
          "name": "_vendorId",
          "type": "uint256"
        },
        {
          "name": "_rpid",
          "type": "uint256"
        },
        {
          "name": "_dates",
          "type": "uint256[]"
        },
        {
          "name": "_token",
          "type": "uint256"
        }
      ],
      "name": "pricesOfDate",
      "outputs": [
        {
          "name": "",
          "type": "uint256[]"
        }
      ],
      "payable": false,
      "stateMutability": "view",
      "type": "function"
    },
    {
      "constant": false,
      "inputs": [],
      "name": "acceptOwnership",
      "outputs": [],
      "payable": false,
      "stateMutability": "nonpayable",
      "type": "function"
    },
    {
      "constant": true,
      "inputs": [],
      "name": "owner",
      "outputs": [
        {
          "name": "",
          "type": "address"
        }
      ],
      "payable": false,
      "stateMutability": "view",
      "type": "function"
    },
    {
      "constant": false,
      "inputs": [
        {
          "name": "_rpid",
          "type": "uint256"
        },
        {
          "name": "_dates",
          "type": "uint256[]"
        },
        {
          "name": "_inventory",
          "type": "uint16"
        },
        {
          "name": "_tokens",
          "type": "uint256[]"
        },
        {
          "name": "_prices",
          "type": "uint256[]"
        }
      ],
      "name": "updatePrices",
      "outputs": [
        {
          "name": "",
          "type": "bool"
        }
      ],
      "payable": false,
      "stateMutability": "nonpayable",
      "type": "function"
    },
    {
      "constant": true,
      "inputs": [
        {
          "name": "_vendorId",
          "type": "uint256"
        },
        {
          "name": "_rpid",
          "type": "uint256"
        },
        {
          "name": "_dates",
          "type": "uint256[]"
        }
      ],
      "name": "inventoriesOfDate",
      "outputs": [
        {
          "name": "",
          "type": "uint16[]"
        }
      ],
      "payable": false,
      "stateMutability": "view",
      "type": "function"
    },
    {
      "constant": true,
      "inputs": [],
      "name": "newOwner",
      "outputs": [
        {
          "name": "",
          "type": "address"
        }
      ],
      "payable": false,
      "stateMutability": "view",
      "type": "function"
    },
    {
      "constant": false,
      "inputs": [
        {
          "name": "_rpid",
          "type": "uint256"
        }
      ],
      "name": "removeRatePlan",
      "outputs": [
        {
          "name": "",
          "type": "bool"
        }
      ],
      "payable": false,
      "stateMutability": "nonpayable",
      "type": "function"
    },
    {
      "constant": false,
      "inputs": [
        {
          "name": "_newOwner",
          "type": "address"
        }
      ],
      "name": "transferOwnership",
      "outputs": [],
      "payable": false,
      "stateMutability": "nonpayable",
      "type": "function"
    },
    {
      "constant": false,
      "inputs": [
        {
          "name": "_rpid",
          "type": "uint256"
        },
        {
          "name": "_dates",
          "type": "uint256[]"
        },
        {
          "name": "_inventory",
          "type": "uint16"
        }
      ],
      "name": "updateInventories",
      "outputs": [
        {
          "name": "",
          "type": "bool"
        }
      ],
      "payable": false,
      "stateMutability": "nonpayable",
      "type": "function"
    },
    {
      "inputs": [
        {
          "name": "_dataSource",
          "type": "address"
        }
      ],
      "payable": false,
      "stateMutability": "nonpayable",
      "type": "constructor"
    },
    {
      "anonymous": false,
      "inputs": [
        {
          "indexed": true,
          "name": "_vendor",
          "type": "address"
        },
        {
          "indexed": false,
          "name": "_name",
          "type": "string"
        },
        {
          "indexed": true,
          "name": "_ipfs",
          "type": "bytes32"
        }
      ],
      "name": "RatePlanCreated",
      "type": "event"
    },
    {
      "anonymous": false,
      "inputs": [
        {
          "indexed": true,
          "name": "_vendor",
          "type": "address"
        },
        {
          "indexed": true,
          "name": "_rpid",
          "type": "uint256"
        }
      ],
      "name": "RatePlanRemoved",
      "type": "event"
    },
    {
      "anonymous": false,
      "inputs": [
        {
          "indexed": true,
          "name": "_vendor",
          "type": "address"
        },
        {
          "indexed": true,
          "name": "_rpid",
          "type": "uint256"
        },
        {
          "indexed": false,
          "name": "name",
          "type": "string"
        },
        {
          "indexed": false,
          "name": "_ipfs",
          "type": "bytes32"
        }
      ],
      "name": "RatePlanModified",
      "type": "event"
    },
    {
      "anonymous": false,
      "inputs": [
        {
          "indexed": true,
          "name": "_rpid",
          "type": "uint256"
        }
      ],
      "name": "RatePlanPriceChanged",
      "type": "event"
    },
    {
      "anonymous": false,
      "inputs": [
        {
          "indexed": true,
          "name": "_rpid",
          "type": "uint256"
        }
      ],
      "name": "RatePlanInventoryChanged",
      "type": "event"
    },
    {
      "anonymous": false,
      "inputs": [
        {
          "indexed": true,
          "name": "_rpid",
          "type": "uint256"
        }
      ],
      "name": "RatePlanBasePriceChanged",
      "type": "event"
    },
    {
      "anonymous": false,
      "inputs": [
        {
          "indexed": true,
          "name": "from",
          "type": "address"
        },
        {
          "indexed": true,
          "name": "to",
          "type": "address"
        }
      ],
      "name": "OwnershipTransferred",
      "type": "event"
    },
    {
      "constant": false,
      "inputs": [],
      "name": "destroy",
      "outputs": [],
      "payable": false,
      "stateMutability": "nonpayable",
      "type": "function"
    }
  ],
  "bytecode": "0x608060405234801561001057600080fd5b50604051602080612dda833981016040525160008054600160a060020a0319908116331790915560028054600160a060020a0390931692909116919091179055612d7b8061005f6000396000f3006080604052600436106100d75763ffffffff60e060020a60003504166317a5f8cc81146100dc5780631eae85cb1461011257806321edbe241461015157806333c6cdd31461021557806341348053146102505780634ace9ccc146102f15780636215f2921461036a5780636529d1c9146103a157806379ba50971461041c57806383197ef0146104335780638da5cb5b146104485780638f38bf3414610479578063afab2b0f146104bd578063d4ee1d90146104e5578063e8672de9146104fa578063f2fde38b14610512578063f54d41db14610533575b600080fd5b3480156100e857600080fd5b5061010060246004803582810192910135903561055e565b60408051918252519081900360200190f35b34801561011e57600080fd5b5061013360043560243560443560643561088a565b6040805161ffff909316835260208301919091528051918290030190f35b34801561015d57600080fd5b5061017c60048035906024803591604435918201910135606435610ad6565b604051808060200180602001838103835285818151815260200191508051906020019060200280838360005b838110156101c05781810151838201526020016101a8565b50505050905001838103825284818151815260200191508051906020019060200280838360005b838110156101ff5781810151838201526020016101e7565b5050505090500194505050505060405180910390f35b34801561022157600080fd5b5061023c600480359060248035908101910135604435610c51565b604080519115158252519081900360200190f35b34801561025c57600080fd5b5061026b60043560243561116d565b6040805160208082018590529181018390526060808252855190820152845190918291608083019187019080838360005b838110156102b457818101518382015260200161029c565b50505050905090810190601f1680156102e15780820380516001836020036101000a031916815260200191505b5094505050505060405180910390f35b3480156102fd57600080fd5b5061030f600435602435604435611379565b6040518080602001838152602001828103825284818151815260200191508051906020019060200280838360005b8381101561035557818101518382015260200161033d565b50505050905001935050505060405180910390f35b34801561037657600080fd5b5061023c60048035906024803580820192908101359160443590810191013561ffff60643516611581565b3480156103ad57600080fd5b506103cc600480359060248035916044359182019101356064356119aa565b60408051602080825283518183015283519192839290830191858101910280838360005b838110156104085781810151838201526020016103f0565b505050509050019250505060405180910390f35b34801561042857600080fd5b50610431611c5c565b005b34801561043f57600080fd5b50610431611ce4565b34801561045457600080fd5b5061045d611d09565b60408051600160a060020a039092168252519081900360200190f35b34801561048557600080fd5b5061023c60048035906024803580820192908101359161ffff6044351691606435808301929082013591608435918201910135611d18565b3480156104c957600080fd5b506103cc6004803590602480359160443591820191013561200b565b3480156104f157600080fd5b5061045d6122d1565b34801561050657600080fd5b5061023c6004356122e0565b34801561051e57600080fd5b50610431600160a060020a0360043516612790565b34801561053f57600080fd5b5061023c60048035906024803590810191013561ffff604435166127d6565b6002546040805160e460020a630e7dd975028152336004820152905160009260609284928392600160a060020a03169163e7dd975091602480830192602092919082900301818787803b1580156105b457600080fd5b505af11580156105c8573d6000803e3d6000fd5b505050506040513d60208110156105de57600080fd5b5051151561069157600254604080517fe65d971700000000000000000000000000000000000000000000000000000000815233602482015260006044820181905260606004830152606482018190529151600160a060020a039093169263e65d97179260a480840193602093929083900390910190829087803b15801561066457600080fd5b505af1158015610678573d6000803e3d6000fd5b505050506040513d602081101561068e57600080fd5b50505b86868080601f0160208091040260200160405190810160405280939291908181526020018383808284378201915050505050509250600083511180156106d8575060c88351105b15156106e357600080fd5b6002546040805160e460020a630e7dd9750281523360048201529051600160a060020a039092169163e7dd9750916024808201926020929091908290030181600087803b15801561073357600080fd5b505af1158015610747573d6000803e3d6000fd5b505050506040513d602081101561075d57600080fd5b50516002546040517f114616140000000000000000000000000000000000000000000000000000000081526004810183815260448201899052600060648301819052608060248401908152608484018c9052949650600160a060020a039093169363114616149387938d938d938d939260a40186868082843782019150509650505050505050602060405180830381600087803b1580156107fd57600080fd5b505af1158015610811573d6000803e3d6000fd5b505050506040513d602081101561082757600080fd5b50516040805160208082528101899052919250869133917f1a7199d7eed903910d73fec186e40650531a090d0698d4d8545edcc732d60fbe918b918b91908190810184848082843760405192018290039550909350505050a39695505050505050565b60008085856000600260009054906101000a9004600160a060020a0316600160a060020a03166365de1eb3846040518263ffffffff1660e060020a02815260040180828152602001915050600060405180830381600087803b1580156108ef57600080fd5b505af1158015610903573d6000803e3d6000fd5b505050506040513d6000823e601f3d908101601f19168201604052608081101561092c57600080fd5b81019080805164010000000081111561094457600080fd5b8201602081018481111561095757600080fd5b815164010000000081118282018710171561097157600080fd5b505050606001519250505080151561098857600080fd5b6002546040805160e260020a631ad96a0d02815260048101869052602481018590529051600160a060020a0390921691636b65a834916044808201926020929091908290030181600087803b1580156109e057600080fd5b505af11580156109f4573d6000803e3d6000fd5b505050506040513d6020811015610a0a57600080fd5b50511515610a1757600080fd5b600254604080517fc4725577000000000000000000000000000000000000000000000000000000008152600481018c9052602481018b9052604481018a9052606481018990529051600160a060020a039092169163c4725577916084808201926060929091908290030181600087803b158015610a9357600080fd5b505af1158015610aa7573d6000803e3d6000fd5b505050506040513d6060811015610abd57600080fd5b508051604090910151909a909950975050505050505050565b606080606080600080600089899050604051908082528060200260200182016040528015610b0e578160200160208202803883390190505b50604080518b81526020808d02820101909152909550898015610b3b578160200160208202803883390190505b509350600092505b88831015610c3f57600254600160a060020a031663c47255778d8d8d8d88818110610b6a57fe5b905060200201358c6040518563ffffffff1660e060020a02815260040180858152602001848152602001838152602001828152602001945050505050606060405180830381600087803b158015610bc057600080fd5b505af1158015610bd4573d6000803e3d6000fd5b505050506040513d6060811015610bea57600080fd5b508051604090910151865191935091508190869085908110610c0857fe5b6020908102909101015283518290859085908110610c2257fe5b61ffff909216602092830290910190910152600190920191610b43565b50929a91995090975050505050505050565b6002546040805160e460020a630e7dd9750281523360048201529051600092839283928392600160a060020a03169163e7dd975091602480830192602092919082900301818787803b158015610ca657600080fd5b505af1158015610cba573d6000803e3d6000fd5b505050506040513d6020811015610cd057600080fd5b5051915060008211610ce157600080fd5b6002546040805160e060020a6365de1eb3028152600481018590529051600160a060020a03909216916365de1eb39160248082019260009290919082900301818387803b158015610d3157600080fd5b505af1158015610d45573d6000803e3d6000fd5b505050506040513d6000823e601f3d908101601f191682016040526080811015610d6e57600080fd5b810190808051640100000000811115610d8657600080fd5b82016020810184811115610d9957600080fd5b8151640100000000811182820187101715610db357600080fd5b5050506060015192505050801515610dca57600080fd5b6002546040805160e460020a630e7dd9750281523360048201529051600160a060020a039092169163e7dd9750916024808201926020929091908290030181600087803b158015610e1a57600080fd5b505af1158015610e2e573d6000803e3d6000fd5b505050506040513d6020811015610e4457600080fd5b50516002546040805160e060020a6365de1eb30281526004810184905290518b92600092600160a060020a03909116916365de1eb391602480820192869290919082900301818387803b158015610e9a57600080fd5b505af1158015610eae573d6000803e3d6000fd5b505050506040513d6000823e601f3d908101601f191682016040526080811015610ed757600080fd5b810190808051640100000000811115610eef57600080fd5b82016020810184811115610f0257600080fd5b8151640100000000811182820187101715610f1c57600080fd5b5050506060015192505050801515610f3357600080fd5b6002546040805160e260020a631ad96a0d02815260048101869052602481018590529051600160a060020a0390921691636b65a834916044808201926020929091908290030181600087803b158015610f8b57600080fd5b505af1158015610f9f573d6000803e3d6000fd5b505050506040513d6020811015610fb557600080fd5b50511515610fc257600080fd5b6002546040805160e460020a630e7dd9750281523360048201529051600160a060020a039092169163e7dd9750916024808201926020929091908290030181600087803b15801561101257600080fd5b505af1158015611026573d6000803e3d6000fd5b505050506040513d602081101561103c57600080fd5b81019080805190602001909291905050509550600260009054906101000a9004600160a060020a0316600160a060020a031663074c32c4878d8d8d8d6040518663ffffffff1660e060020a02815260040180868152602001858152602001806020018360001916600019168152602001828103825285858281815260200192508082843782019150509650505050505050600060405180830381600087803b1580156110e757600080fd5b505af11580156110fb573d6000803e3d6000fd5b505060408051602081018c90528181529081018c90528d92503391507f808317aa9eb7f0938d449dd1ebb90ec654a4cdc840bf89eb095ce85cff14a48c908d908d908d9080606081018585808284376040519201829003965090945050505050a35060019a9950505050505050505050565b6060600080846000600260009054906101000a9004600160a060020a0316600160a060020a03166365de1eb3836040518263ffffffff1660e060020a02815260040180828152602001915050600060405180830381600087803b1580156111d357600080fd5b505af11580156111e7573d6000803e3d6000fd5b505050506040513d6000823e601f3d908101601f19168201604052608081101561121057600080fd5b81019080805164010000000081111561122857600080fd5b8201602081018481111561123b57600080fd5b815164010000000081118282018710171561125557600080fd5b505050606001519250505080151561126c57600080fd5b600254604080517f762fdc0c000000000000000000000000000000000000000000000000000000008152600481018a9052602481018990529051600160a060020a039092169163762fdc0c9160448082019260009290919082900301818387803b1580156112d957600080fd5b505af11580156112ed573d6000803e3d6000fd5b505050506040513d6000823e601f3d908101601f19168201604052606081101561131657600080fd5b81019080805164010000000081111561132e57600080fd5b8201602081018481111561134157600080fd5b815164010000000081118282018710171561135b57600080fd5b50506020820151604090920151909b919a5098509650505050505050565b6002546040805160e060020a6365de1eb302815260048101869052905160609260009287928492600160a060020a0316916365de1eb3916024808301928692919082900301818387803b1580156113cf57600080fd5b505af11580156113e3573d6000803e3d6000fd5b505050506040513d6000823e601f3d908101601f19168201604052608081101561140c57600080fd5b81019080805164010000000081111561142457600080fd5b8201602081018481111561143757600080fd5b815164010000000081118282018710171561145157600080fd5b505050606001519250505080151561146857600080fd5b600254604080517f544f43e3000000000000000000000000000000000000000000000000000000008152600481018a90526024810189905260448101889052600160648201529051600160a060020a039092169163544f43e39160848082019260009290919082900301818387803b1580156114e357600080fd5b505af11580156114f7573d6000803e3d6000fd5b505050506040513d6000823e601f3d908101601f19168201604090815281101561152057600080fd5b81019080805164010000000081111561153857600080fd5b8201602081018481111561154b57600080fd5b815185602082028301116401000000008211171561156857600080fd5b5050602090910151909650945050505050935093915050565b6002546040805160e460020a630e7dd975028152336004820152905160009283928392600160a060020a039092169163e7dd97509160248082019260209290919082900301818787803b1580156115d757600080fd5b505af11580156115eb573d6000803e3d6000fd5b505050506040513d602081101561160157600080fd5b50516002546040805160e060020a6365de1eb30281526004810184905290518c92600092600160a060020a03909116916365de1eb391602480820192869290919082900301818387803b15801561165757600080fd5b505af115801561166b573d6000803e3d6000fd5b505050506040513d6000823e601f3d908101601f19168201604052608081101561169457600080fd5b8101908080516401000000008111156116ac57600080fd5b820160208101848111156116bf57600080fd5b81516401000000008111828201871017156116d957600080fd5b50505060600151925050508015156116f057600080fd5b6002546040805160e260020a631ad96a0d02815260048101869052602481018590529051600160a060020a0390921691636b65a834916044808201926020929091908290030181600087803b15801561174857600080fd5b505af115801561175c573d6000803e3d6000fd5b505050506040513d602081101561177257600080fd5b5051151561177f57600080fd5b89881461178b57600080fd5b6000881161179857600080fd5b6002546040805160e460020a630e7dd9750281523360048201529051600160a060020a039092169163e7dd9750916024808201926020929091908290030181600087803b1580156117e857600080fd5b505af11580156117fc573d6000803e3d6000fd5b505050506040513d602081101561181257600080fd5b81019080805190602001909291905050509450600260009054906101000a9004600160a060020a0316600160a060020a03166325635b68868e8a6040518463ffffffff1660e060020a028152600401808481526020018381526020018261ffff1661ffff1681526020019350505050600060405180830381600087803b15801561189b57600080fd5b505af11580156118af573d6000803e3d6000fd5b50505050600093505b8984101561196d57600254600160a060020a031663be5e72e0868e8e8e898181106118df57fe5b905060200201358d8d8a81811015156118f457fe5b905060200201356040518563ffffffff1660e060020a02815260040180858152602001848152602001838152602001828152602001945050505050600060405180830381600087803b15801561194957600080fd5b505af115801561195d573d6000803e3d6000fd5b5050600190950194506118b89050565b6040518c907f360c63f6ccd01d11a1b3a05222d7921c3da0f941a862674b1218d974541773d490600090a25060019b9a5050505050505050505050565b60608060008088886000600260009054906101000a9004600160a060020a0316600160a060020a03166365de1eb3846040518263ffffffff1660e060020a02815260040180828152602001915050600060405180830381600087803b158015611a1257600080fd5b505af1158015611a26573d6000803e3d6000fd5b505050506040513d6000823e601f3d908101601f191682016040526080811015611a4f57600080fd5b810190808051640100000000811115611a6757600080fd5b82016020810184811115611a7a57600080fd5b8151640100000000811182820187101715611a9457600080fd5b5050506060015192505050801515611aab57600080fd5b6002546040805160e260020a631ad96a0d02815260048101869052602481018590529051600160a060020a0390921691636b65a834916044808201926020929091908290030181600087803b158015611b0357600080fd5b505af1158015611b17573d6000803e3d6000fd5b505050506040513d6020811015611b2d57600080fd5b50511515611b3a57600080fd5b60008911611b4757600080fd5b604080518a81526020808c02820101909152898015611b70578160200160208202803883390190505b509550600094505b88851015611c4c57600254600160a060020a031663c47255778d8d8d8d8a818110611b9f57fe5b905060200201358c6040518563ffffffff1660e060020a02815260040180858152602001848152602001838152602001828152602001945050505050606060405180830381600087803b158015611bf557600080fd5b505af1158015611c09573d6000803e3d6000fd5b505050506040513d6060811015611c1f57600080fd5b506040015186519094508490879087908110611c3757fe5b60209081029091010152600190940193611b78565b50939a9950505050505050505050565b600154600160a060020a03163314611c7357600080fd5b60015460008054604051600160a060020a0393841693909116917f8be0079c531659141344cd1fd0a4f28419497f9722a3daafe3b4186f6b6457e091a3600180546000805473ffffffffffffffffffffffffffffffffffffffff19908116600160a060020a03841617909155169055565b600054600160a060020a03163314611cfb57600080fd5b600054600160a060020a0316ff5b600054600160a060020a031681565b6002546040805160e460020a630e7dd97502815233600482015290516000928392600160a060020a039091169163e7dd97509160248082019260209290919082900301818787803b158015611d6c57600080fd5b505af1158015611d80573d6000803e3d6000fd5b505050506040513d6020811015611d9657600080fd5b50516002546040805160e060020a6365de1eb30281526004810184905290518d92600092600160a060020a03909116916365de1eb391602480820192869290919082900301818387803b158015611dec57600080fd5b505af1158015611e00573d6000803e3d6000fd5b505050506040513d6000823e601f3d908101601f191682016040526080811015611e2957600080fd5b810190808051640100000000811115611e4157600080fd5b82016020810184811115611e5457600080fd5b8151640100000000811182820187101715611e6e57600080fd5b5050506060015192505050801515611e8557600080fd5b6002546040805160e260020a631ad96a0d02815260048101869052602481018590529051600160a060020a0390921691636b65a834916044808201926020929091908290030181600087803b158015611edd57600080fd5b505af1158015611ef1573d6000803e3d6000fd5b505050506040513d6020811015611f0757600080fd5b50511515611f1457600080fd5b60008b11611f2157600080fd5b878614611f2d57600080fd5b60008611611f3a57600080fd5b600093505b8a841015611fcd57611fc28d8d8d87818110611f5757fe5b905060200201358c8c8c808060200260200160405190810160405280939291908181526020018383602002808284378201915050505050508b8b8080602002602001604051908101604052809392919081815260200183836020028082843750612a41945050505050565b600190930192611f3f565b6040518d907f1cac0e9cdc3d4d98e6e91fda2bf89adbc89eb42ba2b644d0a7b91b390351ab2590600090a25060019c9b505050505050505050505050565b606080600080600088886000600260009054906101000a9004600160a060020a0316600160a060020a03166365de1eb3846040518263ffffffff1660e060020a02815260040180828152602001915050600060405180830381600087803b15801561207557600080fd5b505af1158015612089573d6000803e3d6000fd5b505050506040513d6000823e601f3d908101601f1916820160405260808110156120b257600080fd5b8101908080516401000000008111156120ca57600080fd5b820160208101848111156120dd57600080fd5b81516401000000008111828201871017156120f757600080fd5b505050606001519250505080151561210e57600080fd5b6002546040805160e260020a631ad96a0d02815260048101869052602481018590529051600160a060020a0390921691636b65a834916044808201926020929091908290030181600087803b15801561216657600080fd5b505af115801561217a573d6000803e3d6000fd5b505050506040513d602081101561219057600080fd5b5051151561219d57600080fd5b600089116121aa57600080fd5b604080518a81526020808c028201019091528980156121d3578160200160208202803883390190505b509650600095505b888610156122c1578989878181106121ef57fe5b905060200201359450600260009054906101000a9004600160a060020a0316600160a060020a031663ee76c2d68d8d886040518463ffffffff1660e060020a0281526004018084815260200183815260200182815260200193505050506040805180830381600087803b15801561226557600080fd5b505af1158015612279573d6000803e3d6000fd5b505050506040513d604081101561228f57600080fd5b5051875190945084908890889081106122a457fe5b61ffff9092166020928302909101909101526001909501946121db565b50949a9950505050505050505050565b600154600160a060020a031681565b6002546040805160e460020a630e7dd9750281523360048201529051600092839283928392600160a060020a03169163e7dd975091602480830192602092919082900301818787803b15801561233557600080fd5b505af1158015612349573d6000803e3d6000fd5b505050506040513d602081101561235f57600080fd5b505191506000821161237057600080fd5b6002546040805160e060020a6365de1eb3028152600481018590529051600160a060020a03909216916365de1eb39160248082019260009290919082900301818387803b1580156123c057600080fd5b505af11580156123d4573d6000803e3d6000fd5b505050506040513d6000823e601f3d908101601f1916820160405260808110156123fd57600080fd5b81019080805164010000000081111561241557600080fd5b8201602081018481111561242857600080fd5b815164010000000081118282018710171561244257600080fd5b505050606001519250505080151561245957600080fd5b6002546040805160e460020a630e7dd9750281523360048201529051600160a060020a039092169163e7dd9750916024808201926020929091908290030181600087803b1580156124a957600080fd5b505af11580156124bd573d6000803e3d6000fd5b505050506040513d60208110156124d357600080fd5b50516002546040805160e060020a6365de1eb30281526004810184905290518892600092600160a060020a03909116916365de1eb391602480820192869290919082900301818387803b15801561252957600080fd5b505af115801561253d573d6000803e3d6000fd5b505050506040513d6000823e601f3d908101601f19168201604052608081101561256657600080fd5b81019080805164010000000081111561257e57600080fd5b8201602081018481111561259157600080fd5b81516401000000008111828201871017156125ab57600080fd5b50505060600151925050508015156125c257600080fd5b6002546040805160e260020a631ad96a0d02815260048101869052602481018590529051600160a060020a0390921691636b65a834916044808201926020929091908290030181600087803b15801561261a57600080fd5b505af115801561262e573d6000803e3d6000fd5b505050506040513d602081101561264457600080fd5b5051151561265157600080fd5b6002546040805160e460020a630e7dd9750281523360048201529051600160a060020a039092169163e7dd9750916024808201926020929091908290030181600087803b1580156126a157600080fd5b505af11580156126b5573d6000803e3d6000fd5b505050506040513d60208110156126cb57600080fd5b5051600254604080517f786e479900000000000000000000000000000000000000000000000000000000815260048101849052602481018c90529051929850600160a060020a039091169163786e47999160448082019260009290919082900301818387803b15801561273d57600080fd5b505af1158015612751573d6000803e3d6000fd5b50506040518a92503391507fc8637ab25619c69fd066be8eba8adcf7e550f47deb35e9e3c02574fa0fa716d890600090a3506001979650505050505050565b600054600160a060020a031633146127a757600080fd5b6001805473ffffffffffffffffffffffffffffffffffffffff1916600160a060020a0392909216919091179055565b6002546040805160e460020a630e7dd97502815233600482015290516000928392600160a060020a039091169163e7dd97509160248082019260209290919082900301818787803b15801561282a57600080fd5b505af115801561283e573d6000803e3d6000fd5b505050506040513d602081101561285457600080fd5b50516002546040805160e060020a6365de1eb30281526004810184905290518992600092600160a060020a03909116916365de1eb391602480820192869290919082900301818387803b1580156128aa57600080fd5b505af11580156128be573d6000803e3d6000fd5b505050506040513d6000823e601f3d908101601f1916820160405260808110156128e757600080fd5b8101908080516401000000008111156128ff57600080fd5b8201602081018481111561291257600080fd5b815164010000000081118282018710171561292c57600080fd5b505050606001519250505080151561294357600080fd5b6002546040805160e260020a631ad96a0d02815260048101869052602481018590529051600160a060020a0390921691636b65a834916044808201926020929091908290030181600087803b15801561299b57600080fd5b505af11580156129af573d6000803e3d6000fd5b505050506040513d60208110156129c557600080fd5b505115156129d257600080fd5b600093505b86841015612a07576129fc898989878181106129ef57fe5b9050602002013588612c35565b6001909301926129d7565b60405189907fd6a2898743d11912ae34b9e44c23aef05d6bb87b12f6550fafa5890231d569e790600090a250600198975050505050505050565b6002546040805160e460020a630e7dd97502815233600482015290516000928392600160a060020a039091169163e7dd97509160248082019260209290919082900301818787803b158015612a9557600080fd5b505af1158015612aa9573d6000803e3d6000fd5b505050506040513d6020811015612abf57600080fd5b5051600254604080517ff3c505c200000000000000000000000000000000000000000000000000000000815260048101849052602481018b9052604481018a905261ffff891660648201529051929450600160a060020a039091169163f3c505c29160848082019260009290919082900301818387803b158015612b4257600080fd5b505af1158015612b56573d6000803e3d6000fd5b50505050600090505b8351811015612c2c576002548451600160a060020a039091169063edb0bb3a9084908a908a90899087908110612b9157fe5b906020019060200201518887815181101515612ba957fe5b906020019060200201516040518663ffffffff1660e060020a0281526004018086815260200185815260200184815260200183815260200182815260200195505050505050600060405180830381600087803b158015612c0857600080fd5b505af1158015612c1c573d6000803e3d6000fd5b505060019092019150612b5f9050565b50505050505050565b6002546040805160e460020a630e7dd9750281523360048201529051600092600160a060020a03169163e7dd975091602480830192602092919082900301818787803b158015612c8457600080fd5b505af1158015612c98573d6000803e3d6000fd5b505050506040513d6020811015612cae57600080fd5b5051600254604080517ff3c505c200000000000000000000000000000000000000000000000000000000815260048101849052602481018890526044810187905261ffff861660648201529051929350600160a060020a039091169163f3c505c29160848082019260009290919082900301818387803b158015612d3157600080fd5b505af1158015612d45573d6000803e3d6000fd5b50505050505050505600a165627a7a723058205eb899498ec32cfcca53110a3645078acaba701686c95542561777e9d19900380029",
  "source": "pragma solidity ^0.4.24;\n\nimport \"./extensions/TRNPrices.sol\";\nimport \"./extensions/TRNRatePlans.sol\";\n\ncontract TripioRoomNightVendor is TRNPrices, TRNRatePlans {\n    /**\n     * Constructor\n     */\n    constructor(address _dataSource) public {\n        // Init the data source\n        dataSource = TripioRoomNightData(_dataSource);\n    }\n    \n    /**\n     * @dev Destory the contract\n     */\n    function destroy() external onlyOwner {\n        selfdestruct(owner);\n    }\n}",
  "sourcePath": "/Users/Kirn/Documents/Workspace/Trip.io/roomnight/truffle/contracts/TripioRoomNightVendor.sol",
  "compiler": {
    "name": "solc",
    "version": "0.4.24+commit.e67f0147.Emscripten.clang"
  },
  "schemaVersion": "2.0.1",
  "updatedAt": "2018-11-07T07:56:22.570Z"
}