{
  "contractName": "TripioRoomNightCustomer",
  "abi": [
    {
      "constant": true,
      "inputs": [
        {
          "name": "interfaceID",
          "type": "bytes4"
        }
      ],
      "name": "supportsInterface",
      "outputs": [
        {
          "name": "",
          "type": "bool"
        }
      ],
      "payable": false,
      "stateMutability": "view",
      "type": "function"
    },
    {
      "constant": true,
      "inputs": [],
      "name": "name",
      "outputs": [
        {
          "name": "_name",
          "type": "string"
        }
      ],
      "payable": false,
      "stateMutability": "pure",
      "type": "function"
    },
    {
      "constant": true,
      "inputs": [
        {
          "name": "_tokenId",
          "type": "uint256"
        }
      ],
      "name": "getApproved",
      "outputs": [
        {
          "name": "",
          "type": "address"
        }
      ],
      "payable": false,
      "stateMutability": "view",
      "type": "function"
    },
    {
      "constant": false,
      "inputs": [
        {
          "name": "_approved",
          "type": "address"
        },
        {
          "name": "_tokenId",
          "type": "uint256"
        }
      ],
      "name": "approve",
      "outputs": [],
      "payable": true,
      "stateMutability": "payable",
      "type": "function"
    },
    {
      "constant": false,
      "inputs": [
        {
          "name": "_from",
          "type": "address"
        },
        {
          "name": "_to",
          "type": "address"
        },
        {
          "name": "_tokenId",
          "type": "uint256"
        }
      ],
      "name": "transferFrom",
      "outputs": [],
      "payable": true,
      "stateMutability": "payable",
      "type": "function"
    },
    {
      "constant": false,
      "inputs": [
        {
          "name": "_rnid",
          "type": "uint256"
        }
      ],
      "name": "refund",
      "outputs": [
        {
          "name": "",
          "type": "bool"
        }
      ],
      "payable": true,
      "stateMutability": "payable",
      "type": "function"
    },
    {
      "constant": false,
      "inputs": [
        {
          "name": "_from",
          "type": "address"
        },
        {
          "name": "_to",
          "type": "address"
        },
        {
          "name": "_tokenId",
          "type": "uint256"
        }
      ],
      "name": "safeTransferFrom",
      "outputs": [],
      "payable": true,
      "stateMutability": "payable",
      "type": "function"
    },
    {
      "constant": true,
      "inputs": [
        {
          "name": "_rnid",
          "type": "uint256"
        }
      ],
      "name": "isRefundApplied",
      "outputs": [
        {
          "name": "",
          "type": "bool"
        }
      ],
      "payable": false,
      "stateMutability": "view",
      "type": "function"
    },
    {
      "constant": true,
      "inputs": [
        {
          "name": "_rnid",
          "type": "uint256"
        }
      ],
      "name": "roomNight",
      "outputs": [
        {
          "name": "_vendorId",
          "type": "uint256"
        },
        {
          "name": "_rpid",
          "type": "uint256"
        },
        {
          "name": "_token",
          "type": "uint256"
        },
        {
          "name": "_price",
          "type": "uint256"
        },
        {
          "name": "_timestamp",
          "type": "uint256"
        },
        {
          "name": "_date",
          "type": "uint256"
        },
        {
          "name": "_ipfs",
          "type": "bytes32"
        },
        {
          "name": "_name",
          "type": "string"
        }
      ],
      "payable": false,
      "stateMutability": "view",
      "type": "function"
    },
    {
      "constant": true,
      "inputs": [
        {
          "name": "_tokenId",
          "type": "uint256"
        }
      ],
      "name": "ownerOf",
      "outputs": [
        {
          "name": "",
          "type": "address"
        }
      ],
      "payable": false,
      "stateMutability": "view",
      "type": "function"
    },
    {
      "constant": true,
      "inputs": [
        {
          "name": "_owner",
          "type": "address"
        }
      ],
      "name": "balanceOf",
      "outputs": [
        {
          "name": "",
          "type": "uint256"
        }
      ],
      "payable": false,
      "stateMutability": "view",
      "type": "function"
    },
    {
      "constant": false,
      "inputs": [],
      "name": "acceptOwnership",
      "outputs": [],
      "payable": false,
      "stateMutability": "nonpayable",
      "type": "function"
    },
    {
      "constant": true,
      "inputs": [
        {
          "name": "_from",
          "type": "uint256"
        },
        {
          "name": "_limit",
          "type": "uint256"
        },
        {
          "name": "_isVendor",
          "type": "bool"
        }
      ],
      "name": "roomNightsOfOwner",
      "outputs": [
        {
          "name": "",
          "type": "uint256[]"
        },
        {
          "name": "",
          "type": "uint256"
        }
      ],
      "payable": false,
      "stateMutability": "view",
      "type": "function"
    },
    {
      "constant": true,
      "inputs": [],
      "name": "owner",
      "outputs": [
        {
          "name": "",
          "type": "address"
        }
      ],
      "payable": false,
      "stateMutability": "view",
      "type": "function"
    },
    {
      "constant": true,
      "inputs": [],
      "name": "symbol",
      "outputs": [
        {
          "name": "_symbol",
          "type": "string"
        }
      ],
      "payable": false,
      "stateMutability": "pure",
      "type": "function"
    },
    {
      "constant": false,
      "inputs": [
        {
          "name": "_operator",
          "type": "address"
        },
        {
          "name": "_approved",
          "type": "bool"
        }
      ],
      "name": "setApprovalForAll",
      "outputs": [],
      "payable": false,
      "stateMutability": "nonpayable",
      "type": "function"
    },
    {
      "constant": false,
      "inputs": [
        {
          "name": "_rnid",
          "type": "uint256"
        },
        {
          "name": "_isRefund",
          "type": "bool"
        }
      ],
      "name": "applyRefund",
      "outputs": [
        {
          "name": "",
          "type": "bool"
        }
      ],
      "payable": false,
      "stateMutability": "nonpayable",
      "type": "function"
    },
    {
      "constant": false,
      "inputs": [
        {
          "name": "_from",
          "type": "address"
        },
        {
          "name": "_to",
          "type": "address"
        },
        {
          "name": "_tokenId",
          "type": "uint256"
        },
        {
          "name": "_data",
          "type": "bytes"
        }
      ],
      "name": "safeTransferFrom",
      "outputs": [],
      "payable": true,
      "stateMutability": "payable",
      "type": "function"
    },
    {
      "constant": true,
      "inputs": [
        {
          "name": "_tokenId",
          "type": "uint256"
        }
      ],
      "name": "tokenURI",
      "outputs": [
        {
          "name": "",
          "type": "string"
        }
      ],
      "payable": false,
      "stateMutability": "view",
      "type": "function"
    },
    {
      "constant": true,
      "inputs": [],
      "name": "newOwner",
      "outputs": [
        {
          "name": "",
          "type": "address"
        }
      ],
      "payable": false,
      "stateMutability": "view",
      "type": "function"
    },
    {
      "constant": false,
      "inputs": [
        {
          "name": "_vendorId",
          "type": "uint256"
        },
        {
          "name": "_rpid",
          "type": "uint256"
        },
        {
          "name": "_dates",
          "type": "uint256[]"
        },
        {
          "name": "_token",
          "type": "uint256"
        }
      ],
      "name": "buyInBatch",
      "outputs": [
        {
          "name": "",
          "type": "bool"
        }
      ],
      "payable": true,
      "stateMutability": "payable",
      "type": "function"
    },
    {
      "constant": true,
      "inputs": [
        {
          "name": "_owner",
          "type": "address"
        },
        {
          "name": "_operator",
          "type": "address"
        }
      ],
      "name": "isApprovedForAll",
      "outputs": [
        {
          "name": "",
          "type": "bool"
        }
      ],
      "payable": false,
      "stateMutability": "view",
      "type": "function"
    },
    {
      "constant": false,
      "inputs": [
        {
          "name": "_newOwner",
          "type": "address"
        }
      ],
      "name": "transferOwnership",
      "outputs": [],
      "payable": false,
      "stateMutability": "nonpayable",
      "type": "function"
    },
    {
      "inputs": [
        {
          "name": "_dataSource",
          "type": "address"
        }
      ],
      "payable": false,
      "stateMutability": "nonpayable",
      "type": "constructor"
    },
    {
      "payable": true,
      "stateMutability": "payable",
      "type": "fallback"
    },
    {
      "anonymous": false,
      "inputs": [
        {
          "indexed": true,
          "name": "_customer",
          "type": "address"
        },
        {
          "indexed": true,
          "name": "_vendor",
          "type": "address"
        },
        {
          "indexed": true,
          "name": "_rpid",
          "type": "uint256"
        },
        {
          "indexed": false,
          "name": "_dates",
          "type": "uint256[]"
        },
        {
          "indexed": false,
          "name": "_token",
          "type": "uint256"
        }
      ],
      "name": "BuyInBatch",
      "type": "event"
    },
    {
      "anonymous": false,
      "inputs": [
        {
          "indexed": false,
          "name": "_customer",
          "type": "address"
        },
        {
          "indexed": true,
          "name": "_rnid",
          "type": "uint256"
        },
        {
          "indexed": false,
          "name": "_isRefund",
          "type": "bool"
        }
      ],
      "name": "ApplyRefund",
      "type": "event"
    },
    {
      "anonymous": false,
      "inputs": [
        {
          "indexed": false,
          "name": "_vendor",
          "type": "address"
        },
        {
          "indexed": false,
          "name": "_rnid",
          "type": "uint256"
        }
      ],
      "name": "Refund",
      "type": "event"
    },
    {
      "anonymous": false,
      "inputs": [
        {
          "indexed": true,
          "name": "_from",
          "type": "address"
        },
        {
          "indexed": true,
          "name": "_to",
          "type": "address"
        },
        {
          "indexed": false,
          "name": "_tokenId",
          "type": "uint256"
        }
      ],
      "name": "Transfer",
      "type": "event"
    },
    {
      "anonymous": false,
      "inputs": [
        {
          "indexed": true,
          "name": "_owner",
          "type": "address"
        },
        {
          "indexed": true,
          "name": "_approved",
          "type": "address"
        },
        {
          "indexed": false,
          "name": "_tokenId",
          "type": "uint256"
        }
      ],
      "name": "Approval",
      "type": "event"
    },
    {
      "anonymous": false,
      "inputs": [
        {
          "indexed": true,
          "name": "_owner",
          "type": "address"
        },
        {
          "indexed": true,
          "name": "_operator",
          "type": "address"
        },
        {
          "indexed": false,
          "name": "_approved",
          "type": "bool"
        }
      ],
      "name": "ApprovalForAll",
      "type": "event"
    },
    {
      "anonymous": false,
      "inputs": [
        {
          "indexed": true,
          "name": "from",
          "type": "address"
        },
        {
          "indexed": true,
          "name": "to",
          "type": "address"
        }
      ],
      "name": "OwnershipTransferred",
      "type": "event"
    },
    {
      "constant": false,
      "inputs": [],
      "name": "withdrawBalance",
      "outputs": [],
      "payable": false,
      "stateMutability": "nonpayable",
      "type": "function"
    },
    {
      "constant": false,
      "inputs": [
        {
          "name": "_token",
          "type": "uint256"
        }
      ],
      "name": "withdrawTokenId",
      "outputs": [],
      "payable": false,
      "stateMutability": "nonpayable",
      "type": "function"
    },
    {
      "constant": false,
      "inputs": [
        {
          "name": "_tokenAddress",
          "type": "address"
        }
      ],
      "name": "withdrawToken",
      "outputs": [],
      "payable": false,
      "stateMutability": "nonpayable",
      "type": "function"
    },
    {
      "constant": false,
      "inputs": [],
      "name": "destroy",
      "outputs": [],
      "payable": false,
      "stateMutability": "nonpayable",
      "type": "function"
    }
  ],
  "bytecode": "0x608060405234801561001057600080fd5b5060405160208061448b833981016040525160008054600160a060020a0319908116331790915560028054600160a060020a039093169290911691909117905561442c8061005f6000396000f3006080604052600436106101455763ffffffff60e060020a60003504166301ffc9a7811461014757806306fdde031461017d578063081812fc14610207578063095ea7b31461023b57806323b872dd14610252578063278ecde11461026f57806342842e0e1461027a5780635fd8c71014610297578063612ef6e9146102ac578063628c225c146102c45780636352211e1461038d57806370a08231146103a557806379ba5097146103d857806383197ef0146103ed5780638947606914610402578063899f107d146104235780638da5cb5b1461049e57806395d89b41146104b3578063a22cb465146104c8578063b08e0d3e146104ee578063b88d4fde1461050b578063bb6ad6ef14610537578063c87b56dd1461054f578063d4ee1d9014610567578063dfd17f2b1461057c578063e985e9c51461059a578063f2fde38b146105c1575b005b34801561015357600080fd5b50610169600160e060020a0319600435166105e2565b604080519115158252519081900360200190f35b34801561018957600080fd5b506101926107c2565b6040805160208082528351818301528351919283929083019185019080838360005b838110156101cc5781810151838201526020016101b4565b50505050905090810190601f1680156101f95780820380516001836020036101000a031916815260200191505b509250505060405180910390f35b34801561021357600080fd5b5061021f6004356107f9565b60408051600160a060020a039092168252519081900360200190f35b610145600160a060020a036004351660243561091c565b610145600160a060020a0360043581169060243516604435610c34565b610169600435610f58565b610145600160a060020a0360043581169060243516604435611575565b3480156102a357600080fd5b50610145611596565b3480156102b857600080fd5b506101696004356115eb565b3480156102d057600080fd5b506102dc60043561175b565b60405180898152602001888152602001878152602001868152602001858152602001848152602001836000191660001916815260200180602001828103825283818151815260200191508051906020019080838360005b8381101561034b578181015183820152602001610333565b50505050905090810190601f1680156103785780820380516001836020036101000a031916815260200191505b50995050505050505050505060405180910390f35b34801561039957600080fd5b5061021f600435611938565b3480156103b157600080fd5b506103c6600160a060020a03600435166119c9565b60408051918252519081900360200190f35b3480156103e457600080fd5b50610145611a48565b3480156103f957600080fd5b50610145611ad0565b34801561040e57600080fd5b50610145600160a060020a0360043516611af5565b34801561042f57600080fd5b506104436004356024356044351515611c44565b6040518080602001838152602001828103825284818151815260200191508051906020019060200280838360005b83811015610489578181015183820152602001610471565b50505050905001935050505060405180910390f35b3480156104aa57600080fd5b5061021f611de4565b3480156104bf57600080fd5b50610192611df3565b3480156104d457600080fd5b50610145600160a060020a03600435166024351515611e2a565b3480156104fa57600080fd5b506101696004356024351515611f12565b610145600160a060020a036004803582169160248035909116916044359160643590810191013561224d565b34801561054357600080fd5b50610145600435612289565b34801561055b57600080fd5b5061019260043561239b565b34801561057357600080fd5b5061021f6126ab565b610169600480359060248035916044359182019101356064356126ba565b3480156105a657600080fd5b50610169600160a060020a0360043581169060243516612acb565b3480156105cd57600080fd5b50610145600160a060020a0360043516612b28565b600254604080517f5e0f9e060000000000000000000000000000000000000000000000000000000081529051600092600160a060020a031691635e0f9e0691600480830192602092919082900301818787803b15801561064157600080fd5b505af1158015610655573d6000803e3d6000fd5b505050506040513d602081101561066b57600080fd5b5051600160e060020a0319838116911614806107115750600260009054906101000a9004600160a060020a0316600160a060020a031663c1752ef16040518163ffffffff1660e060020a028152600401602060405180830381600087803b1580156106d557600080fd5b505af11580156106e9573d6000803e3d6000fd5b505050506040513d60208110156106ff57600080fd5b5051600160e060020a03198381169116145b806107a65750600260009054906101000a9004600160a060020a0316600160a060020a0316633f2e681c6040518163ffffffff1660e060020a028152600401602060405180830381600087803b15801561076a57600080fd5b505af115801561077e573d6000803e3d6000fd5b505050506040513d602081101561079457600080fd5b5051600160e060020a03198381169116145b80156107bc5750600160e060020a031980831614155b92915050565b60408051808201909152601181527f54726970696f20526f6f6d204e69676874000000000000000000000000000000602082015290565b60008181811161080857600080fd5b6002546040805160e060020a63e7f95c45028152600481018490529051600092600160a060020a03169163e7f95c4591602480830192602092919082900301818787803b15801561085857600080fd5b505af115801561086c573d6000803e3d6000fd5b505050506040513d602081101561088257600080fd5b5051600160a060020a0316141561089857600080fd5b6002546040805160e160020a632376fe85028152600481018690529051600160a060020a03909216916346edfd0a916024808201926020929091908290030181600087803b1580156108e957600080fd5b505af11580156108fd573d6000803e3d6000fd5b505050506040513d602081101561091357600080fd5b50519392505050565b60008181811161092b57600080fd5b6002546040805160e060020a63e7f95c45028152600481018490529051600092600160a060020a03169163e7f95c4591602480830192602092919082900301818787803b15801561097b57600080fd5b505af115801561098f573d6000803e3d6000fd5b505050506040513d60208110156109a557600080fd5b5051600160a060020a031614156109bb57600080fd5b6002546040805160e060020a63e7f95c45028152600481018690529051859260009283928392600160a060020a03169163e7f95c4591602480830192602092919082900301818787803b158015610a1157600080fd5b505af1158015610a25573d6000803e3d6000fd5b505050506040513d6020811015610a3b57600080fd5b50516002546040805160e260020a6303657815028152600160a060020a038085166004830181905233602484018190529351959850929092149550911691630d95e054916044808201926020929091908290030181600087803b158015610aa157600080fd5b505af1158015610ab5573d6000803e3d6000fd5b505050506040513d6020811015610acb57600080fd5b505190508180610ad85750805b1515610ae357600080fd5b6002546040805160e060020a63e7f95c45028152600481018a90529051600160a060020a039092169163e7f95c45916024808201926020929091908290030181600087803b158015610b3457600080fd5b505af1158015610b48573d6000803e3d6000fd5b505050506040513d6020811015610b5e57600080fd5b5051600254604080517f6a385043000000000000000000000000000000000000000000000000000000008152600481018b9052600160a060020a038c811660248301529151939950911691636a3850439160448082019260009290919082900301818387803b158015610bd057600080fd5b505af1158015610be4573d6000803e3d6000fd5b5050604080518a81529051600160a060020a03808d1694508a1692507f8c5be1e5ebec7d5bd14f71427d1e84f3dd0314c0f7b2291e5b200ac8c7c3b9259181900360200190a35050505050505050565b600081818111610c4357600080fd5b6002546040805160e060020a63e7f95c45028152600481018490529051600092600160a060020a03169163e7f95c4591602480830192602092919082900301818787803b158015610c9357600080fd5b505af1158015610ca7573d6000803e3d6000fd5b505050506040513d6020811015610cbd57600080fd5b5051600160a060020a03161415610cd357600080fd5b82600080600080600260009054906101000a9004600160a060020a0316600160a060020a031663e7f95c45866040518263ffffffff1660e060020a02815260040180828152602001915050602060405180830381600087803b158015610d3857600080fd5b505af1158015610d4c573d6000803e3d6000fd5b505050506040513d6020811015610d6257600080fd5b50516002546040805160e160020a632376fe85028152600481018990529051929650600160a060020a0380881633149650909116916346edfd0a916024808201926020929091908290030181600087803b158015610dbf57600080fd5b505af1158015610dd3573d6000803e3d6000fd5b505050506040513d6020811015610de957600080fd5b50516002546040805160e260020a6303657815028152600160a060020a038881166004830152336024830181905292519481169092149550911691630d95e054916044808201926020929091908290030181600087803b158015610e4c57600080fd5b505af1158015610e60573d6000803e3d6000fd5b505050506040513d6020811015610e7657600080fd5b505190508280610e835750815b80610e8b5750805b1515610e9657600080fd5b6002546040805160e060020a63e7f95c45028152600481018b90529051600160a060020a039092169163e7f95c45916024808201926020929091908290030181600087803b158015610ee757600080fd5b505af1158015610efb573d6000803e3d6000fd5b505050506040513d6020811015610f1157600080fd5b50519650600160a060020a03808816908b1614610f2d57600080fd5b600160a060020a0389161515610f4257600080fd5b610f4c888a612b6e565b50505050505050505050565b60008080808080808080808a818111610f7057600080fd5b6002546040805160e060020a63e7f95c45028152600481018490529051600092600160a060020a03169163e7f95c4591602480830192602092919082900301818787803b158015610fc057600080fd5b505af1158015610fd4573d6000803e3d6000fd5b505050506040513d6020811015610fea57600080fd5b5051600160a060020a0316141561100057600080fd5b6002546040805160e060020a63e7f95c45028152600481018f90529051600160a060020a03909216916330c7090391839163e7f95c45916024808201926020929091908290030181600087803b15801561105957600080fd5b505af115801561106d573d6000803e3d6000fd5b505050506040513d602081101561108357600080fd5b81019080805190602001909291905050508e6040518363ffffffff1660e060020a0281526004018083600160a060020a0316600160a060020a0316815260200182815260200192505050602060405180830381600087803b1580156110e757600080fd5b505af11580156110fb573d6000803e3d6000fd5b505050506040513d602081101561111157600080fd5b5051151561111e57600080fd5b600254604080517f3bdf5878000000000000000000000000000000000000000000000000000000008152600481018f90529051600160a060020a0390921691633bdf58789160248082019260e0929091908290030181600087803b15801561118557600080fd5b505af1158015611199573d6000803e3d6000fd5b505050506040513d60e08110156111af57600080fd5b8101908080519060200190929190805190602001909291908051906020019092919080519060200190929190805190602001909291908051906020019092919080519060200190929190505050509a50509950995099509950600260009054906101000a9004600160a060020a0316600160a060020a03166365de1eb38b6040518263ffffffff1660e060020a02815260040180828152602001915050600060405180830381600087803b15801561126657600080fd5b505af115801561127a573d6000803e3d6000fd5b505050506040513d6000823e601f3d908101601f1916820160405260808110156112a357600080fd5b8101908080516401000000008111156112bb57600080fd5b820160208101848111156112ce57600080fd5b81516401000000008111828201871017156112e857600080fd5b5050506020015196505050600160a060020a038516331461130857600080fd5b6002546040805160e060020a63e7f95c45028152600481018f90529051600160a060020a039092169163e7f95c45916024808201926020929091908290030181600087803b15801561135957600080fd5b505af115801561136d573d6000803e3d6000fd5b505050506040513d602081101561138357600080fd5b505193508715156113da578692503483111561139e57600080fd5b604051600160a060020a0385169084156108fc029085906000818181858888f193505050501580156113d4573d6000803e3d6000fd5b5061151c565b600087116113e757600080fd5b600254604080517fa306cdeb000000000000000000000000000000000000000000000000000000008152600481018b90529051600160a060020a039092169163a306cdeb916024808201926020929091908290030181600087803b15801561144e57600080fd5b505af1158015611462573d6000803e3d6000fd5b505050506040513d602081101561147857600080fd5b5051604080517f23b872dd000000000000000000000000000000000000000000000000000000008152336004820152600160a060020a038781166024830152604482018b90529151929450908416916323b872dd916064808201926020929091908290030181600087803b1580156114ef57600080fd5b505af1158015611503573d6000803e3d6000fd5b505050506040513d602081101561151957600080fd5b50505b6115288c8b8b89612ccf565b60408051338152602081018e905281517fbb28353e4598c3b9199101a66e0989549b659a59a54d2c27fbb183f1932c8e6d929181900390910190a15060019b9a5050505050505050505050565b6115918383836020604051908101604052806000815250612e6e565b505050565b600054600160a060020a031633146115ad57600080fd5b60008054604051600160a060020a0390911691303180156108fc02929091818181858888f193505050501580156115e8573d6000803e3d6000fd5b50565b6000818181116115fa57600080fd5b6002546040805160e060020a63e7f95c45028152600481018490529051600092600160a060020a03169163e7f95c4591602480830192602092919082900301818787803b15801561164a57600080fd5b505af115801561165e573d6000803e3d6000fd5b505050506040513d602081101561167457600080fd5b5051600160a060020a0316141561168a57600080fd5b6002546040805160e060020a63e7f95c45028152600481018690529051600160a060020a03909216916330c7090391839163e7f95c45916024808201926020929091908290030181600087803b1580156116e357600080fd5b505af11580156116f7573d6000803e3d6000fd5b505050506040513d602081101561170d57600080fd5b50516040805160e060020a63ffffffff8516028152600160a060020a039092166004830152602482018790525160448083019260209291908290030181600087803b1580156108e957600080fd5b60008060008060008060006060600260009054906101000a9004600160a060020a0316600160a060020a031663762fdc0c89896040518363ffffffff1660e060020a0281526004018083815260200182815260200192505050600060405180830381600087803b1580156117ce57600080fd5b505af11580156117e2573d6000803e3d6000fd5b505050506040513d6000823e601f3d908101601f19168201604052606081101561180b57600080fd5b81019080805164010000000081111561182357600080fd5b8201602081018481111561183657600080fd5b815164010000000081118282018710171561185057600080fd5b5050929190602001805190602001909291908051906020019092919050505090505080915050600260009054906101000a9004600160a060020a0316600160a060020a0316633bdf58788a6040518263ffffffff1660e060020a0281526004018082815260200191505060e060405180830381600087803b1580156118d457600080fd5b505af11580156118e8573d6000803e3d6000fd5b505050506040513d60e08110156118fe57600080fd5b508051602082015160408301516060840151608085015160a086015160c090960151949f939e50919c509a50985091965094509092509050565b600080821161194657600080fd5b6002546040805160e060020a63e7f95c45028152600481018590529051600160a060020a039092169163e7f95c45916024808201926020929091908290030181600087803b15801561199757600080fd5b505af11580156119ab573d6000803e3d6000fd5b505050506040513d60208110156119c157600080fd5b505192915050565b6000600160a060020a03821615156119e057600080fd5b600254604080517f70a08231000000000000000000000000000000000000000000000000000000008152600160a060020a038581166004830152915191909216916370a082319160248083019260209291908290030181600087803b15801561199757600080fd5b600154600160a060020a03163314611a5f57600080fd5b60015460008054604051600160a060020a0393841693909116917f8be0079c531659141344cd1fd0a4f28419497f9722a3daafe3b4186f6b6457e091a3600180546000805473ffffffffffffffffffffffffffffffffffffffff19908116600160a060020a03841617909155169055565b600054600160a060020a03163314611ae757600080fd5b600054600160a060020a0316ff5b600080548190600160a060020a03163314611b0f57600080fd5b604080517f70a082310000000000000000000000000000000000000000000000000000000081523060048201529051849350600160a060020a038416916370a082319160248083019260209291908290030181600087803b158015611b7357600080fd5b505af1158015611b87573d6000803e3d6000fd5b505050506040513d6020811015611b9d57600080fd5b505160008054604080517fa9059cbb000000000000000000000000000000000000000000000000000000008152600160a060020a0392831660048201526024810185905290519394509085169263a9059cbb92604480840193602093929083900390910190829087803b158015611c1357600080fd5b505af1158015611c27573d6000803e3d6000fd5b505050506040513d6020811015611c3d57600080fd5b5050505050565b606060008215611d6257600254604080517f4cb0c7a10000000000000000000000000000000000000000000000000000000081523360048201526024810188905260448101879052600160648201529051600160a060020a0390921691634cb0c7a19160848082019260009290919082900301818387803b158015611cc857600080fd5b505af1158015611cdc573d6000803e3d6000fd5b505050506040513d6000823e601f3d908101601f191682016040908152811015611d0557600080fd5b810190808051640100000000811115611d1d57600080fd5b82016020810184811115611d3057600080fd5b8151856020820283011164010000000082111715611d4d57600080fd5b50506020909101519094509250611ddc915050565b600254604080517f600cf0d90000000000000000000000000000000000000000000000000000000081523360048201526024810188905260448101879052600160648201529051600160a060020a039092169163600cf0d99160848082019260009290919082900301818387803b158015611cc857600080fd5b935093915050565b600054600160a060020a031681565b60408051808201909152600381527f54524e0000000000000000000000000000000000000000000000000000000000602082015290565b600160a060020a0382161515611e3f57600080fd5b600254604080517f35058a2a000000000000000000000000000000000000000000000000000000008152600160a060020a0385811660048301523360248301528415156044830152915191909216916335058a2a91606480830192600092919082900301818387803b158015611eb457600080fd5b505af1158015611ec8573d6000803e3d6000fd5b50506040805184151581529051600160a060020a03861693503392507f17307eab39ab6107e8899845ad3d59bd9653f200f220920489ca2b5937696c319181900360200190a35050565b600082818111611f2157600080fd5b6002546040805160e060020a63e7f95c45028152600481018490529051600092600160a060020a03169163e7f95c4591602480830192602092919082900301818787803b158015611f7157600080fd5b505af1158015611f85573d6000803e3d6000fd5b505050506040513d6020811015611f9b57600080fd5b5051600160a060020a03161415611fb157600080fd5b83600080600080600260009054906101000a9004600160a060020a0316600160a060020a031663e7f95c45866040518263ffffffff1660e060020a02815260040180828152602001915050602060405180830381600087803b15801561201657600080fd5b505af115801561202a573d6000803e3d6000fd5b505050506040513d602081101561204057600080fd5b50516002546040805160e160020a632376fe85028152600481018990529051929650600160a060020a0380881633149650909116916346edfd0a916024808201926020929091908290030181600087803b15801561209d57600080fd5b505af11580156120b1573d6000803e3d6000fd5b505050506040513d60208110156120c757600080fd5b50516002546040805160e260020a6303657815028152600160a060020a038881166004830152336024830181905292519481169092149550911691630d95e054916044808201926020929091908290030181600087803b15801561212a57600080fd5b505af115801561213e573d6000803e3d6000fd5b505050506040513d602081101561215457600080fd5b5051905082806121615750815b806121695750805b151561217457600080fd5b600254604080517f602b7001000000000000000000000000000000000000000000000000000000008152336004820152602481018c90528a151560448201529051600160a060020a039092169163602b70019160648082019260009290919082900301818387803b1580156121e857600080fd5b505af11580156121fc573d6000803e3d6000fd5b5050604080513381528b1515602082015281518d94507fa8b03d10e96b23d3ed7630fcc9e32aec81ef79975e8d1345dd9e98306b73805393509081900390910190a250600198975050505050505050565b611c3d85858585858080601f01602080910402602001604051908101604052809392919081815260200183838082843750612e6e945050505050565b600080548190600160a060020a031633146122a357600080fd5b600254604080517fa306cdeb000000000000000000000000000000000000000000000000000000008152600481018690529051600160a060020a039092169163a306cdeb916024808201926020929091908290030181600087803b15801561230a57600080fd5b505af115801561231e573d6000803e3d6000fd5b505050506040513d602081101561233457600080fd5b5051604080517f70a082310000000000000000000000000000000000000000000000000000000081523060048201529051919350600160a060020a038416916370a08231916024808201926020929091908290030181600087803b158015611b7357600080fd5b6060806000818080868481116123b057600080fd5b6002546040805160e060020a63e7f95c45028152600481018490529051600092600160a060020a03169163e7f95c4591602480830192602092919082900301818787803b15801561240057600080fd5b505af1158015612414573d6000803e3d6000fd5b505050506040513d602081101561242a57600080fd5b5051600160a060020a0316141561244057600080fd5b60408051600280825281830183529091602083019080388339505081519197507f120000000000000000000000000000000000000000000000000000000000000091889150600090811061249057fe5b906020010190600160f860020a031916908160001a90535085517f200000000000000000000000000000000000000000000000000000000000000090879060019081106124d957fe5b906020010190600160f860020a031916908160001a905350600254604080517f3bdf5878000000000000000000000000000000000000000000000000000000008152600481018b90529051600160a060020a0390921691633bdf58789160248082019260e0929091908290030181600087803b15801561255857600080fd5b505af115801561256c573d6000803e3d6000fd5b505050506040513d60e081101561258257600080fd5b5060c0015194506125a261259586613347565b879063ffffffff6133cd16565b93506125ad846134e2565b9250600260009054906101000a9004600160a060020a0316600160a060020a0316634e99b8006040518163ffffffff1660e060020a028152600401600060405180830381600087803b15801561260257600080fd5b505af1158015612616573d6000803e3d6000fd5b505050506040513d6000823e601f3d908101601f19168201604052602081101561263f57600080fd5b81019080805164010000000081111561265757600080fd5b8201602081018481111561266a57600080fd5b815164010000000081118282018710171561268457600080fd5b5090955061269f93508592508691505063ffffffff6133cd16565b98975050505050505050565b600154600160a060020a031681565b600080600087876000600260009054906101000a9004600160a060020a0316600160a060020a03166365de1eb3846040518263ffffffff1660e060020a02815260040180828152602001915050600060405180830381600087803b15801561272157600080fd5b505af1158015612735573d6000803e3d6000fd5b505050506040513d6000823e601f3d908101601f19168201604052608081101561275e57600080fd5b81019080805164010000000081111561277657600080fd5b8201602081018481111561278957600080fd5b81516401000000008111828201871017156127a357600080fd5b50505060600151925050508015156127ba57600080fd5b600254604080517f6b65a83400000000000000000000000000000000000000000000000000000000815260048101869052602481018590529051600160a060020a0390921691636b65a834916044808201926020929091908290030181600087803b15801561282857600080fd5b505af115801561283c573d6000803e3d6000fd5b505050506040513d602081101561285257600080fd5b5051151561285f57600080fd5b8888808060200260200160405190810160405280939291908181526020018383602002808284375060009450505050505b81518110156128f057600082828151811015156128a957fe5b60209081029091010151116128bd57600080fd5b6128dd82828151811015156128ce57fe5b90602001906020020151613669565b15156128e857600080fd5b600101612890565b600260009054906101000a9004600160a060020a0316600160a060020a03166365de1eb38e6040518263ffffffff1660e060020a02815260040180828152602001915050600060405180830381600087803b15801561294e57600080fd5b505af1158015612962573d6000803e3d6000fd5b505050506040513d6000823e601f3d908101601f19168201604052608081101561298b57600080fd5b8101908080516401000000008111156129a357600080fd5b820160208101848111156129b657600080fd5b81516401000000008111828201871017156129d057600080fd5b50509291906020018051906020019092919080519060200190929190805190602001909291905050505050975050612a3a8d888e8e8e808060200260200160405190810160405280939291908181526020018383602002808284378201915050505050508d6137a7565b9550851515612a4857600080fd5b8b87600160a060020a031633600160a060020a03167f378b913ef532468f5ca14ee9e03c0b47e22440edd666fd7fcb4b7f146c1b752a8e8e8e604051808060200183815260200182810382528585828181526020019250602002808284376040519201829003965090945050505050a45060019c9b505050505050505050505050565b6002546040805160e260020a6303657815028152600160a060020a038581166004830152848116602483015291516000939290921691630d95e0549160448082019260209290919082900301818787803b1580156108e957600080fd5b600054600160a060020a03163314612b3f57600080fd5b6001805473ffffffffffffffffffffffffffffffffffffffff1916600160a060020a0392909216919091179055565b6002546040805160e060020a63e7f95c45028152600481018590529051600092600160a060020a03169163e7f95c4591602480830192602092919082900301818787803b158015612bbe57600080fd5b505af1158015612bd2573d6000803e3d6000fd5b505050506040513d6020811015612be857600080fd5b50519050612bf68184613b99565b612c0282846000613c23565b600254604080517f491a790400000000000000000000000000000000000000000000000000000000815260048101869052600160a060020a0385811660248301529151919092169163491a790491604480830192600092919082900301818387803b158015612c7057600080fd5b505af1158015612c84573d6000803e3d6000fd5b5050604080518681529051600160a060020a038087169450851692507fddf252ad1be2c89b69c2b068fc378daa952ba7f163c4a11628f55a4df523b3ef9181900360200190a3505050565b6002546040805160e060020a63e7f95c45028152600481018790529051612d5392600160a060020a03169163e7f95c459160248083019260209291908290030181600087803b158015612d2157600080fd5b505af1158015612d35573d6000803e3d6000fd5b505050506040513d6020811015612d4b57600080fd5b505185613b99565b600254604080517fbbb7eb64000000000000000000000000000000000000000000000000000000008152600481018690526024810185905260448101849052600160648201529051600160a060020a039092169163bbb7eb649160848082019260009290919082900301818387803b158015612dce57600080fd5b505af1158015612de2573d6000803e3d6000fd5b5050600254604080517f491a7904000000000000000000000000000000000000000000000000000000008152600481018990526000602482018190529151600160a060020a03909316945063491a790493506044808201939182900301818387803b158015612e5057600080fd5b505af1158015612e64573d6000803e3d6000fd5b5050505050505050565b6000808084818111612e7f57600080fd5b6002546040805160e060020a63e7f95c45028152600481018490529051600092600160a060020a03169163e7f95c4591602480830192602092919082900301818787803b158015612ecf57600080fd5b505af1158015612ee3573d6000803e3d6000fd5b505050506040513d6020811015612ef957600080fd5b5051600160a060020a03161415612f0f57600080fd5b85600080600080600260009054906101000a9004600160a060020a0316600160a060020a031663e7f95c45866040518263ffffffff1660e060020a02815260040180828152602001915050602060405180830381600087803b158015612f7457600080fd5b505af1158015612f88573d6000803e3d6000fd5b505050506040513d6020811015612f9e57600080fd5b50516002546040805160e160020a632376fe85028152600481018990529051929650600160a060020a0380881633149650909116916346edfd0a916024808201926020929091908290030181600087803b158015612ffb57600080fd5b505af115801561300f573d6000803e3d6000fd5b505050506040513d602081101561302557600080fd5b50516002546040805160e260020a6303657815028152600160a060020a038881166004830152336024830181905292519481169092149550911691630d95e054916044808201926020929091908290030181600087803b15801561308857600080fd5b505af115801561309c573d6000803e3d6000fd5b505050506040513d60208110156130b257600080fd5b5051905082806130bf5750815b806130c75750805b15156130d257600080fd5b6002546040805160e060020a63e7f95c45028152600481018e90529051600160a060020a039092169163e7f95c45916024808201926020929091908290030181600087803b15801561312357600080fd5b505af1158015613137573d6000803e3d6000fd5b505050506040513d602081101561314d57600080fd5b50519850600160a060020a03808a16908e161461316957600080fd5b600160a060020a038c16151561317e57600080fd5b6131888b8d612b6e565b8b3b975087151561319857613338565b8b600160a060020a031663f0b9e5ba8e8d8d6040518463ffffffff1660e060020a0281526004018084600160a060020a0316600160a060020a0316815260200183815260200180602001828103825283818151815260200191508051906020019080838360005b838110156132175781810151838201526020016131ff565b50505050905090810190601f1680156132445780820380516001836020036101000a031916815260200191505b50945050505050602060405180830381600087803b15801561326557600080fd5b505af1158015613279573d6000803e3d6000fd5b505050506040513d602081101561328f57600080fd5b5051600254604080517fecc98ce40000000000000000000000000000000000000000000000000000000081529051929950600160a060020a039091169163ecc98ce4916004808201926020929091908290030181600087803b1580156132f457600080fd5b505af1158015613308573d6000803e3d6000fd5b505050506040513d602081101561331e57600080fd5b5051600160e060020a031988811691161461333857600080fd5b50505050505050505050505050565b604080516020808252818301909252606091829160009180820161040080388339019050509150600090505b60208160ff1610156133c6578360ff82166020811061338e57fe5b1a60f860020a02828260ff168151811015156133a657fe5b906020010190600160f860020a031916908160001a905350600101613373565b5092915050565b606080600083518551016040519080825280601f01601f191660200182016040528015613404578160200160208202803883390190505b509150600090505b84518161ffff16101561347057848161ffff1681518110151561342b57fe5b90602001015160f860020a900460f860020a02828261ffff1681518110151561345057fe5b906020010190600160f860020a031916908160001a90535060010161340c565b83518551018161ffff1610156134da578385518261ffff160381518110151561349557fe5b90602001015160f860020a900460f860020a02828261ffff168151811015156134ba57fe5b906020010190600160f860020a031916908160001a905350600101613470565b509392505050565b606080600080600080606487516088028115156134fb57fe5b04600101604051908082528060200260200182016040528015613528578160200160208202803883390190505b509450600085600081518110151561353c57fe5b60ff90921660209283029091019091015260019350600092505b865183101561364457868381518110151561356d57fe5b90602001015160f860020a900460f860020a0260f860020a900460ff169150600090505b8360ff168110156135f95784818151811015156135aa57fe5b9060200190602002015160ff166101000282019150603a828115156135cb57fe5b0685828151811015156135da57fe5b60ff909216602092830290910190910152603a82049150600101613591565b600082111561363957603a8206858560ff1681518110151561361757fe5b60ff909216602092830290910190910152600190930192603a820491506135f9565b826001019250613556565b61365e6136596136548787613d6a565b613dee565b613e74565b979650505050505050565b60006127108204600a6064808504919091069084068383108061368d575060008211155b806136985750600c82115b806136a4575060008111155b806136af5750601f81115b156136bd576000935061379f565b81600114806136cc5750816003145b806136d75750816005145b806136e25750816007145b806136ed5750816008145b806136f8575081600a145b80613703575081600c145b15613711576001935061379f565b6004830615801561372457506064830615155b8061373157506101908306155b156137725781600214801561375b575080601c1480613750575080601e145b8061375b575080601f145b15613769576000935061379f565b6001935061379f565b81600214801561375b575080601d1480613750575080601e148061375b575080601f141561376957600093505b505050919050565b6000606080600080600080600260009054906101000a9004600160a060020a0316600160a060020a031663644e8b248d8c8c8c6040518563ffffffff1660e060020a0281526004018085815260200184815260200180602001838152602001828103825284818151815260200191508051906020019060200280838360005b8381101561383e578181015183820152602001613826565b5050505090500195505050505050600060405180830381600087803b15801561386657600080fd5b505af115801561387a573d6000803e3d6000fd5b505050506040513d6000823e601f3d908101601f1916820160409081528110156138a357600080fd5b8101908080516401000000008111156138bb57600080fd5b820160208101848111156138ce57600080fd5b81518560208202830111640100000000821117156138eb57600080fd5b5050929190602001805164010000000081111561390757600080fd5b8201602081018481111561391a57600080fd5b815185602082028301116401000000008211171561393757600080fd5b50949a50985060009750879650505050505b88518310156139ec57858381518110151561396057fe5b9060200190602002015161ffff16600014806139935750848381518110151561398557fe5b906020019060200201516000145b156139a15760009650613b8a565b84838151811015156139af57fe5b90602001906020020151840193506139e18c8b8b868151811015156139d057fe5b90602001906020020151338c613f7e565b600190920191613949565b871515613a3b573484146139ff57600080fd5b604051600160a060020a038c169085156108fc029086906000818181858888f19350505050158015613a35573d6000803e3d6000fd5b50613b85565b600254604080517fa306cdeb000000000000000000000000000000000000000000000000000000008152600481018b90529051600160a060020a039092169163a306cdeb916024808201926020929091908290030181600087803b158015613aa257600080fd5b505af1158015613ab6573d6000803e3d6000fd5b505050506040513d6020811015613acc57600080fd5b50519150600160a060020a0382161515613ae557600080fd5b50604080517f23b872dd000000000000000000000000000000000000000000000000000000008152336004820152600160a060020a038c8116602483015260448201869052915183928316916323b872dd9160648083019260209291908290030181600087803b158015613b5857600080fd5b505af1158015613b6c573d6000803e3d6000fd5b505050506040513d6020811015613b8257600080fd5b50505b600196505b50505050505095945050505050565b600254604080517f28543417000000000000000000000000000000000000000000000000000000008152600160a060020a0385811660048301526024820185905291519190921691632854341791604480830192600092919082900301818387803b158015613c0757600080fd5b505af1158015613c1b573d6000803e3d6000fd5b505050505050565b600160a060020a0383161515613c3857600080fd5b811515613c4457600080fd5b8015613cda57600254604080517f6cd44d55000000000000000000000000000000000000000000000000000000008152600160a060020a038681166004830152602482018690526000604483018190529251931692636cd44d559260648084019391929182900301818387803b158015613cbd57600080fd5b505af1158015613cd1573d6000803e3d6000fd5b50505050611591565b600254604080517f5ec5bc8e000000000000000000000000000000000000000000000000000000008152600160a060020a038681166004830152602482018690526000604483018190529251931692635ec5bc8e9260648084019391929182900301818387803b158015613d4d57600080fd5b505af1158015613d61573d6000803e3d6000fd5b50505050505050565b60608060008360ff16604051908082528060200260200182016040528015613d9c578160200160208202803883390190505b509150600090505b8360ff168110156134da578481815181101515613dbd57fe5b906020019060200201518282815181101515613dd557fe5b60ff909216602092830290910190910152600101613da4565b60608060008351604051908082528060200260200182016040528015613e1e578160200160208202803883390190505b509150600090505b83518110156133c6578351849082810360001901908110613e4357fe5b906020019060200201518282815181101515613e5b57fe5b60ff909216602092830290910190910152600101613e26565b606080600083516040519080825280601f01601f191660200182016040528015613ea8578160200160208202803883390190505b509150600090505b83518110156133c657606060405190810160405280603a81526020017f31323334353637383941424344454647484a4b4c4d4e5051525354555657585981526020017f5a6162636465666768696a6b6d6e6f707172737475767778797a0000000000008152508482815181101515613f2457fe5b9060200190602002015160ff16815181101515613f3d57fe5b90602001015160f860020a900460f860020a028282815181101515613f5e57fe5b906020010190600160f860020a031916908160001a905350600101613eb0565b600254604080517fc4725577000000000000000000000000000000000000000000000000000000008152600481018890526024810187905260448101869052606481018490529051600092839283928392600160a060020a03169163c472557791608480830192606092919082900301818787803b158015613fff57600080fd5b505af1158015614013573d6000803e3d6000fd5b505050506040513d606081101561402957600080fd5b5060409081015160025482517f762fdc0c000000000000000000000000000000000000000000000000000000008152600481018d9052602481018c90529251919650600160a060020a03169163762fdc0c91604480830192600092919082900301818387803b15801561409b57600080fd5b505af11580156140af573d6000803e3d6000fd5b505050506040513d6000823e601f3d908101601f1916820160405260608110156140d857600080fd5b8101908080516401000000008111156140f057600080fd5b8201602081018481111561410357600080fd5b815164010000000081118282018710171561411d57600080fd5b50505060409081015160025482517fc6f70370000000000000000000000000000000000000000000000000000000008152600481018f9052602481018e9052604481018d9052606481018b9052608481018a905260a481018390529251919750600160a060020a0316935063c6f70370925060c48083019260209291908290030181600087803b1580156141b057600080fd5b505af11580156141c4573d6000803e3d6000fd5b505050506040513d60208110156141da57600080fd5b5051600254604080517f491a790400000000000000000000000000000000000000000000000000000000815260048101849052600160a060020a038a81166024830152915193955091169163491a79049160448082019260009290919082900301818387803b15801561424c57600080fd5b505af1158015614260573d6000803e3d6000fd5b5050505061427086836000613c23565b600254604080517f65de1eb3000000000000000000000000000000000000000000000000000000008152600481018c90529051600160a060020a03909216916365de1eb39160248082019260009290919082900301818387803b1580156142d657600080fd5b505af11580156142ea573d6000803e3d6000fd5b505050506040513d6000823e601f3d908101601f19168201604052608081101561431357600080fd5b81019080805164010000000081111561432b57600080fd5b8201602081018481111561433e57600080fd5b815164010000000081118282018710171561435857600080fd5b5050506020015192506143719150829050836001613c23565b600254604080517fde5dead6000000000000000000000000000000000000000000000000000000008152600481018c9052602481018b9052604481018a9052600160648201529051600160a060020a039092169163de5dead69160848082019260009290919082900301818387803b1580156143ec57600080fd5b505af1158015613338573d6000803e3d6000fd00a165627a7a723058208f1c70a26bbff2fea0ff24b6a59d5d485375f24979f669b70c4dd37bd0f6af080029",
  "source": "pragma solidity ^0.4.24;\n\nimport \"./extensions/TRNAsset.sol\";\nimport \"./extensions/TRNOwnership.sol\";\nimport \"./extensions/TRNSupportsInterface.sol\";\nimport \"./extensions/TRNTransactions.sol\";\n\ncontract TripioRoomNightCustomer is TRNAsset, TRNSupportsInterface, TRNOwnership, TRNTransactions {\n    /**\n     * Constructor\n     */\n    constructor(address _dataSource) public {\n        // Init the data source\n        dataSource = TripioRoomNightData(_dataSource);\n    }\n\n    /**\n     * @dev Withdraw ETH balance from contract account, the balance will transfer to the contract owner\n     */\n    function withdrawBalance() external onlyOwner {\n        owner.transfer(address(this).balance);\n    }\n\n    /**\n     * @dev Withdraw other TOKEN balance from contract account, the balance will transfer to the contract owner\n     * @param _token The TOKEN id\n     */\n    function withdrawTokenId(uint _token) external onlyOwner {\n        TripioToken tripio = TripioToken(dataSource.tokenIndexToAddress(_token));\n        uint256 tokens = tripio.balanceOf(address(this));\n        tripio.transfer(owner, tokens);\n    }\n\n    /**\n     * @dev Withdraw other TOKEN balance from contract account, the balance will transfer to the contract owner\n     * @param _tokenAddress The TOKEN address\n     */\n    function withdrawToken(address _tokenAddress) external onlyOwner {\n        TripioToken tripio = TripioToken(_tokenAddress);\n        uint256 tokens = tripio.balanceOf(address(this));\n        tripio.transfer(owner, tokens);\n    }\n\n    /**\n     * @dev Destory the contract\n     */\n    function destroy() external onlyOwner {\n        selfdestruct(owner);\n    }\n\n    function() external payable {\n\n    }\n}",
  "sourcePath": "/Users/Kirn/Documents/Workspace/Dawn/tripio-roomnight/truffle/contracts/TripioRoomNightCustomer.sol",
  "compiler": {
    "name": "solc",
    "version": "0.4.24+commit.e67f0147.Emscripten.clang"
  },
  "schemaVersion": "2.0.1",
  "updatedAt": "2018-08-31T07:11:19.129Z"
}