{
  "contractName": "TripioRoomNightCustomer",
  "abi": [
    {
      "constant": true,
      "inputs": [
        {
          "name": "interfaceID",
          "type": "bytes4"
        }
      ],
      "name": "supportsInterface",
      "outputs": [
        {
          "name": "",
          "type": "bool"
        }
      ],
      "payable": false,
      "stateMutability": "view",
      "type": "function"
    },
    {
      "constant": true,
      "inputs": [],
      "name": "name",
      "outputs": [
        {
          "name": "_name",
          "type": "string"
        }
      ],
      "payable": false,
      "stateMutability": "pure",
      "type": "function"
    },
    {
      "constant": true,
      "inputs": [
        {
          "name": "_tokenId",
          "type": "uint256"
        }
      ],
      "name": "getApproved",
      "outputs": [
        {
          "name": "",
          "type": "address"
        }
      ],
      "payable": false,
      "stateMutability": "view",
      "type": "function"
    },
    {
      "constant": false,
      "inputs": [
        {
          "name": "_approved",
          "type": "address"
        },
        {
          "name": "_tokenId",
          "type": "uint256"
        }
      ],
      "name": "approve",
      "outputs": [],
      "payable": true,
      "stateMutability": "payable",
      "type": "function"
    },
    {
      "constant": false,
      "inputs": [
        {
          "name": "_from",
          "type": "address"
        },
        {
          "name": "_to",
          "type": "address"
        },
        {
          "name": "_tokenIds",
          "type": "uint256[]"
        }
      ],
      "name": "transferFromInBatch",
      "outputs": [],
      "payable": true,
      "stateMutability": "payable",
      "type": "function"
    },
    {
      "constant": false,
      "inputs": [
        {
          "name": "_from",
          "type": "address"
        },
        {
          "name": "_to",
          "type": "address"
        },
        {
          "name": "_tokenId",
          "type": "uint256"
        }
      ],
      "name": "transferFrom",
      "outputs": [],
      "payable": true,
      "stateMutability": "payable",
      "type": "function"
    },
    {
      "constant": false,
      "inputs": [
        {
          "name": "_rnid",
          "type": "uint256"
        }
      ],
      "name": "refund",
      "outputs": [
        {
          "name": "",
          "type": "bool"
        }
      ],
      "payable": true,
      "stateMutability": "payable",
      "type": "function"
    },
    {
      "constant": false,
      "inputs": [
        {
          "name": "_from",
          "type": "address"
        },
        {
          "name": "_to",
          "type": "address"
        },
        {
          "name": "_tokenId",
          "type": "uint256"
        }
      ],
      "name": "safeTransferFrom",
      "outputs": [],
      "payable": true,
      "stateMutability": "payable",
      "type": "function"
    },
    {
      "constant": true,
      "inputs": [
        {
          "name": "_rnid",
          "type": "uint256"
        }
      ],
      "name": "isRefundApplied",
      "outputs": [
        {
          "name": "",
          "type": "bool"
        }
      ],
      "payable": false,
      "stateMutability": "view",
      "type": "function"
    },
    {
      "constant": true,
      "inputs": [
        {
          "name": "_rnid",
          "type": "uint256"
        }
      ],
      "name": "roomNight",
      "outputs": [
        {
          "name": "_vendorId",
          "type": "uint256"
        },
        {
          "name": "_rpid",
          "type": "uint256"
        },
        {
          "name": "_token",
          "type": "uint256"
        },
        {
          "name": "_price",
          "type": "uint256"
        },
        {
          "name": "_timestamp",
          "type": "uint256"
        },
        {
          "name": "_date",
          "type": "uint256"
        },
        {
          "name": "_ipfs",
          "type": "bytes32"
        },
        {
          "name": "_name",
          "type": "string"
        }
      ],
      "payable": false,
      "stateMutability": "view",
      "type": "function"
    },
    {
      "constant": true,
      "inputs": [
        {
          "name": "_tokenId",
          "type": "uint256"
        }
      ],
      "name": "ownerOf",
      "outputs": [
        {
          "name": "",
          "type": "address"
        }
      ],
      "payable": false,
      "stateMutability": "view",
      "type": "function"
    },
    {
      "constant": true,
      "inputs": [
        {
          "name": "_owner",
          "type": "address"
        }
      ],
      "name": "balanceOf",
      "outputs": [
        {
          "name": "",
          "type": "uint256"
        }
      ],
      "payable": false,
      "stateMutability": "view",
      "type": "function"
    },
    {
      "constant": false,
      "inputs": [],
      "name": "acceptOwnership",
      "outputs": [],
      "payable": false,
      "stateMutability": "nonpayable",
      "type": "function"
    },
    {
      "constant": true,
      "inputs": [
        {
          "name": "_from",
          "type": "uint256"
        },
        {
          "name": "_limit",
          "type": "uint256"
        },
        {
          "name": "_isVendor",
          "type": "bool"
        }
      ],
      "name": "roomNightsOfOwner",
      "outputs": [
        {
          "name": "",
          "type": "uint256[]"
        },
        {
          "name": "",
          "type": "uint256"
        }
      ],
      "payable": false,
      "stateMutability": "view",
      "type": "function"
    },
    {
      "constant": true,
      "inputs": [],
      "name": "owner",
      "outputs": [
        {
          "name": "",
          "type": "address"
        }
      ],
      "payable": false,
      "stateMutability": "view",
      "type": "function"
    },
    {
      "constant": true,
      "inputs": [],
      "name": "symbol",
      "outputs": [
        {
          "name": "_symbol",
          "type": "string"
        }
      ],
      "payable": false,
      "stateMutability": "pure",
      "type": "function"
    },
    {
      "constant": false,
      "inputs": [
        {
          "name": "_operator",
          "type": "address"
        },
        {
          "name": "_approved",
          "type": "bool"
        }
      ],
      "name": "setApprovalForAll",
      "outputs": [],
      "payable": false,
      "stateMutability": "nonpayable",
      "type": "function"
    },
    {
      "constant": false,
      "inputs": [
        {
          "name": "_rnid",
          "type": "uint256"
        },
        {
          "name": "_isRefund",
          "type": "bool"
        }
      ],
      "name": "applyRefund",
      "outputs": [
        {
          "name": "",
          "type": "bool"
        }
      ],
      "payable": false,
      "stateMutability": "nonpayable",
      "type": "function"
    },
    {
      "constant": false,
      "inputs": [
        {
          "name": "_from",
          "type": "address"
        },
        {
          "name": "_to",
          "type": "address"
        },
        {
          "name": "_tokenId",
          "type": "uint256"
        },
        {
          "name": "_data",
          "type": "bytes"
        }
      ],
      "name": "safeTransferFrom",
      "outputs": [],
      "payable": true,
      "stateMutability": "payable",
      "type": "function"
    },
    {
      "constant": true,
      "inputs": [
        {
          "name": "_tokenId",
          "type": "uint256"
        }
      ],
      "name": "tokenURI",
      "outputs": [
        {
          "name": "",
          "type": "string"
        }
      ],
      "payable": false,
      "stateMutability": "view",
      "type": "function"
    },
    {
      "constant": true,
      "inputs": [],
      "name": "newOwner",
      "outputs": [
        {
          "name": "",
          "type": "address"
        }
      ],
      "payable": false,
      "stateMutability": "view",
      "type": "function"
    },
    {
      "constant": false,
      "inputs": [
        {
          "name": "_vendorId",
          "type": "uint256"
        },
        {
          "name": "_rpid",
          "type": "uint256"
        },
        {
          "name": "_dates",
          "type": "uint256[]"
        },
        {
          "name": "_token",
          "type": "uint256"
        }
      ],
      "name": "buyInBatch",
      "outputs": [
        {
          "name": "",
          "type": "bool"
        }
      ],
      "payable": true,
      "stateMutability": "payable",
      "type": "function"
    },
    {
      "constant": true,
      "inputs": [
        {
          "name": "_owner",
          "type": "address"
        },
        {
          "name": "_operator",
          "type": "address"
        }
      ],
      "name": "isApprovedForAll",
      "outputs": [
        {
          "name": "",
          "type": "bool"
        }
      ],
      "payable": false,
      "stateMutability": "view",
      "type": "function"
    },
    {
      "constant": false,
      "inputs": [
        {
          "name": "_newOwner",
          "type": "address"
        }
      ],
      "name": "transferOwnership",
      "outputs": [],
      "payable": false,
      "stateMutability": "nonpayable",
      "type": "function"
    },
    {
      "inputs": [
        {
          "name": "_dataSource",
          "type": "address"
        }
      ],
      "payable": false,
      "stateMutability": "nonpayable",
      "type": "constructor"
    },
    {
      "payable": true,
      "stateMutability": "payable",
      "type": "fallback"
    },
    {
      "anonymous": false,
      "inputs": [
        {
          "indexed": true,
          "name": "_customer",
          "type": "address"
        },
        {
          "indexed": true,
          "name": "_vendor",
          "type": "address"
        },
        {
          "indexed": true,
          "name": "_rpid",
          "type": "uint256"
        },
        {
          "indexed": false,
          "name": "_dates",
          "type": "uint256[]"
        },
        {
          "indexed": false,
          "name": "_token",
          "type": "uint256"
        }
      ],
      "name": "BuyInBatch",
      "type": "event"
    },
    {
      "anonymous": false,
      "inputs": [
        {
          "indexed": false,
          "name": "_customer",
          "type": "address"
        },
        {
          "indexed": true,
          "name": "_rnid",
          "type": "uint256"
        },
        {
          "indexed": false,
          "name": "_isRefund",
          "type": "bool"
        }
      ],
      "name": "ApplyRefund",
      "type": "event"
    },
    {
      "anonymous": false,
      "inputs": [
        {
          "indexed": false,
          "name": "_vendor",
          "type": "address"
        },
        {
          "indexed": false,
          "name": "_rnid",
          "type": "uint256"
        }
      ],
      "name": "Refund",
      "type": "event"
    },
    {
      "anonymous": false,
      "inputs": [
        {
          "indexed": true,
          "name": "_from",
          "type": "address"
        },
        {
          "indexed": true,
          "name": "_to",
          "type": "address"
        },
        {
          "indexed": false,
          "name": "_tokenId",
          "type": "uint256"
        }
      ],
      "name": "Transfer",
      "type": "event"
    },
    {
      "anonymous": false,
      "inputs": [
        {
          "indexed": true,
          "name": "_owner",
          "type": "address"
        },
        {
          "indexed": true,
          "name": "_approved",
          "type": "address"
        },
        {
          "indexed": false,
          "name": "_tokenId",
          "type": "uint256"
        }
      ],
      "name": "Approval",
      "type": "event"
    },
    {
      "anonymous": false,
      "inputs": [
        {
          "indexed": true,
          "name": "_owner",
          "type": "address"
        },
        {
          "indexed": true,
          "name": "_operator",
          "type": "address"
        },
        {
          "indexed": false,
          "name": "_approved",
          "type": "bool"
        }
      ],
      "name": "ApprovalForAll",
      "type": "event"
    },
    {
      "anonymous": false,
      "inputs": [
        {
          "indexed": true,
          "name": "from",
          "type": "address"
        },
        {
          "indexed": true,
          "name": "to",
          "type": "address"
        }
      ],
      "name": "OwnershipTransferred",
      "type": "event"
    },
    {
      "constant": false,
      "inputs": [],
      "name": "withdrawBalance",
      "outputs": [],
      "payable": false,
      "stateMutability": "nonpayable",
      "type": "function"
    },
    {
      "constant": false,
      "inputs": [
        {
          "name": "_token",
          "type": "uint256"
        }
      ],
      "name": "withdrawTokenId",
      "outputs": [],
      "payable": false,
      "stateMutability": "nonpayable",
      "type": "function"
    },
    {
      "constant": false,
      "inputs": [
        {
          "name": "_tokenAddress",
          "type": "address"
        }
      ],
      "name": "withdrawToken",
      "outputs": [],
      "payable": false,
      "stateMutability": "nonpayable",
      "type": "function"
    },
    {
      "constant": false,
      "inputs": [],
      "name": "destroy",
      "outputs": [],
      "payable": false,
      "stateMutability": "nonpayable",
      "type": "function"
    }
  ],
  "bytecode": "0x608060405234801561001057600080fd5b506040516020806148dc833981016040525160008054600160a060020a0319908116331790915560028054600160a060020a039093169290911691909117905561487d8061005f6000396000f3006080604052600436106101505763ffffffff60e060020a60003504166301ffc9a7811461015257806306fdde0314610188578063081812fc14610212578063095ea7b31461024657806311a767291461025d57806323b872dd14610285578063278ecde1146102a257806342842e0e146102ad5780635fd8c710146102ca578063612ef6e9146102df578063628c225c146102f75780636352211e146103c057806370a08231146103d857806379ba50971461040b57806383197ef0146104205780638947606914610435578063899f107d146104565780638da5cb5b146104d157806395d89b41146104e6578063a22cb465146104fb578063b08e0d3e14610521578063b88d4fde1461053e578063bb6ad6ef1461056a578063c87b56dd14610582578063d4ee1d901461059a578063dfd17f2b146105af578063e985e9c5146105cd578063f2fde38b146105f4575b005b34801561015e57600080fd5b50610174600160e060020a031960043516610615565b604080519115158252519081900360200190f35b34801561019457600080fd5b5061019d6107f5565b6040805160208082528351818301528351919283929083019185019080838360005b838110156101d75781810151838201526020016101bf565b50505050905090810190601f1680156102045780820380516001836020036101000a031916815260200191505b509250505060405180910390f35b34801561021e57600080fd5b5061022a60043561082c565b60408051600160a060020a039092168252519081900360200190f35b610150600160a060020a036004351660243561094f565b610150600160a060020a03600480358216916024803590911691604435918201910135610c67565b610150600160a060020a0360043581169060243516604435611097565b6101746004356113bb565b610150600160a060020a03600435811690602435166044356119d8565b3480156102d657600080fd5b506101506119f9565b3480156102eb57600080fd5b50610174600435611a4e565b34801561030357600080fd5b5061030f600435611bbe565b60405180898152602001888152602001878152602001868152602001858152602001848152602001836000191660001916815260200180602001828103825283818151815260200191508051906020019080838360005b8381101561037e578181015183820152602001610366565b50505050905090810190601f1680156103ab5780820380516001836020036101000a031916815260200191505b50995050505050505050505060405180910390f35b3480156103cc57600080fd5b5061022a600435611dbc565b3480156103e457600080fd5b506103f9600160a060020a0360043516611e4d565b60408051918252519081900360200190f35b34801561041757600080fd5b50610150611ecc565b34801561042c57600080fd5b50610150611f54565b34801561044157600080fd5b50610150600160a060020a0360043516611f79565b34801561046257600080fd5b5061047660043560243560443515156120c8565b6040518080602001838152602001828103825284818151815260200191508051906020019060200280838360005b838110156104bc5781810151838201526020016104a4565b50505050905001935050505060405180910390f35b3480156104dd57600080fd5b5061022a612268565b3480156104f257600080fd5b5061019d612277565b34801561050757600080fd5b50610150600160a060020a036004351660243515156122ae565b34801561052d57600080fd5b506101746004356024351515612396565b610150600160a060020a03600480358216916024803590911691604435916064359081019101356126d1565b34801561057657600080fd5b5061015060043561270d565b34801561058e57600080fd5b5061019d60043561281f565b3480156105a657600080fd5b5061022a612b2f565b61017460048035906024803591604435918201910135606435612b3e565b3480156105d957600080fd5b50610174600160a060020a0360043581169060243516612f4f565b34801561060057600080fd5b50610150600160a060020a0360043516612fac565b600254604080517f5e0f9e060000000000000000000000000000000000000000000000000000000081529051600092600160a060020a031691635e0f9e0691600480830192602092919082900301818787803b15801561067457600080fd5b505af1158015610688573d6000803e3d6000fd5b505050506040513d602081101561069e57600080fd5b5051600160e060020a0319838116911614806107445750600260009054906101000a9004600160a060020a0316600160a060020a031663c1752ef16040518163ffffffff1660e060020a028152600401602060405180830381600087803b15801561070857600080fd5b505af115801561071c573d6000803e3d6000fd5b505050506040513d602081101561073257600080fd5b5051600160e060020a03198381169116145b806107d95750600260009054906101000a9004600160a060020a0316600160a060020a0316633f2e681c6040518163ffffffff1660e060020a028152600401602060405180830381600087803b15801561079d57600080fd5b505af11580156107b1573d6000803e3d6000fd5b505050506040513d60208110156107c757600080fd5b5051600160e060020a03198381169116145b80156107ef5750600160e060020a031980831614155b92915050565b60408051808201909152601181527f54726970696f20526f6f6d204e69676874000000000000000000000000000000602082015290565b60008181811161083b57600080fd5b6002546040805160e060020a63e7f95c45028152600481018490529051600092600160a060020a03169163e7f95c4591602480830192602092919082900301818787803b15801561088b57600080fd5b505af115801561089f573d6000803e3d6000fd5b505050506040513d60208110156108b557600080fd5b5051600160a060020a031614156108cb57600080fd5b6002546040805160e160020a632376fe85028152600481018690529051600160a060020a03909216916346edfd0a916024808201926020929091908290030181600087803b15801561091c57600080fd5b505af1158015610930573d6000803e3d6000fd5b505050506040513d602081101561094657600080fd5b50519392505050565b60008181811161095e57600080fd5b6002546040805160e060020a63e7f95c45028152600481018490529051600092600160a060020a03169163e7f95c4591602480830192602092919082900301818787803b1580156109ae57600080fd5b505af11580156109c2573d6000803e3d6000fd5b505050506040513d60208110156109d857600080fd5b5051600160a060020a031614156109ee57600080fd5b6002546040805160e060020a63e7f95c45028152600481018690529051859260009283928392600160a060020a03169163e7f95c4591602480830192602092919082900301818787803b158015610a4457600080fd5b505af1158015610a58573d6000803e3d6000fd5b505050506040513d6020811015610a6e57600080fd5b50516002546040805160e260020a6303657815028152600160a060020a038085166004830181905233602484018190529351959850929092149550911691630d95e054916044808201926020929091908290030181600087803b158015610ad457600080fd5b505af1158015610ae8573d6000803e3d6000fd5b505050506040513d6020811015610afe57600080fd5b505190508180610b0b5750805b1515610b1657600080fd5b6002546040805160e060020a63e7f95c45028152600481018a90529051600160a060020a039092169163e7f95c45916024808201926020929091908290030181600087803b158015610b6757600080fd5b505af1158015610b7b573d6000803e3d6000fd5b505050506040513d6020811015610b9157600080fd5b5051600254604080517f6a385043000000000000000000000000000000000000000000000000000000008152600481018b9052600160a060020a038c811660248301529151939950911691636a3850439160448082019260009290919082900301818387803b158015610c0357600080fd5b505af1158015610c17573d6000803e3d6000fd5b5050604080518a81529051600160a060020a03808d1694508a1692507f8c5be1e5ebec7d5bd14f71427d1e84f3dd0314c0f7b2291e5b200ac8c7c3b9259181900360200190a35050505050505050565b6000808383808060200260200160405190810160405280939291908181526020018383602002808284375060009450505050505b8151811015610d775760008282815181101515610cb457fe5b6020908102909101015111610cc857600080fd5b6002548251600091600160a060020a03169063e7f95c4590859085908110610cec57fe5b906020019060200201516040518263ffffffff1660e060020a02815260040180828152602001915050602060405180830381600087803b158015610d2f57600080fd5b505af1158015610d43573d6000803e3d6000fd5b505050506040513d6020811015610d5957600080fd5b5051600160a060020a03161415610d6f57600080fd5b600101610c9b565b85858080602002602001604051908101604052809392919081815260200183836020028082843750600094508493508392508291508190505b8551851015610f9b576002548651600160a060020a039091169063e7f95c4590889088908110610ddc57fe5b906020019060200201516040518263ffffffff1660e060020a02815260040180828152602001915050602060405180830381600087803b158015610e1f57600080fd5b505af1158015610e33573d6000803e3d6000fd5b505050506040513d6020811015610e4957600080fd5b50516002548751919550600160a060020a038087163314955016906346edfd0a90889088908110610e7657fe5b906020019060200201516040518263ffffffff1660e060020a02815260040180828152602001915050602060405180830381600087803b158015610eb957600080fd5b505af1158015610ecd573d6000803e3d6000fd5b505050506040513d6020811015610ee357600080fd5b50516002546040805160e260020a6303657815028152600160a060020a038881166004830152336024830181905292519481169092149550911691630d95e054916044808201926020929091908290030181600087803b158015610f4657600080fd5b505af1158015610f5a573d6000803e3d6000fd5b505050506040513d6020811015610f7057600080fd5b505190508280610f7d5750815b80610f855750805b1515610f9057600080fd5b600190940193610db0565b600099505b8a8a101561108757600254600160a060020a031663e7f95c458d8d8d818110610fc557fe5b905060200201356040518263ffffffff1660e060020a02815260040180828152602001915050602060405180830381600087803b15801561100557600080fd5b505af1158015611019573d6000803e3d6000fd5b505050506040513d602081101561102f57600080fd5b50519850600160a060020a03808a16908f161461104b57600080fd5b600160a060020a038d16151561106057600080fd5b61107c8c8c8c81811061106f57fe5b905060200201358e612ff2565b600190990198610fa0565b5050505050505050505050505050565b6000818181116110a657600080fd5b6002546040805160e060020a63e7f95c45028152600481018490529051600092600160a060020a03169163e7f95c4591602480830192602092919082900301818787803b1580156110f657600080fd5b505af115801561110a573d6000803e3d6000fd5b505050506040513d602081101561112057600080fd5b5051600160a060020a0316141561113657600080fd5b82600080600080600260009054906101000a9004600160a060020a0316600160a060020a031663e7f95c45866040518263ffffffff1660e060020a02815260040180828152602001915050602060405180830381600087803b15801561119b57600080fd5b505af11580156111af573d6000803e3d6000fd5b505050506040513d60208110156111c557600080fd5b50516002546040805160e160020a632376fe85028152600481018990529051929650600160a060020a0380881633149650909116916346edfd0a916024808201926020929091908290030181600087803b15801561122257600080fd5b505af1158015611236573d6000803e3d6000fd5b505050506040513d602081101561124c57600080fd5b50516002546040805160e260020a6303657815028152600160a060020a038881166004830152336024830181905292519481169092149550911691630d95e054916044808201926020929091908290030181600087803b1580156112af57600080fd5b505af11580156112c3573d6000803e3d6000fd5b505050506040513d60208110156112d957600080fd5b5051905082806112e65750815b806112ee5750805b15156112f957600080fd5b6002546040805160e060020a63e7f95c45028152600481018b90529051600160a060020a039092169163e7f95c45916024808201926020929091908290030181600087803b15801561134a57600080fd5b505af115801561135e573d6000803e3d6000fd5b505050506040513d602081101561137457600080fd5b50519650600160a060020a03808816908b161461139057600080fd5b600160a060020a03891615156113a557600080fd5b6113af888a612ff2565b50505050505050505050565b60008080808080808080808a8181116113d357600080fd5b6002546040805160e060020a63e7f95c45028152600481018490529051600092600160a060020a03169163e7f95c4591602480830192602092919082900301818787803b15801561142357600080fd5b505af1158015611437573d6000803e3d6000fd5b505050506040513d602081101561144d57600080fd5b5051600160a060020a0316141561146357600080fd5b6002546040805160e060020a63e7f95c45028152600481018f90529051600160a060020a03909216916330c7090391839163e7f95c45916024808201926020929091908290030181600087803b1580156114bc57600080fd5b505af11580156114d0573d6000803e3d6000fd5b505050506040513d60208110156114e657600080fd5b81019080805190602001909291905050508e6040518363ffffffff1660e060020a0281526004018083600160a060020a0316600160a060020a0316815260200182815260200192505050602060405180830381600087803b15801561154a57600080fd5b505af115801561155e573d6000803e3d6000fd5b505050506040513d602081101561157457600080fd5b5051151561158157600080fd5b600254604080517f3bdf5878000000000000000000000000000000000000000000000000000000008152600481018f90529051600160a060020a0390921691633bdf58789160248082019260e0929091908290030181600087803b1580156115e857600080fd5b505af11580156115fc573d6000803e3d6000fd5b505050506040513d60e081101561161257600080fd5b8101908080519060200190929190805190602001909291908051906020019092919080519060200190929190805190602001909291908051906020019092919080519060200190929190505050509a50509950995099509950600260009054906101000a9004600160a060020a0316600160a060020a03166365de1eb38b6040518263ffffffff1660e060020a02815260040180828152602001915050600060405180830381600087803b1580156116c957600080fd5b505af11580156116dd573d6000803e3d6000fd5b505050506040513d6000823e601f3d908101601f19168201604052608081101561170657600080fd5b81019080805164010000000081111561171e57600080fd5b8201602081018481111561173157600080fd5b815164010000000081118282018710171561174b57600080fd5b5050506020015196505050600160a060020a038516331461176b57600080fd5b6002546040805160e060020a63e7f95c45028152600481018f90529051600160a060020a039092169163e7f95c45916024808201926020929091908290030181600087803b1580156117bc57600080fd5b505af11580156117d0573d6000803e3d6000fd5b505050506040513d60208110156117e657600080fd5b5051935087151561183d578692503483111561180157600080fd5b604051600160a060020a0385169084156108fc029085906000818181858888f19350505050158015611837573d6000803e3d6000fd5b5061197f565b6000871161184a57600080fd5b600254604080517fa306cdeb000000000000000000000000000000000000000000000000000000008152600481018b90529051600160a060020a039092169163a306cdeb916024808201926020929091908290030181600087803b1580156118b157600080fd5b505af11580156118c5573d6000803e3d6000fd5b505050506040513d60208110156118db57600080fd5b5051604080517f23b872dd000000000000000000000000000000000000000000000000000000008152336004820152600160a060020a038781166024830152604482018b90529151929450908416916323b872dd916064808201926020929091908290030181600087803b15801561195257600080fd5b505af1158015611966573d6000803e3d6000fd5b505050506040513d602081101561197c57600080fd5b50505b61198b8c8b8b89613153565b60408051338152602081018e905281517fbb28353e4598c3b9199101a66e0989549b659a59a54d2c27fbb183f1932c8e6d929181900390910190a15060019b9a5050505050505050505050565b6119f483838360206040519081016040528060008152506132f2565b505050565b600054600160a060020a03163314611a1057600080fd5b60008054604051600160a060020a0390911691303180156108fc02929091818181858888f19350505050158015611a4b573d6000803e3d6000fd5b50565b600081818111611a5d57600080fd5b6002546040805160e060020a63e7f95c45028152600481018490529051600092600160a060020a03169163e7f95c4591602480830192602092919082900301818787803b158015611aad57600080fd5b505af1158015611ac1573d6000803e3d6000fd5b505050506040513d6020811015611ad757600080fd5b5051600160a060020a03161415611aed57600080fd5b6002546040805160e060020a63e7f95c45028152600481018690529051600160a060020a03909216916330c7090391839163e7f95c45916024808201926020929091908290030181600087803b158015611b4657600080fd5b505af1158015611b5a573d6000803e3d6000fd5b505050506040513d6020811015611b7057600080fd5b50516040805160e060020a63ffffffff8516028152600160a060020a039092166004830152602482018790525160448083019260209291908290030181600087803b15801561091c57600080fd5b60008060008060008060006060600260009054906101000a9004600160a060020a0316600160a060020a0316633bdf58788a6040518263ffffffff1660e060020a0281526004018082815260200191505060e060405180830381600087803b158015611c2957600080fd5b505af1158015611c3d573d6000803e3d6000fd5b505050506040513d60e0811015611c5357600080fd5b8101908080519060200190929190805190602001909291908051906020019092919080519060200190929190805190602001909291908051906020019092919080519060200190929190505050809850819950829a50839b50849c50859d50869e5050505050505050600260009054906101000a9004600160a060020a0316600160a060020a031663762fdc0c89896040518363ffffffff1660e060020a0281526004018083815260200182815260200192505050600060405180830381600087803b158015611d2257600080fd5b505af1158015611d36573d6000803e3d6000fd5b505050506040513d6000823e601f3d908101601f191682016040526060811015611d5f57600080fd5b810190808051640100000000811115611d7757600080fd5b82016020810184811115611d8a57600080fd5b8151640100000000811182820187101715611da457600080fd5b509b9d9a9c50989a5096989597949650929492505050565b6000808211611dca57600080fd5b6002546040805160e060020a63e7f95c45028152600481018590529051600160a060020a039092169163e7f95c45916024808201926020929091908290030181600087803b158015611e1b57600080fd5b505af1158015611e2f573d6000803e3d6000fd5b505050506040513d6020811015611e4557600080fd5b505192915050565b6000600160a060020a0382161515611e6457600080fd5b600254604080517f70a08231000000000000000000000000000000000000000000000000000000008152600160a060020a038581166004830152915191909216916370a082319160248083019260209291908290030181600087803b158015611e1b57600080fd5b600154600160a060020a03163314611ee357600080fd5b60015460008054604051600160a060020a0393841693909116917f8be0079c531659141344cd1fd0a4f28419497f9722a3daafe3b4186f6b6457e091a3600180546000805473ffffffffffffffffffffffffffffffffffffffff19908116600160a060020a03841617909155169055565b600054600160a060020a03163314611f6b57600080fd5b600054600160a060020a0316ff5b600080548190600160a060020a03163314611f9357600080fd5b604080517f70a082310000000000000000000000000000000000000000000000000000000081523060048201529051849350600160a060020a038416916370a082319160248083019260209291908290030181600087803b158015611ff757600080fd5b505af115801561200b573d6000803e3d6000fd5b505050506040513d602081101561202157600080fd5b505160008054604080517fa9059cbb000000000000000000000000000000000000000000000000000000008152600160a060020a0392831660048201526024810185905290519394509085169263a9059cbb92604480840193602093929083900390910190829087803b15801561209757600080fd5b505af11580156120ab573d6000803e3d6000fd5b505050506040513d60208110156120c157600080fd5b5050505050565b6060600082156121e657600254604080517f4cb0c7a10000000000000000000000000000000000000000000000000000000081523360048201526024810188905260448101879052600160648201529051600160a060020a0390921691634cb0c7a19160848082019260009290919082900301818387803b15801561214c57600080fd5b505af1158015612160573d6000803e3d6000fd5b505050506040513d6000823e601f3d908101601f19168201604090815281101561218957600080fd5b8101908080516401000000008111156121a157600080fd5b820160208101848111156121b457600080fd5b81518560208202830111640100000000821117156121d157600080fd5b50506020909101519094509250612260915050565b600254604080517f600cf0d90000000000000000000000000000000000000000000000000000000081523360048201526024810188905260448101879052600160648201529051600160a060020a039092169163600cf0d99160848082019260009290919082900301818387803b15801561214c57600080fd5b935093915050565b600054600160a060020a031681565b60408051808201909152600381527f54524e0000000000000000000000000000000000000000000000000000000000602082015290565b600160a060020a03821615156122c357600080fd5b600254604080517f35058a2a000000000000000000000000000000000000000000000000000000008152600160a060020a0385811660048301523360248301528415156044830152915191909216916335058a2a91606480830192600092919082900301818387803b15801561233857600080fd5b505af115801561234c573d6000803e3d6000fd5b50506040805184151581529051600160a060020a03861693503392507f17307eab39ab6107e8899845ad3d59bd9653f200f220920489ca2b5937696c319181900360200190a35050565b6000828181116123a557600080fd5b6002546040805160e060020a63e7f95c45028152600481018490529051600092600160a060020a03169163e7f95c4591602480830192602092919082900301818787803b1580156123f557600080fd5b505af1158015612409573d6000803e3d6000fd5b505050506040513d602081101561241f57600080fd5b5051600160a060020a0316141561243557600080fd5b83600080600080600260009054906101000a9004600160a060020a0316600160a060020a031663e7f95c45866040518263ffffffff1660e060020a02815260040180828152602001915050602060405180830381600087803b15801561249a57600080fd5b505af11580156124ae573d6000803e3d6000fd5b505050506040513d60208110156124c457600080fd5b50516002546040805160e160020a632376fe85028152600481018990529051929650600160a060020a0380881633149650909116916346edfd0a916024808201926020929091908290030181600087803b15801561252157600080fd5b505af1158015612535573d6000803e3d6000fd5b505050506040513d602081101561254b57600080fd5b50516002546040805160e260020a6303657815028152600160a060020a038881166004830152336024830181905292519481169092149550911691630d95e054916044808201926020929091908290030181600087803b1580156125ae57600080fd5b505af11580156125c2573d6000803e3d6000fd5b505050506040513d60208110156125d857600080fd5b5051905082806125e55750815b806125ed5750805b15156125f857600080fd5b600254604080517f602b7001000000000000000000000000000000000000000000000000000000008152336004820152602481018c90528a151560448201529051600160a060020a039092169163602b70019160648082019260009290919082900301818387803b15801561266c57600080fd5b505af1158015612680573d6000803e3d6000fd5b5050604080513381528b1515602082015281518d94507fa8b03d10e96b23d3ed7630fcc9e32aec81ef79975e8d1345dd9e98306b73805393509081900390910190a250600198975050505050505050565b6120c185858585858080601f016020809104026020016040519081016040528093929190818152602001838380828437506132f2945050505050565b600080548190600160a060020a0316331461272757600080fd5b600254604080517fa306cdeb000000000000000000000000000000000000000000000000000000008152600481018690529051600160a060020a039092169163a306cdeb916024808201926020929091908290030181600087803b15801561278e57600080fd5b505af11580156127a2573d6000803e3d6000fd5b505050506040513d60208110156127b857600080fd5b5051604080517f70a082310000000000000000000000000000000000000000000000000000000081523060048201529051919350600160a060020a038416916370a08231916024808201926020929091908290030181600087803b158015611ff757600080fd5b60608060008180808684811161283457600080fd5b6002546040805160e060020a63e7f95c45028152600481018490529051600092600160a060020a03169163e7f95c4591602480830192602092919082900301818787803b15801561288457600080fd5b505af1158015612898573d6000803e3d6000fd5b505050506040513d60208110156128ae57600080fd5b5051600160a060020a031614156128c457600080fd5b60408051600280825281830183529091602083019080388339505081519197507f120000000000000000000000000000000000000000000000000000000000000091889150600090811061291457fe5b906020010190600160f860020a031916908160001a90535085517f2000000000000000000000000000000000000000000000000000000000000000908790600190811061295d57fe5b906020010190600160f860020a031916908160001a905350600254604080517f3bdf5878000000000000000000000000000000000000000000000000000000008152600481018b90529051600160a060020a0390921691633bdf58789160248082019260e0929091908290030181600087803b1580156129dc57600080fd5b505af11580156129f0573d6000803e3d6000fd5b505050506040513d60e0811015612a0657600080fd5b5060c001519450612a26612a19866137cb565b879063ffffffff61385116565b9350612a3184613966565b9250600260009054906101000a9004600160a060020a0316600160a060020a0316634e99b8006040518163ffffffff1660e060020a028152600401600060405180830381600087803b158015612a8657600080fd5b505af1158015612a9a573d6000803e3d6000fd5b505050506040513d6000823e601f3d908101601f191682016040526020811015612ac357600080fd5b810190808051640100000000811115612adb57600080fd5b82016020810184811115612aee57600080fd5b8151640100000000811182820187101715612b0857600080fd5b50909550612b2393508592508691505063ffffffff61385116565b98975050505050505050565b600154600160a060020a031681565b600080600087876000600260009054906101000a9004600160a060020a0316600160a060020a03166365de1eb3846040518263ffffffff1660e060020a02815260040180828152602001915050600060405180830381600087803b158015612ba557600080fd5b505af1158015612bb9573d6000803e3d6000fd5b505050506040513d6000823e601f3d908101601f191682016040526080811015612be257600080fd5b810190808051640100000000811115612bfa57600080fd5b82016020810184811115612c0d57600080fd5b8151640100000000811182820187101715612c2757600080fd5b5050506060015192505050801515612c3e57600080fd5b600254604080517f6b65a83400000000000000000000000000000000000000000000000000000000815260048101869052602481018590529051600160a060020a0390921691636b65a834916044808201926020929091908290030181600087803b158015612cac57600080fd5b505af1158015612cc0573d6000803e3d6000fd5b505050506040513d6020811015612cd657600080fd5b50511515612ce357600080fd5b8888808060200260200160405190810160405280939291908181526020018383602002808284375060009450505050505b8151811015612d745760008282815181101515612d2d57fe5b6020908102909101015111612d4157600080fd5b612d618282815181101515612d5257fe5b90602001906020020151613aed565b1515612d6c57600080fd5b600101612d14565b600260009054906101000a9004600160a060020a0316600160a060020a03166365de1eb38e6040518263ffffffff1660e060020a02815260040180828152602001915050600060405180830381600087803b158015612dd257600080fd5b505af1158015612de6573d6000803e3d6000fd5b505050506040513d6000823e601f3d908101601f191682016040526080811015612e0f57600080fd5b810190808051640100000000811115612e2757600080fd5b82016020810184811115612e3a57600080fd5b8151640100000000811182820187101715612e5457600080fd5b50509291906020018051906020019092919080519060200190929190805190602001909291905050505050975050612ebe8d888e8e8e808060200260200160405190810160405280939291908181526020018383602002808284378201915050505050508d613bf8565b9550851515612ecc57600080fd5b8b87600160a060020a031633600160a060020a03167f378b913ef532468f5ca14ee9e03c0b47e22440edd666fd7fcb4b7f146c1b752a8e8e8e604051808060200183815260200182810382528585828181526020019250602002808284376040519201829003965090945050505050a45060019c9b505050505050505050505050565b6002546040805160e260020a6303657815028152600160a060020a038581166004830152848116602483015291516000939290921691630d95e0549160448082019260209290919082900301818787803b15801561091c57600080fd5b600054600160a060020a03163314612fc357600080fd5b6001805473ffffffffffffffffffffffffffffffffffffffff1916600160a060020a0392909216919091179055565b6002546040805160e060020a63e7f95c45028152600481018590529051600092600160a060020a03169163e7f95c4591602480830192602092919082900301818787803b15801561304257600080fd5b505af1158015613056573d6000803e3d6000fd5b505050506040513d602081101561306c57600080fd5b5051905061307a8184613fea565b61308682846000614074565b600254604080517f491a790400000000000000000000000000000000000000000000000000000000815260048101869052600160a060020a0385811660248301529151919092169163491a790491604480830192600092919082900301818387803b1580156130f457600080fd5b505af1158015613108573d6000803e3d6000fd5b5050604080518681529051600160a060020a038087169450851692507fddf252ad1be2c89b69c2b068fc378daa952ba7f163c4a11628f55a4df523b3ef9181900360200190a3505050565b6002546040805160e060020a63e7f95c450281526004810187905290516131d792600160a060020a03169163e7f95c459160248083019260209291908290030181600087803b1580156131a557600080fd5b505af11580156131b9573d6000803e3d6000fd5b505050506040513d60208110156131cf57600080fd5b505185613fea565b600254604080517fbbb7eb64000000000000000000000000000000000000000000000000000000008152600481018690526024810185905260448101849052600160648201529051600160a060020a039092169163bbb7eb649160848082019260009290919082900301818387803b15801561325257600080fd5b505af1158015613266573d6000803e3d6000fd5b5050600254604080517f491a7904000000000000000000000000000000000000000000000000000000008152600481018990526000602482018190529151600160a060020a03909316945063491a790493506044808201939182900301818387803b1580156132d457600080fd5b505af11580156132e8573d6000803e3d6000fd5b5050505050505050565b600080808481811161330357600080fd5b6002546040805160e060020a63e7f95c45028152600481018490529051600092600160a060020a03169163e7f95c4591602480830192602092919082900301818787803b15801561335357600080fd5b505af1158015613367573d6000803e3d6000fd5b505050506040513d602081101561337d57600080fd5b5051600160a060020a0316141561339357600080fd5b85600080600080600260009054906101000a9004600160a060020a0316600160a060020a031663e7f95c45866040518263ffffffff1660e060020a02815260040180828152602001915050602060405180830381600087803b1580156133f857600080fd5b505af115801561340c573d6000803e3d6000fd5b505050506040513d602081101561342257600080fd5b50516002546040805160e160020a632376fe85028152600481018990529051929650600160a060020a0380881633149650909116916346edfd0a916024808201926020929091908290030181600087803b15801561347f57600080fd5b505af1158015613493573d6000803e3d6000fd5b505050506040513d60208110156134a957600080fd5b50516002546040805160e260020a6303657815028152600160a060020a038881166004830152336024830181905292519481169092149550911691630d95e054916044808201926020929091908290030181600087803b15801561350c57600080fd5b505af1158015613520573d6000803e3d6000fd5b505050506040513d602081101561353657600080fd5b5051905082806135435750815b8061354b5750805b151561355657600080fd5b6002546040805160e060020a63e7f95c45028152600481018e90529051600160a060020a039092169163e7f95c45916024808201926020929091908290030181600087803b1580156135a757600080fd5b505af11580156135bb573d6000803e3d6000fd5b505050506040513d60208110156135d157600080fd5b50519850600160a060020a03808a16908e16146135ed57600080fd5b600160a060020a038c16151561360257600080fd5b61360c8b8d612ff2565b8b3b975087151561361c576137bc565b8b600160a060020a031663f0b9e5ba8e8d8d6040518463ffffffff1660e060020a0281526004018084600160a060020a0316600160a060020a0316815260200183815260200180602001828103825283818151815260200191508051906020019080838360005b8381101561369b578181015183820152602001613683565b50505050905090810190601f1680156136c85780820380516001836020036101000a031916815260200191505b50945050505050602060405180830381600087803b1580156136e957600080fd5b505af11580156136fd573d6000803e3d6000fd5b505050506040513d602081101561371357600080fd5b5051600254604080517fecc98ce40000000000000000000000000000000000000000000000000000000081529051929950600160a060020a039091169163ecc98ce4916004808201926020929091908290030181600087803b15801561377857600080fd5b505af115801561378c573d6000803e3d6000fd5b505050506040513d60208110156137a257600080fd5b5051600160e060020a03198881169116146137bc57600080fd5b50505050505050505050505050565b604080516020808252818301909252606091829160009180820161040080388339019050509150600090505b60208160ff16101561384a578360ff82166020811061381257fe5b1a60f860020a02828260ff1681518110151561382a57fe5b906020010190600160f860020a031916908160001a9053506001016137f7565b5092915050565b606080600083518551016040519080825280601f01601f191660200182016040528015613888578160200160208202803883390190505b509150600090505b84518161ffff1610156138f457848161ffff168151811015156138af57fe5b90602001015160f860020a900460f860020a02828261ffff168151811015156138d457fe5b906020010190600160f860020a031916908160001a905350600101613890565b83518551018161ffff16101561395e578385518261ffff160381518110151561391957fe5b90602001015160f860020a900460f860020a02828261ffff1681518110151561393e57fe5b906020010190600160f860020a031916908160001a9053506001016138f4565b509392505050565b6060806000806000806064875160880281151561397f57fe5b046001016040519080825280602002602001820160405280156139ac578160200160208202803883390190505b50945060008560008151811015156139c057fe5b60ff90921660209283029091019091015260019350600092505b8651831015613ac85786838151811015156139f157fe5b90602001015160f860020a900460f860020a0260f860020a900460ff169150600090505b8360ff16811015613a7d578481815181101515613a2e57fe5b9060200190602002015160ff166101000282019150603a82811515613a4f57fe5b068582815181101515613a5e57fe5b60ff909216602092830290910190910152603a82049150600101613a15565b6000821115613abd57603a8206858560ff16815181101515613a9b57fe5b60ff909216602092830290910190910152600190930192603a82049150613a7d565b8260010192506139da565b613ae2613add613ad887876141bb565b61423f565b6142c5565b979650505050505050565b6000612710808304906064808302818604039183029082028503036107b2831080613b19575060008211155b80613b245750600c82115b80613b30575060008111155b80613b3b5750601f81115b15613b495760009350613bf0565b8160041480613b585750816006145b80613b635750816009145b80613b6e575081600b145b15613b855780601f1415613b855760009350613bf0565b60048306158015613b9857506064830615155b80613ba557506101908306155b15613bcd57816002148015613bba5750601d81115b15613bc85760009350613bf0565b613beb565b816002148015613bdd5750601c81115b15613beb5760009350613bf0565b600193505b505050919050565b6000606080600080600080600260009054906101000a9004600160a060020a0316600160a060020a031663644e8b248d8c8c8c6040518563ffffffff1660e060020a0281526004018085815260200184815260200180602001838152602001828103825284818151815260200191508051906020019060200280838360005b83811015613c8f578181015183820152602001613c77565b5050505090500195505050505050600060405180830381600087803b158015613cb757600080fd5b505af1158015613ccb573d6000803e3d6000fd5b505050506040513d6000823e601f3d908101601f191682016040908152811015613cf457600080fd5b810190808051640100000000811115613d0c57600080fd5b82016020810184811115613d1f57600080fd5b8151856020820283011164010000000082111715613d3c57600080fd5b50509291906020018051640100000000811115613d5857600080fd5b82016020810184811115613d6b57600080fd5b8151856020820283011164010000000082111715613d8857600080fd5b50949a50985060009750879650505050505b8851831015613e3d578583815181101515613db157fe5b9060200190602002015161ffff1660001480613de457508483815181101515613dd657fe5b906020019060200201516000145b15613df25760009650613fdb565b8483815181101515613e0057fe5b9060200190602002015184019350613e328c8b8b86815181101515613e2157fe5b90602001906020020151338c6143cf565b600190920191613d9a565b871515613e8c57348414613e5057600080fd5b604051600160a060020a038c169085156108fc029086906000818181858888f19350505050158015613e86573d6000803e3d6000fd5b50613fd6565b600254604080517fa306cdeb000000000000000000000000000000000000000000000000000000008152600481018b90529051600160a060020a039092169163a306cdeb916024808201926020929091908290030181600087803b158015613ef357600080fd5b505af1158015613f07573d6000803e3d6000fd5b505050506040513d6020811015613f1d57600080fd5b50519150600160a060020a0382161515613f3657600080fd5b50604080517f23b872dd000000000000000000000000000000000000000000000000000000008152336004820152600160a060020a038c8116602483015260448201869052915183928316916323b872dd9160648083019260209291908290030181600087803b158015613fa957600080fd5b505af1158015613fbd573d6000803e3d6000fd5b505050506040513d6020811015613fd357600080fd5b50505b600196505b50505050505095945050505050565b600254604080517f28543417000000000000000000000000000000000000000000000000000000008152600160a060020a0385811660048301526024820185905291519190921691632854341791604480830192600092919082900301818387803b15801561405857600080fd5b505af115801561406c573d6000803e3d6000fd5b505050505050565b600160a060020a038316151561408957600080fd5b81151561409557600080fd5b801561412b57600254604080517f6cd44d55000000000000000000000000000000000000000000000000000000008152600160a060020a038681166004830152602482018690526000604483018190529251931692636cd44d559260648084019391929182900301818387803b15801561410e57600080fd5b505af1158015614122573d6000803e3d6000fd5b505050506119f4565b600254604080517f5ec5bc8e000000000000000000000000000000000000000000000000000000008152600160a060020a038681166004830152602482018690526000604483018190529251931692635ec5bc8e9260648084019391929182900301818387803b15801561419e57600080fd5b505af11580156141b2573d6000803e3d6000fd5b50505050505050565b60608060008360ff166040519080825280602002602001820160405280156141ed578160200160208202803883390190505b509150600090505b8360ff1681101561395e57848181518110151561420e57fe5b90602001906020020151828281518110151561422657fe5b60ff9092166020928302909101909101526001016141f5565b6060806000835160405190808252806020026020018201604052801561426f578160200160208202803883390190505b509150600090505b835181101561384a57835184908281036000190190811061429457fe5b9060200190602002015182828151811015156142ac57fe5b60ff909216602092830290910190910152600101614277565b606080600083516040519080825280601f01601f1916602001820160405280156142f9578160200160208202803883390190505b509150600090505b835181101561384a57606060405190810160405280603a81526020017f31323334353637383941424344454647484a4b4c4d4e5051525354555657585981526020017f5a6162636465666768696a6b6d6e6f707172737475767778797a000000000000815250848281518110151561437557fe5b9060200190602002015160ff1681518110151561438e57fe5b90602001015160f860020a900460f860020a0282828151811015156143af57fe5b906020010190600160f860020a031916908160001a905350600101614301565b600254604080517fc4725577000000000000000000000000000000000000000000000000000000008152600481018890526024810187905260448101869052606481018490529051600092839283928392600160a060020a03169163c472557791608480830192606092919082900301818787803b15801561445057600080fd5b505af1158015614464573d6000803e3d6000fd5b505050506040513d606081101561447a57600080fd5b5060409081015160025482517f762fdc0c000000000000000000000000000000000000000000000000000000008152600481018d9052602481018c90529251919650600160a060020a03169163762fdc0c91604480830192600092919082900301818387803b1580156144ec57600080fd5b505af1158015614500573d6000803e3d6000fd5b505050506040513d6000823e601f3d908101601f19168201604052606081101561452957600080fd5b81019080805164010000000081111561454157600080fd5b8201602081018481111561455457600080fd5b815164010000000081118282018710171561456e57600080fd5b50505060409081015160025482517fc6f70370000000000000000000000000000000000000000000000000000000008152600481018f9052602481018e9052604481018d9052606481018b9052608481018a905260a481018390529251919750600160a060020a0316935063c6f70370925060c48083019260209291908290030181600087803b15801561460157600080fd5b505af1158015614615573d6000803e3d6000fd5b505050506040513d602081101561462b57600080fd5b5051600254604080517f491a790400000000000000000000000000000000000000000000000000000000815260048101849052600160a060020a038a81166024830152915193955091169163491a79049160448082019260009290919082900301818387803b15801561469d57600080fd5b505af11580156146b1573d6000803e3d6000fd5b505050506146c186836000614074565b600254604080517f65de1eb3000000000000000000000000000000000000000000000000000000008152600481018c90529051600160a060020a03909216916365de1eb39160248082019260009290919082900301818387803b15801561472757600080fd5b505af115801561473b573d6000803e3d6000fd5b505050506040513d6000823e601f3d908101601f19168201604052608081101561476457600080fd5b81019080805164010000000081111561477c57600080fd5b8201602081018481111561478f57600080fd5b81516401000000008111828201871017156147a957600080fd5b5050506020015192506147c29150829050836001614074565b600254604080517fde5dead6000000000000000000000000000000000000000000000000000000008152600481018c9052602481018b9052604481018a9052600160648201529051600160a060020a039092169163de5dead69160848082019260009290919082900301818387803b15801561483d57600080fd5b505af11580156137bc573d6000803e3d6000fd00a165627a7a72305820519f5fb45a925b5f1ba20f72b588b4eb8ed42ca8aae74ae0f5d595d172eda9b70029",
  "source": "pragma solidity ^0.4.24;\n\nimport \"./extensions/TRNAsset.sol\";\nimport \"./extensions/TRNOwnership.sol\";\nimport \"./extensions/TRNSupportsInterface.sol\";\nimport \"./extensions/TRNTransactions.sol\";\n\ncontract TripioRoomNightCustomer is TRNAsset, TRNSupportsInterface, TRNOwnership, TRNTransactions {\n    /**\n     * Constructor\n     */\n    constructor(address _dataSource) public {\n        // Init the data source\n        dataSource = TripioRoomNightData(_dataSource);\n    }\n\n    /**\n     * @dev Withdraw ETH balance from contract account, the balance will transfer to the contract owner\n     */\n    function withdrawBalance() external onlyOwner {\n        owner.transfer(address(this).balance);\n    }\n\n    /**\n     * @dev Withdraw other TOKEN balance from contract account, the balance will transfer to the contract owner\n     * @param _token The TOKEN id\n     */\n    function withdrawTokenId(uint _token) external onlyOwner {\n        TripioToken tripio = TripioToken(dataSource.tokenIndexToAddress(_token));\n        uint256 tokens = tripio.balanceOf(address(this));\n        tripio.transfer(owner, tokens);\n    }\n\n    /**\n     * @dev Withdraw other TOKEN balance from contract account, the balance will transfer to the contract owner\n     * @param _tokenAddress The TOKEN address\n     */\n    function withdrawToken(address _tokenAddress) external onlyOwner {\n        TripioToken tripio = TripioToken(_tokenAddress);\n        uint256 tokens = tripio.balanceOf(address(this));\n        tripio.transfer(owner, tokens);\n    }\n\n    /**\n     * @dev Destory the contract\n     */\n    function destroy() external onlyOwner {\n        selfdestruct(owner);\n    }\n\n    function() external payable {\n\n    }\n}",
  "sourcePath": "/Users/Kirn/Documents/Workspace/Trip.io/roomnight/truffle/contracts/TripioRoomNightCustomer.sol",
  "compiler": {
    "name": "solc",
    "version": "0.4.24+commit.e67f0147.Emscripten.clang"
  },
  "schemaVersion": "2.0.1",
  "updatedAt": "2018-11-07T07:56:22.568Z"
}