{
  "contractName": "TRNAsset",
  "abi": [
    {
      "constant": false,
      "inputs": [],
      "name": "acceptOwnership",
      "outputs": [],
      "payable": false,
      "stateMutability": "nonpayable",
      "type": "function"
    },
    {
      "constant": true,
      "inputs": [],
      "name": "owner",
      "outputs": [
        {
          "name": "",
          "type": "address"
        }
      ],
      "payable": false,
      "stateMutability": "view",
      "type": "function"
    },
    {
      "constant": true,
      "inputs": [],
      "name": "newOwner",
      "outputs": [
        {
          "name": "",
          "type": "address"
        }
      ],
      "payable": false,
      "stateMutability": "view",
      "type": "function"
    },
    {
      "constant": false,
      "inputs": [
        {
          "name": "_newOwner",
          "type": "address"
        }
      ],
      "name": "transferOwnership",
      "outputs": [],
      "payable": false,
      "stateMutability": "nonpayable",
      "type": "function"
    },
    {
      "inputs": [],
      "payable": false,
      "stateMutability": "nonpayable",
      "type": "constructor"
    },
    {
      "anonymous": false,
      "inputs": [
        {
          "indexed": true,
          "name": "from",
          "type": "address"
        },
        {
          "indexed": true,
          "name": "to",
          "type": "address"
        }
      ],
      "name": "OwnershipTransferred",
      "type": "event"
    },
    {
      "constant": true,
      "inputs": [],
      "name": "name",
      "outputs": [
        {
          "name": "_name",
          "type": "string"
        }
      ],
      "payable": false,
      "stateMutability": "pure",
      "type": "function"
    },
    {
      "constant": true,
      "inputs": [],
      "name": "symbol",
      "outputs": [
        {
          "name": "_symbol",
          "type": "string"
        }
      ],
      "payable": false,
      "stateMutability": "pure",
      "type": "function"
    },
    {
      "constant": true,
      "inputs": [
        {
          "name": "_tokenId",
          "type": "uint256"
        }
      ],
      "name": "tokenURI",
      "outputs": [
        {
          "name": "",
          "type": "string"
        }
      ],
      "payable": false,
      "stateMutability": "view",
      "type": "function"
    }
  ],
  "bytecode": "0x608060405234801561001057600080fd5b5060008054600160a060020a03191633179055610bb7806100326000396000f3006080604052600436106100825763ffffffff7c010000000000000000000000000000000000000000000000000000000060003504166306fdde03811461008757806379ba5097146101115780638da5cb5b1461012857806395d89b4114610159578063c87b56dd1461016e578063d4ee1d9014610186578063f2fde38b1461019b575b600080fd5b34801561009357600080fd5b5061009c6101bc565b6040805160208082528351818301528351919283929083019185019080838360005b838110156100d65781810151838201526020016100be565b50505050905090810190601f1680156101035780820380516001836020036101000a031916815260200191505b509250505060405180910390f35b34801561011d57600080fd5b506101266101f3565b005b34801561013457600080fd5b5061013d61027b565b60408051600160a060020a039092168252519081900360200190f35b34801561016557600080fd5b5061009c61028a565b34801561017a57600080fd5b5061009c6004356102c1565b34801561019257600080fd5b5061013d610600565b3480156101a757600080fd5b50610126600160a060020a036004351661060f565b60408051808201909152601181527f54726970696f20526f6f6d204e69676874000000000000000000000000000000602082015290565b600154600160a060020a0316331461020a57600080fd5b60015460008054604051600160a060020a0393841693909116917f8be0079c531659141344cd1fd0a4f28419497f9722a3daafe3b4186f6b6457e091a3600180546000805473ffffffffffffffffffffffffffffffffffffffff19908116600160a060020a03841617909155169055565b600054600160a060020a031681565b60408051808201909152600381527f54524e0000000000000000000000000000000000000000000000000000000000602082015290565b6060806000818080868481116102d657600080fd5b600254604080517fe7f95c45000000000000000000000000000000000000000000000000000000008152600481018490529051600092600160a060020a03169163e7f95c4591602480830192602092919082900301818787803b15801561033c57600080fd5b505af1158015610350573d6000803e3d6000fd5b505050506040513d602081101561036657600080fd5b5051600160a060020a0316141561037c57600080fd5b60408051600280825281830183529091602083019080388339505081519197507f12000000000000000000000000000000000000000000000000000000000000009188915060009081106103cc57fe5b906020010190600160f860020a031916908160001a90535085517f2000000000000000000000000000000000000000000000000000000000000000908790600190811061041557fe5b906020010190600160f860020a031916908160001a905350600254604080517f3bdf5878000000000000000000000000000000000000000000000000000000008152600481018b90529051600160a060020a0390921691633bdf58789160248082019260e0929091908290030181600087803b15801561049457600080fd5b505af11580156104a8573d6000803e3d6000fd5b505050506040513d60e08110156104be57600080fd5b5060c0015194506104de6104d186610655565b879063ffffffff6106db16565b93506104e9846107f0565b9250600260009054906101000a9004600160a060020a0316600160a060020a0316634e99b8006040518163ffffffff167c0100000000000000000000000000000000000000000000000000000000028152600401600060405180830381600087803b15801561055757600080fd5b505af115801561056b573d6000803e3d6000fd5b505050506040513d6000823e601f3d908101601f19168201604052602081101561059457600080fd5b8101908080516401000000008111156105ac57600080fd5b820160208101848111156105bf57600080fd5b81516401000000008111828201871017156105d957600080fd5b509095506105f493508592508691505063ffffffff6106db16565b98975050505050505050565b600154600160a060020a031681565b600054600160a060020a0316331461062657600080fd5b6001805473ffffffffffffffffffffffffffffffffffffffff1916600160a060020a0392909216919091179055565b604080516020808252818301909252606091829160009180820161040080388339019050509150600090505b60208160ff1610156106d4578360ff82166020811061069c57fe5b1a60f860020a02828260ff168151811015156106b457fe5b906020010190600160f860020a031916908160001a905350600101610681565b5092915050565b606080600083518551016040519080825280601f01601f191660200182016040528015610712578160200160208202803883390190505b509150600090505b84518161ffff16101561077e57848161ffff1681518110151561073957fe5b90602001015160f860020a900460f860020a02828261ffff1681518110151561075e57fe5b906020010190600160f860020a031916908160001a90535060010161071a565b83518551018161ffff1610156107e8578385518261ffff16038151811015156107a357fe5b90602001015160f860020a900460f860020a02828261ffff168151811015156107c857fe5b906020010190600160f860020a031916908160001a90535060010161077e565b509392505050565b6060806000806000806064875160880281151561080957fe5b04600101604051908082528060200260200182016040528015610836578160200160208202803883390190505b509450600085600081518110151561084a57fe5b60ff90921660209283029091019091015260019350600092505b865183101561095257868381518110151561087b57fe5b90602001015160f860020a900460f860020a0260f860020a900460ff169150600090505b8360ff168110156109075784818151811015156108b857fe5b9060200190602002015160ff166101000282019150603a828115156108d957fe5b0685828151811015156108e857fe5b60ff909216602092830290910190910152603a8204915060010161089f565b600082111561094757603a8206858560ff1681518110151561092557fe5b60ff909216602092830290910190910152600190930192603a82049150610907565b826001019250610864565b61096c6109676109628787610977565b6109fb565b610a81565b979650505050505050565b60608060008360ff166040519080825280602002602001820160405280156109a9578160200160208202803883390190505b509150600090505b8360ff168110156107e85784818151811015156109ca57fe5b9060200190602002015182828151811015156109e257fe5b60ff9092166020928302909101909101526001016109b1565b60608060008351604051908082528060200260200182016040528015610a2b578160200160208202803883390190505b509150600090505b83518110156106d4578351849082810360001901908110610a5057fe5b906020019060200201518282815181101515610a6857fe5b60ff909216602092830290910190910152600101610a33565b606080600083516040519080825280601f01601f191660200182016040528015610ab5578160200160208202803883390190505b509150600090505b83518110156106d457606060405190810160405280603a81526020017f31323334353637383941424344454647484a4b4c4d4e5051525354555657585981526020017f5a6162636465666768696a6b6d6e6f707172737475767778797a0000000000008152508482815181101515610b3157fe5b9060200190602002015160ff16815181101515610b4a57fe5b90602001015160f860020a900460f860020a028282815181101515610b6b57fe5b906020010190600160f860020a031916908160001a905350600101610abd5600a165627a7a72305820ae7e347f298282fdb3c7db3cb84a7cb59a4d37241ce6a96847ff9c0e765b60830029",
  "source": "pragma solidity ^0.4.21;\n\nimport \"../721/ERC721Metadata.sol\";\nimport \"./TRNData.sol\";\nimport \"../libs/IPFSLib.sol\";\n\ncontract TRNAsset is TRNData, ERC721Metadata {\n    using IPFSLib for bytes;\n    using IPFSLib for bytes32;\n\n    /**\n     * Constructor\n     */\n    constructor() public {\n        \n    }\n\n    /**\n     * @dev Descriptive name for Tripio's Room Night Token in this contract\n     * @return The name of the contract\n     */\n    function name() external pure returns (string _name) {\n        return \"Tripio Room Night\";\n    }\n\n    /**\n     * @dev Abbreviated name for Tripio's Room Night Token in this contract\n     * @return The simple name of the contract\n     */\n    function symbol() external pure returns (string _symbol) {\n        return \"TRN\";\n    }\n\n    /**\n     * @dev If `_tokenId` is not valid trows an exception otherwise return a URI which point to a JSON file like:\n     *      {\n     *       \"name\": \"Identifies the asset to which this NFT represents\",\n     *       \"description\": \"Describes the asset to which this NFT represents\",\n     *       \"image\": \"A URI pointing to a resource with mime type image/* representing the asset to which this NFT represents. Consider making any images at a width between 320 and 1080 pixels and aspect ratio between 1.91:1 and 4:5 inclusive.\"\n     *      }\n     * @param _tokenId The RoomNight digital token\n     * @return The digital token asset uri\n     */\n    function tokenURI(uint256 _tokenId) \n        external \n        view \n        validToken(_tokenId) \n        returns (string) { \n        bytes memory prefix = new bytes(2);\n        prefix[0] = 0x12;\n        prefix[1] = 0x20;\n        (,,,,,,bytes32 ipfs) = dataSource.roomnights(_tokenId);\n        bytes memory value = prefix.concat(ipfs.toBytes());\n        bytes memory ipfsBytes = value.base58Address();\n        bytes memory tokenBaseURIBytes = bytes(dataSource.tokenBaseURI());\n        return string(tokenBaseURIBytes.concat(ipfsBytes));\n    }\n}\n",
  "sourcePath": "/Users/Kirn/Documents/Workspace/Trip.io/roomnight/truffle/contracts/extensions/TRNAsset.sol",
  "compiler": {
    "name": "solc",
    "version": "0.4.24+commit.e67f0147.Emscripten.clang"
  },
  "schemaVersion": "2.0.1",
  "updatedAt": "2018-11-07T07:56:22.571Z"
}