{
  "contractName": "TRNData",
  "abi": [
    {
      "constant": false,
      "inputs": [],
      "name": "acceptOwnership",
      "outputs": [],
      "payable": false,
      "stateMutability": "nonpayable",
      "type": "function"
    },
    {
      "constant": true,
      "inputs": [],
      "name": "owner",
      "outputs": [
        {
          "name": "",
          "type": "address"
        }
      ],
      "payable": false,
      "stateMutability": "view",
      "type": "function"
    },
    {
      "constant": true,
      "inputs": [],
      "name": "newOwner",
      "outputs": [
        {
          "name": "",
          "type": "address"
        }
      ],
      "payable": false,
      "stateMutability": "view",
      "type": "function"
    },
    {
      "constant": false,
      "inputs": [
        {
          "name": "_newOwner",
          "type": "address"
        }
      ],
      "name": "transferOwnership",
      "outputs": [],
      "payable": false,
      "stateMutability": "nonpayable",
      "type": "function"
    },
    {
      "inputs": [],
      "payable": false,
      "stateMutability": "nonpayable",
      "type": "constructor"
    },
    {
      "anonymous": false,
      "inputs": [
        {
          "indexed": true,
          "name": "from",
          "type": "address"
        },
        {
          "indexed": true,
          "name": "to",
          "type": "address"
        }
      ],
      "name": "OwnershipTransferred",
      "type": "event"
    }
  ],
  "bytecode": "0x608060405234801561001057600080fd5b5060008054600160a060020a031916331790556101fc806100326000396000f3006080604052600436106100615763ffffffff7c010000000000000000000000000000000000000000000000000000000060003504166379ba509781146100665780638da5cb5b1461007d578063d4ee1d90146100ae578063f2fde38b146100c3575b600080fd5b34801561007257600080fd5b5061007b6100e4565b005b34801561008957600080fd5b5061009261016c565b60408051600160a060020a039092168252519081900360200190f35b3480156100ba57600080fd5b5061009261017b565b3480156100cf57600080fd5b5061007b600160a060020a036004351661018a565b600154600160a060020a031633146100fb57600080fd5b60015460008054604051600160a060020a0393841693909116917f8be0079c531659141344cd1fd0a4f28419497f9722a3daafe3b4186f6b6457e091a3600180546000805473ffffffffffffffffffffffffffffffffffffffff19908116600160a060020a03841617909155169055565b600054600160a060020a031681565b600154600160a060020a031681565b600054600160a060020a031633146101a157600080fd5b6001805473ffffffffffffffffffffffffffffffffffffffff1916600160a060020a03929092169190911790555600a165627a7a723058205ca1f6edf382f07fc9093c7433203ba320ceccd8f5b7668eaa5c9cf020ae0b0d0029",
  "source": "pragma solidity ^0.4.21;\n\nimport \"../TripioRoomNightData.sol\";\n\ncontract TRNData is Owned {\n    TripioRoomNightData dataSource;\n    /**\n     * Only the valid vendor and the vendor is valid\n     */ \n    modifier onlyVendor {\n        uint256 vendorId = dataSource.vendorIds(msg.sender);\n        require(vendorId > 0);\n        (,,,bool valid) = dataSource.getVendor(vendorId);\n        require(valid);\n        _;\n    }\n\n    /**\n     * The vendor is valid\n     */\n    modifier vendorValid(address _vendor) {\n        uint256 vendorId = dataSource.vendorIds(_vendor);\n        require(vendorId > 0);\n        (,,,bool valid) = dataSource.getVendor(vendorId);\n        require(valid);\n        _;\n    }\n\n    /**\n     * The vendorId is valid\n     */\n    modifier vendorIdValid(uint256 _vendorId) {\n        (,,,bool valid) = dataSource.getVendor(_vendorId);\n        require(valid);\n        _;\n    }\n\n    /**\n     * Rate plan exist.\n     */\n    modifier ratePlanExist(uint256 _vendorId, uint256 _rpid) {\n        (,,,bool valid) = dataSource.getVendor(_vendorId);\n        require(valid);\n        require(dataSource.ratePlanIsExist(_vendorId, _rpid));\n        _;\n    }\n    \n    /**\n     * Token is valid\n     */\n    modifier validToken(uint256 _tokenId) {\n        require(_tokenId > 0);\n        require(dataSource.roomNightIndexToOwner(_tokenId) != address(0));\n        _;\n    }\n\n    /**\n     * Whether the `_tokenId` can be transfered\n     */\n    modifier canTransfer(uint256 _tokenId) {\n        address owner = dataSource.roomNightIndexToOwner(_tokenId);\n        bool isOwner = (msg.sender == owner);\n        bool isApproval = (msg.sender == dataSource.roomNightApprovals(_tokenId));\n        bool isOperator = (dataSource.operatorApprovals(owner, msg.sender));\n        require(isOwner || isApproval || isOperator);\n        _;\n    }\n\n    /**\n     * Whether the `_tokenId` can be operated by `msg.sender`\n     */\n    modifier canOperate(uint256 _tokenId) {\n        address owner = dataSource.roomNightIndexToOwner(_tokenId);\n        bool isOwner = (msg.sender == owner);\n        bool isOperator = (dataSource.operatorApprovals(owner, msg.sender));\n        require(isOwner || isOperator);\n        _;\n    }\n\n    /**\n     * Whether the `_date` is valid(no hours, no seconds)\n     */\n    modifier validDate(uint256 _date) {\n        require(_date > 0);\n        require(dateIsLegal(_date));\n        _;\n    }\n\n    /**\n     * Whether the `_dates` are valid(no hours, no seconds)\n     */\n    modifier validDates(uint256[] _dates) {\n        for(uint256 i = 0;i < _dates.length; i++) {\n            require(_dates[i] > 0);\n            require(dateIsLegal(_dates[i]));\n        }\n        _;\n    }\n\n    function dateIsLegal(uint256 _date) pure private returns(bool) {\n        uint256 year = _date / 10000;\n        uint256 mon = _date / 100 % 10;\n        uint256 day = _date / 1 % 100;\n        \n        if(year < 0 || mon <= 0 || mon > 12 || day <= 0 || day > 31)\n            return false;\n    \n        if(1 == mon || 3 == mon || 5 == mon || 7 == mon || 8 == mon || 10 == mon || 12 == mon){\n            return true;\n        }\n        if(((year % 4 == 0) && (year % 100 != 0)) || (year % 400 == 0)) {\n            if(2 == mon && (28 == day || 30 == day || 31 == day)) {\n                return false;\n            }else {\n                return true;\n            }\n        }else {\n            if(2 == mon && (29 == day || 30 == day || 31 == day)){\n                return false;\n            }else {\n                return true;\n            }\n        }\n    }\n    /**\n     * Constructor\n     */\n    constructor() public {\n\n    }\n}",
  "sourcePath": "/Users/Kirn/Documents/Workspace/Dawn/tripio-roomnight/truffle/contracts/extensions/TRNData.sol",
  "compiler": {
    "name": "solc",
    "version": "0.4.24+commit.e67f0147.Emscripten.clang"
  },
  "schemaVersion": "2.0.1",
  "updatedAt": "2018-08-31T07:11:19.134Z"
}