{
  "contractName": "TRNOwners",
  "abi": [
    {
      "constant": false,
      "inputs": [],
      "name": "acceptOwnership",
      "outputs": [],
      "payable": false,
      "stateMutability": "nonpayable",
      "type": "function"
    },
    {
      "constant": true,
      "inputs": [],
      "name": "owner",
      "outputs": [
        {
          "name": "",
          "type": "address"
        }
      ],
      "payable": false,
      "stateMutability": "view",
      "type": "function"
    },
    {
      "constant": true,
      "inputs": [],
      "name": "newOwner",
      "outputs": [
        {
          "name": "",
          "type": "address"
        }
      ],
      "payable": false,
      "stateMutability": "view",
      "type": "function"
    },
    {
      "constant": false,
      "inputs": [
        {
          "name": "_newOwner",
          "type": "address"
        }
      ],
      "name": "transferOwnership",
      "outputs": [],
      "payable": false,
      "stateMutability": "nonpayable",
      "type": "function"
    },
    {
      "inputs": [],
      "payable": false,
      "stateMutability": "nonpayable",
      "type": "constructor"
    },
    {
      "anonymous": false,
      "inputs": [
        {
          "indexed": true,
          "name": "from",
          "type": "address"
        },
        {
          "indexed": true,
          "name": "to",
          "type": "address"
        }
      ],
      "name": "OwnershipTransferred",
      "type": "event"
    },
    {
      "constant": true,
      "inputs": [
        {
          "name": "_from",
          "type": "uint256"
        },
        {
          "name": "_limit",
          "type": "uint256"
        },
        {
          "name": "_isVendor",
          "type": "bool"
        }
      ],
      "name": "roomNightsOfOwner",
      "outputs": [
        {
          "name": "",
          "type": "uint256[]"
        },
        {
          "name": "",
          "type": "uint256"
        }
      ],
      "payable": false,
      "stateMutability": "view",
      "type": "function"
    },
    {
      "constant": true,
      "inputs": [
        {
          "name": "_rnid",
          "type": "uint256"
        }
      ],
      "name": "roomNight",
      "outputs": [
        {
          "name": "_vendorId",
          "type": "uint256"
        },
        {
          "name": "_rpid",
          "type": "uint256"
        },
        {
          "name": "_token",
          "type": "uint256"
        },
        {
          "name": "_price",
          "type": "uint256"
        },
        {
          "name": "_timestamp",
          "type": "uint256"
        },
        {
          "name": "_date",
          "type": "uint256"
        },
        {
          "name": "_ipfs",
          "type": "bytes32"
        },
        {
          "name": "_name",
          "type": "string"
        }
      ],
      "payable": false,
      "stateMutability": "view",
      "type": "function"
    }
  ],
  "bytecode": "0x608060405234801561001057600080fd5b5060008054600160a060020a031916331790556106db806100326000396000f30060806040526004361061005e5763ffffffff60e060020a600035041663628c225c811461006357806379ba50971461012c578063899f107d146101435780638da5cb5b146101be578063d4ee1d90146101ef578063f2fde38b14610204575b600080fd5b34801561006f57600080fd5b5061007b600435610225565b60405180898152602001888152602001878152602001868152602001858152602001848152602001836000191660001916815260200180602001828103825283818151815260200191508051906020019080838360005b838110156100ea5781810151838201526020016100d2565b50505050905090810190601f1680156101175780820380516001836020036101000a031916815260200191505b50995050505050505050505060405180910390f35b34801561013857600080fd5b50610141610423565b005b34801561014f57600080fd5b5061016360043560243560443515156104ab565b6040518080602001838152602001828103825284818151815260200191508051906020019060200280838360005b838110156101a9578181015183820152602001610191565b50505050905001935050505060405180910390f35b3480156101ca57600080fd5b506101d361064b565b60408051600160a060020a039092168252519081900360200190f35b3480156101fb57600080fd5b506101d361065a565b34801561021057600080fd5b50610141600160a060020a0360043516610669565b60008060008060008060006060600260009054906101000a9004600160a060020a0316600160a060020a0316633bdf58788a6040518263ffffffff1660e060020a0281526004018082815260200191505060e060405180830381600087803b15801561029057600080fd5b505af11580156102a4573d6000803e3d6000fd5b505050506040513d60e08110156102ba57600080fd5b8101908080519060200190929190805190602001909291908051906020019092919080519060200190929190805190602001909291908051906020019092919080519060200190929190505050809850819950829a50839b50849c50859d50869e5050505050505050600260009054906101000a9004600160a060020a0316600160a060020a031663762fdc0c89896040518363ffffffff1660e060020a0281526004018083815260200182815260200192505050600060405180830381600087803b15801561038957600080fd5b505af115801561039d573d6000803e3d6000fd5b505050506040513d6000823e601f3d908101601f1916820160405260608110156103c657600080fd5b8101908080516401000000008111156103de57600080fd5b820160208101848111156103f157600080fd5b815164010000000081118282018710171561040b57600080fd5b509b9d9a9c50989a5096989597949650929492505050565b600154600160a060020a0316331461043a57600080fd5b60015460008054604051600160a060020a0393841693909116917f8be0079c531659141344cd1fd0a4f28419497f9722a3daafe3b4186f6b6457e091a3600180546000805473ffffffffffffffffffffffffffffffffffffffff19908116600160a060020a03841617909155169055565b6060600082156105c957600254604080517f4cb0c7a10000000000000000000000000000000000000000000000000000000081523360048201526024810188905260448101879052600160648201529051600160a060020a0390921691634cb0c7a19160848082019260009290919082900301818387803b15801561052f57600080fd5b505af1158015610543573d6000803e3d6000fd5b505050506040513d6000823e601f3d908101601f19168201604090815281101561056c57600080fd5b81019080805164010000000081111561058457600080fd5b8201602081018481111561059757600080fd5b81518560208202830111640100000000821117156105b457600080fd5b50506020909101519094509250610643915050565b600254604080517f600cf0d90000000000000000000000000000000000000000000000000000000081523360048201526024810188905260448101879052600160648201529051600160a060020a039092169163600cf0d99160848082019260009290919082900301818387803b15801561052f57600080fd5b935093915050565b600054600160a060020a031681565b600154600160a060020a031681565b600054600160a060020a0316331461068057600080fd5b6001805473ffffffffffffffffffffffffffffffffffffffff1916600160a060020a03929092169190911790555600a165627a7a72305820b6fd44b15f84c79c5d0cbaacb33e2a552c06114fd26c8615c460643877e525480029",
  "source": "pragma solidity ^0.4.21;\n\nimport \"./TRNData.sol\";\n\ncontract TRNOwners is TRNData {\n    /**\n     * Constructor\n     */\n    constructor() public {\n\n    }\n\n    /**\n     * Add room night token to `_owner`'s account(from the header)\n     */\n    function _pushRoomNight(address _owner, uint256 _rnid, bool _isVendor) internal {\n        require(_owner != address(0));\n        require(_rnid != 0);\n        if (_isVendor) {\n            dataSource.pushOrderOfVendor(_owner, _rnid, false);\n        } else {\n            dataSource.pushOrderOfOwner(_owner, _rnid, false);\n        }\n    }\n\n    /**\n     * Remove room night token from `_owner`'s account\n     */\n    function _removeRoomNight(address _owner, uint256 _rnid) internal {\n        dataSource.removeOrderOfOwner(_owner, _rnid);\n    }\n\n    /**\n     * @dev Returns all the room nights of the `msg.sender`(Customer)\n     * @param _from The begin of room nights Id\n     * @param _limit The total room nights \n     * @param _isVendor Is Vendor\n     * @return Room nights of the `msg.sender` and the next vernier\n     */\n    function roomNightsOfOwner(uint256 _from, uint256 _limit, bool _isVendor) \n        external\n        view \n        returns(uint256[], uint256) {\n        if(_isVendor) {\n            return dataSource.getOrdersOfVendor(msg.sender, _from, _limit, true);\n        }else {\n            return dataSource.getOrdersOfOwner(msg.sender, _from, _limit, true);\n        }\n    }\n\n    /**\n     * @dev Returns the room night infomation in detail\n     * @param _rnid Room night id\n     * @return Room night infomation in detail\n     */\n    function roomNight(uint256 _rnid) \n        external \n        view \n        returns(uint256 _vendorId,uint256 _rpid,uint256 _token,uint256 _price,uint256 _timestamp,uint256 _date,bytes32 _ipfs, string _name) {\n        (_vendorId, _rpid, _token, _price, _timestamp, _date, _ipfs) = dataSource.roomnights(_rnid);\n        (_name,,) = dataSource.getRatePlan(_vendorId, _rpid);\n    }\n}",
  "sourcePath": "/Users/Kirn/Documents/Workspace/Trip.io/roomnight/truffle/contracts/extensions/TRNOwners.sol",
  "compiler": {
    "name": "solc",
    "version": "0.4.24+commit.e67f0147.Emscripten.clang"
  },
  "schemaVersion": "2.0.1",
  "updatedAt": "2018-11-07T07:56:22.572Z"
}