{
  "contractName": "TRNOwnership",
  "abi": [
    {
      "constant": true,
      "inputs": [
        {
          "name": "_rnid",
          "type": "uint256"
        }
      ],
      "name": "roomNight",
      "outputs": [
        {
          "name": "_vendorId",
          "type": "uint256"
        },
        {
          "name": "_rpid",
          "type": "uint256"
        },
        {
          "name": "_token",
          "type": "uint256"
        },
        {
          "name": "_price",
          "type": "uint256"
        },
        {
          "name": "_timestamp",
          "type": "uint256"
        },
        {
          "name": "_date",
          "type": "uint256"
        },
        {
          "name": "_ipfs",
          "type": "bytes32"
        },
        {
          "name": "_name",
          "type": "string"
        }
      ],
      "payable": false,
      "stateMutability": "view",
      "type": "function"
    },
    {
      "constant": false,
      "inputs": [],
      "name": "acceptOwnership",
      "outputs": [],
      "payable": false,
      "stateMutability": "nonpayable",
      "type": "function"
    },
    {
      "constant": true,
      "inputs": [
        {
          "name": "_from",
          "type": "uint256"
        },
        {
          "name": "_limit",
          "type": "uint256"
        },
        {
          "name": "_isVendor",
          "type": "bool"
        }
      ],
      "name": "roomNightsOfOwner",
      "outputs": [
        {
          "name": "",
          "type": "uint256[]"
        },
        {
          "name": "",
          "type": "uint256"
        }
      ],
      "payable": false,
      "stateMutability": "view",
      "type": "function"
    },
    {
      "constant": true,
      "inputs": [],
      "name": "owner",
      "outputs": [
        {
          "name": "",
          "type": "address"
        }
      ],
      "payable": false,
      "stateMutability": "view",
      "type": "function"
    },
    {
      "constant": true,
      "inputs": [],
      "name": "newOwner",
      "outputs": [
        {
          "name": "",
          "type": "address"
        }
      ],
      "payable": false,
      "stateMutability": "view",
      "type": "function"
    },
    {
      "constant": false,
      "inputs": [
        {
          "name": "_newOwner",
          "type": "address"
        }
      ],
      "name": "transferOwnership",
      "outputs": [],
      "payable": false,
      "stateMutability": "nonpayable",
      "type": "function"
    },
    {
      "inputs": [],
      "payable": false,
      "stateMutability": "nonpayable",
      "type": "constructor"
    },
    {
      "anonymous": false,
      "inputs": [
        {
          "indexed": true,
          "name": "_from",
          "type": "address"
        },
        {
          "indexed": true,
          "name": "_to",
          "type": "address"
        },
        {
          "indexed": false,
          "name": "_tokenId",
          "type": "uint256"
        }
      ],
      "name": "Transfer",
      "type": "event"
    },
    {
      "anonymous": false,
      "inputs": [
        {
          "indexed": true,
          "name": "_owner",
          "type": "address"
        },
        {
          "indexed": true,
          "name": "_approved",
          "type": "address"
        },
        {
          "indexed": false,
          "name": "_tokenId",
          "type": "uint256"
        }
      ],
      "name": "Approval",
      "type": "event"
    },
    {
      "anonymous": false,
      "inputs": [
        {
          "indexed": true,
          "name": "_owner",
          "type": "address"
        },
        {
          "indexed": true,
          "name": "_operator",
          "type": "address"
        },
        {
          "indexed": false,
          "name": "_approved",
          "type": "bool"
        }
      ],
      "name": "ApprovalForAll",
      "type": "event"
    },
    {
      "anonymous": false,
      "inputs": [
        {
          "indexed": true,
          "name": "from",
          "type": "address"
        },
        {
          "indexed": true,
          "name": "to",
          "type": "address"
        }
      ],
      "name": "OwnershipTransferred",
      "type": "event"
    },
    {
      "constant": true,
      "inputs": [
        {
          "name": "_owner",
          "type": "address"
        }
      ],
      "name": "balanceOf",
      "outputs": [
        {
          "name": "",
          "type": "uint256"
        }
      ],
      "payable": false,
      "stateMutability": "view",
      "type": "function"
    },
    {
      "constant": true,
      "inputs": [
        {
          "name": "_tokenId",
          "type": "uint256"
        }
      ],
      "name": "ownerOf",
      "outputs": [
        {
          "name": "",
          "type": "address"
        }
      ],
      "payable": false,
      "stateMutability": "view",
      "type": "function"
    },
    {
      "constant": false,
      "inputs": [
        {
          "name": "_from",
          "type": "address"
        },
        {
          "name": "_to",
          "type": "address"
        },
        {
          "name": "_tokenId",
          "type": "uint256"
        }
      ],
      "name": "safeTransferFrom",
      "outputs": [],
      "payable": true,
      "stateMutability": "payable",
      "type": "function"
    },
    {
      "constant": false,
      "inputs": [
        {
          "name": "_from",
          "type": "address"
        },
        {
          "name": "_to",
          "type": "address"
        },
        {
          "name": "_tokenId",
          "type": "uint256"
        },
        {
          "name": "_data",
          "type": "bytes"
        }
      ],
      "name": "safeTransferFrom",
      "outputs": [],
      "payable": true,
      "stateMutability": "payable",
      "type": "function"
    },
    {
      "constant": false,
      "inputs": [
        {
          "name": "_from",
          "type": "address"
        },
        {
          "name": "_to",
          "type": "address"
        },
        {
          "name": "_tokenId",
          "type": "uint256"
        }
      ],
      "name": "transferFrom",
      "outputs": [],
      "payable": true,
      "stateMutability": "payable",
      "type": "function"
    },
    {
      "constant": false,
      "inputs": [
        {
          "name": "_from",
          "type": "address"
        },
        {
          "name": "_to",
          "type": "address"
        },
        {
          "name": "_tokenIds",
          "type": "uint256[]"
        }
      ],
      "name": "transferFromInBatch",
      "outputs": [],
      "payable": true,
      "stateMutability": "payable",
      "type": "function"
    },
    {
      "constant": false,
      "inputs": [
        {
          "name": "_approved",
          "type": "address"
        },
        {
          "name": "_tokenId",
          "type": "uint256"
        }
      ],
      "name": "approve",
      "outputs": [],
      "payable": true,
      "stateMutability": "payable",
      "type": "function"
    },
    {
      "constant": false,
      "inputs": [
        {
          "name": "_operator",
          "type": "address"
        },
        {
          "name": "_approved",
          "type": "bool"
        }
      ],
      "name": "setApprovalForAll",
      "outputs": [],
      "payable": false,
      "stateMutability": "nonpayable",
      "type": "function"
    },
    {
      "constant": true,
      "inputs": [
        {
          "name": "_tokenId",
          "type": "uint256"
        }
      ],
      "name": "getApproved",
      "outputs": [
        {
          "name": "",
          "type": "address"
        }
      ],
      "payable": false,
      "stateMutability": "view",
      "type": "function"
    },
    {
      "constant": true,
      "inputs": [
        {
          "name": "_owner",
          "type": "address"
        },
        {
          "name": "_operator",
          "type": "address"
        }
      ],
      "name": "isApprovedForAll",
      "outputs": [
        {
          "name": "",
          "type": "bool"
        }
      ],
      "payable": false,
      "stateMutability": "view",
      "type": "function"
    }
  ],
  "bytecode": "0x608060405234801561001057600080fd5b5060008054600160a060020a03191633179055611f5f806100326000396000f3006080604052600436106100cc5763ffffffff60e060020a600035041663081812fc81146100d1578063095ea7b31461010557806311a767291461011e57806323b872dd1461014657806342842e0e14610163578063628c225c146101805780636352211e1461024957806370a082311461026157806379ba509714610294578063899f107d146102a95780638da5cb5b14610324578063a22cb46514610339578063b88d4fde1461035f578063d4ee1d901461038b578063e985e9c5146103a0578063f2fde38b146103db575b600080fd5b3480156100dd57600080fd5b506100e96004356103fc565b60408051600160a060020a039092168252519081900360200190f35b61011c600160a060020a0360043516602435610535565b005b61011c600160a060020a0360048035821691602480359091169160443591820191013561084d565b61011c600160a060020a0360043581169060243516604435610c7d565b61011c600160a060020a0360043581169060243516604435610fb7565b34801561018c57600080fd5b50610198600435610fd8565b60405180898152602001888152602001878152602001868152602001858152602001848152602001836000191660001916815260200180602001828103825283818151815260200191508051906020019080838360005b838110156102075781810151838201526020016101ef565b50505050905090810190601f1680156102345780820380516001836020036101000a031916815260200191505b50995050505050505050505060405180910390f35b34801561025557600080fd5b506100e96004356111d6565b34801561026d57600080fd5b50610282600160a060020a0360043516611267565b60408051918252519081900360200190f35b3480156102a057600080fd5b5061011c6112e6565b3480156102b557600080fd5b506102c9600435602435604435151561136e565b6040518080602001838152602001828103825284818151815260200191508051906020019060200280838360005b8381101561030f5781810151838201526020016102f7565b50505050905001935050505060405180910390f35b34801561033057600080fd5b506100e961150e565b34801561034557600080fd5b5061011c600160a060020a0360043516602435151561151d565b61011c600160a060020a0360048035821691602480359091169160443591606435908101910135611605565b34801561039757600080fd5b506100e9611648565b3480156103ac57600080fd5b506103c7600160a060020a0360043581169060243516611657565b604080519115158252519081900360200190f35b3480156103e757600080fd5b5061011c600160a060020a03600435166116b4565b60008181811161040b57600080fd5b6002546040805160e060020a63e7f95c45028152600481018490529051600092600160a060020a03169163e7f95c4591602480830192602092919082900301818787803b15801561045b57600080fd5b505af115801561046f573d6000803e3d6000fd5b505050506040513d602081101561048557600080fd5b5051600160a060020a0316141561049b57600080fd5b600254604080517f46edfd0a000000000000000000000000000000000000000000000000000000008152600481018690529051600160a060020a03909216916346edfd0a916024808201926020929091908290030181600087803b15801561050257600080fd5b505af1158015610516573d6000803e3d6000fd5b505050506040513d602081101561052c57600080fd5b50519392505050565b60008181811161054457600080fd5b6002546040805160e060020a63e7f95c45028152600481018490529051600092600160a060020a03169163e7f95c4591602480830192602092919082900301818787803b15801561059457600080fd5b505af11580156105a8573d6000803e3d6000fd5b505050506040513d60208110156105be57600080fd5b5051600160a060020a031614156105d457600080fd5b6002546040805160e060020a63e7f95c45028152600481018690529051859260009283928392600160a060020a03169163e7f95c4591602480830192602092919082900301818787803b15801561062a57600080fd5b505af115801561063e573d6000803e3d6000fd5b505050506040513d602081101561065457600080fd5b50516002546040805160e260020a6303657815028152600160a060020a038085166004830181905233602484018190529351959850929092149550911691630d95e054916044808201926020929091908290030181600087803b1580156106ba57600080fd5b505af11580156106ce573d6000803e3d6000fd5b505050506040513d60208110156106e457600080fd5b5051905081806106f15750805b15156106fc57600080fd5b6002546040805160e060020a63e7f95c45028152600481018a90529051600160a060020a039092169163e7f95c45916024808201926020929091908290030181600087803b15801561074d57600080fd5b505af1158015610761573d6000803e3d6000fd5b505050506040513d602081101561077757600080fd5b5051600254604080517f6a385043000000000000000000000000000000000000000000000000000000008152600481018b9052600160a060020a038c811660248301529151939950911691636a3850439160448082019260009290919082900301818387803b1580156107e957600080fd5b505af11580156107fd573d6000803e3d6000fd5b5050604080518a81529051600160a060020a03808d1694508a1692507f8c5be1e5ebec7d5bd14f71427d1e84f3dd0314c0f7b2291e5b200ac8c7c3b9259181900360200190a35050505050505050565b6000808383808060200260200160405190810160405280939291908181526020018383602002808284375060009450505050505b815181101561095d576000828281518110151561089a57fe5b60209081029091010151116108ae57600080fd5b6002548251600091600160a060020a03169063e7f95c45908590859081106108d257fe5b906020019060200201516040518263ffffffff1660e060020a02815260040180828152602001915050602060405180830381600087803b15801561091557600080fd5b505af1158015610929573d6000803e3d6000fd5b505050506040513d602081101561093f57600080fd5b5051600160a060020a0316141561095557600080fd5b600101610881565b85858080602002602001604051908101604052809392919081815260200183836020028082843750600094508493508392508291508190505b8551851015610b81576002548651600160a060020a039091169063e7f95c45908890889081106109c257fe5b906020019060200201516040518263ffffffff1660e060020a02815260040180828152602001915050602060405180830381600087803b158015610a0557600080fd5b505af1158015610a19573d6000803e3d6000fd5b505050506040513d6020811015610a2f57600080fd5b50516002548751919550600160a060020a038087163314955016906346edfd0a90889088908110610a5c57fe5b906020019060200201516040518263ffffffff1660e060020a02815260040180828152602001915050602060405180830381600087803b158015610a9f57600080fd5b505af1158015610ab3573d6000803e3d6000fd5b505050506040513d6020811015610ac957600080fd5b50516002546040805160e260020a6303657815028152600160a060020a038881166004830152336024830181905292519481169092149550911691630d95e054916044808201926020929091908290030181600087803b158015610b2c57600080fd5b505af1158015610b40573d6000803e3d6000fd5b505050506040513d6020811015610b5657600080fd5b505190508280610b635750815b80610b6b5750805b1515610b7657600080fd5b600190940193610996565b600099505b8a8a1015610c6d57600254600160a060020a031663e7f95c458d8d8d818110610bab57fe5b905060200201356040518263ffffffff1660e060020a02815260040180828152602001915050602060405180830381600087803b158015610beb57600080fd5b505af1158015610bff573d6000803e3d6000fd5b505050506040513d6020811015610c1557600080fd5b50519850600160a060020a03808a16908f1614610c3157600080fd5b600160a060020a038d161515610c4657600080fd5b610c628c8c8c818110610c5557fe5b905060200201358e6116fa565b600190990198610b86565b5050505050505050505050505050565b600081818111610c8c57600080fd5b6002546040805160e060020a63e7f95c45028152600481018490529051600092600160a060020a03169163e7f95c4591602480830192602092919082900301818787803b158015610cdc57600080fd5b505af1158015610cf0573d6000803e3d6000fd5b505050506040513d6020811015610d0657600080fd5b5051600160a060020a03161415610d1c57600080fd5b82600080600080600260009054906101000a9004600160a060020a0316600160a060020a031663e7f95c45866040518263ffffffff1660e060020a02815260040180828152602001915050602060405180830381600087803b158015610d8157600080fd5b505af1158015610d95573d6000803e3d6000fd5b505050506040513d6020811015610dab57600080fd5b5051600254604080517f46edfd0a000000000000000000000000000000000000000000000000000000008152600481018990529051929650600160a060020a0380881633149650909116916346edfd0a916024808201926020929091908290030181600087803b158015610e1e57600080fd5b505af1158015610e32573d6000803e3d6000fd5b505050506040513d6020811015610e4857600080fd5b50516002546040805160e260020a6303657815028152600160a060020a038881166004830152336024830181905292519481169092149550911691630d95e054916044808201926020929091908290030181600087803b158015610eab57600080fd5b505af1158015610ebf573d6000803e3d6000fd5b505050506040513d6020811015610ed557600080fd5b505190508280610ee25750815b80610eea5750805b1515610ef557600080fd5b6002546040805160e060020a63e7f95c45028152600481018b90529051600160a060020a039092169163e7f95c45916024808201926020929091908290030181600087803b158015610f4657600080fd5b505af1158015610f5a573d6000803e3d6000fd5b505050506040513d6020811015610f7057600080fd5b50519650600160a060020a03808816908b1614610f8c57600080fd5b600160a060020a0389161515610fa157600080fd5b610fab888a6116fa565b50505050505050505050565b610fd3838383602060405190810160405280600081525061185b565b505050565b60008060008060008060006060600260009054906101000a9004600160a060020a0316600160a060020a0316633bdf58788a6040518263ffffffff1660e060020a0281526004018082815260200191505060e060405180830381600087803b15801561104357600080fd5b505af1158015611057573d6000803e3d6000fd5b505050506040513d60e081101561106d57600080fd5b8101908080519060200190929190805190602001909291908051906020019092919080519060200190929190805190602001909291908051906020019092919080519060200190929190505050809850819950829a50839b50849c50859d50869e5050505050505050600260009054906101000a9004600160a060020a0316600160a060020a031663762fdc0c89896040518363ffffffff1660e060020a0281526004018083815260200182815260200192505050600060405180830381600087803b15801561113c57600080fd5b505af1158015611150573d6000803e3d6000fd5b505050506040513d6000823e601f3d908101601f19168201604052606081101561117957600080fd5b81019080805164010000000081111561119157600080fd5b820160208101848111156111a457600080fd5b81516401000000008111828201871017156111be57600080fd5b509b9d9a9c50989a5096989597949650929492505050565b60008082116111e457600080fd5b6002546040805160e060020a63e7f95c45028152600481018590529051600160a060020a039092169163e7f95c45916024808201926020929091908290030181600087803b15801561123557600080fd5b505af1158015611249573d6000803e3d6000fd5b505050506040513d602081101561125f57600080fd5b505192915050565b6000600160a060020a038216151561127e57600080fd5b600254604080517f70a08231000000000000000000000000000000000000000000000000000000008152600160a060020a038581166004830152915191909216916370a082319160248083019260209291908290030181600087803b15801561123557600080fd5b600154600160a060020a031633146112fd57600080fd5b60015460008054604051600160a060020a0393841693909116917f8be0079c531659141344cd1fd0a4f28419497f9722a3daafe3b4186f6b6457e091a3600180546000805473ffffffffffffffffffffffffffffffffffffffff19908116600160a060020a03841617909155169055565b60606000821561148c57600254604080517f4cb0c7a10000000000000000000000000000000000000000000000000000000081523360048201526024810188905260448101879052600160648201529051600160a060020a0390921691634cb0c7a19160848082019260009290919082900301818387803b1580156113f257600080fd5b505af1158015611406573d6000803e3d6000fd5b505050506040513d6000823e601f3d908101601f19168201604090815281101561142f57600080fd5b81019080805164010000000081111561144757600080fd5b8201602081018481111561145a57600080fd5b815185602082028301116401000000008211171561147757600080fd5b50506020909101519094509250611506915050565b600254604080517f600cf0d90000000000000000000000000000000000000000000000000000000081523360048201526024810188905260448101879052600160648201529051600160a060020a039092169163600cf0d99160848082019260009290919082900301818387803b1580156113f257600080fd5b935093915050565b600054600160a060020a031681565b600160a060020a038216151561153257600080fd5b600254604080517f35058a2a000000000000000000000000000000000000000000000000000000008152600160a060020a0385811660048301523360248301528415156044830152915191909216916335058a2a91606480830192600092919082900301818387803b1580156115a757600080fd5b505af11580156115bb573d6000803e3d6000fd5b50506040805184151581529051600160a060020a03861693503392507f17307eab39ab6107e8899845ad3d59bd9653f200f220920489ca2b5937696c319181900360200190a35050565b61164185858585858080601f0160208091040260200160405190810160405280939291908181526020018383808284375061185b945050505050565b5050505050565b600154600160a060020a031681565b6002546040805160e260020a6303657815028152600160a060020a038581166004830152848116602483015291516000939290921691630d95e0549160448082019260209290919082900301818787803b15801561050257600080fd5b600054600160a060020a031633146116cb57600080fd5b6001805473ffffffffffffffffffffffffffffffffffffffff1916600160a060020a0392909216919091179055565b6002546040805160e060020a63e7f95c45028152600481018590529051600092600160a060020a03169163e7f95c4591602480830192602092919082900301818787803b15801561174a57600080fd5b505af115801561175e573d6000803e3d6000fd5b505050506040513d602081101561177457600080fd5b505190506117828184611d62565b61178e82846000611dec565b600254604080517f491a790400000000000000000000000000000000000000000000000000000000815260048101869052600160a060020a0385811660248301529151919092169163491a790491604480830192600092919082900301818387803b1580156117fc57600080fd5b505af1158015611810573d6000803e3d6000fd5b5050604080518681529051600160a060020a038087169450851692507fddf252ad1be2c89b69c2b068fc378daa952ba7f163c4a11628f55a4df523b3ef9181900360200190a3505050565b600080808481811161186c57600080fd5b6002546040805160e060020a63e7f95c45028152600481018490529051600092600160a060020a03169163e7f95c4591602480830192602092919082900301818787803b1580156118bc57600080fd5b505af11580156118d0573d6000803e3d6000fd5b505050506040513d60208110156118e657600080fd5b5051600160a060020a031614156118fc57600080fd5b85600080600080600260009054906101000a9004600160a060020a0316600160a060020a031663e7f95c45866040518263ffffffff1660e060020a02815260040180828152602001915050602060405180830381600087803b15801561196157600080fd5b505af1158015611975573d6000803e3d6000fd5b505050506040513d602081101561198b57600080fd5b5051600254604080517f46edfd0a000000000000000000000000000000000000000000000000000000008152600481018990529051929650600160a060020a0380881633149650909116916346edfd0a916024808201926020929091908290030181600087803b1580156119fe57600080fd5b505af1158015611a12573d6000803e3d6000fd5b505050506040513d6020811015611a2857600080fd5b50516002546040805160e260020a6303657815028152600160a060020a038881166004830152336024830181905292519481169092149550911691630d95e054916044808201926020929091908290030181600087803b158015611a8b57600080fd5b505af1158015611a9f573d6000803e3d6000fd5b505050506040513d6020811015611ab557600080fd5b505190508280611ac25750815b80611aca5750805b1515611ad557600080fd5b6002546040805160e060020a63e7f95c45028152600481018e90529051600160a060020a039092169163e7f95c45916024808201926020929091908290030181600087803b158015611b2657600080fd5b505af1158015611b3a573d6000803e3d6000fd5b505050506040513d6020811015611b5057600080fd5b50519850600160a060020a03808a16908e1614611b6c57600080fd5b600160a060020a038c161515611b8157600080fd5b611b8b8b8d6116fa565b8b3b9750871515611b9b57611d53565b8b600160a060020a031663f0b9e5ba8e8d8d6040518463ffffffff1660e060020a0281526004018084600160a060020a0316600160a060020a0316815260200183815260200180602001828103825283818151815260200191508051906020019080838360005b83811015611c1a578181015183820152602001611c02565b50505050905090810190601f168015611c475780820380516001836020036101000a031916815260200191505b50945050505050602060405180830381600087803b158015611c6857600080fd5b505af1158015611c7c573d6000803e3d6000fd5b505050506040513d6020811015611c9257600080fd5b5051600254604080517fecc98ce40000000000000000000000000000000000000000000000000000000081529051929950600160a060020a039091169163ecc98ce4916004808201926020929091908290030181600087803b158015611cf757600080fd5b505af1158015611d0b573d6000803e3d6000fd5b505050506040513d6020811015611d2157600080fd5b50517fffffffff00000000000000000000000000000000000000000000000000000000888116911614611d5357600080fd5b50505050505050505050505050565b600254604080517f28543417000000000000000000000000000000000000000000000000000000008152600160a060020a0385811660048301526024820185905291519190921691632854341791604480830192600092919082900301818387803b158015611dd057600080fd5b505af1158015611de4573d6000803e3d6000fd5b505050505050565b600160a060020a0383161515611e0157600080fd5b811515611e0d57600080fd5b8015611ea357600254604080517f6cd44d55000000000000000000000000000000000000000000000000000000008152600160a060020a038681166004830152602482018690526000604483018190529251931692636cd44d559260648084019391929182900301818387803b158015611e8657600080fd5b505af1158015611e9a573d6000803e3d6000fd5b50505050610fd3565b600254604080517f5ec5bc8e000000000000000000000000000000000000000000000000000000008152600160a060020a038681166004830152602482018690526000604483018190529251931692635ec5bc8e9260648084019391929182900301818387803b158015611f1657600080fd5b505af1158015611f2a573d6000803e3d6000fd5b505050505050505600a165627a7a7230582091482663d035272256063c3bbd669f93907f3e4181dc74247b297c9e1a548c1e0029",
  "source": "pragma solidity ^0.4.24;\n\nimport \"../721/ERC721.sol\";\nimport \"../721/ERC721Receiver.sol\";\nimport \"./TRNOwners.sol\";\n\ncontract TRNOwnership is TRNOwners, ERC721 {\n    /**\n     * Constructor\n     */\n    constructor() public {\n\n    }\n\n    /**\n     * This emits when ownership of any TRN changes by any mechanism.\n     */\n    event Transfer(address indexed _from, address indexed _to, uint256 _tokenId);\n\n    /**\n     * This emits when the approved address for an RTN is changed or reaffirmed.\n     */\n    event Approval(address indexed _owner, address indexed _approved, uint256 _tokenId);\n\n    /**\n     * This emits when an operator is enabled or disabled for an owner.\n     * The operator can manage all RTNs of the owner.\n     */\n    event ApprovalForAll(address indexed _owner, address indexed _operator, bool _approved);\n\n    /**\n     * @dev Transfer the `_tokenId` to `_to` directly\n     * @param _tokenId The room night token\n     * @param _to The target owner\n     */\n    function _transfer(uint256 _tokenId, address _to) private {\n        // Find the FROM address\n        address from = dataSource.roomNightIndexToOwner(_tokenId);\n\n        // Remove room night from the `from`\n        _removeRoomNight(from, _tokenId);\n\n        // Add room night to the `_to`\n        _pushRoomNight(_to, _tokenId, false);\n\n        // Change the owner of `_tokenId`\n        // Remove approval of `_tokenId`\n        dataSource.transferTokenTo(_tokenId, _to);\n\n        // Emit Transfer event\n        emit Transfer(from, _to, _tokenId);\n    }\n\n    function _safeTransferFrom(address _from, address _to, uint256 _tokenId, bytes _data)\n        private\n        validToken(_tokenId)\n        canTransfer(_tokenId) {\n        // The token's owner is equal to `_from`\n        address owner = dataSource.roomNightIndexToOwner(_tokenId);\n        require(owner == _from);\n\n        // Avoid `_to` is equal to address(0)\n        require(_to != address(0));\n\n        _transfer(_tokenId, _to);\n\n        uint256 codeSize;\n        assembly { codeSize := extcodesize(_to) }\n        if (codeSize == 0) {\n            return;\n        }\n        bytes4 retval = ERC721Receiver(_to).onERC721Received(_from, _tokenId, _data);\n        require (retval == dataSource.ERC721_RECEIVED());\n    }\n\n    /**\n     * @dev Count all TRNs assigned to an owner.\n     *      Throw when `_owner` is equal to address(0)\n     * @param _owner An address for whom to query the balance.\n     * @return The number of TRNs owned by `_owner`.\n     */\n    function balanceOf(address _owner) external view returns (uint256) {\n        require(_owner != address(0));\n        return dataSource.balanceOf(_owner);\n    }\n\n    /**\n     * @dev Find the owner of an TRN\n     *      Throw unless `_tokenId` more than zero\n     * @param _tokenId The identifier for an TRN\n     * @return The address of the owner of the TRN\n     */\n    function ownerOf(uint256 _tokenId) external view returns (address) {\n        require(_tokenId > 0);\n        return dataSource.roomNightIndexToOwner(_tokenId);\n    }\n\n    /**\n     * @dev Transfers the ownership of an TRN from one address to another address.\n     *      Throws unless `msg.sender` is the current owner or an approved address for this TRN.\n     *      Throws if `_tokenId` is not a valid TRN. When transfer is complete, this function checks if \n     *      `_to` is a smart contract (code size > 0). If so, it calls `onERC721Received` on `_to` and \n     * throws if the return value is not `bytes4(keccak256(\"onERC721Received(address,uint256,bytes)\"))`.\n     * @param _from The current owner of the TRN\n     * @param _to The new owner\n     * @param _tokenId The TRN to transfer\n     * @param _data Additional data with no specified format, sent in call to `_to`\n     */\n    function safeTransferFrom(address _from, address _to, uint256 _tokenId, bytes _data) external payable {\n        _safeTransferFrom(_from, _to, _tokenId, _data);\n    }\n\n    /**\n     * @dev Same like safeTransferFrom with an extra data parameter, except this function just sets data to \"\"(empty)\n     * @param _from The current owner of the TRN\n     * @param _to The new owner\n     * @param _tokenId The TRN to transfer\n     */\n    function safeTransferFrom(address _from, address _to, uint256 _tokenId) external payable {\n        _safeTransferFrom(_from, _to, _tokenId, \"\");\n    }\n\n    /**\n     * @dev Transfers the ownership of an TRN from one address to another address.\n     *      Throws unless `msg.sender` is the current owner or an approved address for this TRN.\n     *      Throws if `_tokenId` is not a valid TRN.\n     * @param _from The current owner of the TRN\n     * @param _to The new owner\n     * @param _tokenId The TRN to transfer\n     */\n    function transferFrom(address _from, address _to, uint256 _tokenId) \n        external \n        payable\n        validToken(_tokenId)\n        canTransfer(_tokenId) {\n        // The token's owner is equal to `_from`\n        address owner = dataSource.roomNightIndexToOwner(_tokenId);\n        require(owner == _from);\n\n        // Avoid `_to` is equal to address(0)\n        require(_to != address(0));\n\n        _transfer(_tokenId, _to);\n    }\n\n    /**\n     * @dev Transfers the ownership of TRNs from one address to another address.\n     *      Throws unless `msg.sender` is the current owner or an approved address for this TRN.\n     *      Throws if `_tokenIds` are not valid TRNs.\n     * @param _from The current owner of the TRN\n     * @param _to The new owner\n     * @param _tokenIds The TRNs to transfer\n     */\n    function transferFromInBatch(address _from, address _to, uint256[] _tokenIds) \n        external\n        payable\n        validTokenInBatch(_tokenIds)\n        canTransferInBatch(_tokenIds) {\n        for(uint256 i = 0; i < _tokenIds.length; i++) {\n            // The token's owner is equal to `_from`\n            address owner = dataSource.roomNightIndexToOwner(_tokenIds[i]);\n            require(owner == _from);\n\n            // Avoid `_to` is equal to address(0)\n            require(_to != address(0));\n\n            _transfer(_tokenIds[i], _to);\n        }\n    }\n\n    /**\n     * @dev Set or reaffirm the approved address for an TRN.\n     *      Throws unless `msg.sender` is the current TRN owner, or an authorized\n     * @param _approved The new approved TRN controller\n     * @param _tokenId The TRN to approve\n     */\n    function approve(address _approved, uint256 _tokenId) \n        external \n        payable \n        validToken(_tokenId)\n        canOperate(_tokenId) {\n        address owner = dataSource.roomNightIndexToOwner(_tokenId);\n        \n        dataSource.approveTokenTo(_tokenId, _approved);\n        emit Approval(owner, _approved, _tokenId);\n    }\n\n    /**\n     * @dev Enable or disable approval for a third party (\"operator\") to manage \n     *      all of `msg.sender`'s assets.\n     *      Emits the ApprovalForAll event. \n     * @param _operator Address to add to the set of authorized operators.\n     * @param _approved True if the operator is approved, false to revoke approval.\n     */\n    function setApprovalForAll(address _operator, bool _approved) external {\n        require(_operator != address(0));\n        dataSource.approveOperatorTo(_operator, msg.sender, _approved);\n        emit ApprovalForAll(msg.sender, _operator, _approved);\n    }\n\n    /**\n     * @dev Get the approved address for a single TRN.\n     *      Throws if `_tokenId` is not a valid TRN.\n     * @param _tokenId The TRN to find the approved address for\n     * @return The approved address for this TRN, or the zero address if there is none\n     */\n    function getApproved(uint256 _tokenId) \n        external \n        view \n        validToken(_tokenId)\n        returns (address) {\n        return dataSource.roomNightApprovals(_tokenId);\n    }\n\n    /**\n     * @dev Query if an address is an authorized operator for another address.\n     * @param _owner The address that owns The TRNs\n     * @param _operator The address that acts on behalf of the owner\n     * @return True if `_operator` is an approved operator for `_owner`, false otherwise\n     */\n    function isApprovedForAll(address _owner, address _operator) external view returns (bool) {\n        return dataSource.operatorApprovals(_owner, _operator);\n    }\n}",
  "sourcePath": "/Users/Kirn/Documents/Workspace/Trip.io/roomnight/truffle/contracts/extensions/TRNOwnership.sol",
  "compiler": {
    "name": "solc",
    "version": "0.4.24+commit.e67f0147.Emscripten.clang"
  },
  "schemaVersion": "2.0.1",
  "updatedAt": "2018-11-07T07:56:22.582Z"
}