{
  "contractName": "TRNOwnership",
  "abi": [
    {
      "constant": true,
      "inputs": [
        {
          "name": "_rnid",
          "type": "uint256"
        }
      ],
      "name": "roomNight",
      "outputs": [
        {
          "name": "_vendorId",
          "type": "uint256"
        },
        {
          "name": "_rpid",
          "type": "uint256"
        },
        {
          "name": "_token",
          "type": "uint256"
        },
        {
          "name": "_price",
          "type": "uint256"
        },
        {
          "name": "_timestamp",
          "type": "uint256"
        },
        {
          "name": "_date",
          "type": "uint256"
        },
        {
          "name": "_ipfs",
          "type": "bytes32"
        },
        {
          "name": "_name",
          "type": "string"
        }
      ],
      "payable": false,
      "stateMutability": "view",
      "type": "function"
    },
    {
      "constant": false,
      "inputs": [],
      "name": "acceptOwnership",
      "outputs": [],
      "payable": false,
      "stateMutability": "nonpayable",
      "type": "function"
    },
    {
      "constant": true,
      "inputs": [
        {
          "name": "_from",
          "type": "uint256"
        },
        {
          "name": "_limit",
          "type": "uint256"
        },
        {
          "name": "_isVendor",
          "type": "bool"
        }
      ],
      "name": "roomNightsOfOwner",
      "outputs": [
        {
          "name": "",
          "type": "uint256[]"
        },
        {
          "name": "",
          "type": "uint256"
        }
      ],
      "payable": false,
      "stateMutability": "view",
      "type": "function"
    },
    {
      "constant": true,
      "inputs": [],
      "name": "owner",
      "outputs": [
        {
          "name": "",
          "type": "address"
        }
      ],
      "payable": false,
      "stateMutability": "view",
      "type": "function"
    },
    {
      "constant": true,
      "inputs": [],
      "name": "newOwner",
      "outputs": [
        {
          "name": "",
          "type": "address"
        }
      ],
      "payable": false,
      "stateMutability": "view",
      "type": "function"
    },
    {
      "constant": false,
      "inputs": [
        {
          "name": "_newOwner",
          "type": "address"
        }
      ],
      "name": "transferOwnership",
      "outputs": [],
      "payable": false,
      "stateMutability": "nonpayable",
      "type": "function"
    },
    {
      "inputs": [],
      "payable": false,
      "stateMutability": "nonpayable",
      "type": "constructor"
    },
    {
      "anonymous": false,
      "inputs": [
        {
          "indexed": true,
          "name": "_from",
          "type": "address"
        },
        {
          "indexed": true,
          "name": "_to",
          "type": "address"
        },
        {
          "indexed": false,
          "name": "_tokenId",
          "type": "uint256"
        }
      ],
      "name": "Transfer",
      "type": "event"
    },
    {
      "anonymous": false,
      "inputs": [
        {
          "indexed": true,
          "name": "_owner",
          "type": "address"
        },
        {
          "indexed": true,
          "name": "_approved",
          "type": "address"
        },
        {
          "indexed": false,
          "name": "_tokenId",
          "type": "uint256"
        }
      ],
      "name": "Approval",
      "type": "event"
    },
    {
      "anonymous": false,
      "inputs": [
        {
          "indexed": true,
          "name": "_owner",
          "type": "address"
        },
        {
          "indexed": true,
          "name": "_operator",
          "type": "address"
        },
        {
          "indexed": false,
          "name": "_approved",
          "type": "bool"
        }
      ],
      "name": "ApprovalForAll",
      "type": "event"
    },
    {
      "anonymous": false,
      "inputs": [
        {
          "indexed": true,
          "name": "from",
          "type": "address"
        },
        {
          "indexed": true,
          "name": "to",
          "type": "address"
        }
      ],
      "name": "OwnershipTransferred",
      "type": "event"
    },
    {
      "constant": true,
      "inputs": [
        {
          "name": "_owner",
          "type": "address"
        }
      ],
      "name": "balanceOf",
      "outputs": [
        {
          "name": "",
          "type": "uint256"
        }
      ],
      "payable": false,
      "stateMutability": "view",
      "type": "function"
    },
    {
      "constant": true,
      "inputs": [
        {
          "name": "_tokenId",
          "type": "uint256"
        }
      ],
      "name": "ownerOf",
      "outputs": [
        {
          "name": "",
          "type": "address"
        }
      ],
      "payable": false,
      "stateMutability": "view",
      "type": "function"
    },
    {
      "constant": false,
      "inputs": [
        {
          "name": "_from",
          "type": "address"
        },
        {
          "name": "_to",
          "type": "address"
        },
        {
          "name": "_tokenId",
          "type": "uint256"
        }
      ],
      "name": "safeTransferFrom",
      "outputs": [],
      "payable": true,
      "stateMutability": "payable",
      "type": "function"
    },
    {
      "constant": false,
      "inputs": [
        {
          "name": "_from",
          "type": "address"
        },
        {
          "name": "_to",
          "type": "address"
        },
        {
          "name": "_tokenId",
          "type": "uint256"
        },
        {
          "name": "_data",
          "type": "bytes"
        }
      ],
      "name": "safeTransferFrom",
      "outputs": [],
      "payable": true,
      "stateMutability": "payable",
      "type": "function"
    },
    {
      "constant": false,
      "inputs": [
        {
          "name": "_from",
          "type": "address"
        },
        {
          "name": "_to",
          "type": "address"
        },
        {
          "name": "_tokenId",
          "type": "uint256"
        }
      ],
      "name": "transferFrom",
      "outputs": [],
      "payable": true,
      "stateMutability": "payable",
      "type": "function"
    },
    {
      "constant": false,
      "inputs": [
        {
          "name": "_approved",
          "type": "address"
        },
        {
          "name": "_tokenId",
          "type": "uint256"
        }
      ],
      "name": "approve",
      "outputs": [],
      "payable": true,
      "stateMutability": "payable",
      "type": "function"
    },
    {
      "constant": false,
      "inputs": [
        {
          "name": "_operator",
          "type": "address"
        },
        {
          "name": "_approved",
          "type": "bool"
        }
      ],
      "name": "setApprovalForAll",
      "outputs": [],
      "payable": false,
      "stateMutability": "nonpayable",
      "type": "function"
    },
    {
      "constant": true,
      "inputs": [
        {
          "name": "_tokenId",
          "type": "uint256"
        }
      ],
      "name": "getApproved",
      "outputs": [
        {
          "name": "",
          "type": "address"
        }
      ],
      "payable": false,
      "stateMutability": "view",
      "type": "function"
    },
    {
      "constant": true,
      "inputs": [
        {
          "name": "_owner",
          "type": "address"
        },
        {
          "name": "_operator",
          "type": "address"
        }
      ],
      "name": "isApprovedForAll",
      "outputs": [
        {
          "name": "",
          "type": "bool"
        }
      ],
      "payable": false,
      "stateMutability": "view",
      "type": "function"
    }
  ],
  "bytecode": "0x608060405234801561001057600080fd5b5060008054600160a060020a03191633179055611adb806100326000396000f3006080604052600436106100c15763ffffffff60e060020a600035041663081812fc81146100c6578063095ea7b3146100fa57806323b872dd1461011357806342842e0e14610130578063628c225c1461014d5780636352211e1461021657806370a082311461022e57806379ba509714610261578063899f107d146102765780638da5cb5b146102f1578063a22cb46514610306578063b88d4fde1461032c578063d4ee1d9014610358578063e985e9c51461036d578063f2fde38b146103a8575b600080fd5b3480156100d257600080fd5b506100de6004356103c9565b60408051600160a060020a039092168252519081900360200190f35b610111600160a060020a0360043516602435610502565b005b610111600160a060020a036004358116906024351660443561081a565b610111600160a060020a0360043581169060243516604435610b54565b34801561015957600080fd5b50610165600435610b75565b60405180898152602001888152602001878152602001868152602001858152602001848152602001836000191660001916815260200180602001828103825283818151815260200191508051906020019080838360005b838110156101d45781810151838201526020016101bc565b50505050905090810190601f1680156102015780820380516001836020036101000a031916815260200191505b50995050505050505050505060405180910390f35b34801561022257600080fd5b506100de600435610d52565b34801561023a57600080fd5b5061024f600160a060020a0360043516610de3565b60408051918252519081900360200190f35b34801561026d57600080fd5b50610111610e62565b34801561028257600080fd5b506102966004356024356044351515610eea565b6040518080602001838152602001828103825284818151815260200191508051906020019060200280838360005b838110156102dc5781810151838201526020016102c4565b50505050905001935050505060405180910390f35b3480156102fd57600080fd5b506100de61108a565b34801561031257600080fd5b50610111600160a060020a03600435166024351515611099565b610111600160a060020a0360048035821691602480359091169160443591606435908101910135611181565b34801561036457600080fd5b506100de6111c4565b34801561037957600080fd5b50610394600160a060020a03600435811690602435166111d3565b604080519115158252519081900360200190f35b3480156103b457600080fd5b50610111600160a060020a0360043516611230565b6000818181116103d857600080fd5b6002546040805160e060020a63e7f95c45028152600481018490529051600092600160a060020a03169163e7f95c4591602480830192602092919082900301818787803b15801561042857600080fd5b505af115801561043c573d6000803e3d6000fd5b505050506040513d602081101561045257600080fd5b5051600160a060020a0316141561046857600080fd5b600254604080517f46edfd0a000000000000000000000000000000000000000000000000000000008152600481018690529051600160a060020a03909216916346edfd0a916024808201926020929091908290030181600087803b1580156104cf57600080fd5b505af11580156104e3573d6000803e3d6000fd5b505050506040513d60208110156104f957600080fd5b50519392505050565b60008181811161051157600080fd5b6002546040805160e060020a63e7f95c45028152600481018490529051600092600160a060020a03169163e7f95c4591602480830192602092919082900301818787803b15801561056157600080fd5b505af1158015610575573d6000803e3d6000fd5b505050506040513d602081101561058b57600080fd5b5051600160a060020a031614156105a157600080fd5b6002546040805160e060020a63e7f95c45028152600481018690529051859260009283928392600160a060020a03169163e7f95c4591602480830192602092919082900301818787803b1580156105f757600080fd5b505af115801561060b573d6000803e3d6000fd5b505050506040513d602081101561062157600080fd5b50516002546040805160e260020a6303657815028152600160a060020a038085166004830181905233602484018190529351959850929092149550911691630d95e054916044808201926020929091908290030181600087803b15801561068757600080fd5b505af115801561069b573d6000803e3d6000fd5b505050506040513d60208110156106b157600080fd5b5051905081806106be5750805b15156106c957600080fd5b6002546040805160e060020a63e7f95c45028152600481018a90529051600160a060020a039092169163e7f95c45916024808201926020929091908290030181600087803b15801561071a57600080fd5b505af115801561072e573d6000803e3d6000fd5b505050506040513d602081101561074457600080fd5b5051600254604080517f6a385043000000000000000000000000000000000000000000000000000000008152600481018b9052600160a060020a038c811660248301529151939950911691636a3850439160448082019260009290919082900301818387803b1580156107b657600080fd5b505af11580156107ca573d6000803e3d6000fd5b5050604080518a81529051600160a060020a03808d1694508a1692507f8c5be1e5ebec7d5bd14f71427d1e84f3dd0314c0f7b2291e5b200ac8c7c3b9259181900360200190a35050505050505050565b60008181811161082957600080fd5b6002546040805160e060020a63e7f95c45028152600481018490529051600092600160a060020a03169163e7f95c4591602480830192602092919082900301818787803b15801561087957600080fd5b505af115801561088d573d6000803e3d6000fd5b505050506040513d60208110156108a357600080fd5b5051600160a060020a031614156108b957600080fd5b82600080600080600260009054906101000a9004600160a060020a0316600160a060020a031663e7f95c45866040518263ffffffff1660e060020a02815260040180828152602001915050602060405180830381600087803b15801561091e57600080fd5b505af1158015610932573d6000803e3d6000fd5b505050506040513d602081101561094857600080fd5b5051600254604080517f46edfd0a000000000000000000000000000000000000000000000000000000008152600481018990529051929650600160a060020a0380881633149650909116916346edfd0a916024808201926020929091908290030181600087803b1580156109bb57600080fd5b505af11580156109cf573d6000803e3d6000fd5b505050506040513d60208110156109e557600080fd5b50516002546040805160e260020a6303657815028152600160a060020a038881166004830152336024830181905292519481169092149550911691630d95e054916044808201926020929091908290030181600087803b158015610a4857600080fd5b505af1158015610a5c573d6000803e3d6000fd5b505050506040513d6020811015610a7257600080fd5b505190508280610a7f5750815b80610a875750805b1515610a9257600080fd5b6002546040805160e060020a63e7f95c45028152600481018b90529051600160a060020a039092169163e7f95c45916024808201926020929091908290030181600087803b158015610ae357600080fd5b505af1158015610af7573d6000803e3d6000fd5b505050506040513d6020811015610b0d57600080fd5b50519650600160a060020a03808816908b1614610b2957600080fd5b600160a060020a0389161515610b3e57600080fd5b610b48888a611276565b50505050505050505050565b610b7083838360206040519081016040528060008152506113d7565b505050565b60008060008060008060006060600260009054906101000a9004600160a060020a0316600160a060020a031663762fdc0c89896040518363ffffffff1660e060020a0281526004018083815260200182815260200192505050600060405180830381600087803b158015610be857600080fd5b505af1158015610bfc573d6000803e3d6000fd5b505050506040513d6000823e601f3d908101601f191682016040526060811015610c2557600080fd5b810190808051640100000000811115610c3d57600080fd5b82016020810184811115610c5057600080fd5b8151640100000000811182820187101715610c6a57600080fd5b5050929190602001805190602001909291908051906020019092919050505090505080915050600260009054906101000a9004600160a060020a0316600160a060020a0316633bdf58788a6040518263ffffffff1660e060020a0281526004018082815260200191505060e060405180830381600087803b158015610cee57600080fd5b505af1158015610d02573d6000803e3d6000fd5b505050506040513d60e0811015610d1857600080fd5b508051602082015160408301516060840151608085015160a086015160c090960151949f939e50919c509a50985091965094509092509050565b6000808211610d6057600080fd5b6002546040805160e060020a63e7f95c45028152600481018590529051600160a060020a039092169163e7f95c45916024808201926020929091908290030181600087803b158015610db157600080fd5b505af1158015610dc5573d6000803e3d6000fd5b505050506040513d6020811015610ddb57600080fd5b505192915050565b6000600160a060020a0382161515610dfa57600080fd5b600254604080517f70a08231000000000000000000000000000000000000000000000000000000008152600160a060020a038581166004830152915191909216916370a082319160248083019260209291908290030181600087803b158015610db157600080fd5b600154600160a060020a03163314610e7957600080fd5b60015460008054604051600160a060020a0393841693909116917f8be0079c531659141344cd1fd0a4f28419497f9722a3daafe3b4186f6b6457e091a3600180546000805473ffffffffffffffffffffffffffffffffffffffff19908116600160a060020a03841617909155169055565b60606000821561100857600254604080517f4cb0c7a10000000000000000000000000000000000000000000000000000000081523360048201526024810188905260448101879052600160648201529051600160a060020a0390921691634cb0c7a19160848082019260009290919082900301818387803b158015610f6e57600080fd5b505af1158015610f82573d6000803e3d6000fd5b505050506040513d6000823e601f3d908101601f191682016040908152811015610fab57600080fd5b810190808051640100000000811115610fc357600080fd5b82016020810184811115610fd657600080fd5b8151856020820283011164010000000082111715610ff357600080fd5b50506020909101519094509250611082915050565b600254604080517f600cf0d90000000000000000000000000000000000000000000000000000000081523360048201526024810188905260448101879052600160648201529051600160a060020a039092169163600cf0d99160848082019260009290919082900301818387803b158015610f6e57600080fd5b935093915050565b600054600160a060020a031681565b600160a060020a03821615156110ae57600080fd5b600254604080517f35058a2a000000000000000000000000000000000000000000000000000000008152600160a060020a0385811660048301523360248301528415156044830152915191909216916335058a2a91606480830192600092919082900301818387803b15801561112357600080fd5b505af1158015611137573d6000803e3d6000fd5b50506040805184151581529051600160a060020a03861693503392507f17307eab39ab6107e8899845ad3d59bd9653f200f220920489ca2b5937696c319181900360200190a35050565b6111bd85858585858080601f016020809104026020016040519081016040528093929190818152602001838380828437506113d7945050505050565b5050505050565b600154600160a060020a031681565b6002546040805160e260020a6303657815028152600160a060020a038581166004830152848116602483015291516000939290921691630d95e0549160448082019260209290919082900301818787803b1580156104cf57600080fd5b600054600160a060020a0316331461124757600080fd5b6001805473ffffffffffffffffffffffffffffffffffffffff1916600160a060020a0392909216919091179055565b6002546040805160e060020a63e7f95c45028152600481018590529051600092600160a060020a03169163e7f95c4591602480830192602092919082900301818787803b1580156112c657600080fd5b505af11580156112da573d6000803e3d6000fd5b505050506040513d60208110156112f057600080fd5b505190506112fe81846118de565b61130a82846000611968565b600254604080517f491a790400000000000000000000000000000000000000000000000000000000815260048101869052600160a060020a0385811660248301529151919092169163491a790491604480830192600092919082900301818387803b15801561137857600080fd5b505af115801561138c573d6000803e3d6000fd5b5050604080518681529051600160a060020a038087169450851692507fddf252ad1be2c89b69c2b068fc378daa952ba7f163c4a11628f55a4df523b3ef9181900360200190a3505050565b60008080848181116113e857600080fd5b6002546040805160e060020a63e7f95c45028152600481018490529051600092600160a060020a03169163e7f95c4591602480830192602092919082900301818787803b15801561143857600080fd5b505af115801561144c573d6000803e3d6000fd5b505050506040513d602081101561146257600080fd5b5051600160a060020a0316141561147857600080fd5b85600080600080600260009054906101000a9004600160a060020a0316600160a060020a031663e7f95c45866040518263ffffffff1660e060020a02815260040180828152602001915050602060405180830381600087803b1580156114dd57600080fd5b505af11580156114f1573d6000803e3d6000fd5b505050506040513d602081101561150757600080fd5b5051600254604080517f46edfd0a000000000000000000000000000000000000000000000000000000008152600481018990529051929650600160a060020a0380881633149650909116916346edfd0a916024808201926020929091908290030181600087803b15801561157a57600080fd5b505af115801561158e573d6000803e3d6000fd5b505050506040513d60208110156115a457600080fd5b50516002546040805160e260020a6303657815028152600160a060020a038881166004830152336024830181905292519481169092149550911691630d95e054916044808201926020929091908290030181600087803b15801561160757600080fd5b505af115801561161b573d6000803e3d6000fd5b505050506040513d602081101561163157600080fd5b50519050828061163e5750815b806116465750805b151561165157600080fd5b6002546040805160e060020a63e7f95c45028152600481018e90529051600160a060020a039092169163e7f95c45916024808201926020929091908290030181600087803b1580156116a257600080fd5b505af11580156116b6573d6000803e3d6000fd5b505050506040513d60208110156116cc57600080fd5b50519850600160a060020a03808a16908e16146116e857600080fd5b600160a060020a038c1615156116fd57600080fd5b6117078b8d611276565b8b3b9750871515611717576118cf565b8b600160a060020a031663f0b9e5ba8e8d8d6040518463ffffffff1660e060020a0281526004018084600160a060020a0316600160a060020a0316815260200183815260200180602001828103825283818151815260200191508051906020019080838360005b8381101561179657818101518382015260200161177e565b50505050905090810190601f1680156117c35780820380516001836020036101000a031916815260200191505b50945050505050602060405180830381600087803b1580156117e457600080fd5b505af11580156117f8573d6000803e3d6000fd5b505050506040513d602081101561180e57600080fd5b5051600254604080517fecc98ce40000000000000000000000000000000000000000000000000000000081529051929950600160a060020a039091169163ecc98ce4916004808201926020929091908290030181600087803b15801561187357600080fd5b505af1158015611887573d6000803e3d6000fd5b505050506040513d602081101561189d57600080fd5b50517fffffffff000000000000000000000000000000000000000000000000000000008881169116146118cf57600080fd5b50505050505050505050505050565b600254604080517f28543417000000000000000000000000000000000000000000000000000000008152600160a060020a0385811660048301526024820185905291519190921691632854341791604480830192600092919082900301818387803b15801561194c57600080fd5b505af1158015611960573d6000803e3d6000fd5b505050505050565b600160a060020a038316151561197d57600080fd5b81151561198957600080fd5b8015611a1f57600254604080517f6cd44d55000000000000000000000000000000000000000000000000000000008152600160a060020a038681166004830152602482018690526000604483018190529251931692636cd44d559260648084019391929182900301818387803b158015611a0257600080fd5b505af1158015611a16573d6000803e3d6000fd5b50505050610b70565b600254604080517f5ec5bc8e000000000000000000000000000000000000000000000000000000008152600160a060020a038681166004830152602482018690526000604483018190529251931692635ec5bc8e9260648084019391929182900301818387803b158015611a9257600080fd5b505af1158015611aa6573d6000803e3d6000fd5b505050505050505600a165627a7a7230582068f82ea570c3b3ebfc394989276363d82ef4598e9d8549662c4a6d9a2b34a07c0029",
  "source": "pragma solidity ^0.4.24;\n\nimport \"../721/ERC721.sol\";\nimport \"../721/ERC721Receiver.sol\";\nimport \"./TRNOwners.sol\";\n\ncontract TRNOwnership is TRNOwners, ERC721 {\n    /**\n     * Constructor\n     */\n    constructor() public {\n\n    }\n\n    /**\n     * This emits when ownership of any TRN changes by any mechanism.\n     */\n    event Transfer(address indexed _from, address indexed _to, uint256 _tokenId);\n\n    /**\n     * This emits when the approved address for an RTN is changed or reaffirmed.\n     */\n    event Approval(address indexed _owner, address indexed _approved, uint256 _tokenId);\n\n    /**\n     * This emits when an operator is enabled or disabled for an owner.\n     * The operator can manage all RTNs of the owner.\n     */\n    event ApprovalForAll(address indexed _owner, address indexed _operator, bool _approved);\n\n    /**\n     * @dev Transfer the `_tokenId` to `_to` directly\n     * @param _tokenId The room night token\n     * @param _to The target owner\n     */\n    function _transfer(uint256 _tokenId, address _to) private {\n        // Find the FROM address\n        address from = dataSource.roomNightIndexToOwner(_tokenId);\n\n        // Remove room night from the `from`\n        _removeRoomNight(from, _tokenId);\n\n        // Add room night to the `_to`\n        _pushRoomNight(_to, _tokenId, false);\n\n        // Change the owner of `_tokenId`\n        // Remove approval of `_tokenId`\n        dataSource.transferTokenTo(_tokenId, _to);\n\n        // Emit Transfer event\n        emit Transfer(from, _to, _tokenId);\n    }\n\n    function _safeTransferFrom(address _from, address _to, uint256 _tokenId, bytes _data)\n        private\n        validToken(_tokenId)\n        canTransfer(_tokenId) {\n        // The token's owner is equal to `_from`\n        address owner = dataSource.roomNightIndexToOwner(_tokenId);\n        require(owner == _from);\n\n        // Avoid `_to` is equal to address(0)\n        require(_to != address(0));\n\n        _transfer(_tokenId, _to);\n\n        uint256 codeSize;\n        assembly { codeSize := extcodesize(_to) }\n        if (codeSize == 0) {\n            return;\n        }\n        bytes4 retval = ERC721Receiver(_to).onERC721Received(_from, _tokenId, _data);\n        require (retval == dataSource.ERC721_RECEIVED());\n    }\n\n    /**\n     * @dev Count all TRNs assigned to an owner.\n     *      Throw when `_owner` is equal to address(0)\n     * @param _owner An address for whom to query the balance.\n     * @return The number of TRNs owned by `_owner`.\n     */\n    function balanceOf(address _owner) external view returns (uint256) {\n        require(_owner != address(0));\n        return dataSource.balanceOf(_owner);\n    }\n\n    /**\n     * @dev Find the owner of an TRN\n     *      Throw unless `_tokenId` more than zero\n     * @param _tokenId The identifier for an TRN\n     * @return The address of the owner of the TRN\n     */\n    function ownerOf(uint256 _tokenId) external view returns (address) {\n        require(_tokenId > 0);\n        return dataSource.roomNightIndexToOwner(_tokenId);\n    }\n\n    /**\n     * @dev Transfers the ownership of an TRN from one address to another address.\n     *      Throws unless `msg.sender` is the current owner or an approved address for this TRN.\n     *      Throws if `_tokenId` is not a valid TRN. When transfer is complete, this function checks if \n     *      `_to` is a smart contract (code size > 0). If so, it calls `onERC721Received` on `_to` and \n     * throws if the return value is not `bytes4(keccak256(\"onERC721Received(address,uint256,bytes)\"))`.\n     * @param _from The current owner of the TRN\n     * @param _to The new owner\n     * @param _tokenId The TRN to transfer\n     * @param _data Additional data with no specified format, sent in call to `_to`\n     */\n    function safeTransferFrom(address _from, address _to, uint256 _tokenId, bytes _data) external payable {\n        _safeTransferFrom(_from, _to, _tokenId, _data);\n    }\n\n    /**\n     * @dev Same like safeTransferFrom with an extra data parameter, except this function just sets data to \"\"(empty)\n     * @param _from The current owner of the TRN\n     * @param _to The new owner\n     * @param _tokenId The TRN to transfer\n     */\n    function safeTransferFrom(address _from, address _to, uint256 _tokenId) external payable {\n        _safeTransferFrom(_from, _to, _tokenId, \"\");\n    }\n\n    /**\n     * @dev Transfers the ownership of an TRN from one address to another address.\n     *      Throws unless `msg.sender` is the current owner or an approved address for this TRN.\n     *      Throws if `_tokenId` is not a valid TRN.\n     * @param _from The current owner of the TRN\n     * @param _to The new owner\n     * @param _tokenId The TRN to transfer\n     */\n    function transferFrom(address _from, address _to, uint256 _tokenId) \n        external \n        payable\n        validToken(_tokenId)\n        canTransfer(_tokenId) {\n        // The token's owner is equal to `_from`\n        address owner = dataSource.roomNightIndexToOwner(_tokenId);\n        require(owner == _from);\n\n        // Avoid `_to` is equal to address(0)\n        require(_to != address(0));\n\n        _transfer(_tokenId, _to);\n    }\n\n    /**\n     * @dev Set or reaffirm the approved address for an TRN.\n     *      Throws unless `msg.sender` is the current TRN owner, or an authorized\n     * @param _approved The new approved TRN controller\n     * @param _tokenId The TRN to approve\n     */\n    function approve(address _approved, uint256 _tokenId) \n        external \n        payable \n        validToken(_tokenId)\n        canOperate(_tokenId) {\n        address owner = dataSource.roomNightIndexToOwner(_tokenId);\n        \n        dataSource.approveTokenTo(_tokenId, _approved);\n        emit Approval(owner, _approved, _tokenId);\n    }\n\n    /**\n     * @dev Enable or disable approval for a third party (\"operator\") to manage \n     *      all of `msg.sender`'s assets.\n     *      Emits the ApprovalForAll event. \n     * @param _operator Address to add to the set of authorized operators.\n     * @param _approved True if the operator is approved, false to revoke approval.\n     */\n    function setApprovalForAll(address _operator, bool _approved) external {\n        require(_operator != address(0));\n        dataSource.approveOperatorTo(_operator, msg.sender, _approved);\n        emit ApprovalForAll(msg.sender, _operator, _approved);\n    }\n\n    /**\n     * @dev Get the approved address for a single TRN.\n     *      Throws if `_tokenId` is not a valid TRN.\n     * @param _tokenId The TRN to find the approved address for\n     * @return The approved address for this TRN, or the zero address if there is none\n     */\n    function getApproved(uint256 _tokenId) \n        external \n        view \n        validToken(_tokenId)\n        returns (address) {\n        return dataSource.roomNightApprovals(_tokenId);\n    }\n\n    /**\n     * @dev Query if an address is an authorized operator for another address.\n     * @param _owner The address that owns The TRNs\n     * @param _operator The address that acts on behalf of the owner\n     * @return True if `_operator` is an approved operator for `_owner`, false otherwise\n     */\n    function isApprovedForAll(address _owner, address _operator) external view returns (bool) {\n        return dataSource.operatorApprovals(_owner, _operator);\n    }\n}",
  "sourcePath": "/Users/Kirn/Documents/Workspace/Dawn/tripio-roomnight/truffle/contracts/extensions/TRNOwnership.sol",
  "compiler": {
    "name": "solc",
    "version": "0.4.24+commit.e67f0147.Emscripten.clang"
  },
  "schemaVersion": "2.0.1",
  "updatedAt": "2018-08-31T07:11:19.140Z"
}