{
  "contractName": "TRNPrices",
  "abi": [
    {
      "constant": false,
      "inputs": [],
      "name": "acceptOwnership",
      "outputs": [],
      "payable": false,
      "stateMutability": "nonpayable",
      "type": "function"
    },
    {
      "constant": true,
      "inputs": [],
      "name": "owner",
      "outputs": [
        {
          "name": "",
          "type": "address"
        }
      ],
      "payable": false,
      "stateMutability": "view",
      "type": "function"
    },
    {
      "constant": true,
      "inputs": [],
      "name": "newOwner",
      "outputs": [
        {
          "name": "",
          "type": "address"
        }
      ],
      "payable": false,
      "stateMutability": "view",
      "type": "function"
    },
    {
      "constant": false,
      "inputs": [
        {
          "name": "_newOwner",
          "type": "address"
        }
      ],
      "name": "transferOwnership",
      "outputs": [],
      "payable": false,
      "stateMutability": "nonpayable",
      "type": "function"
    },
    {
      "inputs": [],
      "payable": false,
      "stateMutability": "nonpayable",
      "type": "constructor"
    },
    {
      "anonymous": false,
      "inputs": [
        {
          "indexed": true,
          "name": "_rpid",
          "type": "uint256"
        }
      ],
      "name": "RatePlanPriceChanged",
      "type": "event"
    },
    {
      "anonymous": false,
      "inputs": [
        {
          "indexed": true,
          "name": "_rpid",
          "type": "uint256"
        }
      ],
      "name": "RatePlanInventoryChanged",
      "type": "event"
    },
    {
      "anonymous": false,
      "inputs": [
        {
          "indexed": true,
          "name": "_rpid",
          "type": "uint256"
        }
      ],
      "name": "RatePlanBasePriceChanged",
      "type": "event"
    },
    {
      "anonymous": false,
      "inputs": [
        {
          "indexed": true,
          "name": "from",
          "type": "address"
        },
        {
          "indexed": true,
          "name": "to",
          "type": "address"
        }
      ],
      "name": "OwnershipTransferred",
      "type": "event"
    },
    {
      "constant": false,
      "inputs": [
        {
          "name": "_rpid",
          "type": "uint256"
        },
        {
          "name": "_tokens",
          "type": "uint256[]"
        },
        {
          "name": "_prices",
          "type": "uint256[]"
        },
        {
          "name": "_inventory",
          "type": "uint16"
        }
      ],
      "name": "updateBasePrice",
      "outputs": [
        {
          "name": "",
          "type": "bool"
        }
      ],
      "payable": false,
      "stateMutability": "nonpayable",
      "type": "function"
    },
    {
      "constant": false,
      "inputs": [
        {
          "name": "_rpid",
          "type": "uint256"
        },
        {
          "name": "_dates",
          "type": "uint256[]"
        },
        {
          "name": "_inventory",
          "type": "uint16"
        },
        {
          "name": "_tokens",
          "type": "uint256[]"
        },
        {
          "name": "_prices",
          "type": "uint256[]"
        }
      ],
      "name": "updatePrices",
      "outputs": [
        {
          "name": "",
          "type": "bool"
        }
      ],
      "payable": false,
      "stateMutability": "nonpayable",
      "type": "function"
    },
    {
      "constant": false,
      "inputs": [
        {
          "name": "_rpid",
          "type": "uint256"
        },
        {
          "name": "_dates",
          "type": "uint256[]"
        },
        {
          "name": "_inventory",
          "type": "uint16"
        }
      ],
      "name": "updateInventories",
      "outputs": [
        {
          "name": "",
          "type": "bool"
        }
      ],
      "payable": false,
      "stateMutability": "nonpayable",
      "type": "function"
    },
    {
      "constant": true,
      "inputs": [
        {
          "name": "_vendorId",
          "type": "uint256"
        },
        {
          "name": "_rpid",
          "type": "uint256"
        },
        {
          "name": "_dates",
          "type": "uint256[]"
        }
      ],
      "name": "inventoriesOfDate",
      "outputs": [
        {
          "name": "",
          "type": "uint16[]"
        }
      ],
      "payable": false,
      "stateMutability": "view",
      "type": "function"
    },
    {
      "constant": true,
      "inputs": [
        {
          "name": "_vendorId",
          "type": "uint256"
        },
        {
          "name": "_rpid",
          "type": "uint256"
        },
        {
          "name": "_dates",
          "type": "uint256[]"
        },
        {
          "name": "_token",
          "type": "uint256"
        }
      ],
      "name": "pricesOfDate",
      "outputs": [
        {
          "name": "",
          "type": "uint256[]"
        }
      ],
      "payable": false,
      "stateMutability": "view",
      "type": "function"
    },
    {
      "constant": true,
      "inputs": [
        {
          "name": "_vendorId",
          "type": "uint256"
        },
        {
          "name": "_rpid",
          "type": "uint256"
        },
        {
          "name": "_date",
          "type": "uint256"
        },
        {
          "name": "_token",
          "type": "uint256"
        }
      ],
      "name": "priceOfDate",
      "outputs": [
        {
          "name": "_inventory",
          "type": "uint16"
        },
        {
          "name": "_price",
          "type": "uint256"
        }
      ],
      "payable": false,
      "stateMutability": "view",
      "type": "function"
    }
  ],
  "bytecode": "0x608060405234801561001057600080fd5b5060008054600160a060020a0319163317905561185c806100326000396000f30060806040526004361061008a5763ffffffff60e060020a6000350416631eae85cb811461008f5780636215f292146100ce5780636529d1c91461011957806379ba5097146101945780638da5cb5b146101ab5780638f38bf34146101dc578063afab2b0f14610220578063d4ee1d9014610248578063f2fde38b1461025d578063f54d41db1461027e575b600080fd5b34801561009b57600080fd5b506100b06004356024356044356064356102a9565b6040805161ffff909316835260208301919091528051918290030190f35b3480156100da57600080fd5b5061010560048035906024803580820192908101359160443590810191013561ffff606435166104f5565b604080519115158252519081900360200190f35b34801561012557600080fd5b5061014460048035906024803591604435918201910135606435610934565b60408051602080825283518183015283519192839290830191858101910280838360005b83811015610180578181015183820152602001610168565b505050509050019250505060405180910390f35b3480156101a057600080fd5b506101a9610be6565b005b3480156101b757600080fd5b506101c0610c6e565b60408051600160a060020a039092168252519081900360200190f35b3480156101e857600080fd5b5061010560048035906024803580820192908101359161ffff6044351691606435808301929082013591608435918201910135610c7d565b34801561022c57600080fd5b5061014460048035906024803591604435918201910135610f86565b34801561025457600080fd5b506101c061124c565b34801561026957600080fd5b506101a9600160a060020a036004351661125b565b34801561028a57600080fd5b5061010560048035906024803590810191013561ffff604435166112a1565b60008085856000600260009054906101000a9004600160a060020a0316600160a060020a03166365de1eb3846040518263ffffffff1660e060020a02815260040180828152602001915050600060405180830381600087803b15801561030e57600080fd5b505af1158015610322573d6000803e3d6000fd5b505050506040513d6000823e601f3d908101601f19168201604052608081101561034b57600080fd5b81019080805164010000000081111561036357600080fd5b8201602081018481111561037657600080fd5b815164010000000081118282018710171561039057600080fd5b50505060600151925050508015156103a757600080fd5b6002546040805160e260020a631ad96a0d02815260048101869052602481018590529051600160a060020a0390921691636b65a834916044808201926020929091908290030181600087803b1580156103ff57600080fd5b505af1158015610413573d6000803e3d6000fd5b505050506040513d602081101561042957600080fd5b5051151561043657600080fd5b600254604080517fc4725577000000000000000000000000000000000000000000000000000000008152600481018c9052602481018b9052604481018a9052606481018990529051600160a060020a039092169163c4725577916084808201926060929091908290030181600087803b1580156104b257600080fd5b505af11580156104c6573d6000803e3d6000fd5b505050506040513d60608110156104dc57600080fd5b508051604090910151909a909950975050505050505050565b6002546040805160e460020a630e7dd975028152336004820152905160009283928392600160a060020a039092169163e7dd97509160248082019260209290919082900301818787803b15801561054b57600080fd5b505af115801561055f573d6000803e3d6000fd5b505050506040513d602081101561057557600080fd5b5051600254604080517f65de1eb30000000000000000000000000000000000000000000000000000000081526004810184905290518c92600092600160a060020a03909116916365de1eb391602480820192869290919082900301818387803b1580156105e157600080fd5b505af11580156105f5573d6000803e3d6000fd5b505050506040513d6000823e601f3d908101601f19168201604052608081101561061e57600080fd5b81019080805164010000000081111561063657600080fd5b8201602081018481111561064957600080fd5b815164010000000081118282018710171561066357600080fd5b505050606001519250505080151561067a57600080fd5b6002546040805160e260020a631ad96a0d02815260048101869052602481018590529051600160a060020a0390921691636b65a834916044808201926020929091908290030181600087803b1580156106d257600080fd5b505af11580156106e6573d6000803e3d6000fd5b505050506040513d60208110156106fc57600080fd5b5051151561070957600080fd5b89881461071557600080fd5b6000881161072257600080fd5b6002546040805160e460020a630e7dd9750281523360048201529051600160a060020a039092169163e7dd9750916024808201926020929091908290030181600087803b15801561077257600080fd5b505af1158015610786573d6000803e3d6000fd5b505050506040513d602081101561079c57600080fd5b81019080805190602001909291905050509450600260009054906101000a9004600160a060020a0316600160a060020a03166325635b68868e8a6040518463ffffffff1660e060020a028152600401808481526020018381526020018261ffff1661ffff1681526020019350505050600060405180830381600087803b15801561082557600080fd5b505af1158015610839573d6000803e3d6000fd5b50505050600093505b898410156108f757600254600160a060020a031663be5e72e0868e8e8e8981811061086957fe5b905060200201358d8d8a818110151561087e57fe5b905060200201356040518563ffffffff1660e060020a02815260040180858152602001848152602001838152602001828152602001945050505050600060405180830381600087803b1580156108d357600080fd5b505af11580156108e7573d6000803e3d6000fd5b5050600190950194506108429050565b6040518c907f360c63f6ccd01d11a1b3a05222d7921c3da0f941a862674b1218d974541773d490600090a25060019b9a5050505050505050505050565b60608060008088886000600260009054906101000a9004600160a060020a0316600160a060020a03166365de1eb3846040518263ffffffff1660e060020a02815260040180828152602001915050600060405180830381600087803b15801561099c57600080fd5b505af11580156109b0573d6000803e3d6000fd5b505050506040513d6000823e601f3d908101601f1916820160405260808110156109d957600080fd5b8101908080516401000000008111156109f157600080fd5b82016020810184811115610a0457600080fd5b8151640100000000811182820187101715610a1e57600080fd5b5050506060015192505050801515610a3557600080fd5b6002546040805160e260020a631ad96a0d02815260048101869052602481018590529051600160a060020a0390921691636b65a834916044808201926020929091908290030181600087803b158015610a8d57600080fd5b505af1158015610aa1573d6000803e3d6000fd5b505050506040513d6020811015610ab757600080fd5b50511515610ac457600080fd5b60008911610ad157600080fd5b604080518a81526020808c02820101909152898015610afa578160200160208202803883390190505b509550600094505b88851015610bd657600254600160a060020a031663c47255778d8d8d8d8a818110610b2957fe5b905060200201358c6040518563ffffffff1660e060020a02815260040180858152602001848152602001838152602001828152602001945050505050606060405180830381600087803b158015610b7f57600080fd5b505af1158015610b93573d6000803e3d6000fd5b505050506040513d6060811015610ba957600080fd5b506040015186519094508490879087908110610bc157fe5b60209081029091010152600190940193610b02565b50939a9950505050505050505050565b600154600160a060020a03163314610bfd57600080fd5b60015460008054604051600160a060020a0393841693909116917f8be0079c531659141344cd1fd0a4f28419497f9722a3daafe3b4186f6b6457e091a3600180546000805473ffffffffffffffffffffffffffffffffffffffff19908116600160a060020a03841617909155169055565b600054600160a060020a031681565b6002546040805160e460020a630e7dd97502815233600482015290516000928392600160a060020a039091169163e7dd97509160248082019260209290919082900301818787803b158015610cd157600080fd5b505af1158015610ce5573d6000803e3d6000fd5b505050506040513d6020811015610cfb57600080fd5b5051600254604080517f65de1eb30000000000000000000000000000000000000000000000000000000081526004810184905290518d92600092600160a060020a03909116916365de1eb391602480820192869290919082900301818387803b158015610d6757600080fd5b505af1158015610d7b573d6000803e3d6000fd5b505050506040513d6000823e601f3d908101601f191682016040526080811015610da457600080fd5b810190808051640100000000811115610dbc57600080fd5b82016020810184811115610dcf57600080fd5b8151640100000000811182820187101715610de957600080fd5b5050506060015192505050801515610e0057600080fd5b6002546040805160e260020a631ad96a0d02815260048101869052602481018590529051600160a060020a0390921691636b65a834916044808201926020929091908290030181600087803b158015610e5857600080fd5b505af1158015610e6c573d6000803e3d6000fd5b505050506040513d6020811015610e8257600080fd5b50511515610e8f57600080fd5b60008b11610e9c57600080fd5b878614610ea857600080fd5b60008611610eb557600080fd5b600093505b8a841015610f4857610f3d8d8d8d87818110610ed257fe5b905060200201358c8c8c808060200260200160405190810160405280939291908181526020018383602002808284378201915050505050508b8b8080602002602001604051908101604052809392919081815260200183836020028082843750611522945050505050565b600190930192610eba565b6040518d907f1cac0e9cdc3d4d98e6e91fda2bf89adbc89eb42ba2b644d0a7b91b390351ab2590600090a25060019c9b505050505050505050505050565b606080600080600088886000600260009054906101000a9004600160a060020a0316600160a060020a03166365de1eb3846040518263ffffffff1660e060020a02815260040180828152602001915050600060405180830381600087803b158015610ff057600080fd5b505af1158015611004573d6000803e3d6000fd5b505050506040513d6000823e601f3d908101601f19168201604052608081101561102d57600080fd5b81019080805164010000000081111561104557600080fd5b8201602081018481111561105857600080fd5b815164010000000081118282018710171561107257600080fd5b505050606001519250505080151561108957600080fd5b6002546040805160e260020a631ad96a0d02815260048101869052602481018590529051600160a060020a0390921691636b65a834916044808201926020929091908290030181600087803b1580156110e157600080fd5b505af11580156110f5573d6000803e3d6000fd5b505050506040513d602081101561110b57600080fd5b5051151561111857600080fd5b6000891161112557600080fd5b604080518a81526020808c0282010190915289801561114e578160200160208202803883390190505b509650600095505b8886101561123c5789898781811061116a57fe5b905060200201359450600260009054906101000a9004600160a060020a0316600160a060020a031663ee76c2d68d8d886040518463ffffffff1660e060020a0281526004018084815260200183815260200182815260200193505050506040805180830381600087803b1580156111e057600080fd5b505af11580156111f4573d6000803e3d6000fd5b505050506040513d604081101561120a57600080fd5b50518751909450849088908890811061121f57fe5b61ffff909216602092830290910190910152600190950194611156565b50949a9950505050505050505050565b600154600160a060020a031681565b600054600160a060020a0316331461127257600080fd5b6001805473ffffffffffffffffffffffffffffffffffffffff1916600160a060020a0392909216919091179055565b6002546040805160e460020a630e7dd97502815233600482015290516000928392600160a060020a039091169163e7dd97509160248082019260209290919082900301818787803b1580156112f557600080fd5b505af1158015611309573d6000803e3d6000fd5b505050506040513d602081101561131f57600080fd5b5051600254604080517f65de1eb30000000000000000000000000000000000000000000000000000000081526004810184905290518992600092600160a060020a03909116916365de1eb391602480820192869290919082900301818387803b15801561138b57600080fd5b505af115801561139f573d6000803e3d6000fd5b505050506040513d6000823e601f3d908101601f1916820160405260808110156113c857600080fd5b8101908080516401000000008111156113e057600080fd5b820160208101848111156113f357600080fd5b815164010000000081118282018710171561140d57600080fd5b505050606001519250505080151561142457600080fd5b6002546040805160e260020a631ad96a0d02815260048101869052602481018590529051600160a060020a0390921691636b65a834916044808201926020929091908290030181600087803b15801561147c57600080fd5b505af1158015611490573d6000803e3d6000fd5b505050506040513d60208110156114a657600080fd5b505115156114b357600080fd5b600093505b868410156114e8576114dd898989878181106114d057fe5b9050602002013588611716565b6001909301926114b8565b60405189907fd6a2898743d11912ae34b9e44c23aef05d6bb87b12f6550fafa5890231d569e790600090a250600198975050505050505050565b6002546040805160e460020a630e7dd97502815233600482015290516000928392600160a060020a039091169163e7dd97509160248082019260209290919082900301818787803b15801561157657600080fd5b505af115801561158a573d6000803e3d6000fd5b505050506040513d60208110156115a057600080fd5b5051600254604080517ff3c505c200000000000000000000000000000000000000000000000000000000815260048101849052602481018b9052604481018a905261ffff891660648201529051929450600160a060020a039091169163f3c505c29160848082019260009290919082900301818387803b15801561162357600080fd5b505af1158015611637573d6000803e3d6000fd5b50505050600090505b835181101561170d576002548451600160a060020a039091169063edb0bb3a9084908a908a9089908790811061167257fe5b90602001906020020151888781518110151561168a57fe5b906020019060200201516040518663ffffffff1660e060020a0281526004018086815260200185815260200184815260200183815260200182815260200195505050505050600060405180830381600087803b1580156116e957600080fd5b505af11580156116fd573d6000803e3d6000fd5b5050600190920191506116409050565b50505050505050565b6002546040805160e460020a630e7dd9750281523360048201529051600092600160a060020a03169163e7dd975091602480830192602092919082900301818787803b15801561176557600080fd5b505af1158015611779573d6000803e3d6000fd5b505050506040513d602081101561178f57600080fd5b5051600254604080517ff3c505c200000000000000000000000000000000000000000000000000000000815260048101849052602481018890526044810187905261ffff861660648201529051929350600160a060020a039091169163f3c505c29160848082019260009290919082900301818387803b15801561181257600080fd5b505af1158015611826573d6000803e3d6000fd5b50505050505050505600a165627a7a7230582098bbeeac586673d1df3c755c46719d37ddad72f30b238b29e6d8df59c491e3b90029",
  "source": "pragma solidity ^0.4.24;\n\nimport \"./TRNData.sol\";\n\ncontract TRNPrices is TRNData {\n\n    /**\n     * Constructor\n     */\n    constructor() public {\n\n    }\n\n    /**\n     * This emits when rate plan price changed\n     */\n    event RatePlanPriceChanged(uint256 indexed _rpid);\n\n    /**\n     * This emits when rate plan inventory changed\n     */\n    event RatePlanInventoryChanged(uint256 indexed _rpid);\n\n    /**\n     * This emits when rate plan base price changed\n     */\n    event RatePlanBasePriceChanged(uint256 indexed _rpid);\n    \n    function _updatePrices(uint256 _rpid, uint256 _date, uint16 _inventory, uint256[] _tokens, uint256[] _prices) private {\n        uint256 vendorId = dataSource.vendorIds(msg.sender);\n        dataSource.updateInventories(vendorId, _rpid, _date, _inventory);\n        for (uint256 tindex = 0; tindex < _tokens.length; tindex++) {\n            dataSource.updatePrice(vendorId, _rpid, _date, _tokens[tindex], _prices[tindex]);\n        }\n    }\n\n    function _updateInventories(uint256 _rpid, uint256 _date, uint16 _inventory) private {\n        uint256 vendorId = dataSource.vendorIds(msg.sender);\n        dataSource.updateInventories(vendorId, _rpid, _date, _inventory);\n    }\n\n    /**\n     * @dev Update base price assigned to a vendor by `_rpid`, `msg.sender`, `_dates`\n     *      Throw when `msg.sender` is not a vendor\n     *      Throw when `_rpid` not exist\n     *      Throw when `_tokens`'s length is not equal to `_prices`'s length or `_tokens`'s length is equal to zero\n     * @param _rpid The rate plan identifier\n     * @param _inventory The amount that can be sold\n     * @param _tokens The pricing currency token\n     * @param _prices The currency token selling price  \n     */\n    function updateBasePrice(uint256 _rpid, uint256[] _tokens, uint256[] _prices, uint16 _inventory) \n        external \n        ratePlanExist(dataSource.vendorIds(msg.sender), _rpid) \n        returns(bool) {\n        require(_tokens.length == _prices.length);\n        require(_prices.length > 0);\n        uint256 vendorId = dataSource.vendorIds(msg.sender);\n        dataSource.updateBaseInventory(vendorId, _rpid, _inventory);\n        for (uint256 tindex = 0; tindex < _tokens.length; tindex++) {\n            dataSource.updateBasePrice(vendorId, _rpid, _tokens[tindex], _prices[tindex]);\n        }\n        // Event \n        emit RatePlanBasePriceChanged(_rpid);\n        return true;\n    }\n\n    /**\n     * @dev Update prices assigned to a vendor by `_rpid`, `msg.sender`, `_dates`\n     *      Throw when `msg.sender` is not a vendor\n     *      Throw when `_rpid` not exist\n     *      Throw when `_dates`'s length lte 0\n     *      Throw when `_tokens`'s length is not equal to `_prices`'s length or `_tokens`'s length is equal to zero\n     * @param _rpid The rate plan identifier\n     * @param _dates The prices to be modified of `_dates`\n     * @param _inventory The amount that can be sold\n     * @param _tokens The pricing currency token\n     * @param _prices The currency token selling price  \n     */\n    function updatePrices(uint256 _rpid, uint256[] _dates, uint16 _inventory, uint256[] _tokens, uint256[] _prices)\n        external \n        ratePlanExist(dataSource.vendorIds(msg.sender), _rpid) \n        returns(bool) {\n        require(_dates.length > 0);\n        require(_tokens.length == _prices.length);\n        require(_prices.length > 0);\n        for (uint256 index = 0; index < _dates.length; index++) {\n            _updatePrices(_rpid, _dates[index], _inventory, _tokens, _prices);\n        }\n        // Event \n        emit RatePlanPriceChanged(_rpid);\n        return true;\n    }\n\n    /**\n     * @dev Update inventory assigned to a vendor by `_rpid`, `msg.sender`, `_dates`\n     *      Throw when `msg.sender` is not a vendor\n     *      Throw when `_rpid` not exist\n     *      Throw when `_dates`'s length lte 0\n     * @param _rpid The rate plan identifier\n     * @param _dates The prices to be modified of `_dates`\n     * @param _inventory The amount that can be sold\n     */\n    function updateInventories(uint256 _rpid, uint256[] _dates, uint16 _inventory) \n        external \n        ratePlanExist(dataSource.vendorIds(msg.sender), _rpid) \n        returns(bool) {\n        for (uint256 index = 0; index < _dates.length; index++) {\n            _updateInventories(_rpid, _dates[index], _inventory);\n        }\n\n        // Event\n        emit RatePlanInventoryChanged(_rpid);\n        return true;\n    }\n\n    /**\n     * @dev Returns the inventories of `_vendor`'s RP(`_rpid`) on `_dates`\n     *      Throw when `_rpid` not exist\n     *      Throw when `_dates`'s count lte 0\n     * @param _vendorId The vendor Id\n     * @param _rpid The rate plan identifier\n     * @param _dates The inventories to be returned of `_dates`\n     * @return The inventories\n     */\n    function inventoriesOfDate(uint256 _vendorId, uint256 _rpid, uint256[] _dates) \n        external \n        view\n        ratePlanExist(_vendorId, _rpid) \n        returns(uint16[]) {\n        require(_dates.length > 0);\n        uint16[] memory result = new uint16[](_dates.length);\n        for (uint256 index = 0; index < _dates.length; index++) {\n            uint256 date = _dates[index];\n            (uint16 inventory,) = dataSource.getInventory(_vendorId, _rpid, date);\n            result[index] = inventory;\n        }\n        return result;\n    }\n\n    /**\n     * @dev Returns the prices of `_vendor`'s RP(`_rpid`) on `_dates`\n     *      Throw when `_rpid` not exist\n     *      Throw when `_dates`'s count lte 0\n     * @param _vendorId The vendor Id\n     * @param _rpid The rate plan identifier\n     * @param _dates The inventories to be returned of `_dates`\n     * @param _token The digital currency token\n     * @return The prices\n     */\n    function pricesOfDate(uint256 _vendorId, uint256 _rpid, uint256[] _dates, uint256 _token)\n        external \n        view\n        ratePlanExist(_vendorId, _rpid) \n        returns(uint256[]) {\n        require(_dates.length > 0);\n        uint256[] memory result = new uint256[](_dates.length);\n        for (uint256 index = 0; index < _dates.length; index++) {\n            (,, uint256 _price) = dataSource.getPrice(_vendorId, _rpid, _dates[index], _token);\n            result[index] = _price;\n        }\n        return result;\n    }\n\n    /**\n     * @dev Returns the RP's price and inventory of `_date`.\n     *      Throw when `_rpid` not exist\n     * @param _vendorId The vendor Id\n     * @param _rpid The rate plan identifier\n     * @param _date The price and inventory to be returneed of `_date`\n     * @param _token The digital currency token\n     * @return The price and inventory\n     */\n    function priceOfDate(uint256 _vendorId, uint256 _rpid, uint256 _date, uint256 _token) \n        external \n        view\n        ratePlanExist(_vendorId, _rpid) \n        returns(uint16 _inventory, uint256 _price) {\n        (_inventory, , _price) = dataSource.getPrice(_vendorId, _rpid, _date, _token);\n    }\n}",
  "sourcePath": "/Users/Kirn/Documents/Workspace/Dawn/tripio-roomnight/truffle/contracts/extensions/TRNPrices.sol",
  "compiler": {
    "name": "solc",
    "version": "0.4.24+commit.e67f0147.Emscripten.clang"
  },
  "schemaVersion": "2.0.1",
  "updatedAt": "2018-08-31T07:11:19.148Z"
}