{
  "contractName": "TRNPrices",
  "abi": [
    {
      "constant": false,
      "inputs": [],
      "name": "acceptOwnership",
      "outputs": [],
      "payable": false,
      "stateMutability": "nonpayable",
      "type": "function"
    },
    {
      "constant": true,
      "inputs": [],
      "name": "owner",
      "outputs": [
        {
          "name": "",
          "type": "address"
        }
      ],
      "payable": false,
      "stateMutability": "view",
      "type": "function"
    },
    {
      "constant": true,
      "inputs": [],
      "name": "newOwner",
      "outputs": [
        {
          "name": "",
          "type": "address"
        }
      ],
      "payable": false,
      "stateMutability": "view",
      "type": "function"
    },
    {
      "constant": false,
      "inputs": [
        {
          "name": "_newOwner",
          "type": "address"
        }
      ],
      "name": "transferOwnership",
      "outputs": [],
      "payable": false,
      "stateMutability": "nonpayable",
      "type": "function"
    },
    {
      "inputs": [],
      "payable": false,
      "stateMutability": "nonpayable",
      "type": "constructor"
    },
    {
      "anonymous": false,
      "inputs": [
        {
          "indexed": true,
          "name": "_rpid",
          "type": "uint256"
        }
      ],
      "name": "RatePlanPriceChanged",
      "type": "event"
    },
    {
      "anonymous": false,
      "inputs": [
        {
          "indexed": true,
          "name": "_rpid",
          "type": "uint256"
        }
      ],
      "name": "RatePlanInventoryChanged",
      "type": "event"
    },
    {
      "anonymous": false,
      "inputs": [
        {
          "indexed": true,
          "name": "_rpid",
          "type": "uint256"
        }
      ],
      "name": "RatePlanBasePriceChanged",
      "type": "event"
    },
    {
      "anonymous": false,
      "inputs": [
        {
          "indexed": true,
          "name": "from",
          "type": "address"
        },
        {
          "indexed": true,
          "name": "to",
          "type": "address"
        }
      ],
      "name": "OwnershipTransferred",
      "type": "event"
    },
    {
      "constant": false,
      "inputs": [
        {
          "name": "_rpid",
          "type": "uint256"
        },
        {
          "name": "_tokens",
          "type": "uint256[]"
        },
        {
          "name": "_prices",
          "type": "uint256[]"
        },
        {
          "name": "_inventory",
          "type": "uint16"
        }
      ],
      "name": "updateBasePrice",
      "outputs": [
        {
          "name": "",
          "type": "bool"
        }
      ],
      "payable": false,
      "stateMutability": "nonpayable",
      "type": "function"
    },
    {
      "constant": false,
      "inputs": [
        {
          "name": "_rpid",
          "type": "uint256"
        },
        {
          "name": "_dates",
          "type": "uint256[]"
        },
        {
          "name": "_inventory",
          "type": "uint16"
        },
        {
          "name": "_tokens",
          "type": "uint256[]"
        },
        {
          "name": "_prices",
          "type": "uint256[]"
        }
      ],
      "name": "updatePrices",
      "outputs": [
        {
          "name": "",
          "type": "bool"
        }
      ],
      "payable": false,
      "stateMutability": "nonpayable",
      "type": "function"
    },
    {
      "constant": false,
      "inputs": [
        {
          "name": "_rpid",
          "type": "uint256"
        },
        {
          "name": "_dates",
          "type": "uint256[]"
        },
        {
          "name": "_inventory",
          "type": "uint16"
        }
      ],
      "name": "updateInventories",
      "outputs": [
        {
          "name": "",
          "type": "bool"
        }
      ],
      "payable": false,
      "stateMutability": "nonpayable",
      "type": "function"
    },
    {
      "constant": true,
      "inputs": [
        {
          "name": "_vendorId",
          "type": "uint256"
        },
        {
          "name": "_rpid",
          "type": "uint256"
        },
        {
          "name": "_dates",
          "type": "uint256[]"
        }
      ],
      "name": "inventoriesOfDate",
      "outputs": [
        {
          "name": "",
          "type": "uint16[]"
        }
      ],
      "payable": false,
      "stateMutability": "view",
      "type": "function"
    },
    {
      "constant": true,
      "inputs": [
        {
          "name": "_vendorId",
          "type": "uint256"
        },
        {
          "name": "_rpid",
          "type": "uint256"
        },
        {
          "name": "_dates",
          "type": "uint256[]"
        },
        {
          "name": "_token",
          "type": "uint256"
        }
      ],
      "name": "pricesOfDate",
      "outputs": [
        {
          "name": "",
          "type": "uint256[]"
        }
      ],
      "payable": false,
      "stateMutability": "view",
      "type": "function"
    },
    {
      "constant": true,
      "inputs": [
        {
          "name": "_vendorId",
          "type": "uint256"
        },
        {
          "name": "_rpid",
          "type": "uint256"
        },
        {
          "name": "_dates",
          "type": "uint256[]"
        },
        {
          "name": "_token",
          "type": "uint256"
        }
      ],
      "name": "pricesAndInventoriesOfDate",
      "outputs": [
        {
          "name": "",
          "type": "uint256[]"
        },
        {
          "name": "",
          "type": "uint16[]"
        }
      ],
      "payable": false,
      "stateMutability": "view",
      "type": "function"
    },
    {
      "constant": true,
      "inputs": [
        {
          "name": "_vendorId",
          "type": "uint256"
        },
        {
          "name": "_rpid",
          "type": "uint256"
        },
        {
          "name": "_date",
          "type": "uint256"
        },
        {
          "name": "_token",
          "type": "uint256"
        }
      ],
      "name": "priceOfDate",
      "outputs": [
        {
          "name": "_inventory",
          "type": "uint16"
        },
        {
          "name": "_price",
          "type": "uint256"
        }
      ],
      "payable": false,
      "stateMutability": "view",
      "type": "function"
    }
  ],
  "bytecode": "0x608060405234801561001057600080fd5b5060008054600160a060020a03191633179055611aa6806100326000396000f3006080604052600436106100955763ffffffff60e060020a6000350416631eae85cb811461009a57806321edbe24146100d95780636215f2921461019d5780636529d1c9146101e857806379ba5097146102635780638da5cb5b1461027a5780638f38bf34146102ab578063afab2b0f146102ef578063d4ee1d9014610317578063f2fde38b1461032c578063f54d41db1461034d575b600080fd5b3480156100a657600080fd5b506100bb600435602435604435606435610378565b6040805161ffff909316835260208301919091528051918290030190f35b3480156100e557600080fd5b50610104600480359060248035916044359182019101356064356105c4565b604051808060200180602001838103835285818151815260200191508051906020019060200280838360005b83811015610148578181015183820152602001610130565b50505050905001838103825284818151815260200191508051906020019060200280838360005b8381101561018757818101518382015260200161016f565b5050505090500194505050505060405180910390f35b3480156101a957600080fd5b506101d460048035906024803580820192908101359160443590810191013561ffff6064351661073f565b604080519115158252519081900360200190f35b3480156101f457600080fd5b5061021360048035906024803591604435918201910135606435610b7e565b60408051602080825283518183015283519192839290830191858101910280838360005b8381101561024f578181015183820152602001610237565b505050509050019250505060405180910390f35b34801561026f57600080fd5b50610278610e30565b005b34801561028657600080fd5b5061028f610eb8565b60408051600160a060020a039092168252519081900360200190f35b3480156102b757600080fd5b506101d460048035906024803580820192908101359161ffff6044351691606435808301929082013591608435918201910135610ec7565b3480156102fb57600080fd5b50610213600480359060248035916044359182019101356111d0565b34801561032357600080fd5b5061028f611496565b34801561033857600080fd5b50610278600160a060020a03600435166114a5565b34801561035957600080fd5b506101d460048035906024803590810191013561ffff604435166114eb565b60008085856000600260009054906101000a9004600160a060020a0316600160a060020a03166365de1eb3846040518263ffffffff1660e060020a02815260040180828152602001915050600060405180830381600087803b1580156103dd57600080fd5b505af11580156103f1573d6000803e3d6000fd5b505050506040513d6000823e601f3d908101601f19168201604052608081101561041a57600080fd5b81019080805164010000000081111561043257600080fd5b8201602081018481111561044557600080fd5b815164010000000081118282018710171561045f57600080fd5b505050606001519250505080151561047657600080fd5b6002546040805160e260020a631ad96a0d02815260048101869052602481018590529051600160a060020a0390921691636b65a834916044808201926020929091908290030181600087803b1580156104ce57600080fd5b505af11580156104e2573d6000803e3d6000fd5b505050506040513d60208110156104f857600080fd5b5051151561050557600080fd5b600254604080517fc4725577000000000000000000000000000000000000000000000000000000008152600481018c9052602481018b9052604481018a9052606481018990529051600160a060020a039092169163c4725577916084808201926060929091908290030181600087803b15801561058157600080fd5b505af1158015610595573d6000803e3d6000fd5b505050506040513d60608110156105ab57600080fd5b508051604090910151909a909950975050505050505050565b6060806060806000806000898990506040519080825280602002602001820160405280156105fc578160200160208202803883390190505b50604080518b81526020808d02820101909152909550898015610629578160200160208202803883390190505b509350600092505b8883101561072d57600254600160a060020a031663c47255778d8d8d8d8881811061065857fe5b905060200201358c6040518563ffffffff1660e060020a02815260040180858152602001848152602001838152602001828152602001945050505050606060405180830381600087803b1580156106ae57600080fd5b505af11580156106c2573d6000803e3d6000fd5b505050506040513d60608110156106d857600080fd5b5080516040909101518651919350915081908690859081106106f657fe5b602090810290910101528351829085908590811061071057fe5b61ffff909216602092830290910190910152600190920191610631565b50929a91995090975050505050505050565b6002546040805160e460020a630e7dd975028152336004820152905160009283928392600160a060020a039092169163e7dd97509160248082019260209290919082900301818787803b15801561079557600080fd5b505af11580156107a9573d6000803e3d6000fd5b505050506040513d60208110156107bf57600080fd5b5051600254604080517f65de1eb30000000000000000000000000000000000000000000000000000000081526004810184905290518c92600092600160a060020a03909116916365de1eb391602480820192869290919082900301818387803b15801561082b57600080fd5b505af115801561083f573d6000803e3d6000fd5b505050506040513d6000823e601f3d908101601f19168201604052608081101561086857600080fd5b81019080805164010000000081111561088057600080fd5b8201602081018481111561089357600080fd5b81516401000000008111828201871017156108ad57600080fd5b50505060600151925050508015156108c457600080fd5b6002546040805160e260020a631ad96a0d02815260048101869052602481018590529051600160a060020a0390921691636b65a834916044808201926020929091908290030181600087803b15801561091c57600080fd5b505af1158015610930573d6000803e3d6000fd5b505050506040513d602081101561094657600080fd5b5051151561095357600080fd5b89881461095f57600080fd5b6000881161096c57600080fd5b6002546040805160e460020a630e7dd9750281523360048201529051600160a060020a039092169163e7dd9750916024808201926020929091908290030181600087803b1580156109bc57600080fd5b505af11580156109d0573d6000803e3d6000fd5b505050506040513d60208110156109e657600080fd5b81019080805190602001909291905050509450600260009054906101000a9004600160a060020a0316600160a060020a03166325635b68868e8a6040518463ffffffff1660e060020a028152600401808481526020018381526020018261ffff1661ffff1681526020019350505050600060405180830381600087803b158015610a6f57600080fd5b505af1158015610a83573d6000803e3d6000fd5b50505050600093505b89841015610b4157600254600160a060020a031663be5e72e0868e8e8e89818110610ab357fe5b905060200201358d8d8a8181101515610ac857fe5b905060200201356040518563ffffffff1660e060020a02815260040180858152602001848152602001838152602001828152602001945050505050600060405180830381600087803b158015610b1d57600080fd5b505af1158015610b31573d6000803e3d6000fd5b505060019095019450610a8c9050565b6040518c907f360c63f6ccd01d11a1b3a05222d7921c3da0f941a862674b1218d974541773d490600090a25060019b9a5050505050505050505050565b60608060008088886000600260009054906101000a9004600160a060020a0316600160a060020a03166365de1eb3846040518263ffffffff1660e060020a02815260040180828152602001915050600060405180830381600087803b158015610be657600080fd5b505af1158015610bfa573d6000803e3d6000fd5b505050506040513d6000823e601f3d908101601f191682016040526080811015610c2357600080fd5b810190808051640100000000811115610c3b57600080fd5b82016020810184811115610c4e57600080fd5b8151640100000000811182820187101715610c6857600080fd5b5050506060015192505050801515610c7f57600080fd5b6002546040805160e260020a631ad96a0d02815260048101869052602481018590529051600160a060020a0390921691636b65a834916044808201926020929091908290030181600087803b158015610cd757600080fd5b505af1158015610ceb573d6000803e3d6000fd5b505050506040513d6020811015610d0157600080fd5b50511515610d0e57600080fd5b60008911610d1b57600080fd5b604080518a81526020808c02820101909152898015610d44578160200160208202803883390190505b509550600094505b88851015610e2057600254600160a060020a031663c47255778d8d8d8d8a818110610d7357fe5b905060200201358c6040518563ffffffff1660e060020a02815260040180858152602001848152602001838152602001828152602001945050505050606060405180830381600087803b158015610dc957600080fd5b505af1158015610ddd573d6000803e3d6000fd5b505050506040513d6060811015610df357600080fd5b506040015186519094508490879087908110610e0b57fe5b60209081029091010152600190940193610d4c565b50939a9950505050505050505050565b600154600160a060020a03163314610e4757600080fd5b60015460008054604051600160a060020a0393841693909116917f8be0079c531659141344cd1fd0a4f28419497f9722a3daafe3b4186f6b6457e091a3600180546000805473ffffffffffffffffffffffffffffffffffffffff19908116600160a060020a03841617909155169055565b600054600160a060020a031681565b6002546040805160e460020a630e7dd97502815233600482015290516000928392600160a060020a039091169163e7dd97509160248082019260209290919082900301818787803b158015610f1b57600080fd5b505af1158015610f2f573d6000803e3d6000fd5b505050506040513d6020811015610f4557600080fd5b5051600254604080517f65de1eb30000000000000000000000000000000000000000000000000000000081526004810184905290518d92600092600160a060020a03909116916365de1eb391602480820192869290919082900301818387803b158015610fb157600080fd5b505af1158015610fc5573d6000803e3d6000fd5b505050506040513d6000823e601f3d908101601f191682016040526080811015610fee57600080fd5b81019080805164010000000081111561100657600080fd5b8201602081018481111561101957600080fd5b815164010000000081118282018710171561103357600080fd5b505050606001519250505080151561104a57600080fd5b6002546040805160e260020a631ad96a0d02815260048101869052602481018590529051600160a060020a0390921691636b65a834916044808201926020929091908290030181600087803b1580156110a257600080fd5b505af11580156110b6573d6000803e3d6000fd5b505050506040513d60208110156110cc57600080fd5b505115156110d957600080fd5b60008b116110e657600080fd5b8786146110f257600080fd5b600086116110ff57600080fd5b600093505b8a841015611192576111878d8d8d8781811061111c57fe5b905060200201358c8c8c808060200260200160405190810160405280939291908181526020018383602002808284378201915050505050508b8b808060200260200160405190810160405280939291908181526020018383602002808284375061176c945050505050565b600190930192611104565b6040518d907f1cac0e9cdc3d4d98e6e91fda2bf89adbc89eb42ba2b644d0a7b91b390351ab2590600090a25060019c9b505050505050505050505050565b606080600080600088886000600260009054906101000a9004600160a060020a0316600160a060020a03166365de1eb3846040518263ffffffff1660e060020a02815260040180828152602001915050600060405180830381600087803b15801561123a57600080fd5b505af115801561124e573d6000803e3d6000fd5b505050506040513d6000823e601f3d908101601f19168201604052608081101561127757600080fd5b81019080805164010000000081111561128f57600080fd5b820160208101848111156112a257600080fd5b81516401000000008111828201871017156112bc57600080fd5b50505060600151925050508015156112d357600080fd5b6002546040805160e260020a631ad96a0d02815260048101869052602481018590529051600160a060020a0390921691636b65a834916044808201926020929091908290030181600087803b15801561132b57600080fd5b505af115801561133f573d6000803e3d6000fd5b505050506040513d602081101561135557600080fd5b5051151561136257600080fd5b6000891161136f57600080fd5b604080518a81526020808c02820101909152898015611398578160200160208202803883390190505b509650600095505b88861015611486578989878181106113b457fe5b905060200201359450600260009054906101000a9004600160a060020a0316600160a060020a031663ee76c2d68d8d886040518463ffffffff1660e060020a0281526004018084815260200183815260200182815260200193505050506040805180830381600087803b15801561142a57600080fd5b505af115801561143e573d6000803e3d6000fd5b505050506040513d604081101561145457600080fd5b50518751909450849088908890811061146957fe5b61ffff9092166020928302909101909101526001909501946113a0565b50949a9950505050505050505050565b600154600160a060020a031681565b600054600160a060020a031633146114bc57600080fd5b6001805473ffffffffffffffffffffffffffffffffffffffff1916600160a060020a0392909216919091179055565b6002546040805160e460020a630e7dd97502815233600482015290516000928392600160a060020a039091169163e7dd97509160248082019260209290919082900301818787803b15801561153f57600080fd5b505af1158015611553573d6000803e3d6000fd5b505050506040513d602081101561156957600080fd5b5051600254604080517f65de1eb30000000000000000000000000000000000000000000000000000000081526004810184905290518992600092600160a060020a03909116916365de1eb391602480820192869290919082900301818387803b1580156115d557600080fd5b505af11580156115e9573d6000803e3d6000fd5b505050506040513d6000823e601f3d908101601f19168201604052608081101561161257600080fd5b81019080805164010000000081111561162a57600080fd5b8201602081018481111561163d57600080fd5b815164010000000081118282018710171561165757600080fd5b505050606001519250505080151561166e57600080fd5b6002546040805160e260020a631ad96a0d02815260048101869052602481018590529051600160a060020a0390921691636b65a834916044808201926020929091908290030181600087803b1580156116c657600080fd5b505af11580156116da573d6000803e3d6000fd5b505050506040513d60208110156116f057600080fd5b505115156116fd57600080fd5b600093505b86841015611732576117278989898781811061171a57fe5b9050602002013588611960565b600190930192611702565b60405189907fd6a2898743d11912ae34b9e44c23aef05d6bb87b12f6550fafa5890231d569e790600090a250600198975050505050505050565b6002546040805160e460020a630e7dd97502815233600482015290516000928392600160a060020a039091169163e7dd97509160248082019260209290919082900301818787803b1580156117c057600080fd5b505af11580156117d4573d6000803e3d6000fd5b505050506040513d60208110156117ea57600080fd5b5051600254604080517ff3c505c200000000000000000000000000000000000000000000000000000000815260048101849052602481018b9052604481018a905261ffff891660648201529051929450600160a060020a039091169163f3c505c29160848082019260009290919082900301818387803b15801561186d57600080fd5b505af1158015611881573d6000803e3d6000fd5b50505050600090505b8351811015611957576002548451600160a060020a039091169063edb0bb3a9084908a908a908990879081106118bc57fe5b9060200190602002015188878151811015156118d457fe5b906020019060200201516040518663ffffffff1660e060020a0281526004018086815260200185815260200184815260200183815260200182815260200195505050505050600060405180830381600087803b15801561193357600080fd5b505af1158015611947573d6000803e3d6000fd5b50506001909201915061188a9050565b50505050505050565b6002546040805160e460020a630e7dd9750281523360048201529051600092600160a060020a03169163e7dd975091602480830192602092919082900301818787803b1580156119af57600080fd5b505af11580156119c3573d6000803e3d6000fd5b505050506040513d60208110156119d957600080fd5b5051600254604080517ff3c505c200000000000000000000000000000000000000000000000000000000815260048101849052602481018890526044810187905261ffff861660648201529051929350600160a060020a039091169163f3c505c29160848082019260009290919082900301818387803b158015611a5c57600080fd5b505af1158015611a70573d6000803e3d6000fd5b50505050505050505600a165627a7a72305820c33f6f717a53b7d62f702e8ab12c241a07a4b69d81b6cedde08664fa297159800029",
  "source": "pragma solidity ^0.4.24;\n\nimport \"./TRNData.sol\";\n\ncontract TRNPrices is TRNData {\n\n    /**\n     * Constructor\n     */\n    constructor() public {\n\n    }\n\n    /**\n     * This emits when rate plan price changed\n     */\n    event RatePlanPriceChanged(uint256 indexed _rpid);\n\n    /**\n     * This emits when rate plan inventory changed\n     */\n    event RatePlanInventoryChanged(uint256 indexed _rpid);\n\n    /**\n     * This emits when rate plan base price changed\n     */\n    event RatePlanBasePriceChanged(uint256 indexed _rpid);\n    \n    function _updatePrices(uint256 _rpid, uint256 _date, uint16 _inventory, uint256[] _tokens, uint256[] _prices) private {\n        uint256 vendorId = dataSource.vendorIds(msg.sender);\n        dataSource.updateInventories(vendorId, _rpid, _date, _inventory);\n        for (uint256 tindex = 0; tindex < _tokens.length; tindex++) {\n            dataSource.updatePrice(vendorId, _rpid, _date, _tokens[tindex], _prices[tindex]);\n        }\n    }\n\n    function _updateInventories(uint256 _rpid, uint256 _date, uint16 _inventory) private {\n        uint256 vendorId = dataSource.vendorIds(msg.sender);\n        dataSource.updateInventories(vendorId, _rpid, _date, _inventory);\n    }\n\n    /**\n     * @dev Update base price assigned to a vendor by `_rpid`, `msg.sender`, `_dates`\n     *      Throw when `msg.sender` is not a vendor\n     *      Throw when `_rpid` not exist\n     *      Throw when `_tokens`'s length is not equal to `_prices`'s length or `_tokens`'s length is equal to zero\n     * @param _rpid The rate plan identifier\n     * @param _inventory The amount that can be sold\n     * @param _tokens The pricing currency token\n     * @param _prices The currency token selling price  \n     */\n    function updateBasePrice(uint256 _rpid, uint256[] _tokens, uint256[] _prices, uint16 _inventory) \n        external \n        ratePlanExist(dataSource.vendorIds(msg.sender), _rpid) \n        returns(bool) {\n        require(_tokens.length == _prices.length);\n        require(_prices.length > 0);\n        uint256 vendorId = dataSource.vendorIds(msg.sender);\n        dataSource.updateBaseInventory(vendorId, _rpid, _inventory);\n        for (uint256 tindex = 0; tindex < _tokens.length; tindex++) {\n            dataSource.updateBasePrice(vendorId, _rpid, _tokens[tindex], _prices[tindex]);\n        }\n        // Event \n        emit RatePlanBasePriceChanged(_rpid);\n        return true;\n    }\n\n    /**\n     * @dev Update prices assigned to a vendor by `_rpid`, `msg.sender`, `_dates`\n     *      Throw when `msg.sender` is not a vendor\n     *      Throw when `_rpid` not exist\n     *      Throw when `_dates`'s length lte 0\n     *      Throw when `_tokens`'s length is not equal to `_prices`'s length or `_tokens`'s length is equal to zero\n     * @param _rpid The rate plan identifier\n     * @param _dates The prices to be modified of `_dates`\n     * @param _inventory The amount that can be sold\n     * @param _tokens The pricing currency token\n     * @param _prices The currency token selling price  \n     */\n    function updatePrices(uint256 _rpid, uint256[] _dates, uint16 _inventory, uint256[] _tokens, uint256[] _prices)\n        external \n        ratePlanExist(dataSource.vendorIds(msg.sender), _rpid) \n        returns(bool) {\n        require(_dates.length > 0);\n        require(_tokens.length == _prices.length);\n        require(_prices.length > 0);\n        for (uint256 index = 0; index < _dates.length; index++) {\n            _updatePrices(_rpid, _dates[index], _inventory, _tokens, _prices);\n        }\n        // Event \n        emit RatePlanPriceChanged(_rpid);\n        return true;\n    }\n\n    /**\n     * @dev Update inventory assigned to a vendor by `_rpid`, `msg.sender`, `_dates`\n     *      Throw when `msg.sender` is not a vendor\n     *      Throw when `_rpid` not exist\n     *      Throw when `_dates`'s length lte 0\n     * @param _rpid The rate plan identifier\n     * @param _dates The prices to be modified of `_dates`\n     * @param _inventory The amount that can be sold\n     */\n    function updateInventories(uint256 _rpid, uint256[] _dates, uint16 _inventory) \n        external \n        ratePlanExist(dataSource.vendorIds(msg.sender), _rpid) \n        returns(bool) {\n        for (uint256 index = 0; index < _dates.length; index++) {\n            _updateInventories(_rpid, _dates[index], _inventory);\n        }\n\n        // Event\n        emit RatePlanInventoryChanged(_rpid);\n        return true;\n    }\n\n    /**\n     * @dev Returns the inventories of `_vendor`'s RP(`_rpid`) on `_dates`\n     *      Throw when `_rpid` not exist\n     *      Throw when `_dates`'s count lte 0\n     * @param _vendorId The vendor Id\n     * @param _rpid The rate plan identifier\n     * @param _dates The inventories to be returned of `_dates`\n     * @return The inventories\n     */\n    function inventoriesOfDate(uint256 _vendorId, uint256 _rpid, uint256[] _dates) \n        external \n        view\n        ratePlanExist(_vendorId, _rpid) \n        returns(uint16[]) {\n        require(_dates.length > 0);\n        uint16[] memory result = new uint16[](_dates.length);\n        for (uint256 index = 0; index < _dates.length; index++) {\n            uint256 date = _dates[index];\n            (uint16 inventory,) = dataSource.getInventory(_vendorId, _rpid, date);\n            result[index] = inventory;\n        }\n        return result;\n    }\n\n    /**\n     * @dev Returns the prices of `_vendor`'s RP(`_rpid`) on `_dates`\n     *      Throw when `_rpid` not exist\n     *      Throw when `_dates`'s count lte 0\n     * @param _vendorId The vendor Id\n     * @param _rpid The rate plan identifier\n     * @param _dates The inventories to be returned of `_dates`\n     * @param _token The digital currency token\n     * @return The prices\n     */\n    function pricesOfDate(uint256 _vendorId, uint256 _rpid, uint256[] _dates, uint256 _token)\n        external \n        view\n        ratePlanExist(_vendorId, _rpid) \n        returns(uint256[]) {\n        require(_dates.length > 0);\n        uint256[] memory result = new uint256[](_dates.length);\n        for (uint256 index = 0; index < _dates.length; index++) {\n            (,, uint256 _price) = dataSource.getPrice(_vendorId, _rpid, _dates[index], _token);\n            result[index] = _price;\n        }\n        return result;\n    }\n\n    /**\n     * @dev Returns the prices and inventories of `_vendor`'s RP(`_rpid`) on `_dates`\n     *      Throw when `_rpid` not exist\n     *      Throw when `_dates`'s count lte 0\n     * @param _vendorId The vendor Id\n     * @param _rpid The rate plan identifier\n     * @param _dates The inventories to be returned of `_dates`\n     * @param _token The digital currency token\n     * @return The prices and inventories\n     */\n    function pricesAndInventoriesOfDate(uint256 _vendorId, uint256 _rpid, uint256[] _dates, uint256 _token)\n        external \n        view\n        returns(uint256[], uint16[]) {\n        uint256[] memory prices = new uint256[](_dates.length);\n        uint16[] memory inventories = new uint16[](_dates.length);\n        for (uint256 index = 0; index < _dates.length; index++) {\n            (uint16 _inventory,, uint256 _price) = dataSource.getPrice(_vendorId, _rpid, _dates[index], _token);\n            prices[index] = _price;\n            inventories[index] = _inventory;\n        }\n        return (prices, inventories);\n    }\n\n    /**\n     * @dev Returns the RP's price and inventory of `_date`.\n     *      Throw when `_rpid` not exist\n     * @param _vendorId The vendor Id\n     * @param _rpid The rate plan identifier\n     * @param _date The price and inventory to be returneed of `_date`\n     * @param _token The digital currency token\n     * @return The price and inventory\n     */\n    function priceOfDate(uint256 _vendorId, uint256 _rpid, uint256 _date, uint256 _token) \n        external \n        view\n        ratePlanExist(_vendorId, _rpid) \n        returns(uint16 _inventory, uint256 _price) {\n        (_inventory, , _price) = dataSource.getPrice(_vendorId, _rpid, _date, _token);\n    }\n}",
  "sourcePath": "/Users/Kirn/Documents/Workspace/Trip.io/roomnight/truffle/contracts/extensions/TRNPrices.sol",
  "compiler": {
    "name": "solc",
    "version": "0.4.24+commit.e67f0147.Emscripten.clang"
  },
  "schemaVersion": "2.0.1",
  "updatedAt": "2018-11-07T07:56:22.624Z"
}