{
  "contractName": "TRNRatePlans",
  "abi": [
    {
      "constant": false,
      "inputs": [],
      "name": "acceptOwnership",
      "outputs": [],
      "payable": false,
      "stateMutability": "nonpayable",
      "type": "function"
    },
    {
      "constant": true,
      "inputs": [],
      "name": "owner",
      "outputs": [
        {
          "name": "",
          "type": "address"
        }
      ],
      "payable": false,
      "stateMutability": "view",
      "type": "function"
    },
    {
      "constant": true,
      "inputs": [],
      "name": "newOwner",
      "outputs": [
        {
          "name": "",
          "type": "address"
        }
      ],
      "payable": false,
      "stateMutability": "view",
      "type": "function"
    },
    {
      "constant": false,
      "inputs": [
        {
          "name": "_newOwner",
          "type": "address"
        }
      ],
      "name": "transferOwnership",
      "outputs": [],
      "payable": false,
      "stateMutability": "nonpayable",
      "type": "function"
    },
    {
      "inputs": [],
      "payable": false,
      "stateMutability": "nonpayable",
      "type": "constructor"
    },
    {
      "anonymous": false,
      "inputs": [
        {
          "indexed": true,
          "name": "_vendor",
          "type": "address"
        },
        {
          "indexed": false,
          "name": "_name",
          "type": "string"
        },
        {
          "indexed": true,
          "name": "_ipfs",
          "type": "bytes32"
        }
      ],
      "name": "RatePlanCreated",
      "type": "event"
    },
    {
      "anonymous": false,
      "inputs": [
        {
          "indexed": true,
          "name": "_vendor",
          "type": "address"
        },
        {
          "indexed": true,
          "name": "_rpid",
          "type": "uint256"
        }
      ],
      "name": "RatePlanRemoved",
      "type": "event"
    },
    {
      "anonymous": false,
      "inputs": [
        {
          "indexed": true,
          "name": "_vendor",
          "type": "address"
        },
        {
          "indexed": true,
          "name": "_rpid",
          "type": "uint256"
        },
        {
          "indexed": false,
          "name": "name",
          "type": "string"
        },
        {
          "indexed": false,
          "name": "_ipfs",
          "type": "bytes32"
        }
      ],
      "name": "RatePlanModified",
      "type": "event"
    },
    {
      "anonymous": false,
      "inputs": [
        {
          "indexed": true,
          "name": "from",
          "type": "address"
        },
        {
          "indexed": true,
          "name": "to",
          "type": "address"
        }
      ],
      "name": "OwnershipTransferred",
      "type": "event"
    },
    {
      "constant": false,
      "inputs": [
        {
          "name": "_name",
          "type": "string"
        },
        {
          "name": "_ipfs",
          "type": "bytes32"
        }
      ],
      "name": "createRatePlan",
      "outputs": [
        {
          "name": "",
          "type": "uint256"
        }
      ],
      "payable": false,
      "stateMutability": "nonpayable",
      "type": "function"
    },
    {
      "constant": false,
      "inputs": [
        {
          "name": "_rpid",
          "type": "uint256"
        }
      ],
      "name": "removeRatePlan",
      "outputs": [
        {
          "name": "",
          "type": "bool"
        }
      ],
      "payable": false,
      "stateMutability": "nonpayable",
      "type": "function"
    },
    {
      "constant": false,
      "inputs": [
        {
          "name": "_rpid",
          "type": "uint256"
        },
        {
          "name": "_name",
          "type": "string"
        },
        {
          "name": "_ipfs",
          "type": "bytes32"
        }
      ],
      "name": "modifyRatePlan",
      "outputs": [
        {
          "name": "",
          "type": "bool"
        }
      ],
      "payable": false,
      "stateMutability": "nonpayable",
      "type": "function"
    },
    {
      "constant": true,
      "inputs": [
        {
          "name": "_vendorId",
          "type": "uint256"
        },
        {
          "name": "_from",
          "type": "uint256"
        },
        {
          "name": "_limit",
          "type": "uint256"
        }
      ],
      "name": "ratePlansOfVendor",
      "outputs": [
        {
          "name": "",
          "type": "uint256[]"
        },
        {
          "name": "",
          "type": "uint256"
        }
      ],
      "payable": false,
      "stateMutability": "view",
      "type": "function"
    },
    {
      "constant": true,
      "inputs": [
        {
          "name": "_vendorId",
          "type": "uint256"
        },
        {
          "name": "_rpid",
          "type": "uint256"
        }
      ],
      "name": "ratePlanOfVendor",
      "outputs": [
        {
          "name": "_name",
          "type": "string"
        },
        {
          "name": "_timestamp",
          "type": "uint256"
        },
        {
          "name": "_ipfs",
          "type": "bytes32"
        }
      ],
      "payable": false,
      "stateMutability": "view",
      "type": "function"
    }
  ],
  "bytecode": "0x608060405234801561001057600080fd5b5060008054600160a060020a031916331790556114f5806100326000396000f30060806040526004361061007f5763ffffffff60e060020a60003504166317a5f8cc811461008457806333c6cdd3146100ba57806341348053146100f55780634ace9ccc1461019657806379ba50971461020f5780638da5cb5b14610226578063d4ee1d9014610257578063e8672de91461026c578063f2fde38b14610284575b600080fd5b34801561009057600080fd5b506100a86024600480358281019291013590356102a5565b60408051918252519081900360200190f35b3480156100c657600080fd5b506100e16004803590602480359081019101356044356105d1565b604080519115158252519081900360200190f35b34801561010157600080fd5b50610110600435602435610b03565b6040805160208082018590529181018390526060808252855190820152845190918291608083019187019080838360005b83811015610159578181015183820152602001610141565b50505050905090810190601f1680156101865780820380516001836020036101000a031916815260200191505b5094505050505060405180910390f35b3480156101a257600080fd5b506101b4600435602435604435610d0f565b6040518080602001838152602001828103825284818151815260200191508051906020019060200280838360005b838110156101fa5781810151838201526020016101e2565b50505050905001935050505060405180910390f35b34801561021b57600080fd5b50610224610f17565b005b34801561023257600080fd5b5061023b610f9f565b60408051600160a060020a039092168252519081900360200190f35b34801561026357600080fd5b5061023b610fae565b34801561027857600080fd5b506100e1600435610fbd565b34801561029057600080fd5b50610224600160a060020a0360043516611483565b6002546040805160e460020a630e7dd975028152336004820152905160009260609284928392600160a060020a03169163e7dd975091602480830192602092919082900301818787803b1580156102fb57600080fd5b505af115801561030f573d6000803e3d6000fd5b505050506040513d602081101561032557600080fd5b505115156103d857600254604080517fe65d971700000000000000000000000000000000000000000000000000000000815233602482015260006044820181905260606004830152606482018190529151600160a060020a039093169263e65d97179260a480840193602093929083900390910190829087803b1580156103ab57600080fd5b505af11580156103bf573d6000803e3d6000fd5b505050506040513d60208110156103d557600080fd5b50505b86868080601f01602080910402602001604051908101604052809392919081815260200183838082843782019150505050505092506000835111801561041f575060c88351105b151561042a57600080fd5b6002546040805160e460020a630e7dd9750281523360048201529051600160a060020a039092169163e7dd9750916024808201926020929091908290030181600087803b15801561047a57600080fd5b505af115801561048e573d6000803e3d6000fd5b505050506040513d60208110156104a457600080fd5b50516002546040517f114616140000000000000000000000000000000000000000000000000000000081526004810183815260448201899052600060648301819052608060248401908152608484018c9052949650600160a060020a039093169363114616149387938d938d938d939260a40186868082843782019150509650505050505050602060405180830381600087803b15801561054457600080fd5b505af1158015610558573d6000803e3d6000fd5b505050506040513d602081101561056e57600080fd5b50516040805160208082528101899052919250869133917f1a7199d7eed903910d73fec186e40650531a090d0698d4d8545edcc732d60fbe918b918b91908190810184848082843760405192018290039550909350505050a39695505050505050565b6002546040805160e460020a630e7dd9750281523360048201529051600092839283928392600160a060020a03169163e7dd975091602480830192602092919082900301818787803b15801561062657600080fd5b505af115801561063a573d6000803e3d6000fd5b505050506040513d602081101561065057600080fd5b505191506000821161066157600080fd5b6002546040805160e060020a6365de1eb3028152600481018590529051600160a060020a03909216916365de1eb39160248082019260009290919082900301818387803b1580156106b157600080fd5b505af11580156106c5573d6000803e3d6000fd5b505050506040513d6000823e601f3d908101601f1916820160405260808110156106ee57600080fd5b81019080805164010000000081111561070657600080fd5b8201602081018481111561071957600080fd5b815164010000000081118282018710171561073357600080fd5b505050606001519250505080151561074a57600080fd5b6002546040805160e460020a630e7dd9750281523360048201529051600160a060020a039092169163e7dd9750916024808201926020929091908290030181600087803b15801561079a57600080fd5b505af11580156107ae573d6000803e3d6000fd5b505050506040513d60208110156107c457600080fd5b50516002546040805160e060020a6365de1eb30281526004810184905290518b92600092600160a060020a03909116916365de1eb391602480820192869290919082900301818387803b15801561081a57600080fd5b505af115801561082e573d6000803e3d6000fd5b505050506040513d6000823e601f3d908101601f19168201604052608081101561085757600080fd5b81019080805164010000000081111561086f57600080fd5b8201602081018481111561088257600080fd5b815164010000000081118282018710171561089c57600080fd5b50505060600151925050508015156108b357600080fd5b600254604080517f6b65a83400000000000000000000000000000000000000000000000000000000815260048101869052602481018590529051600160a060020a0390921691636b65a834916044808201926020929091908290030181600087803b15801561092157600080fd5b505af1158015610935573d6000803e3d6000fd5b505050506040513d602081101561094b57600080fd5b5051151561095857600080fd5b6002546040805160e460020a630e7dd9750281523360048201529051600160a060020a039092169163e7dd9750916024808201926020929091908290030181600087803b1580156109a857600080fd5b505af11580156109bc573d6000803e3d6000fd5b505050506040513d60208110156109d257600080fd5b81019080805190602001909291905050509550600260009054906101000a9004600160a060020a0316600160a060020a031663074c32c4878d8d8d8d6040518663ffffffff1660e060020a02815260040180868152602001858152602001806020018360001916600019168152602001828103825285858281815260200192508082843782019150509650505050505050600060405180830381600087803b158015610a7d57600080fd5b505af1158015610a91573d6000803e3d6000fd5b505060408051602081018c90528181529081018c90528d92503391507f808317aa9eb7f0938d449dd1ebb90ec654a4cdc840bf89eb095ce85cff14a48c908d908d908d9080606081018585808284376040519201829003965090945050505050a35060019a9950505050505050505050565b6060600080846000600260009054906101000a9004600160a060020a0316600160a060020a03166365de1eb3836040518263ffffffff1660e060020a02815260040180828152602001915050600060405180830381600087803b158015610b6957600080fd5b505af1158015610b7d573d6000803e3d6000fd5b505050506040513d6000823e601f3d908101601f191682016040526080811015610ba657600080fd5b810190808051640100000000811115610bbe57600080fd5b82016020810184811115610bd157600080fd5b8151640100000000811182820187101715610beb57600080fd5b5050506060015192505050801515610c0257600080fd5b600254604080517f762fdc0c000000000000000000000000000000000000000000000000000000008152600481018a9052602481018990529051600160a060020a039092169163762fdc0c9160448082019260009290919082900301818387803b158015610c6f57600080fd5b505af1158015610c83573d6000803e3d6000fd5b505050506040513d6000823e601f3d908101601f191682016040526060811015610cac57600080fd5b810190808051640100000000811115610cc457600080fd5b82016020810184811115610cd757600080fd5b8151640100000000811182820187101715610cf157600080fd5b50506020820151604090920151909b919a5098509650505050505050565b6002546040805160e060020a6365de1eb302815260048101869052905160609260009287928492600160a060020a0316916365de1eb3916024808301928692919082900301818387803b158015610d6557600080fd5b505af1158015610d79573d6000803e3d6000fd5b505050506040513d6000823e601f3d908101601f191682016040526080811015610da257600080fd5b810190808051640100000000811115610dba57600080fd5b82016020810184811115610dcd57600080fd5b8151640100000000811182820187101715610de757600080fd5b5050506060015192505050801515610dfe57600080fd5b600254604080517f544f43e3000000000000000000000000000000000000000000000000000000008152600481018a90526024810189905260448101889052600160648201529051600160a060020a039092169163544f43e39160848082019260009290919082900301818387803b158015610e7957600080fd5b505af1158015610e8d573d6000803e3d6000fd5b505050506040513d6000823e601f3d908101601f191682016040908152811015610eb657600080fd5b810190808051640100000000811115610ece57600080fd5b82016020810184811115610ee157600080fd5b8151856020820283011164010000000082111715610efe57600080fd5b5050602090910151909650945050505050935093915050565b600154600160a060020a03163314610f2e57600080fd5b60015460008054604051600160a060020a0393841693909116917f8be0079c531659141344cd1fd0a4f28419497f9722a3daafe3b4186f6b6457e091a3600180546000805473ffffffffffffffffffffffffffffffffffffffff19908116600160a060020a03841617909155169055565b600054600160a060020a031681565b600154600160a060020a031681565b6002546040805160e460020a630e7dd9750281523360048201529051600092839283928392600160a060020a03169163e7dd975091602480830192602092919082900301818787803b15801561101257600080fd5b505af1158015611026573d6000803e3d6000fd5b505050506040513d602081101561103c57600080fd5b505191506000821161104d57600080fd5b6002546040805160e060020a6365de1eb3028152600481018590529051600160a060020a03909216916365de1eb39160248082019260009290919082900301818387803b15801561109d57600080fd5b505af11580156110b1573d6000803e3d6000fd5b505050506040513d6000823e601f3d908101601f1916820160405260808110156110da57600080fd5b8101908080516401000000008111156110f257600080fd5b8201602081018481111561110557600080fd5b815164010000000081118282018710171561111f57600080fd5b505050606001519250505080151561113657600080fd5b6002546040805160e460020a630e7dd9750281523360048201529051600160a060020a039092169163e7dd9750916024808201926020929091908290030181600087803b15801561118657600080fd5b505af115801561119a573d6000803e3d6000fd5b505050506040513d60208110156111b057600080fd5b50516002546040805160e060020a6365de1eb30281526004810184905290518892600092600160a060020a03909116916365de1eb391602480820192869290919082900301818387803b15801561120657600080fd5b505af115801561121a573d6000803e3d6000fd5b505050506040513d6000823e601f3d908101601f19168201604052608081101561124357600080fd5b81019080805164010000000081111561125b57600080fd5b8201602081018481111561126e57600080fd5b815164010000000081118282018710171561128857600080fd5b505050606001519250505080151561129f57600080fd5b600254604080517f6b65a83400000000000000000000000000000000000000000000000000000000815260048101869052602481018590529051600160a060020a0390921691636b65a834916044808201926020929091908290030181600087803b15801561130d57600080fd5b505af1158015611321573d6000803e3d6000fd5b505050506040513d602081101561133757600080fd5b5051151561134457600080fd5b6002546040805160e460020a630e7dd9750281523360048201529051600160a060020a039092169163e7dd9750916024808201926020929091908290030181600087803b15801561139457600080fd5b505af11580156113a8573d6000803e3d6000fd5b505050506040513d60208110156113be57600080fd5b5051600254604080517f786e479900000000000000000000000000000000000000000000000000000000815260048101849052602481018c90529051929850600160a060020a039091169163786e47999160448082019260009290919082900301818387803b15801561143057600080fd5b505af1158015611444573d6000803e3d6000fd5b50506040518a92503391507fc8637ab25619c69fd066be8eba8adcf7e550f47deb35e9e3c02574fa0fa716d890600090a3506001979650505050505050565b600054600160a060020a0316331461149a57600080fd5b6001805473ffffffffffffffffffffffffffffffffffffffff1916600160a060020a03929092169190911790555600a165627a7a72305820493fd7deaf6fd90a70576335b34c40613e604ed94501a3daa5fb3486a7a00b9e0029",
  "source": "pragma solidity ^0.4.24;\n\nimport \"./TRNData.sol\";\n\ncontract TRNRatePlans is TRNData {\n    /**\n     * Constructor\n     */\n    constructor() public {\n\n    }\n\n    /**\n     * This emits when rate plan created\n     */\n    event RatePlanCreated(address indexed _vendor, string _name, bytes32 indexed _ipfs);\n\n    /**\n     * This emits when rate plan removed\n     */\n    event RatePlanRemoved(address indexed _vendor, uint256 indexed _rpid);\n\n    /**\n     * This emits when rate plan modified\n     */\n    event RatePlanModified(address indexed _vendor, uint256 indexed _rpid, string name, bytes32 _ipfs);\n\n    /**\n     * @dev Create rate plan\n     *      Only vendor can operate\n     *      Throw when `_name`'s length lte 0 or mte 100.\n     * @param _name The name of rate plan\n     * @param _ipfs The address of the rate plan detail info on IPFS.\n     */\n    function createRatePlan(string _name, bytes32 _ipfs) \n        external \n        // onlyVendor \n        returns(uint256) {\n        // if vendor not exist create it\n        if(dataSource.vendorIds(msg.sender) == 0) {\n            dataSource.pushVendor(\"\", msg.sender, false);\n        }\n        bytes memory nameBytes = bytes(_name);\n        require(nameBytes.length > 0 && nameBytes.length < 200);\n    \n        uint256 vendorId = dataSource.vendorIds(msg.sender);\n        uint256 id = dataSource.pushRatePlan(vendorId, _name, _ipfs, false);\n        \n        // Event \n        emit RatePlanCreated(msg.sender, _name, _ipfs);\n\n        return id;\n    }\n    \n    /**\n     * @dev Remove rate plan\n     *      Only vendor can operate\n     *      Throw when `_rpid` not exist\n     * @param _rpid The rate plan identifier\n     */\n    function removeRatePlan(uint256 _rpid) \n        external \n        onlyVendor \n        ratePlanExist(dataSource.vendorIds(msg.sender), _rpid) \n        returns(bool) {\n        uint256 vendorId = dataSource.vendorIds(msg.sender);\n\n        // Delete rate plan\n        dataSource.removeRatePlan(vendorId, _rpid);\n        \n        // Event \n        emit RatePlanRemoved(msg.sender, _rpid);\n        return true;\n    }\n\n    /**\n     * @dev Modify rate plan\n     *      Throw when `_rpid` not exist\n     * @param _rpid The rate plan identifier\n     * @param _ipfs The address of the rate plan detail info on IPFS\n     */\n    function modifyRatePlan(uint256 _rpid, string _name, bytes32 _ipfs) \n        external \n        onlyVendor \n        ratePlanExist(dataSource.vendorIds(msg.sender), _rpid) \n        returns(bool) {\n\n        uint256 vendorId = dataSource.vendorIds(msg.sender);\n        dataSource.updateRatePlan(vendorId, _rpid, _name, _ipfs);\n\n        // Event \n        emit RatePlanModified(msg.sender, _rpid, _name, _ipfs);\n        return true;\n    }\n\n    /**\n     * @dev Returns a list of all rate plan IDs assigned to a vendor.\n     * @param _vendorId The Id of vendor\n     * @param _from The begin ratePlan Id\n     * @param _limit How many ratePlan Ids one page \n     * @return A list of all rate plan IDs assigned to a vendor\n     */\n    function ratePlansOfVendor(uint256 _vendorId, uint256 _from, uint256 _limit) \n        external\n        view\n        vendorIdValid(_vendorId)  \n        returns(uint256[], uint256) {\n        return dataSource.getRatePlansOfVendor(_vendorId, _from, _limit, true);\n    }\n\n    /**\n     * @dev Returns ratePlan info of vendor\n     * @param _vendorId The address of vendor\n     * @param _rpid The ratePlan id\n     * @return The ratePlan info(_name, _timestamp, _ipfs)\n     */\n    function ratePlanOfVendor(uint256 _vendorId, uint256 _rpid) \n        external \n        view \n        vendorIdValid(_vendorId) \n        returns(string _name, uint256 _timestamp, bytes32 _ipfs) {\n        (_name, _timestamp, _ipfs) = dataSource.getRatePlan(_vendorId, _rpid);\n    }\n}",
  "sourcePath": "/Users/Kirn/Documents/Workspace/Trip.io/roomnight/truffle/contracts/extensions/TRNRatePlans.sol",
  "compiler": {
    "name": "solc",
    "version": "0.4.24+commit.e67f0147.Emscripten.clang"
  },
  "schemaVersion": "2.0.1",
  "updatedAt": "2018-11-07T07:56:22.632Z"
}