{
  "contractName": "TRNSupportsInterface",
  "abi": [
    {
      "constant": false,
      "inputs": [],
      "name": "acceptOwnership",
      "outputs": [],
      "payable": false,
      "stateMutability": "nonpayable",
      "type": "function"
    },
    {
      "constant": true,
      "inputs": [],
      "name": "owner",
      "outputs": [
        {
          "name": "",
          "type": "address"
        }
      ],
      "payable": false,
      "stateMutability": "view",
      "type": "function"
    },
    {
      "constant": true,
      "inputs": [],
      "name": "newOwner",
      "outputs": [
        {
          "name": "",
          "type": "address"
        }
      ],
      "payable": false,
      "stateMutability": "view",
      "type": "function"
    },
    {
      "constant": false,
      "inputs": [
        {
          "name": "_newOwner",
          "type": "address"
        }
      ],
      "name": "transferOwnership",
      "outputs": [],
      "payable": false,
      "stateMutability": "nonpayable",
      "type": "function"
    },
    {
      "inputs": [],
      "payable": false,
      "stateMutability": "nonpayable",
      "type": "constructor"
    },
    {
      "anonymous": false,
      "inputs": [
        {
          "indexed": true,
          "name": "from",
          "type": "address"
        },
        {
          "indexed": true,
          "name": "to",
          "type": "address"
        }
      ],
      "name": "OwnershipTransferred",
      "type": "event"
    },
    {
      "constant": true,
      "inputs": [
        {
          "name": "interfaceID",
          "type": "bytes4"
        }
      ],
      "name": "supportsInterface",
      "outputs": [
        {
          "name": "",
          "type": "bool"
        }
      ],
      "payable": false,
      "stateMutability": "view",
      "type": "function"
    }
  ],
  "bytecode": "0x608060405234801561001057600080fd5b5060008054600160a060020a03191633179055610404806100326000396000f3006080604052600436106100535763ffffffff60e060020a60003504166301ffc9a7811461005857806379ba50971461008e5780638da5cb5b146100a5578063d4ee1d90146100d6578063f2fde38b146100eb575b600080fd5b34801561006457600080fd5b5061007a600160e060020a03196004351661010c565b604080519115158252519081900360200190f35b34801561009a57600080fd5b506100a36102ec565b005b3480156100b157600080fd5b506100ba610374565b60408051600160a060020a039092168252519081900360200190f35b3480156100e257600080fd5b506100ba610383565b3480156100f757600080fd5b506100a3600160a060020a0360043516610392565b600254604080517f5e0f9e060000000000000000000000000000000000000000000000000000000081529051600092600160a060020a031691635e0f9e0691600480830192602092919082900301818787803b15801561016b57600080fd5b505af115801561017f573d6000803e3d6000fd5b505050506040513d602081101561019557600080fd5b5051600160e060020a03198381169116148061023b5750600260009054906101000a9004600160a060020a0316600160a060020a031663c1752ef16040518163ffffffff1660e060020a028152600401602060405180830381600087803b1580156101ff57600080fd5b505af1158015610213573d6000803e3d6000fd5b505050506040513d602081101561022957600080fd5b5051600160e060020a03198381169116145b806102d05750600260009054906101000a9004600160a060020a0316600160a060020a0316633f2e681c6040518163ffffffff1660e060020a028152600401602060405180830381600087803b15801561029457600080fd5b505af11580156102a8573d6000803e3d6000fd5b505050506040513d60208110156102be57600080fd5b5051600160e060020a03198381169116145b80156102e65750600160e060020a031980831614155b92915050565b600154600160a060020a0316331461030357600080fd5b60015460008054604051600160a060020a0393841693909116917f8be0079c531659141344cd1fd0a4f28419497f9722a3daafe3b4186f6b6457e091a3600180546000805473ffffffffffffffffffffffffffffffffffffffff19908116600160a060020a03841617909155169055565b600054600160a060020a031681565b600154600160a060020a031681565b600054600160a060020a031633146103a957600080fd5b6001805473ffffffffffffffffffffffffffffffffffffffff1916600160a060020a03929092169190911790555600a165627a7a72305820ec9ff8b1a29bfc2fe7011761f30d2f1006e83aa85da22d85c19ea26afe78d5e30029",
  "source": "pragma solidity ^0.4.24;\n\nimport \"../721/ERC165.sol\";\nimport \"./TRNData.sol\";\n\ncontract TRNSupportsInterface is TRNData, ERC165 {\n    /**\n     * Constructor\n     */\n    constructor() public {\n\n    }\n\n    /**\n     * @dev Query if a contract implements an interface\n     * @param interfaceID The interface identifier, as specified in ERC-165\n     * @return true if the contract implements `interfaceID` \n     * and `interfaceID` is not 0xffffffff, false otherwise\n     */\n    function supportsInterface(bytes4 interfaceID) \n        external \n        view \n        returns (bool) {\n        return ((interfaceID == dataSource.interfaceSignature_ERC165()) ||\n        (interfaceID == dataSource.interfaceSignature_ERC721Metadata()) ||\n        (interfaceID == dataSource.interfaceSignature_ERC721())) &&\n        (interfaceID != 0xffffffff);\n    }\n}",
  "sourcePath": "/Users/Kirn/Documents/Workspace/Dawn/tripio-roomnight/truffle/contracts/extensions/TRNSupportsInterface.sol",
  "compiler": {
    "name": "solc",
    "version": "0.4.24+commit.e67f0147.Emscripten.clang"
  },
  "schemaVersion": "2.0.1",
  "updatedAt": "2018-08-31T07:11:19.144Z"
}