{
  "contractName": "TRNTokens",
  "abi": [
    {
      "constant": false,
      "inputs": [],
      "name": "acceptOwnership",
      "outputs": [],
      "payable": false,
      "stateMutability": "nonpayable",
      "type": "function"
    },
    {
      "constant": true,
      "inputs": [],
      "name": "owner",
      "outputs": [
        {
          "name": "",
          "type": "address"
        }
      ],
      "payable": false,
      "stateMutability": "view",
      "type": "function"
    },
    {
      "constant": true,
      "inputs": [],
      "name": "newOwner",
      "outputs": [
        {
          "name": "",
          "type": "address"
        }
      ],
      "payable": false,
      "stateMutability": "view",
      "type": "function"
    },
    {
      "constant": false,
      "inputs": [
        {
          "name": "_newOwner",
          "type": "address"
        }
      ],
      "name": "transferOwnership",
      "outputs": [],
      "payable": false,
      "stateMutability": "nonpayable",
      "type": "function"
    },
    {
      "inputs": [],
      "payable": false,
      "stateMutability": "nonpayable",
      "type": "constructor"
    },
    {
      "anonymous": false,
      "inputs": [
        {
          "indexed": true,
          "name": "_token",
          "type": "address"
        }
      ],
      "name": "TokenAdded",
      "type": "event"
    },
    {
      "anonymous": false,
      "inputs": [
        {
          "indexed": false,
          "name": "_index",
          "type": "uint256"
        }
      ],
      "name": "TokenRemoved",
      "type": "event"
    },
    {
      "anonymous": false,
      "inputs": [
        {
          "indexed": true,
          "name": "from",
          "type": "address"
        },
        {
          "indexed": true,
          "name": "to",
          "type": "address"
        }
      ],
      "name": "OwnershipTransferred",
      "type": "event"
    },
    {
      "constant": false,
      "inputs": [
        {
          "name": "_contract",
          "type": "address"
        }
      ],
      "name": "addToken",
      "outputs": [
        {
          "name": "",
          "type": "uint256"
        }
      ],
      "payable": false,
      "stateMutability": "nonpayable",
      "type": "function"
    },
    {
      "constant": false,
      "inputs": [
        {
          "name": "_tokenId",
          "type": "uint256"
        }
      ],
      "name": "removeToken",
      "outputs": [
        {
          "name": "",
          "type": "bool"
        }
      ],
      "payable": false,
      "stateMutability": "nonpayable",
      "type": "function"
    },
    {
      "constant": true,
      "inputs": [
        {
          "name": "_from",
          "type": "uint256"
        },
        {
          "name": "_limit",
          "type": "uint256"
        }
      ],
      "name": "supportedTokens",
      "outputs": [
        {
          "name": "",
          "type": "uint256[]"
        },
        {
          "name": "",
          "type": "uint256"
        }
      ],
      "payable": false,
      "stateMutability": "view",
      "type": "function"
    },
    {
      "constant": true,
      "inputs": [
        {
          "name": "_tokenId",
          "type": "uint256"
        }
      ],
      "name": "getToken",
      "outputs": [
        {
          "name": "_symbol",
          "type": "string"
        },
        {
          "name": "_name",
          "type": "string"
        },
        {
          "name": "_decimals",
          "type": "uint8"
        },
        {
          "name": "_token",
          "type": "address"
        }
      ],
      "payable": false,
      "stateMutability": "view",
      "type": "function"
    }
  ],
  "bytecode": "0x608060405234801561001057600080fd5b5060008054600160a060020a031916331790556108f9806100326000396000f30060806040526004361061008d5763ffffffff7c010000000000000000000000000000000000000000000000000000000060003504166336c5d724811461009257806379ba5097146100be5780638da5cb5b146100d5578063d48bfca714610106578063d4ee1d9014610139578063e4b50cb81461014e578063f2fde38b1461025e578063f6b6daf11461027f575b600080fd5b34801561009e57600080fd5b506100aa6004356102f5565b604080519115158252519081900360200190f35b3480156100ca57600080fd5b506100d361046d565b005b3480156100e157600080fd5b506100ea6104f5565b60408051600160a060020a039092168252519081900360200190f35b34801561011257600080fd5b50610127600160a060020a0360043516610504565b60408051918252519081900360200190f35b34801561014557600080fd5b506100ea61060d565b34801561015a57600080fd5b5061016660043561061c565b6040805160ff841691810191909152600160a060020a038216606082015260808082528551908201528451819060208083019160a084019189019080838360005b838110156101bf5781810151838201526020016101a7565b50505050905090810190601f1680156101ec5780820380516001836020036101000a031916815260200191505b50838103825286518152865160209182019188019080838360005b8381101561021f578181015183820152602001610207565b50505050905090810190601f16801561024c5780820380516001836020036101000a031916815260200191505b50965050505050505060405180910390f35b34801561026a57600080fd5b506100d3600160a060020a0360043516610773565b34801561028b57600080fd5b5061029a6004356024356107b9565b6040518080602001838152602001828103825284818151815260200191508051906020019060200280838360005b838110156102e05781810151838201526020016102c8565b50505050905001935050505060405180910390f35b60008054600160a060020a0316331461030d57600080fd5b600254604080517fa306cdeb000000000000000000000000000000000000000000000000000000008152600481018590529051600092600160a060020a03169163a306cdeb91602480830192602092919082900301818787803b15801561037357600080fd5b505af1158015610387573d6000803e3d6000fd5b505050506040513d602081101561039d57600080fd5b5051600160a060020a031614156103b357600080fd5b600254604080517f36c5d724000000000000000000000000000000000000000000000000000000008152600481018590529051600160a060020a03909216916336c5d7249160248082019260009290919082900301818387803b15801561041957600080fd5b505af115801561042d573d6000803e3d6000fd5b50506040805185815290517f337873a743d1e7b8ab9c5375c7ecefc6e607c7c85882183a8d06cfa33f8786429350908190036020019150a1506001919050565b600154600160a060020a0316331461048457600080fd5b60015460008054604051600160a060020a0393841693909116917f8be0079c531659141344cd1fd0a4f28419497f9722a3daafe3b4186f6b6457e091a3600180546000805473ffffffffffffffffffffffffffffffffffffffff19908116600160a060020a03841617909155169055565b600054600160a060020a031681565b600080548190600160a060020a0316331461051e57600080fd5b600160a060020a038316151561053357600080fd5b600254604080517ff0bd9ab5000000000000000000000000000000000000000000000000000000008152600160a060020a038681166004830152600060248301819052925193169263f0bd9ab592604480840193602093929083900390910190829087803b1580156105a457600080fd5b505af11580156105b8573d6000803e3d6000fd5b505050506040513d60208110156105ce57600080fd5b5051604051909150600160a060020a038416907f784c8f4dbf0ffedd6e72c76501c545a70f8b203b30a26ce542bf92ba87c248a490600090a292915050565b600154600160a060020a031681565b600254604080517fe4b50cb800000000000000000000000000000000000000000000000000000000815260048101849052905160609283926000928392600160a060020a03169163e4b50cb8916024808301928692919082900301818387803b15801561068857600080fd5b505af115801561069c573d6000803e3d6000fd5b505050506040513d6000823e601f3d908101601f1916820160405260808110156106c557600080fd5b8101908080516401000000008111156106dd57600080fd5b820160208101848111156106f057600080fd5b815164010000000081118282018710171561070a57600080fd5b5050929190602001805164010000000081111561072657600080fd5b8201602081018481111561073957600080fd5b815164010000000081118282018710171561075357600080fd5b505060208201516040909201519498509650945091925050509193509193565b600054600160a060020a0316331461078a57600080fd5b6001805473ffffffffffffffffffffffffffffffffffffffff1916600160a060020a0392909216919091179055565b600254604080517feee948050000000000000000000000000000000000000000000000000000000081526004810185905260248101849052600160448201529051606092600092600160a060020a039091169163eee9480591606480820192869290919082900301818387803b15801561083257600080fd5b505af1158015610846573d6000803e3d6000fd5b505050506040513d6000823e601f3d908101601f19168201604090815281101561086f57600080fd5b81019080805164010000000081111561088757600080fd5b8201602081018481111561089a57600080fd5b81518560208202830111640100000000821117156108b757600080fd5b50506020909101519094509250505092509290505600a165627a7a7230582070083ce5cdd51a281bdf615e187aa10399b323894cb8a25a538ee82f6ea3e39c0029",
  "source": "pragma solidity ^0.4.24;\n\nimport \"./TripioToken.sol\";\nimport \"./TRNData.sol\";\n\ncontract TRNTokens is TRNData {\n    /**\n     * Constructor\n     */\n    constructor() public {\n\n    }\n    /**\n     * This emits when token contract is added\n     */\n    event TokenAdded(address indexed _token);\n\n    /**\n     * This emits when token contract is removed\n     */\n    event TokenRemoved(uint256 _index);\n\n    /**\n     * @dev Add supported digital currency token\n     *      Only owner can operate\n     * @param _contract The address of digital currency contract\n     */\n    function addToken(address _contract) \n        external \n        onlyOwner \n        returns(uint256) {\n        require(_contract != address(0));\n        uint256 id = dataSource.pushToken(_contract, false);\n        // Event \n        emit TokenAdded(_contract);\n        return id;\n    }\n\n    /**\n     * @dev Remove digital currency token\n     *      Only owner can operate\n     * @param _tokenId The index of digital currency contract\n     */\n    function removeToken(uint256 _tokenId) \n        external \n        onlyOwner \n        returns(bool){\n        require(dataSource.tokenIndexToAddress(_tokenId) != address(0));\n        dataSource.removeToken(_tokenId);\n        // Event\n        emit TokenRemoved(_tokenId);\n        return true;\n    }\n\n    /**\n     * @dev Returns all the supported digital currency tokens\n     * @param _from The begin tokenId\n     * @param _limit How many tokenIds one page \n     * @return All the supported digital currency tokens\n     */\n\n    function supportedTokens(uint256 _from, uint256 _limit) \n        external \n        view \n        returns(uint256[], uint256) {\n        return dataSource.getTokens(_from, _limit, true);\n    }\n\n    /**\n     * @dev Return the token info\n     * @param _tokenId The token Id\n     * @return The token info(symbol, name, decimals)\n     */\n    function getToken(uint256 _tokenId) \n        external\n        view \n        returns(string _symbol, string _name, uint8 _decimals, address _token) {\n        return dataSource.getToken(_tokenId);\n    }\n}\n",
  "sourcePath": "/Users/Kirn/Documents/Workspace/Trip.io/roomnight/truffle/contracts/extensions/TRNTokens.sol",
  "compiler": {
    "name": "solc",
    "version": "0.4.24+commit.e67f0147.Emscripten.clang"
  },
  "schemaVersion": "2.0.1",
  "updatedAt": "2018-11-07T07:56:22.628Z"
}