{
  "contractName": "TRNTransactions",
  "abi": [
    {
      "constant": true,
      "inputs": [
        {
          "name": "_rnid",
          "type": "uint256"
        }
      ],
      "name": "roomNight",
      "outputs": [
        {
          "name": "_vendorId",
          "type": "uint256"
        },
        {
          "name": "_rpid",
          "type": "uint256"
        },
        {
          "name": "_token",
          "type": "uint256"
        },
        {
          "name": "_price",
          "type": "uint256"
        },
        {
          "name": "_timestamp",
          "type": "uint256"
        },
        {
          "name": "_date",
          "type": "uint256"
        },
        {
          "name": "_ipfs",
          "type": "bytes32"
        },
        {
          "name": "_name",
          "type": "string"
        }
      ],
      "payable": false,
      "stateMutability": "view",
      "type": "function"
    },
    {
      "constant": false,
      "inputs": [],
      "name": "acceptOwnership",
      "outputs": [],
      "payable": false,
      "stateMutability": "nonpayable",
      "type": "function"
    },
    {
      "constant": true,
      "inputs": [
        {
          "name": "_from",
          "type": "uint256"
        },
        {
          "name": "_limit",
          "type": "uint256"
        },
        {
          "name": "_isVendor",
          "type": "bool"
        }
      ],
      "name": "roomNightsOfOwner",
      "outputs": [
        {
          "name": "",
          "type": "uint256[]"
        },
        {
          "name": "",
          "type": "uint256"
        }
      ],
      "payable": false,
      "stateMutability": "view",
      "type": "function"
    },
    {
      "constant": true,
      "inputs": [],
      "name": "owner",
      "outputs": [
        {
          "name": "",
          "type": "address"
        }
      ],
      "payable": false,
      "stateMutability": "view",
      "type": "function"
    },
    {
      "constant": true,
      "inputs": [],
      "name": "newOwner",
      "outputs": [
        {
          "name": "",
          "type": "address"
        }
      ],
      "payable": false,
      "stateMutability": "view",
      "type": "function"
    },
    {
      "constant": false,
      "inputs": [
        {
          "name": "_newOwner",
          "type": "address"
        }
      ],
      "name": "transferOwnership",
      "outputs": [],
      "payable": false,
      "stateMutability": "nonpayable",
      "type": "function"
    },
    {
      "inputs": [],
      "payable": false,
      "stateMutability": "nonpayable",
      "type": "constructor"
    },
    {
      "anonymous": false,
      "inputs": [
        {
          "indexed": true,
          "name": "_customer",
          "type": "address"
        },
        {
          "indexed": true,
          "name": "_vendor",
          "type": "address"
        },
        {
          "indexed": true,
          "name": "_rpid",
          "type": "uint256"
        },
        {
          "indexed": false,
          "name": "_dates",
          "type": "uint256[]"
        },
        {
          "indexed": false,
          "name": "_token",
          "type": "uint256"
        }
      ],
      "name": "BuyInBatch",
      "type": "event"
    },
    {
      "anonymous": false,
      "inputs": [
        {
          "indexed": false,
          "name": "_customer",
          "type": "address"
        },
        {
          "indexed": true,
          "name": "_rnid",
          "type": "uint256"
        },
        {
          "indexed": false,
          "name": "_isRefund",
          "type": "bool"
        }
      ],
      "name": "ApplyRefund",
      "type": "event"
    },
    {
      "anonymous": false,
      "inputs": [
        {
          "indexed": false,
          "name": "_vendor",
          "type": "address"
        },
        {
          "indexed": false,
          "name": "_rnid",
          "type": "uint256"
        }
      ],
      "name": "Refund",
      "type": "event"
    },
    {
      "anonymous": false,
      "inputs": [
        {
          "indexed": true,
          "name": "from",
          "type": "address"
        },
        {
          "indexed": true,
          "name": "to",
          "type": "address"
        }
      ],
      "name": "OwnershipTransferred",
      "type": "event"
    },
    {
      "constant": false,
      "inputs": [
        {
          "name": "_vendorId",
          "type": "uint256"
        },
        {
          "name": "_rpid",
          "type": "uint256"
        },
        {
          "name": "_dates",
          "type": "uint256[]"
        },
        {
          "name": "_token",
          "type": "uint256"
        }
      ],
      "name": "buyInBatch",
      "outputs": [
        {
          "name": "",
          "type": "bool"
        }
      ],
      "payable": true,
      "stateMutability": "payable",
      "type": "function"
    },
    {
      "constant": false,
      "inputs": [
        {
          "name": "_rnid",
          "type": "uint256"
        },
        {
          "name": "_isRefund",
          "type": "bool"
        }
      ],
      "name": "applyRefund",
      "outputs": [
        {
          "name": "",
          "type": "bool"
        }
      ],
      "payable": false,
      "stateMutability": "nonpayable",
      "type": "function"
    },
    {
      "constant": true,
      "inputs": [
        {
          "name": "_rnid",
          "type": "uint256"
        }
      ],
      "name": "isRefundApplied",
      "outputs": [
        {
          "name": "",
          "type": "bool"
        }
      ],
      "payable": false,
      "stateMutability": "view",
      "type": "function"
    },
    {
      "constant": false,
      "inputs": [
        {
          "name": "_rnid",
          "type": "uint256"
        }
      ],
      "name": "refund",
      "outputs": [
        {
          "name": "",
          "type": "bool"
        }
      ],
      "payable": true,
      "stateMutability": "payable",
      "type": "function"
    }
  ],
  "bytecode": "0x608060405234801561001057600080fd5b5060008054600160a060020a031916331790556123c2806100326000396000f30060806040526004361061008a5763ffffffff60e060020a600035041663278ecde1811461008f578063612ef6e9146100ae578063628c225c146100c657806379ba50971461018f578063899f107d146101a65780638da5cb5b14610221578063b08e0d3e14610252578063d4ee1d901461026f578063dfd17f2b14610284578063f2fde38b146102a2575b600080fd5b61009a6004356102c3565b604080519115158252519081900360200190f35b3480156100ba57600080fd5b5061009a6004356108e0565b3480156100d257600080fd5b506100de600435610a83565b60405180898152602001888152602001878152602001868152602001858152602001848152602001836000191660001916815260200180602001828103825283818151815260200191508051906020019080838360005b8381101561014d578181015183820152602001610135565b50505050905090810190601f16801561017a5780820380516001836020036101000a031916815260200191505b50995050505050505050505060405180910390f35b34801561019b57600080fd5b506101a4610c60565b005b3480156101b257600080fd5b506101c66004356024356044351515610ce8565b6040518080602001838152602001828103825284818151815260200191508051906020019060200280838360005b8381101561020c5781810151838201526020016101f4565b50505050905001935050505060405180910390f35b34801561022d57600080fd5b50610236610e88565b60408051600160a060020a039092168252519081900360200190f35b34801561025e57600080fd5b5061009a6004356024351515610e97565b34801561027b57600080fd5b506102366111fe565b61009a6004803590602480359160443591820191013560643561120d565b3480156102ae57600080fd5b506101a4600160a060020a036004351661161e565b60008080808080808080808a8181116102db57600080fd5b6002546040805160e060020a63e7f95c45028152600481018490529051600092600160a060020a03169163e7f95c4591602480830192602092919082900301818787803b15801561032b57600080fd5b505af115801561033f573d6000803e3d6000fd5b505050506040513d602081101561035557600080fd5b5051600160a060020a0316141561036b57600080fd5b6002546040805160e060020a63e7f95c45028152600481018f90529051600160a060020a03909216916330c7090391839163e7f95c45916024808201926020929091908290030181600087803b1580156103c457600080fd5b505af11580156103d8573d6000803e3d6000fd5b505050506040513d60208110156103ee57600080fd5b81019080805190602001909291905050508e6040518363ffffffff1660e060020a0281526004018083600160a060020a0316600160a060020a0316815260200182815260200192505050602060405180830381600087803b15801561045257600080fd5b505af1158015610466573d6000803e3d6000fd5b505050506040513d602081101561047c57600080fd5b5051151561048957600080fd5b600254604080517f3bdf5878000000000000000000000000000000000000000000000000000000008152600481018f90529051600160a060020a0390921691633bdf58789160248082019260e0929091908290030181600087803b1580156104f057600080fd5b505af1158015610504573d6000803e3d6000fd5b505050506040513d60e081101561051a57600080fd5b8101908080519060200190929190805190602001909291908051906020019092919080519060200190929190805190602001909291908051906020019092919080519060200190929190505050509a50509950995099509950600260009054906101000a9004600160a060020a0316600160a060020a03166365de1eb38b6040518263ffffffff1660e060020a02815260040180828152602001915050600060405180830381600087803b1580156105d157600080fd5b505af11580156105e5573d6000803e3d6000fd5b505050506040513d6000823e601f3d908101601f19168201604052608081101561060e57600080fd5b81019080805164010000000081111561062657600080fd5b8201602081018481111561063957600080fd5b815164010000000081118282018710171561065357600080fd5b5050506020015196505050600160a060020a038516331461067357600080fd5b6002546040805160e060020a63e7f95c45028152600481018f90529051600160a060020a039092169163e7f95c45916024808201926020929091908290030181600087803b1580156106c457600080fd5b505af11580156106d8573d6000803e3d6000fd5b505050506040513d60208110156106ee57600080fd5b50519350871515610745578692503483111561070957600080fd5b604051600160a060020a0385169084156108fc029085906000818181858888f1935050505015801561073f573d6000803e3d6000fd5b50610887565b6000871161075257600080fd5b600254604080517fa306cdeb000000000000000000000000000000000000000000000000000000008152600481018b90529051600160a060020a039092169163a306cdeb916024808201926020929091908290030181600087803b1580156107b957600080fd5b505af11580156107cd573d6000803e3d6000fd5b505050506040513d60208110156107e357600080fd5b5051604080517f23b872dd000000000000000000000000000000000000000000000000000000008152336004820152600160a060020a038781166024830152604482018b90529151929450908416916323b872dd916064808201926020929091908290030181600087803b15801561085a57600080fd5b505af115801561086e573d6000803e3d6000fd5b505050506040513d602081101561088457600080fd5b50505b6108938c8b8b89611664565b60408051338152602081018e905281517fbb28353e4598c3b9199101a66e0989549b659a59a54d2c27fbb183f1932c8e6d929181900390910190a15060019b9a5050505050505050505050565b6000818181116108ef57600080fd5b6002546040805160e060020a63e7f95c45028152600481018490529051600092600160a060020a03169163e7f95c4591602480830192602092919082900301818787803b15801561093f57600080fd5b505af1158015610953573d6000803e3d6000fd5b505050506040513d602081101561096957600080fd5b5051600160a060020a0316141561097f57600080fd5b6002546040805160e060020a63e7f95c45028152600481018690529051600160a060020a03909216916330c7090391839163e7f95c45916024808201926020929091908290030181600087803b1580156109d857600080fd5b505af11580156109ec573d6000803e3d6000fd5b505050506040513d6020811015610a0257600080fd5b50516040805160e060020a63ffffffff8516028152600160a060020a039092166004830152602482018790525160448083019260209291908290030181600087803b158015610a5057600080fd5b505af1158015610a64573d6000803e3d6000fd5b505050506040513d6020811015610a7a57600080fd5b50519392505050565b60008060008060008060006060600260009054906101000a9004600160a060020a0316600160a060020a031663762fdc0c89896040518363ffffffff1660e060020a0281526004018083815260200182815260200192505050600060405180830381600087803b158015610af657600080fd5b505af1158015610b0a573d6000803e3d6000fd5b505050506040513d6000823e601f3d908101601f191682016040526060811015610b3357600080fd5b810190808051640100000000811115610b4b57600080fd5b82016020810184811115610b5e57600080fd5b8151640100000000811182820187101715610b7857600080fd5b5050929190602001805190602001909291908051906020019092919050505090505080915050600260009054906101000a9004600160a060020a0316600160a060020a0316633bdf58788a6040518263ffffffff1660e060020a0281526004018082815260200191505060e060405180830381600087803b158015610bfc57600080fd5b505af1158015610c10573d6000803e3d6000fd5b505050506040513d60e0811015610c2657600080fd5b508051602082015160408301516060840151608085015160a086015160c090960151949f939e50919c509a50985091965094509092509050565b600154600160a060020a03163314610c7757600080fd5b60015460008054604051600160a060020a0393841693909116917f8be0079c531659141344cd1fd0a4f28419497f9722a3daafe3b4186f6b6457e091a3600180546000805473ffffffffffffffffffffffffffffffffffffffff19908116600160a060020a03841617909155169055565b606060008215610e0657600254604080517f4cb0c7a10000000000000000000000000000000000000000000000000000000081523360048201526024810188905260448101879052600160648201529051600160a060020a0390921691634cb0c7a19160848082019260009290919082900301818387803b158015610d6c57600080fd5b505af1158015610d80573d6000803e3d6000fd5b505050506040513d6000823e601f3d908101601f191682016040908152811015610da957600080fd5b810190808051640100000000811115610dc157600080fd5b82016020810184811115610dd457600080fd5b8151856020820283011164010000000082111715610df157600080fd5b50506020909101519094509250610e80915050565b600254604080517f600cf0d90000000000000000000000000000000000000000000000000000000081523360048201526024810188905260448101879052600160648201529051600160a060020a039092169163600cf0d99160848082019260009290919082900301818387803b158015610d6c57600080fd5b935093915050565b600054600160a060020a031681565b600082818111610ea657600080fd5b6002546040805160e060020a63e7f95c45028152600481018490529051600092600160a060020a03169163e7f95c4591602480830192602092919082900301818787803b158015610ef657600080fd5b505af1158015610f0a573d6000803e3d6000fd5b505050506040513d6020811015610f2057600080fd5b5051600160a060020a03161415610f3657600080fd5b83600080600080600260009054906101000a9004600160a060020a0316600160a060020a031663e7f95c45866040518263ffffffff1660e060020a02815260040180828152602001915050602060405180830381600087803b158015610f9b57600080fd5b505af1158015610faf573d6000803e3d6000fd5b505050506040513d6020811015610fc557600080fd5b5051600254604080517f46edfd0a000000000000000000000000000000000000000000000000000000008152600481018990529051929650600160a060020a0380881633149650909116916346edfd0a916024808201926020929091908290030181600087803b15801561103857600080fd5b505af115801561104c573d6000803e3d6000fd5b505050506040513d602081101561106257600080fd5b5051600254604080517f0d95e054000000000000000000000000000000000000000000000000000000008152600160a060020a038881166004830152336024830181905292519481169092149550911691630d95e054916044808201926020929091908290030181600087803b1580156110db57600080fd5b505af11580156110ef573d6000803e3d6000fd5b505050506040513d602081101561110557600080fd5b5051905082806111125750815b8061111a5750805b151561112557600080fd5b600254604080517f602b7001000000000000000000000000000000000000000000000000000000008152336004820152602481018c90528a151560448201529051600160a060020a039092169163602b70019160648082019260009290919082900301818387803b15801561119957600080fd5b505af11580156111ad573d6000803e3d6000fd5b5050604080513381528b1515602082015281518d94507fa8b03d10e96b23d3ed7630fcc9e32aec81ef79975e8d1345dd9e98306b73805393509081900390910190a250600198975050505050505050565b600154600160a060020a031681565b600080600087876000600260009054906101000a9004600160a060020a0316600160a060020a03166365de1eb3846040518263ffffffff1660e060020a02815260040180828152602001915050600060405180830381600087803b15801561127457600080fd5b505af1158015611288573d6000803e3d6000fd5b505050506040513d6000823e601f3d908101601f1916820160405260808110156112b157600080fd5b8101908080516401000000008111156112c957600080fd5b820160208101848111156112dc57600080fd5b81516401000000008111828201871017156112f657600080fd5b505050606001519250505080151561130d57600080fd5b600254604080517f6b65a83400000000000000000000000000000000000000000000000000000000815260048101869052602481018590529051600160a060020a0390921691636b65a834916044808201926020929091908290030181600087803b15801561137b57600080fd5b505af115801561138f573d6000803e3d6000fd5b505050506040513d60208110156113a557600080fd5b505115156113b257600080fd5b8888808060200260200160405190810160405280939291908181526020018383602002808284375060009450505050505b815181101561144357600082828151811015156113fc57fe5b602090810290910101511161141057600080fd5b611430828281518110151561142157fe5b90602001906020020151611803565b151561143b57600080fd5b6001016113e3565b600260009054906101000a9004600160a060020a0316600160a060020a03166365de1eb38e6040518263ffffffff1660e060020a02815260040180828152602001915050600060405180830381600087803b1580156114a157600080fd5b505af11580156114b5573d6000803e3d6000fd5b505050506040513d6000823e601f3d908101601f1916820160405260808110156114de57600080fd5b8101908080516401000000008111156114f657600080fd5b8201602081018481111561150957600080fd5b815164010000000081118282018710171561152357600080fd5b5050929190602001805190602001909291908051906020019092919080519060200190929190505050505097505061158d8d888e8e8e808060200260200160405190810160405280939291908181526020018383602002808284378201915050505050508d611941565b955085151561159b57600080fd5b8b87600160a060020a031633600160a060020a03167f378b913ef532468f5ca14ee9e03c0b47e22440edd666fd7fcb4b7f146c1b752a8e8e8e604051808060200183815260200182810382528585828181526020019250602002808284376040519201829003965090945050505050a45060019c9b505050505050505050505050565b600054600160a060020a0316331461163557600080fd5b6001805473ffffffffffffffffffffffffffffffffffffffff1916600160a060020a0392909216919091179055565b6002546040805160e060020a63e7f95c450281526004810187905290516116e892600160a060020a03169163e7f95c459160248083019260209291908290030181600087803b1580156116b657600080fd5b505af11580156116ca573d6000803e3d6000fd5b505050506040513d60208110156116e057600080fd5b505185611d33565b600254604080517fbbb7eb64000000000000000000000000000000000000000000000000000000008152600481018690526024810185905260448101849052600160648201529051600160a060020a039092169163bbb7eb649160848082019260009290919082900301818387803b15801561176357600080fd5b505af1158015611777573d6000803e3d6000fd5b5050600254604080517f491a7904000000000000000000000000000000000000000000000000000000008152600481018990526000602482018190529151600160a060020a03909316945063491a790493506044808201939182900301818387803b1580156117e557600080fd5b505af11580156117f9573d6000803e3d6000fd5b5050505050505050565b60006127108204600a60648085049190910690840683831080611827575060008211155b806118325750600c82115b8061183e575060008111155b806118495750601f81115b156118575760009350611939565b81600114806118665750816003145b806118715750816005145b8061187c5750816007145b806118875750816008145b80611892575081600a145b8061189d575081600c145b156118ab5760019350611939565b600483061580156118be57506064830615155b806118cb57506101908306155b1561190c578160021480156118f5575080601c14806118ea575080601e145b806118f5575080601f145b156119035760009350611939565b60019350611939565b8160021480156118f5575080601d14806118ea575080601e14806118f5575080601f141561190357600093505b505050919050565b6000606080600080600080600260009054906101000a9004600160a060020a0316600160a060020a031663644e8b248d8c8c8c6040518563ffffffff1660e060020a0281526004018085815260200184815260200180602001838152602001828103825284818151815260200191508051906020019060200280838360005b838110156119d85781810151838201526020016119c0565b5050505090500195505050505050600060405180830381600087803b158015611a0057600080fd5b505af1158015611a14573d6000803e3d6000fd5b505050506040513d6000823e601f3d908101601f191682016040908152811015611a3d57600080fd5b810190808051640100000000811115611a5557600080fd5b82016020810184811115611a6857600080fd5b8151856020820283011164010000000082111715611a8557600080fd5b50509291906020018051640100000000811115611aa157600080fd5b82016020810184811115611ab457600080fd5b8151856020820283011164010000000082111715611ad157600080fd5b50949a50985060009750879650505050505b8851831015611b86578583815181101515611afa57fe5b9060200190602002015161ffff1660001480611b2d57508483815181101515611b1f57fe5b906020019060200201516000145b15611b3b5760009650611d24565b8483815181101515611b4957fe5b9060200190602002015184019350611b7b8c8b8b86815181101515611b6a57fe5b90602001906020020151338c611dbd565b600190920191611ae3565b871515611bd557348414611b9957600080fd5b604051600160a060020a038c169085156108fc029086906000818181858888f19350505050158015611bcf573d6000803e3d6000fd5b50611d1f565b600254604080517fa306cdeb000000000000000000000000000000000000000000000000000000008152600481018b90529051600160a060020a039092169163a306cdeb916024808201926020929091908290030181600087803b158015611c3c57600080fd5b505af1158015611c50573d6000803e3d6000fd5b505050506040513d6020811015611c6657600080fd5b50519150600160a060020a0382161515611c7f57600080fd5b50604080517f23b872dd000000000000000000000000000000000000000000000000000000008152336004820152600160a060020a038c8116602483015260448201869052915183928316916323b872dd9160648083019260209291908290030181600087803b158015611cf257600080fd5b505af1158015611d06573d6000803e3d6000fd5b505050506040513d6020811015611d1c57600080fd5b50505b600196505b50505050505095945050505050565b600254604080517f28543417000000000000000000000000000000000000000000000000000000008152600160a060020a0385811660048301526024820185905291519190921691632854341791604480830192600092919082900301818387803b158015611da157600080fd5b505af1158015611db5573d6000803e3d6000fd5b505050505050565b600254604080517fc4725577000000000000000000000000000000000000000000000000000000008152600481018890526024810187905260448101869052606481018490529051600092839283928392600160a060020a03169163c472557791608480830192606092919082900301818787803b158015611e3e57600080fd5b505af1158015611e52573d6000803e3d6000fd5b505050506040513d6060811015611e6857600080fd5b5060409081015160025482517f762fdc0c000000000000000000000000000000000000000000000000000000008152600481018d9052602481018c90529251919650600160a060020a03169163762fdc0c91604480830192600092919082900301818387803b158015611eda57600080fd5b505af1158015611eee573d6000803e3d6000fd5b505050506040513d6000823e601f3d908101601f191682016040526060811015611f1757600080fd5b810190808051640100000000811115611f2f57600080fd5b82016020810184811115611f4257600080fd5b8151640100000000811182820187101715611f5c57600080fd5b50505060409081015160025482517fc6f70370000000000000000000000000000000000000000000000000000000008152600481018f9052602481018e9052604481018d9052606481018b9052608481018a905260a481018390529251919750600160a060020a0316935063c6f70370925060c48083019260209291908290030181600087803b158015611fef57600080fd5b505af1158015612003573d6000803e3d6000fd5b505050506040513d602081101561201957600080fd5b5051600254604080517f491a790400000000000000000000000000000000000000000000000000000000815260048101849052600160a060020a038a81166024830152915193955091169163491a79049160448082019260009290919082900301818387803b15801561208b57600080fd5b505af115801561209f573d6000803e3d6000fd5b505050506120af8683600061224e565b600254604080517f65de1eb3000000000000000000000000000000000000000000000000000000008152600481018c90529051600160a060020a03909216916365de1eb39160248082019260009290919082900301818387803b15801561211557600080fd5b505af1158015612129573d6000803e3d6000fd5b505050506040513d6000823e601f3d908101601f19168201604052608081101561215257600080fd5b81019080805164010000000081111561216a57600080fd5b8201602081018481111561217d57600080fd5b815164010000000081118282018710171561219757600080fd5b5050506020015192506121b0915082905083600161224e565b600254604080517fde5dead6000000000000000000000000000000000000000000000000000000008152600481018c9052602481018b9052604481018a9052600160648201529051600160a060020a039092169163de5dead69160848082019260009290919082900301818387803b15801561222b57600080fd5b505af115801561223f573d6000803e3d6000fd5b50505050505050505050505050565b600160a060020a038316151561226357600080fd5b81151561226f57600080fd5b801561230557600254604080517f6cd44d55000000000000000000000000000000000000000000000000000000008152600160a060020a038681166004830152602482018690526000604483018190529251931692636cd44d559260648084019391929182900301818387803b1580156122e857600080fd5b505af11580156122fc573d6000803e3d6000fd5b50505050612391565b600254604080517f5ec5bc8e000000000000000000000000000000000000000000000000000000008152600160a060020a038681166004830152602482018690526000604483018190529251931692635ec5bc8e9260648084019391929182900301818387803b15801561237857600080fd5b505af115801561238c573d6000803e3d6000fd5b505050505b5050505600a165627a7a72305820f941192cf76b30838ebdc1af5c2bbe2b059259916fbabcf0ffdcdfb114a46b220029",
  "source": "pragma solidity ^0.4.24;\n\nimport \"./TripioToken.sol\";\nimport \"./TRNOwners.sol\";\n\ncontract TRNTransactions is TRNOwners {\n    /**\n     * Constructor\n     */\n    constructor() public {\n\n    }\n\n    /**\n     * This emits when rate plan is bought in batch\n     */\n    event BuyInBatch(address indexed _customer, address indexed _vendor, uint256 indexed _rpid, uint256[] _dates, uint256 _token);\n\n    /**\n     * This emits when token refund is applied \n     */\n    event ApplyRefund(address _customer, uint256 indexed _rnid, bool _isRefund);\n\n    /**\n     * This emits when refunded\n     */\n    event Refund(address _vendor, uint256 _rnid);\n\n    /**\n     * @dev Complete the buy transaction,\n     *      The inventory minus one and the room night token transfer to customer\n     * @param _vendorId The vendor account\n     * @param _rpid The vendor's rate plan id\n     * @param _date The booking date\n     * @param _customer The customer account\n     * @param _token The token Id\n     */\n    function _buy(uint256 _vendorId, uint256 _rpid, uint256 _date, address _customer, uint256 _token) private {\n        // Product room night token\n        (,,uint256 _price) = dataSource.getPrice(_vendorId, _rpid, _date, _token);\n        (,,bytes32 _ipfs) = dataSource.getRatePlan(_vendorId, _rpid);\n        uint256 rnid = dataSource.generateRoomNightToken(_vendorId, _rpid, _date, _token, _price, _ipfs);\n\n        // Give the token to `_customer`\n        dataSource.transferTokenTo(rnid, _customer);\n\n        // Record the token to `_customer` account\n        _pushRoomNight(_customer, rnid, false);\n\n        // Record the token to `_vendor` account\n        (,address vendor,,) = dataSource.getVendor(_vendorId);\n        _pushRoomNight(vendor, rnid, true);\n\n        // The inventory minus one\n        dataSource.reduceInventories(_vendorId, _rpid, _date, 1);\n    }\n\n    /**\n     * @dev Complete the buy transaction in batch,\n     *      The inventory minus one and the room night token transfer to customer\n     * @param _vendorId The vendor account\n     * @param _vendor Then vendor address\n     * @param _rpid The vendor's rate plan id\n     * @param _dates The booking date\n     * @param _token The token Id\n     */\n    function _buyInBatch(uint256 _vendorId, address _vendor, uint256 _rpid, uint256[] _dates, uint256 _token) private returns(bool) {\n        (uint16[] memory inventories, uint256[] memory values) = dataSource.getPrices(_vendorId, _rpid, _dates, _token);\n        uint256 totalValues = 0;\n        for(uint256 i = 0; i < _dates.length; i++) {\n            if(inventories[i] == 0 || values[i] == 0) {\n                return false;\n            }\n            totalValues += values[i];\n            // Transfer the room night to `msg.sender`\n            _buy(_vendorId, _rpid, _dates[i], msg.sender, _token);\n        }\n        \n        if (_token == 0) {\n            // By through ETH\n            require(msg.value == totalValues);\n\n            // Transfer the ETH to `_vendor`\n            _vendor.transfer(totalValues);\n        } else {\n            // By through other digital token\n            address tokenAddress = dataSource.tokenIndexToAddress(_token);\n            require(tokenAddress != address(0));\n\n            // This contract transfer `price.trio` from `msg.sender` account\n            TripioToken tripio = TripioToken(tokenAddress);\n            tripio.transferFrom(msg.sender, _vendor, totalValues);\n        }\n        return true;\n    }\n\n    /**\n     * Complete the refund transaction\n     * Remove the `_rnid` from the owner account and the inventory plus one\n     */\n    function _refund(uint256 _rnid, uint256 _vendorId, uint256 _rpid, uint256 _date) private {\n        // Remove the `_rnid` from the owner\n        _removeRoomNight(dataSource.roomNightIndexToOwner(_rnid), _rnid);\n\n        // The inventory plus one\n        dataSource.addInventories(_vendorId, _rpid, _date, 1);\n\n        // Change the owner of `_rnid`\n        dataSource.transferTokenTo(_rnid, address(0));\n    }\n\n    /**\n     * @dev By room nigth in batch through ETH(`_token` == 0) or other digital token(`_token != 0`)\n     *      Throw when `_rpid` not exist\n     *      Throw unless each inventory more than zero\n     *      Throw unless `msg.value` equal to `price.eth`\n     *      This method is payable, can accept ETH transfer\n     * @param _vendorId The vendor Id\n     * @param _rpid The _vendor's rate plan id\n     * @param _dates The booking dates\n     * @param _token The digital currency token \n     */\n    function buyInBatch(uint256 _vendorId, uint256 _rpid, uint256[] _dates, uint256 _token) \n        external\n        payable\n        ratePlanExist(_vendorId, _rpid)\n        validDates(_dates)\n        returns(bool) {\n        \n        (,address vendor,,) = dataSource.getVendor(_vendorId);\n        \n        bool result = _buyInBatch(_vendorId, vendor, _rpid, _dates, _token);\n        \n        require(result);\n\n        // Event\n        emit BuyInBatch(msg.sender, vendor, _rpid, _dates, _token);\n        return true;\n    }\n\n    /**\n     * @dev Apply room night refund\n     *      Throw unless `_rnid` is valid\n     *      Throw unless `_rnid` can transfer\n     * @param _rnid room night identifier\n     * @param _isRefund if `true` the `_rnid` can transfer else not\n     */\n    function applyRefund(uint256 _rnid, bool _isRefund) \n        external\n        validToken(_rnid)\n        canTransfer(_rnid)\n        returns(bool) {\n        dataSource.updateRefundApplications(msg.sender, _rnid, _isRefund);\n\n        // Event\n        emit ApplyRefund(msg.sender, _rnid, _isRefund);\n        return true;\n    }\n\n    /**\n     * @dev Whether the `_rnid` is in refund applications\n     * @param _rnid room night identifier\n     */\n    function isRefundApplied(uint256 _rnid) \n        external\n        view\n        validToken(_rnid) returns(bool) {\n        return dataSource.refundApplications(dataSource.roomNightIndexToOwner(_rnid), _rnid);\n    }\n\n    /**\n     * @dev Refund through ETH or other digital token, give the room night ETH/TOKEN to customer and take back inventory\n     *      Throw unless `_rnid` is valid\n     *      Throw unless `msg.sender` is vendor\n     *      Throw unless the refund application is true\n     *      Throw unless the `msg.value` is equal to `roomnight.eth`\n     * @param _rnid room night identifier\n     */\n    function refund(uint256 _rnid) \n        external\n        payable\n        validToken(_rnid) \n        returns(bool) {\n        // Refund application is true\n        require(dataSource.refundApplications(dataSource.roomNightIndexToOwner(_rnid), _rnid));\n\n        // The `msg.sender` is the vendor of the room night.\n        (uint256 vendorId,uint256 rpid,uint256 token,uint256 price,,uint256 date,) = dataSource.roomnights(_rnid);\n        (,address vendor,,) = dataSource.getVendor(vendorId);\n        require(msg.sender == vendor);\n\n        address ownerAddress = dataSource.roomNightIndexToOwner(_rnid);\n\n        if (token == 0) {\n            // Refund by ETH\n\n            // The `msg.sender` is equal to `roomnight.eth`\n            uint256 value = price;\n            require(msg.value >= value);\n\n            // Transfer the ETH to roomnight's owner\n            ownerAddress.transfer(value);\n        } else {\n            // Refund  by TRIO\n\n            // The `roomnight.trio` is more than zero\n            require(price > 0);\n\n            // This contract transfer `price.trio` from `msg.sender` account\n            TripioToken tripio = TripioToken(dataSource.tokenIndexToAddress(token));\n            tripio.transferFrom(msg.sender, ownerAddress, price);\n        }\n        // Refund\n        _refund(_rnid, vendorId, rpid, date);\n\n        // Event \n        emit Refund(msg.sender, _rnid);\n        return true;\n    }\n}",
  "sourcePath": "/Users/Kirn/Documents/Workspace/Dawn/tripio-roomnight/truffle/contracts/extensions/TRNTransactions.sol",
  "compiler": {
    "name": "solc",
    "version": "0.4.24+commit.e67f0147.Emscripten.clang"
  },
  "schemaVersion": "2.0.1",
  "updatedAt": "2018-08-31T07:11:19.184Z"
}