{
  "contractName": "TRNVendors",
  "abi": [
    {
      "constant": false,
      "inputs": [],
      "name": "acceptOwnership",
      "outputs": [],
      "payable": false,
      "stateMutability": "nonpayable",
      "type": "function"
    },
    {
      "constant": true,
      "inputs": [],
      "name": "owner",
      "outputs": [
        {
          "name": "",
          "type": "address"
        }
      ],
      "payable": false,
      "stateMutability": "view",
      "type": "function"
    },
    {
      "constant": true,
      "inputs": [],
      "name": "newOwner",
      "outputs": [
        {
          "name": "",
          "type": "address"
        }
      ],
      "payable": false,
      "stateMutability": "view",
      "type": "function"
    },
    {
      "constant": false,
      "inputs": [
        {
          "name": "_newOwner",
          "type": "address"
        }
      ],
      "name": "transferOwnership",
      "outputs": [],
      "payable": false,
      "stateMutability": "nonpayable",
      "type": "function"
    },
    {
      "inputs": [],
      "payable": false,
      "stateMutability": "nonpayable",
      "type": "constructor"
    },
    {
      "anonymous": false,
      "inputs": [
        {
          "indexed": true,
          "name": "_vendor",
          "type": "address"
        },
        {
          "indexed": false,
          "name": "_name",
          "type": "string"
        }
      ],
      "name": "VendorAdded",
      "type": "event"
    },
    {
      "anonymous": false,
      "inputs": [
        {
          "indexed": true,
          "name": "_vendor",
          "type": "address"
        }
      ],
      "name": "VendorRemoved",
      "type": "event"
    },
    {
      "anonymous": false,
      "inputs": [
        {
          "indexed": true,
          "name": "_vendor",
          "type": "address"
        },
        {
          "indexed": false,
          "name": "_valid",
          "type": "bool"
        }
      ],
      "name": "VendorValid",
      "type": "event"
    },
    {
      "anonymous": false,
      "inputs": [
        {
          "indexed": true,
          "name": "_vendor",
          "type": "address"
        },
        {
          "indexed": false,
          "name": "_name",
          "type": "string"
        }
      ],
      "name": "VendorUpdated",
      "type": "event"
    },
    {
      "anonymous": false,
      "inputs": [
        {
          "indexed": true,
          "name": "from",
          "type": "address"
        },
        {
          "indexed": true,
          "name": "to",
          "type": "address"
        }
      ],
      "name": "OwnershipTransferred",
      "type": "event"
    },
    {
      "constant": false,
      "inputs": [
        {
          "name": "_vendor",
          "type": "address"
        },
        {
          "name": "_name",
          "type": "string"
        }
      ],
      "name": "addVendor",
      "outputs": [
        {
          "name": "",
          "type": "bool"
        }
      ],
      "payable": false,
      "stateMutability": "nonpayable",
      "type": "function"
    },
    {
      "constant": false,
      "inputs": [
        {
          "name": "_vendor",
          "type": "address"
        }
      ],
      "name": "removeVendorByAddress",
      "outputs": [
        {
          "name": "",
          "type": "bool"
        }
      ],
      "payable": false,
      "stateMutability": "nonpayable",
      "type": "function"
    },
    {
      "constant": false,
      "inputs": [
        {
          "name": "_vendorId",
          "type": "uint256"
        }
      ],
      "name": "removeVendorById",
      "outputs": [
        {
          "name": "",
          "type": "bool"
        }
      ],
      "payable": false,
      "stateMutability": "nonpayable",
      "type": "function"
    },
    {
      "constant": false,
      "inputs": [
        {
          "name": "_vendorId",
          "type": "uint256"
        },
        {
          "name": "_valid",
          "type": "bool"
        }
      ],
      "name": "makeVendorValid",
      "outputs": [
        {
          "name": "",
          "type": "bool"
        }
      ],
      "payable": false,
      "stateMutability": "nonpayable",
      "type": "function"
    },
    {
      "constant": false,
      "inputs": [
        {
          "name": "_vendorId",
          "type": "uint256"
        },
        {
          "name": "_name",
          "type": "string"
        }
      ],
      "name": "updateVendorName",
      "outputs": [
        {
          "name": "",
          "type": "bool"
        }
      ],
      "payable": false,
      "stateMutability": "nonpayable",
      "type": "function"
    },
    {
      "constant": true,
      "inputs": [
        {
          "name": "_from",
          "type": "uint256"
        },
        {
          "name": "_limit",
          "type": "uint256"
        }
      ],
      "name": "getVendorIds",
      "outputs": [
        {
          "name": "",
          "type": "uint256[]"
        },
        {
          "name": "",
          "type": "uint256"
        }
      ],
      "payable": false,
      "stateMutability": "view",
      "type": "function"
    },
    {
      "constant": true,
      "inputs": [
        {
          "name": "_vendorId",
          "type": "uint256"
        }
      ],
      "name": "getVendor",
      "outputs": [
        {
          "name": "_name",
          "type": "string"
        },
        {
          "name": "_vendor",
          "type": "address"
        },
        {
          "name": "_timestamp",
          "type": "uint256"
        },
        {
          "name": "_valid",
          "type": "bool"
        }
      ],
      "payable": false,
      "stateMutability": "view",
      "type": "function"
    },
    {
      "constant": true,
      "inputs": [
        {
          "name": "_vendor",
          "type": "address"
        }
      ],
      "name": "getVendorByAddress",
      "outputs": [
        {
          "name": "_vendorId",
          "type": "uint256"
        },
        {
          "name": "_name",
          "type": "string"
        },
        {
          "name": "_timestamp",
          "type": "uint256"
        },
        {
          "name": "_valid",
          "type": "bool"
        }
      ],
      "payable": false,
      "stateMutability": "view",
      "type": "function"
    }
  ],
  "bytecode": "0x608060405234801561001057600080fd5b5060008054600160a060020a031916331790556111ff806100326000396000f3006080604052600436106100b95763ffffffff7c010000000000000000000000000000000000000000000000000000000060003504166301de7a1c81146100be5780631738c3ff146100f65780631898a1c71461010e578063408aee811461013b57806343defc101461015c5780634657d8481461020b57806365de1eb31461028157806379ba5097146102fd5780638da5cb5b14610314578063b3d4e3f214610345578063d4ee1d9014610362578063f2fde38b14610377575b600080fd5b3480156100ca57600080fd5b506100e2600480359060248035908101910135610398565b604080519115158252519081900360200190f35b34801561010257600080fd5b506100e2600435610671565b34801561011a57600080fd5b506100e260048035600160a060020a0316906024803590810191013561077a565b34801561014757600080fd5b506100e2600160a060020a03600435166109ad565b34801561016857600080fd5b5061017d600160a060020a0360043516610b0f565b60408051858152908101839052811515606082015260806020808301828152865192840192909252855160a084019187019080838360005b838110156101cd5781810151838201526020016101b5565b50505050905090810190601f1680156101fa5780820380516001836020036101000a031916815260200191505b509550505050505060405180910390f35b34801561021757600080fd5b50610226600435602435610c88565b6040518080602001838152602001828103825284818151815260200191508051906020019060200280838360005b8381101561026c578181015183820152602001610254565b50505050905001935050505060405180910390f35b34801561028d57600080fd5b50610299600435610d9c565b604051808060200185600160a060020a0316600160a060020a031681526020018481526020018315151515815260200182810382528681815181526020019150805190602001908083836000838110156101cd5781810151838201526020016101b5565b34801561030957600080fd5b50610312610e97565b005b34801561032057600080fd5b50610329610f1f565b60408051600160a060020a039092168252519081900360200190f35b34801561035157600080fd5b506100e26004356024351515610f2e565b34801561036e57600080fd5b5061032961117e565b34801561038357600080fd5b50610312600160a060020a036004351661118d565b600080548190606090600160a060020a031633146103b557600080fd5b6002546040805160e060020a6365de1eb3028152600481018990529051600160a060020a03909216916365de1eb39160248082019260009290919082900301818387803b15801561040557600080fd5b505af1158015610419573d6000803e3d6000fd5b505050506040513d6000823e601f3d908101601f19168201604052608081101561044257600080fd5b81019080805164010000000081111561045a57600080fd5b8201602081018481111561046d57600080fd5b815164010000000081118282018710171561048757600080fd5b5050506020908101516002546040805160e460020a630e7dd975028152600160a060020a0380851660048301529151939850600096509116935063e7dd975092602480830193919282900301818787803b1580156104e457600080fd5b505af11580156104f8573d6000803e3d6000fd5b505050506040513d602081101561050e57600080fd5b50511161051a57600080fd5b84848080601f016020809104026020016040519081016040528093929190818152602001838380828437820191505050505050905060008151118015610561575060c88151105b151561056c57600080fd5b600254604080517f01de7a1c000000000000000000000000000000000000000000000000000000008152600481018981526024820192835260448201889052600160a060020a03909316926301de7a1c928a928a928a9290916064018484808284378201915050945050505050600060405180830381600087803b1580156105f357600080fd5b505af1158015610607573d6000803e3d6000fd5b5050505081600160a060020a03167f5a267064c1d3bd94862199933cf0e19c0e03c66d83089c9e7abcca1585247e8586866040518080602001828103825284848281815260200192508082843760405192018290039550909350505050a250600195945050505050565b600080548190600160a060020a0316331461068b57600080fd5b6002546040805160e060020a6365de1eb3028152600481018690529051600160a060020a03909216916365de1eb39160248082019260009290919082900301818387803b1580156106db57600080fd5b505af11580156106ef573d6000803e3d6000fd5b505050506040513d6000823e601f3d908101601f19168201604052608081101561071857600080fd5b81019080805164010000000081111561073057600080fd5b8201602081018481111561074357600080fd5b815164010000000081118282018710171561075d57600080fd5b50505060200151925061077391508290506109ad565b9392505050565b60008054606090600160a060020a0316331461079557600080fd5b600160a060020a03851615156107aa57600080fd5b6002546040805160e460020a630e7dd975028152600160a060020a0388811660048301529151919092169163e7dd97509160248083019260209291908290030181600087803b1580156107fc57600080fd5b505af1158015610810573d6000803e3d6000fd5b505050506040513d602081101561082657600080fd5b50511561083257600080fd5b83838080601f016020809104026020016040519081016040528093929190818152602001838380828437820191505050505050905060008151118015610879575060c88151105b151561088457600080fd5b6002546040517fe65d9717000000000000000000000000000000000000000000000000000000008152600160a060020a03878116602483015260006044830181905260606004840190815260648401889052919093169263e65d971792889288928b929091908190608401868680828437820191505095505050505050602060405180830381600087803b15801561091b57600080fd5b505af115801561092f573d6000803e3d6000fd5b505050506040513d602081101561094557600080fd5b50506040805160208082528101859052600160a060020a038716917f3bfb2a482f27320475ccb8d79591c7fad41a601402791a4194f05e5069d0ac039187918791908190810184848082843760405192018290039550909350505050a2506001949350505050565b600080548190600160a060020a031633146109c757600080fd5b6002546040805160e460020a630e7dd975028152600160a060020a0386811660048301529151919092169163e7dd97509160248083019260209291908290030181600087803b158015610a1957600080fd5b505af1158015610a2d573d6000803e3d6000fd5b505050506040513d6020811015610a4357600080fd5b5051905060008111610a5457600080fd5b600254604080517f632261c3000000000000000000000000000000000000000000000000000000008152600481018490529051600160a060020a039092169163632261c39160248082019260009290919082900301818387803b158015610aba57600080fd5b505af1158015610ace573d6000803e3d6000fd5b5050604051600160a060020a03861692507fceb8b5081e60cbeafb2db1ed5f2ef32309a5ba1d0d74ac127be270181f297e589150600090a250600192915050565b6002546040805160e460020a630e7dd975028152600160a060020a038481166004830152915160009360609385938493919092169163e7dd975091602480830192602092919082900301818787803b158015610b6a57600080fd5b505af1158015610b7e573d6000803e3d6000fd5b505050506040513d6020811015610b9457600080fd5b50516002546040805160e060020a6365de1eb3028152600481018490529051929650600160a060020a03909116916365de1eb39160248082019260009290919082900301818387803b158015610be957600080fd5b505af1158015610bfd573d6000803e3d6000fd5b505050506040513d6000823e601f3d908101601f191682016040526080811015610c2657600080fd5b810190808051640100000000811115610c3e57600080fd5b82016020810184811115610c5157600080fd5b8151640100000000811182820187101715610c6b57600080fd5b505060408201516060909201519799909850909695509350505050565b600254604080517fafdfb8040000000000000000000000000000000000000000000000000000000081526004810185905260248101849052600160448201529051606092600092600160a060020a039091169163afdfb80491606480820192869290919082900301818387803b158015610d0157600080fd5b505af1158015610d15573d6000803e3d6000fd5b505050506040513d6000823e601f3d908101601f191682016040908152811015610d3e57600080fd5b810190808051640100000000811115610d5657600080fd5b82016020810184811115610d6957600080fd5b8151856020820283011164010000000082111715610d8657600080fd5b5050602090910151909450925050509250929050565b6002546040805160e060020a6365de1eb302815260048101849052905160609260009283928392600160a060020a0316916365de1eb3916024808301928692919082900301818387803b158015610df257600080fd5b505af1158015610e06573d6000803e3d6000fd5b505050506040513d6000823e601f3d908101601f191682016040526080811015610e2f57600080fd5b810190808051640100000000811115610e4757600080fd5b82016020810184811115610e5a57600080fd5b8151640100000000811182820187101715610e7457600080fd5b505060208201516040830151606090930151919a90995091975095509350505050565b600154600160a060020a03163314610eae57600080fd5b60015460008054604051600160a060020a0393841693909116917f8be0079c531659141344cd1fd0a4f28419497f9722a3daafe3b4186f6b6457e091a3600180546000805473ffffffffffffffffffffffffffffffffffffffff19908116600160a060020a03841617909155169055565b600054600160a060020a031681565b600080548190600160a060020a03163314610f4857600080fd5b6002546040805160e060020a6365de1eb3028152600481018790529051600160a060020a03909216916365de1eb39160248082019260009290919082900301818387803b158015610f9857600080fd5b505af1158015610fac573d6000803e3d6000fd5b505050506040513d6000823e601f3d908101601f191682016040526080811015610fd557600080fd5b810190808051640100000000811115610fed57600080fd5b8201602081018481111561100057600080fd5b815164010000000081118282018710171561101a57600080fd5b5050506020908101516002546040805160e460020a630e7dd975028152600160a060020a0380851660048301529151939750600096509116935063e7dd975092602480830193919282900301818787803b15801561107757600080fd5b505af115801561108b573d6000803e3d6000fd5b505050506040513d60208110156110a157600080fd5b5051116110ad57600080fd5b600254604080517fbff491800000000000000000000000000000000000000000000000000000000081526004810187905285151560248201529051600160a060020a039092169163bff491809160448082019260009290919082900301818387803b15801561111b57600080fd5b505af115801561112f573d6000803e3d6000fd5b50506040805186151581529051600160a060020a03851693507f2df4517cd73069b4f57ad8d15b5dc7e4a06b36ee105b8bf05d33fac03f3fe95392509081900360200190a25060019392505050565b600154600160a060020a031681565b600054600160a060020a031633146111a457600080fd5b6001805473ffffffffffffffffffffffffffffffffffffffff1916600160a060020a03929092169190911790555600a165627a7a723058208c2bbc323e3406403f2550d1ee9de70af4f9457884a6fbeb644e43fccfb0fff80029",
  "source": "pragma solidity ^0.4.24;\n\nimport \"./TRNData.sol\";\n\ncontract TRNVendors is TRNData {\n    \n    /**\n     * Constructor\n     */\n    constructor() public {\n\n    }\n\n    /**\n     * This emits when vendor is added\n     */\n    event VendorAdded(address indexed _vendor, string _name);\n\n    /**\n     * This emits when vendor is removed\n     */\n    event VendorRemoved(address indexed _vendor);\n\n    /**\n     * This emits when vendor's validation is changed\n     */\n    event VendorValid(address indexed _vendor, bool _valid);\n\n    /**\n     * This emits when vendor's name is updated\n     */\n    event VendorUpdated(address indexed _vendor, string _name);\n\n    /**\n     * @dev Add vendor to the system.\n     *      Only owner can operate\n     *      Throw when `_vendor` is equal to `address(0)`\n     *      Throw unless `_vendor` not exist.\n     *      Throw when `_name`'s length lte 0 or mte 100.\n     * @param _vendor The address of vendor\n     * @param _name The name of vendor\n     * @return Success\n     */\n    function addVendor(address _vendor, string _name) \n        external \n        onlyOwner \n        returns(bool) {\n        // _vendor is valid address\n        require(_vendor != address(0));\n        // _vendor not exists\n        require(dataSource.vendorIds(_vendor) == 0);\n        // The length of _name between 0 and 1000\n        bytes memory nameBytes = bytes(_name);\n        require(nameBytes.length > 0 && nameBytes.length < 200);\n\n        dataSource.pushVendor(_name, _vendor, false);\n    \n        // Event\n        emit VendorAdded(_vendor, _name);\n        return true;\n    }\n\n    /**\n     * @dev Remove vendor from the system by address.\n     *      Only owner can operate\n     * @param _vendor The address of vendor\n     * @return Success\n     */\n    function removeVendorByAddress(address _vendor) \n        public \n        onlyOwner \n        returns(bool) {\n        // _vendor exists\n        uint256 id = dataSource.vendorIds(_vendor);\n        require(id > 0);\n        \n        dataSource.removeVendor(id);\n        // Event\n        emit VendorRemoved(_vendor);\n        return true;\n    }\n\n    /**\n     * @dev Remove vendor from the system by Id\n     *      Only owner can operate\n     * @param _vendorId The id of vendor\n     */\n    function removeVendorById(uint256 _vendorId) \n        external \n        onlyOwner \n        returns(bool) {\n        (,address vendor,,) = dataSource.getVendor(_vendorId);\n        return removeVendorByAddress(vendor);\n    }\n\n    /**\n     * @dev Change the `_vendorId`'s validation\n     *      Only owner can operate\n     * @param _vendorId The id of vendor\n     * @param _valid The validation of vendor\n     * @return Success\n     */\n    function makeVendorValid(uint256 _vendorId, bool _valid) \n        external \n        onlyOwner \n        returns(bool) {\n        (,address vendor,,) = dataSource.getVendor(_vendorId);\n        require(dataSource.vendorIds(vendor) > 0);\n        dataSource.updateVendorValid(_vendorId, _valid);\n        \n        // Event\n        emit VendorValid(vendor, _valid);\n        return true;\n    }\n\n    /**\n     * @dev Update the `_vendorId`'s name\n     *      Only owner can operate\n     * @param _vendorId Then id of vendor\n     * @param _name The name of vendor\n     * @return Success\n     */\n    function updateVendorName(uint256 _vendorId, string _name) \n        external\n        onlyOwner\n        returns(bool) {\n        (,address vendor,,) = dataSource.getVendor(_vendorId);\n        require(dataSource.vendorIds(vendor) > 0);\n        // The length of _name between 0 and 1000\n        bytes memory nameBytes = bytes(_name);\n        require(nameBytes.length > 0 && nameBytes.length < 200);\n        dataSource.updateVendorName(_vendorId, _name);\n\n        // Event\n        emit VendorUpdated(vendor, _name);\n        return true;\n    }\n\n    /**\n     * @dev Get Vendor ids by page\n     * @param _from The begin vendorId\n     * @param _limit How many vendorIds one page\n     * @return The vendorIds and the next vendorId as tuple, the next page not exists when next eq 0\n     */\n    function getVendorIds(uint256 _from, uint256 _limit) \n        external \n        view \n        returns(uint256[], uint256){\n        return dataSource.getVendors(_from, _limit, true);\n    }\n\n    /**\n     * @dev Get Vendor by id\n     * @param _vendorId Then vendor id\n     * @return The vendor info(_name, _vendor, _timestamp, _valid)\n     */\n    function getVendor(uint256 _vendorId) \n        external \n        view \n        returns(string _name, address _vendor, uint256 _timestamp, bool _valid) {\n        (_name, _vendor, _timestamp, _valid) = dataSource.getVendor(_vendorId);\n    }\n\n    /**\n     * @dev Get Vendor by address\\\n     * @param _vendor Then vendor address\n     * @return Then vendor info(_vendorId, _name, _timestamp, _valid)\n     */\n    function getVendorByAddress(address _vendor) \n        external \n        view\n        returns(uint256 _vendorId, string _name, uint256 _timestamp, bool _valid) {\n        _vendorId = dataSource.vendorIds(_vendor);\n        (_name,, _timestamp, _valid) = dataSource.getVendor(_vendorId);\n    }\n}",
  "sourcePath": "/Users/Kirn/Documents/Workspace/Dawn/tripio-roomnight/truffle/contracts/extensions/TRNVendors.sol",
  "compiler": {
    "name": "solc",
    "version": "0.4.24+commit.e67f0147.Emscripten.clang"
  },
  "schemaVersion": "2.0.1",
  "updatedAt": "2018-08-31T07:11:19.216Z"
}